{
	"format": "sphinx-sol-ct-artifact-1",
	"address": "0x8f1a249e79030d4fac2102aa33e36e6676e048e4",
	"sourceName": "node_modules/@bananapus/suckers-v6/src/libraries/CCIPHelper.sol",
	"contractName": "CCIPHelper",
	"chainId": "0x66eee",
	"abi": [
		{
			"type": "function",
			"name": "ARB_ID",
			"inputs": [],
			"outputs": [
				{
					"name": "",
					"type": "uint256",
					"internalType": "uint256"
				}
			],
			"stateMutability": "view"
		},
		{
			"type": "function",
			"name": "ARB_LINK",
			"inputs": [],
			"outputs": [
				{
					"name": "",
					"type": "address",
					"internalType": "address"
				}
			],
			"stateMutability": "view"
		},
		{
			"type": "function",
			"name": "ARB_ROUTER",
			"inputs": [],
			"outputs": [
				{
					"name": "",
					"type": "address",
					"internalType": "address"
				}
			],
			"stateMutability": "view"
		},
		{
			"type": "function",
			"name": "ARB_SEL",
			"inputs": [],
			"outputs": [
				{
					"name": "",
					"type": "uint64",
					"internalType": "uint64"
				}
			],
			"stateMutability": "view"
		},
		{
			"type": "function",
			"name": "ARB_SEP_ID",
			"inputs": [],
			"outputs": [
				{
					"name": "",
					"type": "uint256",
					"internalType": "uint256"
				}
			],
			"stateMutability": "view"
		},
		{
			"type": "function",
			"name": "ARB_SEP_LINK",
			"inputs": [],
			"outputs": [
				{
					"name": "",
					"type": "address",
					"internalType": "address"
				}
			],
			"stateMutability": "view"
		},
		{
			"type": "function",
			"name": "ARB_SEP_ROUTER",
			"inputs": [],
			"outputs": [
				{
					"name": "",
					"type": "address",
					"internalType": "address"
				}
			],
			"stateMutability": "view"
		},
		{
			"type": "function",
			"name": "ARB_SEP_SEL",
			"inputs": [],
			"outputs": [
				{
					"name": "",
					"type": "uint64",
					"internalType": "uint64"
				}
			],
			"stateMutability": "view"
		},
		{
			"type": "function",
			"name": "ARB_SEP_WETH",
			"inputs": [],
			"outputs": [
				{
					"name": "",
					"type": "address",
					"internalType": "address"
				}
			],
			"stateMutability": "view"
		},
		{
			"type": "function",
			"name": "ARB_WETH",
			"inputs": [],
			"outputs": [
				{
					"name": "",
					"type": "address",
					"internalType": "address"
				}
			],
			"stateMutability": "view"
		},
		{
			"type": "function",
			"name": "AVA_ID",
			"inputs": [],
			"outputs": [
				{
					"name": "",
					"type": "uint256",
					"internalType": "uint256"
				}
			],
			"stateMutability": "view"
		},
		{
			"type": "function",
			"name": "AVA_ROUTER",
			"inputs": [],
			"outputs": [
				{
					"name": "",
					"type": "address",
					"internalType": "address"
				}
			],
			"stateMutability": "view"
		},
		{
			"type": "function",
			"name": "AVA_SEL",
			"inputs": [],
			"outputs": [
				{
					"name": "",
					"type": "uint64",
					"internalType": "uint64"
				}
			],
			"stateMutability": "view"
		},
		{
			"type": "function",
			"name": "AVA_WETH",
			"inputs": [],
			"outputs": [
				{
					"name": "",
					"type": "address",
					"internalType": "address"
				}
			],
			"stateMutability": "view"
		},
		{
			"type": "function",
			"name": "BASE_ID",
			"inputs": [],
			"outputs": [
				{
					"name": "",
					"type": "uint256",
					"internalType": "uint256"
				}
			],
			"stateMutability": "view"
		},
		{
			"type": "function",
			"name": "BASE_LINK",
			"inputs": [],
			"outputs": [
				{
					"name": "",
					"type": "address",
					"internalType": "address"
				}
			],
			"stateMutability": "view"
		},
		{
			"type": "function",
			"name": "BASE_ROUTER",
			"inputs": [],
			"outputs": [
				{
					"name": "",
					"type": "address",
					"internalType": "address"
				}
			],
			"stateMutability": "view"
		},
		{
			"type": "function",
			"name": "BASE_SEL",
			"inputs": [],
			"outputs": [
				{
					"name": "",
					"type": "uint64",
					"internalType": "uint64"
				}
			],
			"stateMutability": "view"
		},
		{
			"type": "function",
			"name": "BASE_SEP_ID",
			"inputs": [],
			"outputs": [
				{
					"name": "",
					"type": "uint256",
					"internalType": "uint256"
				}
			],
			"stateMutability": "view"
		},
		{
			"type": "function",
			"name": "BASE_SEP_LINK",
			"inputs": [],
			"outputs": [
				{
					"name": "",
					"type": "address",
					"internalType": "address"
				}
			],
			"stateMutability": "view"
		},
		{
			"type": "function",
			"name": "BASE_SEP_ROUTER",
			"inputs": [],
			"outputs": [
				{
					"name": "",
					"type": "address",
					"internalType": "address"
				}
			],
			"stateMutability": "view"
		},
		{
			"type": "function",
			"name": "BASE_SEP_SEL",
			"inputs": [],
			"outputs": [
				{
					"name": "",
					"type": "uint64",
					"internalType": "uint64"
				}
			],
			"stateMutability": "view"
		},
		{
			"type": "function",
			"name": "BASE_SEP_WETH",
			"inputs": [],
			"outputs": [
				{
					"name": "",
					"type": "address",
					"internalType": "address"
				}
			],
			"stateMutability": "view"
		},
		{
			"type": "function",
			"name": "BASE_WETH",
			"inputs": [],
			"outputs": [
				{
					"name": "",
					"type": "address",
					"internalType": "address"
				}
			],
			"stateMutability": "view"
		},
		{
			"type": "function",
			"name": "BNB_ID",
			"inputs": [],
			"outputs": [
				{
					"name": "",
					"type": "uint256",
					"internalType": "uint256"
				}
			],
			"stateMutability": "view"
		},
		{
			"type": "function",
			"name": "BNB_ROUTER",
			"inputs": [],
			"outputs": [
				{
					"name": "",
					"type": "address",
					"internalType": "address"
				}
			],
			"stateMutability": "view"
		},
		{
			"type": "function",
			"name": "BNB_SEL",
			"inputs": [],
			"outputs": [
				{
					"name": "",
					"type": "uint64",
					"internalType": "uint64"
				}
			],
			"stateMutability": "view"
		},
		{
			"type": "function",
			"name": "BNB_WETH",
			"inputs": [],
			"outputs": [
				{
					"name": "",
					"type": "address",
					"internalType": "address"
				}
			],
			"stateMutability": "view"
		},
		{
			"type": "function",
			"name": "ETH_ID",
			"inputs": [],
			"outputs": [
				{
					"name": "",
					"type": "uint256",
					"internalType": "uint256"
				}
			],
			"stateMutability": "view"
		},
		{
			"type": "function",
			"name": "ETH_LINK",
			"inputs": [],
			"outputs": [
				{
					"name": "",
					"type": "address",
					"internalType": "address"
				}
			],
			"stateMutability": "view"
		},
		{
			"type": "function",
			"name": "ETH_ROUTER",
			"inputs": [],
			"outputs": [
				{
					"name": "",
					"type": "address",
					"internalType": "address"
				}
			],
			"stateMutability": "view"
		},
		{
			"type": "function",
			"name": "ETH_SEL",
			"inputs": [],
			"outputs": [
				{
					"name": "",
					"type": "uint64",
					"internalType": "uint64"
				}
			],
			"stateMutability": "view"
		},
		{
			"type": "function",
			"name": "ETH_SEP_ID",
			"inputs": [],
			"outputs": [
				{
					"name": "",
					"type": "uint256",
					"internalType": "uint256"
				}
			],
			"stateMutability": "view"
		},
		{
			"type": "function",
			"name": "ETH_SEP_LINK",
			"inputs": [],
			"outputs": [
				{
					"name": "",
					"type": "address",
					"internalType": "address"
				}
			],
			"stateMutability": "view"
		},
		{
			"type": "function",
			"name": "ETH_SEP_ROUTER",
			"inputs": [],
			"outputs": [
				{
					"name": "",
					"type": "address",
					"internalType": "address"
				}
			],
			"stateMutability": "view"
		},
		{
			"type": "function",
			"name": "ETH_SEP_SEL",
			"inputs": [],
			"outputs": [
				{
					"name": "",
					"type": "uint64",
					"internalType": "uint64"
				}
			],
			"stateMutability": "view"
		},
		{
			"type": "function",
			"name": "ETH_SEP_WETH",
			"inputs": [],
			"outputs": [
				{
					"name": "",
					"type": "address",
					"internalType": "address"
				}
			],
			"stateMutability": "view"
		},
		{
			"type": "function",
			"name": "ETH_WETH",
			"inputs": [],
			"outputs": [
				{
					"name": "",
					"type": "address",
					"internalType": "address"
				}
			],
			"stateMutability": "view"
		},
		{
			"type": "function",
			"name": "OP_ID",
			"inputs": [],
			"outputs": [
				{
					"name": "",
					"type": "uint256",
					"internalType": "uint256"
				}
			],
			"stateMutability": "view"
		},
		{
			"type": "function",
			"name": "OP_LINK",
			"inputs": [],
			"outputs": [
				{
					"name": "",
					"type": "address",
					"internalType": "address"
				}
			],
			"stateMutability": "view"
		},
		{
			"type": "function",
			"name": "OP_ROUTER",
			"inputs": [],
			"outputs": [
				{
					"name": "",
					"type": "address",
					"internalType": "address"
				}
			],
			"stateMutability": "view"
		},
		{
			"type": "function",
			"name": "OP_SEL",
			"inputs": [],
			"outputs": [
				{
					"name": "",
					"type": "uint64",
					"internalType": "uint64"
				}
			],
			"stateMutability": "view"
		},
		{
			"type": "function",
			"name": "OP_SEP_ID",
			"inputs": [],
			"outputs": [
				{
					"name": "",
					"type": "uint256",
					"internalType": "uint256"
				}
			],
			"stateMutability": "view"
		},
		{
			"type": "function",
			"name": "OP_SEP_LINK",
			"inputs": [],
			"outputs": [
				{
					"name": "",
					"type": "address",
					"internalType": "address"
				}
			],
			"stateMutability": "view"
		},
		{
			"type": "function",
			"name": "OP_SEP_ROUTER",
			"inputs": [],
			"outputs": [
				{
					"name": "",
					"type": "address",
					"internalType": "address"
				}
			],
			"stateMutability": "view"
		},
		{
			"type": "function",
			"name": "OP_SEP_SEL",
			"inputs": [],
			"outputs": [
				{
					"name": "",
					"type": "uint64",
					"internalType": "uint64"
				}
			],
			"stateMutability": "view"
		},
		{
			"type": "function",
			"name": "OP_SEP_WETH",
			"inputs": [],
			"outputs": [
				{
					"name": "",
					"type": "address",
					"internalType": "address"
				}
			],
			"stateMutability": "view"
		},
		{
			"type": "function",
			"name": "OP_WETH",
			"inputs": [],
			"outputs": [
				{
					"name": "",
					"type": "address",
					"internalType": "address"
				}
			],
			"stateMutability": "view"
		},
		{
			"type": "function",
			"name": "POLY_ID",
			"inputs": [],
			"outputs": [
				{
					"name": "",
					"type": "uint256",
					"internalType": "uint256"
				}
			],
			"stateMutability": "view"
		},
		{
			"type": "function",
			"name": "POLY_ROUTER",
			"inputs": [],
			"outputs": [
				{
					"name": "",
					"type": "address",
					"internalType": "address"
				}
			],
			"stateMutability": "view"
		},
		{
			"type": "function",
			"name": "POLY_SEL",
			"inputs": [],
			"outputs": [
				{
					"name": "",
					"type": "uint64",
					"internalType": "uint64"
				}
			],
			"stateMutability": "view"
		},
		{
			"type": "function",
			"name": "POLY_WETH",
			"inputs": [],
			"outputs": [
				{
					"name": "",
					"type": "address",
					"internalType": "address"
				}
			],
			"stateMutability": "view"
		},
		{
			"type": "function",
			"name": "TEMPO_ID",
			"inputs": [],
			"outputs": [
				{
					"name": "",
					"type": "uint256",
					"internalType": "uint256"
				}
			],
			"stateMutability": "view"
		},
		{
			"type": "function",
			"name": "TEMPO_LINK",
			"inputs": [],
			"outputs": [
				{
					"name": "",
					"type": "address",
					"internalType": "address"
				}
			],
			"stateMutability": "view"
		},
		{
			"type": "function",
			"name": "TEMPO_MOD_ID",
			"inputs": [],
			"outputs": [
				{
					"name": "",
					"type": "uint256",
					"internalType": "uint256"
				}
			],
			"stateMutability": "view"
		},
		{
			"type": "function",
			"name": "TEMPO_MOD_LINK",
			"inputs": [],
			"outputs": [
				{
					"name": "",
					"type": "address",
					"internalType": "address"
				}
			],
			"stateMutability": "view"
		},
		{
			"type": "function",
			"name": "TEMPO_MOD_ROUTER",
			"inputs": [],
			"outputs": [
				{
					"name": "",
					"type": "address",
					"internalType": "address"
				}
			],
			"stateMutability": "view"
		},
		{
			"type": "function",
			"name": "TEMPO_MOD_SEL",
			"inputs": [],
			"outputs": [
				{
					"name": "",
					"type": "uint64",
					"internalType": "uint64"
				}
			],
			"stateMutability": "view"
		},
		{
			"type": "function",
			"name": "TEMPO_MOD_WETH",
			"inputs": [],
			"outputs": [
				{
					"name": "",
					"type": "address",
					"internalType": "address"
				}
			],
			"stateMutability": "view"
		},
		{
			"type": "function",
			"name": "TEMPO_ROUTER",
			"inputs": [],
			"outputs": [
				{
					"name": "",
					"type": "address",
					"internalType": "address"
				}
			],
			"stateMutability": "view"
		},
		{
			"type": "function",
			"name": "TEMPO_SEL",
			"inputs": [],
			"outputs": [
				{
					"name": "",
					"type": "uint64",
					"internalType": "uint64"
				}
			],
			"stateMutability": "view"
		},
		{
			"type": "function",
			"name": "TEMPO_WETH",
			"inputs": [],
			"outputs": [
				{
					"name": "",
					"type": "address",
					"internalType": "address"
				}
			],
			"stateMutability": "view"
		},
		{
			"type": "function",
			"name": "linkOfChain",
			"inputs": [
				{
					"name": "chainId",
					"type": "uint256",
					"internalType": "uint256"
				}
			],
			"outputs": [
				{
					"name": "link",
					"type": "address",
					"internalType": "address"
				}
			],
			"stateMutability": "pure"
		},
		{
			"type": "function",
			"name": "wethOfChain",
			"inputs": [
				{
					"name": "chainId",
					"type": "uint256",
					"internalType": "uint256"
				}
			],
			"outputs": [
				{
					"name": "weth",
					"type": "address",
					"internalType": "address"
				}
			],
			"stateMutability": "pure"
		},
		{
			"type": "error",
			"name": "CCIPHelper_UnsupportedChain",
			"inputs": [
				{
					"name": "chainId",
					"type": "uint256",
					"internalType": "uint256"
				}
			]
		}
	],
	"args": [],
	"solcInputHash": "4022d124caaad53c169a67f3ccd325fe",
	"bytecode": "0x60808060405234601957610dde908161001e823930815050f35b5f80fdfe6080806040526004361015610012575f80fd5b5f3560e01c90816298898814610a765750806301a252de14610a5e57806304d2678314610a415780630571092414610a2a5780630595179a14610a0d5780631d48cd86146109e45780632833ed6c146109c75780632f2fd3391461099e5780632f56e82a146106e15780632f8eeb3d14610985578063385cb3c61461095c578063399fc6dc146109445780633c67de7a14610927578063426daabb146108fe57806343bb8a20146108d55780634894a478146108ac5780634a878320146108835780634d6b95c01461086d5780634f9bfaa1146108445780635557df791461081b578063557d61f81461080457806357aebd04146107e757806360a5f422146107d05780636141455e146107a7578063649d73851461077e57806364a4b549146103705780638064952a14610755578063859578bb146107385780638a42d26f1461070f5780638f491dba146106e65780638f956fbd146106e157806390b4203a146106cb5780639304b372146106a257806399134ace146106775780639b694e18146103705780639bb308d01461065f578063a4566da214610642578063a788620314610619578063a8a2f6c5146105f0578063a9315627146105d3578063ac1a63a1146105aa578063ad5ce65714610581578063ae56bd4114610564578063b07e429714610370578063b25a02561461053b578063b40f6de314610512578063ba34a1b5146104e9578063be461f9e146104c0578063bf2bb3cf146104a3578063bf97c26d1461047a578063c7f6476a1461045d578063c8ce672314610440578063cb12326a14610423578063cfaf02cb1461040b578063cfc7c029146103f5578063d150aff8146103cc578063d72664c4146103a3578063dae764a61461038c578063dd431bb214610375578063e337d2df14610370578063e540a64a14610347578063e625a8ea14610331578063ea3485aa146103085763fa59f02d146102db575f80fd5b5f36600319011261030457602060405173b1d4538b4571d411f07960ef2838ce337fe1e80e8152f35b5f80fd5b5f36600319011261030457602060405173881e3a65b4d4a04dd529061dd0071cf975f58bcd8152f35b5f36600319011261030457602060405160018152f35b5f3660031901126103045760206040517388fb150bdc53a65fe94dea0c9ba0a6daf8c6e1968152f35b610ac6565b5f36600319011261030457602060405161a86a8152f35b5f3660031901126103045760206040516121058152f35b5f36600319011261030457602060405173b31f66aa3c1e785363f0875a1b74e27b85fd66c78152f35b5f366003190112610304576020604051732a9c5afb0d0e4bab2bcdae109ec4b0c4be15a1658152f35b5f36600319011261030457602060405160898152f35b5f36600319011261030457602060405162014a348152f35b5f36600319011261030457602060405167383a1891ae1915b18152f35b5f36600319011261030457602060405167dda641cfe44aff828152f35b5f3660031901126103045760206040516744ae84d8e9a374448152f35b5f36600319011261030457602060405173c5d538c96d6fee7e6dfe7248b32898087b22ba798152f35b5f36600319011261030457602060405167756034264d300d938152f35b5f36600319011261030457602060405173097d90c9d3e0b50ca60e1ae45f6a81010f9fb5348152f35b5f36600319011261030457602060405173849c5ed5a80f5b408dd4969b78c2c8fdf0565bfe8152f35b5f36600319011261030457602060405173bb2d3310e4232085d432a2e04b2ac09c46f634e48152f35b5f366003190112610304576020604051733206695cae29952f4b0c22a169725a865bc8ce0f8152f35b5f36600319011261030457602060405167650d9773a4c17e168152f35b5f3660031901126103045760206040517382af49447d8a07e3bd95bd0d56f35241523fbab18152f35b5f36600319011261030457602060405173f97f4df75117a78c1a5a0dbb814af92458539fb48152f35b5f3660031901126103045760206040516748810ec3e431431f8152f35b5f36600319011261030457602060405173bb4cdb9cbd36b01bd1cbaebf2de08d9173bc095c8152f35b5f36600319011261030457602060405173350a791bfc2c21f9ed5d10980dad2e2638ffa7f68152f35b5f3660031901126103045760206040516733d343f77863cab88152f35b5f36600319011261030457602060405162066eee8152f35b6020366003190112610304576020610690600435610c4b565b6040516001600160a01b039091168152f35b5f3660031901126103045760206040517380226fc0ee2b096224eeac085bb9a8cba1146f7d8152f35b5f36600319011261030457602060405160388152f35b610a9d565b5f3660031901126103045760206040517334b03cb9086d7d758ac55af71584f81a598759fe8152f35b5f36600319011261030457602060405173f4c7e640eda248ef95972845a62bdc74237805db8152f35b5f36600319011261030457602060405167de41ba4fc9d91ad98152f35b5f36600319011261030457602060405173d3e53ccee3688aaee5c9118ef5fe24eb423aa56f8152f35b5f36600319011261030457602060405173114a20a10b43d4115e5aeef7345a1a71d2a60c578152f35b5f366003190112610304576020604051730bf3de8c5d3e8a2b34d2beeb17abfcebaf363a598152f35b5f36600319011261030457602060405161a5bf8152f35b5f3660031901126103045760206040516745849994fc9c7b158152f35b5f36600319011261030457602060405161a4b18152f35b5f3660031901126103045760206040517315c03488b29e27d62baf10e30b0c474bf60e02648152f35b5f36600319011261030457602060405173514910771af9ca656af840dff83e8264ecf986ca8152f35b5f366003190112610304576020604051600a8152f35b5f36600319011261030457602060405173a132f089492cce5f1d79483a9e4552f37266ed018152f35b5f36600319011261030457602060405173e591bf0a0cf924a0674d7792db046b23cebf5f348152f35b5f36600319011261030457602060405173c02aaa39b223fe8d0a0e5c4f27ead9083c756cc28152f35b5f36600319011261030457602060405173d3b06cebf099ce7da4accf578aaebfdbd6e88a938152f35b5f36600319011261030457602060405167594862ae1802b3d58152f35b5f36600319011261030457602060405162aa37dc8152f35b5f36600319011261030457602060405173141fa059441e0ca23ce184b6a78bafd2a517dde88152f35b6020366003190112610304576020610690600435610ae3565b5f36600319011261030457602060405173779877a7b0d9e8603169ddbd7836e478b46247898152f35b5f366003190112610304576020604051678f90b8876dee65388152f35b5f366003190112610304576020604051730d500b1d8e8ef31e21c99d1db9a6444d3adf12708152f35b5f366003190112610304576020604051679d70576d8e253bcf8152f35b5f3660031901126103045760206040516110798152f35b5f36600319011261030457602060405167304611b6affba76a8152f35b5f36600319011261030457602060405162aa36a78152f35b5f366003190112610304578073eab080c724587ffc9f2eff82e36ee4fb2777495960209252f35b5f36600319011261030457602060405173e4ab69c077896252fafbd49efd26b5d171a324108152f35b5f366003190112610304576040516006602160991b018152602090f35b60018103610b04575073514910771af9ca656af840dff83e8264ecf986ca90565b600a8103610b25575073350a791bfc2c21f9ed5d10980dad2e2638ffa7f690565b61a4b18103610b47575073f97f4df75117a78c1a5a0dbb814af92458539fb490565b6121058103610b6957507388fb150bdc53a65fe94dea0c9ba0a6daf8c6e19690565b62aa36a78103610b8c575073779877a7b0d9e8603169ddbd7836e478b462478990565b62aa37dc8103610baf575073e4ab69c077896252fafbd49efd26b5d171a3241090565b62066eee8103610bd2575073b1d4538b4571d411f07960ef2838ce337fe1e80e90565b62014a348103610bf5575073e4ab69c077896252fafbd49efd26b5d171a3241090565b6110798103610c1757507315c03488b29e27d62baf10e30b0c474bf60e026490565b61a5bf8103610c39575073eab080c724587ffc9f2eff82e36ee4fb2777495990565b63da7e115f60e01b5f5260045260245ffd5b60018103610c6c575073c02aaa39b223fe8d0a0e5c4f27ead9083c756cc290565b600a8103610c8057506006602160991b0190565b61a4b18103610ca257507382af49447d8a07e3bd95bd0d56f35241523fbab190565b60898103610cc35750730d500b1d8e8ef31e21c99d1db9a6444d3adf127090565b61a86a8103610ce5575073b31f66aa3c1e785363f0875a1b74e27b85fd66c790565b60388103610d06575073bb4cdb9cbd36b01bd1cbaebf2de08d9173bc095c90565b6121058103610d1b57506006602160991b0190565b62aa36a78103610d3e575073097d90c9d3e0b50ca60e1ae45f6a81010f9fb53490565b62066eee8103610d61575073e591bf0a0cf924a0674d7792db046b23cebf5f3490565b62aa37dc8103610d7757506006602160991b0190565b62014a348103610d8d57506006602160991b0190565b6110798103610daf575073c5d538c96d6fee7e6dfe7248b32898087b22ba7990565b61a5bf8103610c39575073bb2d3310e4232085d432a2e04b2ac09c46f634e49056fea164736f6c634300081c000a",
	"gitCommit": "npm:@bananapus/suckers-v6@1.0.2",
	"gitDirty": false,
	"history": []
}