{
	"format": "sphinx-sol-ct-artifact-1",
	"address": "0xf044d9f16c4bce21bd75227561bb3d1838ce8651",
	"sourceName": "node_modules/@bananapus/suckers-v6/src/JBArbitrumSucker.sol",
	"contractName": "JBArbitrumSucker",
	"chainId": "0x66eee",
	"abi": [
		{
			"type": "constructor",
			"inputs": [
				{
					"name": "deployer",
					"type": "address",
					"internalType": "contract JBArbitrumSuckerDeployer"
				},
				{
					"name": "directory",
					"type": "address",
					"internalType": "contract IJBDirectory"
				},
				{
					"name": "permissions",
					"type": "address",
					"internalType": "contract IJBPermissions"
				},
				{
					"name": "tokens",
					"type": "address",
					"internalType": "contract IJBTokens"
				},
				{
					"name": "feeProjectId",
					"type": "uint256",
					"internalType": "uint256"
				},
				{
					"name": "registry",
					"type": "address",
					"internalType": "contract IJBSuckerRegistry"
				},
				{
					"name": "trustedForwarder",
					"type": "address",
					"internalType": "address"
				}
			],
			"stateMutability": "nonpayable"
		},
		{
			"type": "receive",
			"stateMutability": "payable"
		},
		{
			"type": "function",
			"name": "ARBINBOX",
			"inputs": [],
			"outputs": [
				{
					"name": "",
					"type": "address",
					"internalType": "contract IInbox"
				}
			],
			"stateMutability": "view"
		},
		{
			"type": "function",
			"name": "DIRECTORY",
			"inputs": [],
			"outputs": [
				{
					"name": "",
					"type": "address",
					"internalType": "contract IJBDirectory"
				}
			],
			"stateMutability": "view"
		},
		{
			"type": "function",
			"name": "FEE_PROJECT_ID",
			"inputs": [],
			"outputs": [
				{
					"name": "",
					"type": "uint256",
					"internalType": "uint256"
				}
			],
			"stateMutability": "view"
		},
		{
			"type": "function",
			"name": "GATEWAYROUTER",
			"inputs": [],
			"outputs": [
				{
					"name": "",
					"type": "address",
					"internalType": "contract IArbGatewayRouter"
				}
			],
			"stateMutability": "view"
		},
		{
			"type": "function",
			"name": "LAYER",
			"inputs": [],
			"outputs": [
				{
					"name": "",
					"type": "uint8",
					"internalType": "enum JBLayer"
				}
			],
			"stateMutability": "view"
		},
		{
			"type": "function",
			"name": "MESSAGE_VERSION",
			"inputs": [],
			"outputs": [
				{
					"name": "",
					"type": "uint8",
					"internalType": "uint8"
				}
			],
			"stateMutability": "view"
		},
		{
			"type": "function",
			"name": "MESSENGER_BASE_GAS_LIMIT",
			"inputs": [],
			"outputs": [
				{
					"name": "",
					"type": "uint32",
					"internalType": "uint32"
				}
			],
			"stateMutability": "view"
		},
		{
			"type": "function",
			"name": "MESSENGER_ERC20_MIN_GAS_LIMIT",
			"inputs": [],
			"outputs": [
				{
					"name": "",
					"type": "uint32",
					"internalType": "uint32"
				}
			],
			"stateMutability": "view"
		},
		{
			"type": "function",
			"name": "PERMISSIONS",
			"inputs": [],
			"outputs": [
				{
					"name": "",
					"type": "address",
					"internalType": "contract IJBPermissions"
				}
			],
			"stateMutability": "view"
		},
		{
			"type": "function",
			"name": "PROJECTS",
			"inputs": [],
			"outputs": [
				{
					"name": "",
					"type": "address",
					"internalType": "contract IJBProjects"
				}
			],
			"stateMutability": "view"
		},
		{
			"type": "function",
			"name": "REGISTRY",
			"inputs": [],
			"outputs": [
				{
					"name": "",
					"type": "address",
					"internalType": "contract IJBSuckerRegistry"
				}
			],
			"stateMutability": "view"
		},
		{
			"type": "function",
			"name": "TOKENS",
			"inputs": [],
			"outputs": [
				{
					"name": "",
					"type": "address",
					"internalType": "contract IJBTokens"
				}
			],
			"stateMutability": "view"
		},
		{
			"type": "function",
			"name": "amountToAddToBalanceOf",
			"inputs": [
				{
					"name": "token",
					"type": "address",
					"internalType": "address"
				}
			],
			"outputs": [
				{
					"name": "",
					"type": "uint256",
					"internalType": "uint256"
				}
			],
			"stateMutability": "view"
		},
		{
			"type": "function",
			"name": "claim",
			"inputs": [
				{
					"name": "claims",
					"type": "tuple[]",
					"internalType": "struct JBClaim[]",
					"components": [
						{
							"name": "token",
							"type": "address",
							"internalType": "address"
						},
						{
							"name": "leaf",
							"type": "tuple",
							"internalType": "struct JBLeaf",
							"components": [
								{
									"name": "index",
									"type": "uint256",
									"internalType": "uint256"
								},
								{
									"name": "beneficiary",
									"type": "bytes32",
									"internalType": "bytes32"
								},
								{
									"name": "projectTokenCount",
									"type": "uint256",
									"internalType": "uint256"
								},
								{
									"name": "terminalTokenAmount",
									"type": "uint256",
									"internalType": "uint256"
								},
								{
									"name": "metadata",
									"type": "bytes32",
									"internalType": "bytes32"
								}
							]
						},
						{
							"name": "proof",
							"type": "bytes32[32]",
							"internalType": "bytes32[32]"
						}
					]
				}
			],
			"outputs": [],
			"stateMutability": "nonpayable"
		},
		{
			"type": "function",
			"name": "claim",
			"inputs": [
				{
					"name": "claimData",
					"type": "tuple",
					"internalType": "struct JBClaim",
					"components": [
						{
							"name": "token",
							"type": "address",
							"internalType": "address"
						},
						{
							"name": "leaf",
							"type": "tuple",
							"internalType": "struct JBLeaf",
							"components": [
								{
									"name": "index",
									"type": "uint256",
									"internalType": "uint256"
								},
								{
									"name": "beneficiary",
									"type": "bytes32",
									"internalType": "bytes32"
								},
								{
									"name": "projectTokenCount",
									"type": "uint256",
									"internalType": "uint256"
								},
								{
									"name": "terminalTokenAmount",
									"type": "uint256",
									"internalType": "uint256"
								},
								{
									"name": "metadata",
									"type": "bytes32",
									"internalType": "bytes32"
								}
							]
						},
						{
							"name": "proof",
							"type": "bytes32[32]",
							"internalType": "bytes32[32]"
						}
					]
				}
			],
			"outputs": [],
			"stateMutability": "nonpayable"
		},
		{
			"type": "function",
			"name": "claimRetainedToRemoteFee",
			"inputs": [
				{
					"name": "beneficiary",
					"type": "address",
					"internalType": "address payable"
				}
			],
			"outputs": [],
			"stateMutability": "nonpayable"
		},
		{
			"type": "function",
			"name": "claimRetainedTransportPaymentRefund",
			"inputs": [
				{
					"name": "beneficiary",
					"type": "address",
					"internalType": "address payable"
				}
			],
			"outputs": [],
			"stateMutability": "nonpayable"
		},
		{
			"type": "function",
			"name": "deployer",
			"inputs": [],
			"outputs": [
				{
					"name": "",
					"type": "address",
					"internalType": "address"
				}
			],
			"stateMutability": "view"
		},
		{
			"type": "function",
			"name": "enableEmergencyHatchFor",
			"inputs": [
				{
					"name": "tokens",
					"type": "address[]",
					"internalType": "address[]"
				}
			],
			"outputs": [],
			"stateMutability": "nonpayable"
		},
		{
			"type": "function",
			"name": "executedLeafHashOf",
			"inputs": [
				{
					"name": "token",
					"type": "address",
					"internalType": "address"
				},
				{
					"name": "index",
					"type": "uint256",
					"internalType": "uint256"
				}
			],
			"outputs": [
				{
					"name": "",
					"type": "bytes32",
					"internalType": "bytes32"
				}
			],
			"stateMutability": "view"
		},
		{
			"type": "function",
			"name": "exitThroughEmergencyHatch",
			"inputs": [
				{
					"name": "claimData",
					"type": "tuple",
					"internalType": "struct JBClaim",
					"components": [
						{
							"name": "token",
							"type": "address",
							"internalType": "address"
						},
						{
							"name": "leaf",
							"type": "tuple",
							"internalType": "struct JBLeaf",
							"components": [
								{
									"name": "index",
									"type": "uint256",
									"internalType": "uint256"
								},
								{
									"name": "beneficiary",
									"type": "bytes32",
									"internalType": "bytes32"
								},
								{
									"name": "projectTokenCount",
									"type": "uint256",
									"internalType": "uint256"
								},
								{
									"name": "terminalTokenAmount",
									"type": "uint256",
									"internalType": "uint256"
								},
								{
									"name": "metadata",
									"type": "bytes32",
									"internalType": "bytes32"
								}
							]
						},
						{
							"name": "proof",
							"type": "bytes32[32]",
							"internalType": "bytes32[32]"
						}
					]
				}
			],
			"outputs": [],
			"stateMutability": "nonpayable"
		},
		{
			"type": "function",
			"name": "fromRemote",
			"inputs": [
				{
					"name": "root",
					"type": "tuple",
					"internalType": "struct JBMessageRoot",
					"components": [
						{
							"name": "version",
							"type": "uint8",
							"internalType": "uint8"
						},
						{
							"name": "token",
							"type": "bytes32",
							"internalType": "bytes32"
						},
						{
							"name": "amount",
							"type": "uint256",
							"internalType": "uint256"
						},
						{
							"name": "remoteRoot",
							"type": "tuple",
							"internalType": "struct JBInboxTreeRoot",
							"components": [
								{
									"name": "nonce",
									"type": "uint64",
									"internalType": "uint64"
								},
								{
									"name": "root",
									"type": "bytes32",
									"internalType": "bytes32"
								}
							]
						},
						{
							"name": "accounts",
							"type": "tuple[]",
							"internalType": "struct JBChainAccounting[]",
							"components": [
								{
									"name": "chainId",
									"type": "uint256",
									"internalType": "uint256"
								},
								{
									"name": "totalSupply",
									"type": "uint256",
									"internalType": "uint256"
								},
								{
									"name": "contexts",
									"type": "tuple[]",
									"internalType": "struct JBSourceContext[]",
									"components": [
										{
											"name": "token",
											"type": "bytes32",
											"internalType": "bytes32"
										},
										{
											"name": "decimals",
											"type": "uint8",
											"internalType": "uint8"
										},
										{
											"name": "surplus",
											"type": "uint128",
											"internalType": "uint128"
										},
										{
											"name": "balance",
											"type": "uint128",
											"internalType": "uint128"
										}
									]
								},
								{
									"name": "timestamp",
									"type": "uint256",
									"internalType": "uint256"
								}
							]
						}
					]
				}
			],
			"outputs": [],
			"stateMutability": "payable"
		},
		{
			"type": "function",
			"name": "fromRemoteAccounting",
			"inputs": [
				{
					"name": "snapshot",
					"type": "tuple",
					"internalType": "struct JBAccountingSnapshot",
					"components": [
						{
							"name": "version",
							"type": "uint8",
							"internalType": "uint8"
						},
						{
							"name": "accounts",
							"type": "tuple[]",
							"internalType": "struct JBChainAccounting[]",
							"components": [
								{
									"name": "chainId",
									"type": "uint256",
									"internalType": "uint256"
								},
								{
									"name": "totalSupply",
									"type": "uint256",
									"internalType": "uint256"
								},
								{
									"name": "contexts",
									"type": "tuple[]",
									"internalType": "struct JBSourceContext[]",
									"components": [
										{
											"name": "token",
											"type": "bytes32",
											"internalType": "bytes32"
										},
										{
											"name": "decimals",
											"type": "uint8",
											"internalType": "uint8"
										},
										{
											"name": "surplus",
											"type": "uint128",
											"internalType": "uint128"
										},
										{
											"name": "balance",
											"type": "uint128",
											"internalType": "uint128"
										}
									]
								},
								{
									"name": "timestamp",
									"type": "uint256",
									"internalType": "uint256"
								}
							]
						}
					]
				}
			],
			"outputs": [],
			"stateMutability": "nonpayable"
		},
		{
			"type": "function",
			"name": "inboxOf",
			"inputs": [
				{
					"name": "token",
					"type": "address",
					"internalType": "address"
				}
			],
			"outputs": [
				{
					"name": "",
					"type": "tuple",
					"internalType": "struct JBInboxTreeRoot",
					"components": [
						{
							"name": "nonce",
							"type": "uint64",
							"internalType": "uint64"
						},
						{
							"name": "root",
							"type": "bytes32",
							"internalType": "bytes32"
						}
					]
				}
			],
			"stateMutability": "view"
		},
		{
			"type": "function",
			"name": "initialize",
			"inputs": [
				{
					"name": "localProjectId",
					"type": "uint256",
					"internalType": "uint256"
				},
				{
					"name": "remotePeer",
					"type": "bytes32",
					"internalType": "bytes32"
				}
			],
			"outputs": [],
			"stateMutability": "nonpayable"
		},
		{
			"type": "function",
			"name": "initialize",
			"inputs": [
				{
					"name": "initialProjectId",
					"type": "uint256",
					"internalType": "uint256"
				}
			],
			"outputs": [],
			"stateMutability": "nonpayable"
		},
		{
			"type": "function",
			"name": "isMapped",
			"inputs": [
				{
					"name": "token",
					"type": "address",
					"internalType": "address"
				}
			],
			"outputs": [
				{
					"name": "",
					"type": "bool",
					"internalType": "bool"
				}
			],
			"stateMutability": "view"
		},
		{
			"type": "function",
			"name": "isTrustedForwarder",
			"inputs": [
				{
					"name": "forwarder",
					"type": "address",
					"internalType": "address"
				}
			],
			"outputs": [
				{
					"name": "",
					"type": "bool",
					"internalType": "bool"
				}
			],
			"stateMutability": "view"
		},
		{
			"type": "function",
			"name": "mapToken",
			"inputs": [
				{
					"name": "map",
					"type": "tuple",
					"internalType": "struct JBTokenMapping",
					"components": [
						{
							"name": "localToken",
							"type": "address",
							"internalType": "address"
						},
						{
							"name": "minGas",
							"type": "uint32",
							"internalType": "uint32"
						},
						{
							"name": "remoteToken",
							"type": "bytes32",
							"internalType": "bytes32"
						}
					]
				}
			],
			"outputs": [],
			"stateMutability": "payable"
		},
		{
			"type": "function",
			"name": "mapTokens",
			"inputs": [
				{
					"name": "maps",
					"type": "tuple[]",
					"internalType": "struct JBTokenMapping[]",
					"components": [
						{
							"name": "localToken",
							"type": "address",
							"internalType": "address"
						},
						{
							"name": "minGas",
							"type": "uint32",
							"internalType": "uint32"
						},
						{
							"name": "remoteToken",
							"type": "bytes32",
							"internalType": "bytes32"
						}
					]
				}
			],
			"outputs": [],
			"stateMutability": "payable"
		},
		{
			"type": "function",
			"name": "outboxOf",
			"inputs": [
				{
					"name": "token",
					"type": "address",
					"internalType": "address"
				}
			],
			"outputs": [
				{
					"name": "",
					"type": "tuple",
					"internalType": "struct JBOutboxTree",
					"components": [
						{
							"name": "nonce",
							"type": "uint64",
							"internalType": "uint64"
						},
						{
							"name": "numberOfClaimsSent",
							"type": "uint192",
							"internalType": "uint192"
						},
						{
							"name": "balance",
							"type": "uint256",
							"internalType": "uint256"
						},
						{
							"name": "tree",
							"type": "tuple",
							"internalType": "struct MerkleLib.Tree",
							"components": [
								{
									"name": "branch",
									"type": "bytes32[32]",
									"internalType": "bytes32[32]"
								},
								{
									"name": "count",
									"type": "uint256",
									"internalType": "uint256"
								}
							]
						}
					]
				}
			],
			"stateMutability": "view"
		},
		{
			"type": "function",
			"name": "peer",
			"inputs": [],
			"outputs": [
				{
					"name": "",
					"type": "bytes32",
					"internalType": "bytes32"
				}
			],
			"stateMutability": "view"
		},
		{
			"type": "function",
			"name": "peerChainAccountsOf",
			"inputs": [],
			"outputs": [
				{
					"name": "accounts",
					"type": "tuple[]",
					"internalType": "struct JBChainAccounting[]",
					"components": [
						{
							"name": "chainId",
							"type": "uint256",
							"internalType": "uint256"
						},
						{
							"name": "totalSupply",
							"type": "uint256",
							"internalType": "uint256"
						},
						{
							"name": "contexts",
							"type": "tuple[]",
							"internalType": "struct JBSourceContext[]",
							"components": [
								{
									"name": "token",
									"type": "bytes32",
									"internalType": "bytes32"
								},
								{
									"name": "decimals",
									"type": "uint8",
									"internalType": "uint8"
								},
								{
									"name": "surplus",
									"type": "uint128",
									"internalType": "uint128"
								},
								{
									"name": "balance",
									"type": "uint128",
									"internalType": "uint128"
								}
							]
						},
						{
							"name": "timestamp",
							"type": "uint256",
							"internalType": "uint256"
						}
					]
				}
			],
			"stateMutability": "view"
		},
		{
			"type": "function",
			"name": "peerChainContextsOf",
			"inputs": [
				{
					"name": "chainId",
					"type": "uint256",
					"internalType": "uint256"
				}
			],
			"outputs": [
				{
					"name": "contexts",
					"type": "tuple[]",
					"internalType": "struct JBPeerChainContext[]",
					"components": [
						{
							"name": "currency",
							"type": "uint32",
							"internalType": "uint32"
						},
						{
							"name": "decimals",
							"type": "uint8",
							"internalType": "uint8"
						},
						{
							"name": "surplus",
							"type": "uint128",
							"internalType": "uint128"
						},
						{
							"name": "balance",
							"type": "uint128",
							"internalType": "uint128"
						}
					]
				},
				{
					"name": "snapshot",
					"type": "uint256",
					"internalType": "uint256"
				}
			],
			"stateMutability": "view"
		},
		{
			"type": "function",
			"name": "peerChainId",
			"inputs": [],
			"outputs": [
				{
					"name": "",
					"type": "uint256",
					"internalType": "uint256"
				}
			],
			"stateMutability": "view"
		},
		{
			"type": "function",
			"name": "peerChainIds",
			"inputs": [
				{
					"name": "includeVirtual",
					"type": "bool",
					"internalType": "bool"
				}
			],
			"outputs": [
				{
					"name": "chainIds",
					"type": "uint256[]",
					"internalType": "uint256[]"
				}
			],
			"stateMutability": "view"
		},
		{
			"type": "function",
			"name": "peerChainTotalSupplyOf",
			"inputs": [
				{
					"name": "chainId",
					"type": "uint256",
					"internalType": "uint256"
				}
			],
			"outputs": [
				{
					"name": "",
					"type": "uint256",
					"internalType": "uint256"
				}
			],
			"stateMutability": "view"
		},
		{
			"type": "function",
			"name": "peerChainTotalSupplyValue",
			"inputs": [
				{
					"name": "chainId",
					"type": "uint256",
					"internalType": "uint256"
				}
			],
			"outputs": [
				{
					"name": "",
					"type": "tuple",
					"internalType": "struct JBPeerChainValue",
					"components": [
						{
							"name": "value",
							"type": "uint256",
							"internalType": "uint256"
						},
						{
							"name": "peerChainId",
							"type": "uint256",
							"internalType": "uint256"
						},
						{
							"name": "snapshotTimestamp",
							"type": "uint256",
							"internalType": "uint256"
						}
					]
				}
			],
			"stateMutability": "view"
		},
		{
			"type": "function",
			"name": "prepare",
			"inputs": [
				{
					"name": "projectTokenCount",
					"type": "uint256",
					"internalType": "uint256"
				},
				{
					"name": "beneficiary",
					"type": "bytes32",
					"internalType": "bytes32"
				},
				{
					"name": "minTokensReclaimed",
					"type": "uint256",
					"internalType": "uint256"
				},
				{
					"name": "token",
					"type": "address",
					"internalType": "address"
				},
				{
					"name": "metadata",
					"type": "bytes32",
					"internalType": "bytes32"
				}
			],
			"outputs": [],
			"stateMutability": "nonpayable"
		},
		{
			"type": "function",
			"name": "projectId",
			"inputs": [],
			"outputs": [
				{
					"name": "",
					"type": "uint256",
					"internalType": "uint256"
				}
			],
			"stateMutability": "view"
		},
		{
			"type": "function",
			"name": "remoteTokenFor",
			"inputs": [
				{
					"name": "token",
					"type": "address",
					"internalType": "address"
				}
			],
			"outputs": [
				{
					"name": "",
					"type": "tuple",
					"internalType": "struct JBRemoteToken",
					"components": [
						{
							"name": "enabled",
							"type": "bool",
							"internalType": "bool"
						},
						{
							"name": "emergencyHatch",
							"type": "bool",
							"internalType": "bool"
						},
						{
							"name": "minGas",
							"type": "uint32",
							"internalType": "uint32"
						},
						{
							"name": "addr",
							"type": "bytes32",
							"internalType": "bytes32"
						}
					]
				}
			],
			"stateMutability": "view"
		},
		{
			"type": "function",
			"name": "retainedToRemoteFeeBalance",
			"inputs": [],
			"outputs": [
				{
					"name": "",
					"type": "uint256",
					"internalType": "uint256"
				}
			],
			"stateMutability": "view"
		},
		{
			"type": "function",
			"name": "retainedToRemoteFeeOf",
			"inputs": [
				{
					"name": "account",
					"type": "address",
					"internalType": "address"
				}
			],
			"outputs": [
				{
					"name": "amount",
					"type": "uint256",
					"internalType": "uint256"
				}
			],
			"stateMutability": "view"
		},
		{
			"type": "function",
			"name": "retainedTransportPaymentRefundBalance",
			"inputs": [],
			"outputs": [
				{
					"name": "",
					"type": "uint256",
					"internalType": "uint256"
				}
			],
			"stateMutability": "view"
		},
		{
			"type": "function",
			"name": "retainedTransportPaymentRefundOf",
			"inputs": [
				{
					"name": "account",
					"type": "address",
					"internalType": "address"
				}
			],
			"outputs": [
				{
					"name": "amount",
					"type": "uint256",
					"internalType": "uint256"
				}
			],
			"stateMutability": "view"
		},
		{
			"type": "function",
			"name": "setDeprecation",
			"inputs": [
				{
					"name": "timestamp",
					"type": "uint40",
					"internalType": "uint40"
				}
			],
			"outputs": [],
			"stateMutability": "nonpayable"
		},
		{
			"type": "function",
			"name": "snapshotTimestampOf",
			"inputs": [
				{
					"name": "chainId",
					"type": "uint256",
					"internalType": "uint256"
				}
			],
			"outputs": [
				{
					"name": "",
					"type": "uint256",
					"internalType": "uint256"
				}
			],
			"stateMutability": "view"
		},
		{
			"type": "function",
			"name": "state",
			"inputs": [],
			"outputs": [
				{
					"name": "",
					"type": "uint8",
					"internalType": "enum JBSuckerState"
				}
			],
			"stateMutability": "view"
		},
		{
			"type": "function",
			"name": "supportsInterface",
			"inputs": [
				{
					"name": "interfaceId",
					"type": "bytes4",
					"internalType": "bytes4"
				}
			],
			"outputs": [
				{
					"name": "",
					"type": "bool",
					"internalType": "bool"
				}
			],
			"stateMutability": "view"
		},
		{
			"type": "function",
			"name": "syncAccountingData",
			"inputs": [],
			"outputs": [],
			"stateMutability": "payable"
		},
		{
			"type": "function",
			"name": "toRemote",
			"inputs": [
				{
					"name": "token",
					"type": "address",
					"internalType": "address"
				}
			],
			"outputs": [],
			"stateMutability": "payable"
		},
		{
			"type": "function",
			"name": "trustedForwarder",
			"inputs": [],
			"outputs": [
				{
					"name": "",
					"type": "address",
					"internalType": "address"
				}
			],
			"stateMutability": "view"
		},
		{
			"type": "event",
			"name": "AccountingDataSynced",
			"inputs": [
				{
					"name": "sourceTimestamp",
					"type": "uint256",
					"indexed": false,
					"internalType": "uint256"
				},
				{
					"name": "caller",
					"type": "address",
					"indexed": false,
					"internalType": "address"
				}
			],
			"anonymous": false
		},
		{
			"type": "event",
			"name": "ClaimFailed",
			"inputs": [
				{
					"name": "token",
					"type": "address",
					"indexed": true,
					"internalType": "address"
				},
				{
					"name": "index",
					"type": "uint256",
					"indexed": false,
					"internalType": "uint256"
				},
				{
					"name": "caller",
					"type": "address",
					"indexed": false,
					"internalType": "address"
				}
			],
			"anonymous": false
		},
		{
			"type": "event",
			"name": "Claimed",
			"inputs": [
				{
					"name": "beneficiary",
					"type": "bytes32",
					"indexed": false,
					"internalType": "bytes32"
				},
				{
					"name": "token",
					"type": "address",
					"indexed": false,
					"internalType": "address"
				},
				{
					"name": "projectTokenCount",
					"type": "uint256",
					"indexed": false,
					"internalType": "uint256"
				},
				{
					"name": "terminalTokenAmount",
					"type": "uint256",
					"indexed": false,
					"internalType": "uint256"
				},
				{
					"name": "index",
					"type": "uint256",
					"indexed": false,
					"internalType": "uint256"
				},
				{
					"name": "metadata",
					"type": "bytes32",
					"indexed": false,
					"internalType": "bytes32"
				},
				{
					"name": "caller",
					"type": "address",
					"indexed": false,
					"internalType": "address"
				}
			],
			"anonymous": false
		},
		{
			"type": "event",
			"name": "DeprecationTimeUpdated",
			"inputs": [
				{
					"name": "timestamp",
					"type": "uint40",
					"indexed": false,
					"internalType": "uint40"
				},
				{
					"name": "caller",
					"type": "address",
					"indexed": false,
					"internalType": "address"
				}
			],
			"anonymous": false
		},
		{
			"type": "event",
			"name": "EmergencyExit",
			"inputs": [
				{
					"name": "beneficiary",
					"type": "address",
					"indexed": true,
					"internalType": "address"
				},
				{
					"name": "token",
					"type": "address",
					"indexed": true,
					"internalType": "address"
				},
				{
					"name": "terminalTokenAmount",
					"type": "uint256",
					"indexed": false,
					"internalType": "uint256"
				},
				{
					"name": "projectTokenCount",
					"type": "uint256",
					"indexed": false,
					"internalType": "uint256"
				},
				{
					"name": "caller",
					"type": "address",
					"indexed": false,
					"internalType": "address"
				}
			],
			"anonymous": false
		},
		{
			"type": "event",
			"name": "EmergencyHatchOpened",
			"inputs": [
				{
					"name": "tokens",
					"type": "address[]",
					"indexed": false,
					"internalType": "address[]"
				},
				{
					"name": "caller",
					"type": "address",
					"indexed": false,
					"internalType": "address"
				}
			],
			"anonymous": false
		},
		{
			"type": "event",
			"name": "Initialized",
			"inputs": [
				{
					"name": "version",
					"type": "uint64",
					"indexed": false,
					"internalType": "uint64"
				}
			],
			"anonymous": false
		},
		{
			"type": "event",
			"name": "InsertToOutboxTree",
			"inputs": [
				{
					"name": "beneficiary",
					"type": "bytes32",
					"indexed": true,
					"internalType": "bytes32"
				},
				{
					"name": "token",
					"type": "address",
					"indexed": true,
					"internalType": "address"
				},
				{
					"name": "hashed",
					"type": "bytes32",
					"indexed": false,
					"internalType": "bytes32"
				},
				{
					"name": "index",
					"type": "uint256",
					"indexed": false,
					"internalType": "uint256"
				},
				{
					"name": "root",
					"type": "bytes32",
					"indexed": false,
					"internalType": "bytes32"
				},
				{
					"name": "projectTokenCount",
					"type": "uint256",
					"indexed": false,
					"internalType": "uint256"
				},
				{
					"name": "terminalTokenAmount",
					"type": "uint256",
					"indexed": false,
					"internalType": "uint256"
				},
				{
					"name": "metadata",
					"type": "bytes32",
					"indexed": false,
					"internalType": "bytes32"
				},
				{
					"name": "caller",
					"type": "address",
					"indexed": false,
					"internalType": "address"
				}
			],
			"anonymous": false
		},
		{
			"type": "event",
			"name": "NewInboxTreeRoot",
			"inputs": [
				{
					"name": "token",
					"type": "address",
					"indexed": true,
					"internalType": "address"
				},
				{
					"name": "nonce",
					"type": "uint64",
					"indexed": false,
					"internalType": "uint64"
				},
				{
					"name": "root",
					"type": "bytes32",
					"indexed": false,
					"internalType": "bytes32"
				},
				{
					"name": "caller",
					"type": "address",
					"indexed": false,
					"internalType": "address"
				}
			],
			"anonymous": false
		},
		{
			"type": "event",
			"name": "RetainedToRemoteFee",
			"inputs": [
				{
					"name": "account",
					"type": "address",
					"indexed": true,
					"internalType": "address"
				},
				{
					"name": "amount",
					"type": "uint256",
					"indexed": false,
					"internalType": "uint256"
				},
				{
					"name": "caller",
					"type": "address",
					"indexed": false,
					"internalType": "address"
				}
			],
			"anonymous": false
		},
		{
			"type": "event",
			"name": "RetainedToRemoteFeeClaimed",
			"inputs": [
				{
					"name": "account",
					"type": "address",
					"indexed": true,
					"internalType": "address"
				},
				{
					"name": "beneficiary",
					"type": "address",
					"indexed": true,
					"internalType": "address"
				},
				{
					"name": "amount",
					"type": "uint256",
					"indexed": false,
					"internalType": "uint256"
				},
				{
					"name": "caller",
					"type": "address",
					"indexed": false,
					"internalType": "address"
				}
			],
			"anonymous": false
		},
		{
			"type": "event",
			"name": "RetainedTransportPaymentRefund",
			"inputs": [
				{
					"name": "account",
					"type": "address",
					"indexed": true,
					"internalType": "address"
				},
				{
					"name": "amount",
					"type": "uint256",
					"indexed": false,
					"internalType": "uint256"
				},
				{
					"name": "caller",
					"type": "address",
					"indexed": false,
					"internalType": "address"
				}
			],
			"anonymous": false
		},
		{
			"type": "event",
			"name": "RetainedTransportPaymentRefundClaimed",
			"inputs": [
				{
					"name": "account",
					"type": "address",
					"indexed": true,
					"internalType": "address"
				},
				{
					"name": "beneficiary",
					"type": "address",
					"indexed": true,
					"internalType": "address"
				},
				{
					"name": "amount",
					"type": "uint256",
					"indexed": false,
					"internalType": "uint256"
				},
				{
					"name": "caller",
					"type": "address",
					"indexed": false,
					"internalType": "address"
				}
			],
			"anonymous": false
		},
		{
			"type": "event",
			"name": "RootToRemote",
			"inputs": [
				{
					"name": "root",
					"type": "bytes32",
					"indexed": true,
					"internalType": "bytes32"
				},
				{
					"name": "token",
					"type": "address",
					"indexed": true,
					"internalType": "address"
				},
				{
					"name": "index",
					"type": "uint256",
					"indexed": false,
					"internalType": "uint256"
				},
				{
					"name": "nonce",
					"type": "uint64",
					"indexed": false,
					"internalType": "uint64"
				},
				{
					"name": "caller",
					"type": "address",
					"indexed": false,
					"internalType": "address"
				}
			],
			"anonymous": false
		},
		{
			"type": "event",
			"name": "StaleRootRejected",
			"inputs": [
				{
					"name": "token",
					"type": "address",
					"indexed": true,
					"internalType": "address"
				},
				{
					"name": "receivedNonce",
					"type": "uint64",
					"indexed": false,
					"internalType": "uint64"
				},
				{
					"name": "currentNonce",
					"type": "uint64",
					"indexed": false,
					"internalType": "uint64"
				},
				{
					"name": "caller",
					"type": "address",
					"indexed": false,
					"internalType": "address"
				}
			],
			"anonymous": false
		},
		{
			"type": "error",
			"name": "InvalidInitialization",
			"inputs": []
		},
		{
			"type": "error",
			"name": "JBArbitrumSucker_NotEnoughGas",
			"inputs": [
				{
					"name": "payment",
					"type": "uint256",
					"internalType": "uint256"
				},
				{
					"name": "cost",
					"type": "uint256",
					"internalType": "uint256"
				}
			]
		},
		{
			"type": "error",
			"name": "JBPermissioned_Unauthorized",
			"inputs": [
				{
					"name": "account",
					"type": "address",
					"internalType": "address"
				},
				{
					"name": "sender",
					"type": "address",
					"internalType": "address"
				},
				{
					"name": "projectId",
					"type": "uint256",
					"internalType": "uint256"
				},
				{
					"name": "permissionId",
					"type": "uint256",
					"internalType": "uint256"
				}
			]
		},
		{
			"type": "error",
			"name": "JBSucker_AccountingSyncUnsupported",
			"inputs": []
		},
		{
			"type": "error",
			"name": "JBSucker_AmountExceedsUint128",
			"inputs": [
				{
					"name": "amount",
					"type": "uint256",
					"internalType": "uint256"
				}
			]
		},
		{
			"type": "error",
			"name": "JBSucker_BelowMinGas",
			"inputs": [
				{
					"name": "minGas",
					"type": "uint256",
					"internalType": "uint256"
				},
				{
					"name": "minGasLimit",
					"type": "uint256",
					"internalType": "uint256"
				}
			]
		},
		{
			"type": "error",
			"name": "JBSucker_Deprecated",
			"inputs": [
				{
					"name": "state",
					"type": "uint8",
					"internalType": "enum JBSuckerState"
				}
			]
		},
		{
			"type": "error",
			"name": "JBSucker_DeprecationTimestampTooSoon",
			"inputs": [
				{
					"name": "givenTime",
					"type": "uint256",
					"internalType": "uint256"
				},
				{
					"name": "minimumTime",
					"type": "uint256",
					"internalType": "uint256"
				}
			]
		},
		{
			"type": "error",
			"name": "JBSucker_ExpectedMsgValue",
			"inputs": [
				{
					"name": "msgValue",
					"type": "uint256",
					"internalType": "uint256"
				}
			]
		},
		{
			"type": "error",
			"name": "JBSucker_IndexOutOfRange",
			"inputs": [
				{
					"name": "index",
					"type": "uint256",
					"internalType": "uint256"
				}
			]
		},
		{
			"type": "error",
			"name": "JBSucker_InsufficientBalance",
			"inputs": [
				{
					"name": "amount",
					"type": "uint256",
					"internalType": "uint256"
				},
				{
					"name": "balance",
					"type": "uint256",
					"internalType": "uint256"
				}
			]
		},
		{
			"type": "error",
			"name": "JBSucker_InsufficientMsgValue",
			"inputs": [
				{
					"name": "received",
					"type": "uint256",
					"internalType": "uint256"
				},
				{
					"name": "expected",
					"type": "uint256",
					"internalType": "uint256"
				}
			]
		},
		{
			"type": "error",
			"name": "JBSucker_InvalidMessageVersion",
			"inputs": [
				{
					"name": "received",
					"type": "uint8",
					"internalType": "uint8"
				},
				{
					"name": "expected",
					"type": "uint8",
					"internalType": "uint8"
				}
			]
		},
		{
			"type": "error",
			"name": "JBSucker_InvalidNativeRemoteAddress",
			"inputs": [
				{
					"name": "remoteToken",
					"type": "bytes32",
					"internalType": "bytes32"
				}
			]
		},
		{
			"type": "error",
			"name": "JBSucker_InvalidProof",
			"inputs": [
				{
					"name": "root",
					"type": "bytes32",
					"internalType": "bytes32"
				},
				{
					"name": "inboxRoot",
					"type": "bytes32",
					"internalType": "bytes32"
				}
			]
		},
		{
			"type": "error",
			"name": "JBSucker_LeafAlreadyExecuted",
			"inputs": [
				{
					"name": "token",
					"type": "address",
					"internalType": "address"
				},
				{
					"name": "index",
					"type": "uint256",
					"internalType": "uint256"
				}
			]
		},
		{
			"type": "error",
			"name": "JBSucker_NoRetainedToRemoteFee",
			"inputs": [
				{
					"name": "account",
					"type": "address",
					"internalType": "address"
				}
			]
		},
		{
			"type": "error",
			"name": "JBSucker_NoRetainedTransportPaymentRefund",
			"inputs": [
				{
					"name": "account",
					"type": "address",
					"internalType": "address"
				}
			]
		},
		{
			"type": "error",
			"name": "JBSucker_NoTerminalForToken",
			"inputs": [
				{
					"name": "projectId",
					"type": "uint256",
					"internalType": "uint256"
				},
				{
					"name": "token",
					"type": "address",
					"internalType": "address"
				}
			]
		},
		{
			"type": "error",
			"name": "JBSucker_NotPeer",
			"inputs": [
				{
					"name": "caller",
					"type": "bytes32",
					"internalType": "bytes32"
				}
			]
		},
		{
			"type": "error",
			"name": "JBSucker_NothingToSend",
			"inputs": [
				{
					"name": "token",
					"type": "address",
					"internalType": "address"
				},
				{
					"name": "outboxBalance",
					"type": "uint256",
					"internalType": "uint256"
				},
				{
					"name": "treeCount",
					"type": "uint256",
					"internalType": "uint256"
				},
				{
					"name": "numberOfClaimsSent",
					"type": "uint256",
					"internalType": "uint256"
				}
			]
		},
		{
			"type": "error",
			"name": "JBSucker_RefundFailed",
			"inputs": [
				{
					"name": "beneficiary",
					"type": "address",
					"internalType": "address"
				},
				{
					"name": "amount",
					"type": "uint256",
					"internalType": "uint256"
				}
			]
		},
		{
			"type": "error",
			"name": "JBSucker_RemoteTokenAlreadyMapped",
			"inputs": [
				{
					"name": "remoteToken",
					"type": "bytes32",
					"internalType": "bytes32"
				},
				{
					"name": "localToken",
					"type": "address",
					"internalType": "address"
				}
			]
		},
		{
			"type": "error",
			"name": "JBSucker_TokenAlreadyMapped",
			"inputs": [
				{
					"name": "localToken",
					"type": "address",
					"internalType": "address"
				},
				{
					"name": "mappedTo",
					"type": "bytes32",
					"internalType": "bytes32"
				}
			]
		},
		{
			"type": "error",
			"name": "JBSucker_TokenHasInvalidEmergencyHatchState",
			"inputs": [
				{
					"name": "token",
					"type": "address",
					"internalType": "address"
				}
			]
		},
		{
			"type": "error",
			"name": "JBSucker_TokenNotMapped",
			"inputs": [
				{
					"name": "token",
					"type": "address",
					"internalType": "address"
				}
			]
		},
		{
			"type": "error",
			"name": "JBSucker_UnexpectedMsgValue",
			"inputs": [
				{
					"name": "value",
					"type": "uint256",
					"internalType": "uint256"
				}
			]
		},
		{
			"type": "error",
			"name": "JBSucker_UnexpectedTokenBalance",
			"inputs": [
				{
					"name": "token",
					"type": "address",
					"internalType": "address"
				},
				{
					"name": "expectedBalance",
					"type": "uint256",
					"internalType": "uint256"
				},
				{
					"name": "actualBalance",
					"type": "uint256",
					"internalType": "uint256"
				}
			]
		},
		{
			"type": "error",
			"name": "JBSucker_ZeroBeneficiary",
			"inputs": [
				{
					"name": "beneficiary",
					"type": "bytes32",
					"internalType": "bytes32"
				}
			]
		},
		{
			"type": "error",
			"name": "JBSucker_ZeroERC20Token",
			"inputs": [
				{
					"name": "projectId",
					"type": "uint256",
					"internalType": "uint256"
				}
			]
		},
		{
			"type": "error",
			"name": "JBSucker_ZeroProjectTokenCount",
			"inputs": []
		},
		{
			"type": "error",
			"name": "MerkleLib_InsertTreeIsFull",
			"inputs": [
				{
					"name": "size",
					"type": "uint256",
					"internalType": "uint256"
				},
				{
					"name": "maxLeaves",
					"type": "uint256",
					"internalType": "uint256"
				}
			]
		},
		{
			"type": "error",
			"name": "NotInitializing",
			"inputs": []
		},
		{
			"type": "error",
			"name": "SafeERC20FailedOperation",
			"inputs": [
				{
					"name": "token",
					"type": "address",
					"internalType": "address"
				}
			]
		}
	],
	"args": [
		"0xa12ebFCA3d4E0810E4Ed174e4C08277c26917aCb",
		"0x5AfF29060E023e6FB87BE5596652B33c65Af535B",
		"0xf92AC1aB5A00033E35a3975739124F61928C36B0",
		"0x1f80d8f057eE36b4C2656D107E4e4558B71bA7D9",
		"1",
		"0x7903a854aE91eAf635430D120a1a434085cEf297",
		"0x3bA60b60933916a7C87D0860DcEE62a0CE34E3e2"
	],
	"solcInputHash": "d03ac7c2867088e8a791383c85ca5635",
	"bytecode": "0x6101c0806040523461030c5760e08161647f8038038091610020828561044f565b83398101031261030c5780516001600160a01b038116919082900361030c5760208101516001600160a01b038116919082810361030c576040820151906001600160a01b038216820361030c576060830151936001600160a01b038516850361030c57608084015160a0850151946001600160a01b038616860361030c5760c00151926001600160a01b038416840361030c5760049460209460805260a05260c05260e0526040519283809263293c499960e01b82525afa908115610318575f9161040d575b506101005261012052610140525f51602061645f5f395f51905f525460ff8160401c166103fe576002600160401b03196001600160401b038216016103a8575b506040516307fada4960e01b8152602081600481855afa908115610318575f91610366575b506101805260405163155e066960e21b8152602081600481855afa908115610318575f91610323575b50610160526040516370a2b8db60e01b815290602090829060049082905afa908115610318575f916102d9575b506101a052604051615fd8908161048782396080518181816111df0152818161175801526149cf015260a05181818161266901528181612f7b01528181613c4a0152614942015260c051818181610bad015281816119c601528181611fba0152818161406001528181614101015281816144fe0152614f8d015260e05181818161169b0152611ccb015261010051818181610cd10152613b1e0152610120518181816105d00152818161067e01528181611c7a01528181611fe20152614fb5015261014051818181610ac10152611a96015261016051818181611bc9015281816138d8015281816153d7015281816154960152615e88015261018051818181612474015281816151f10152818161551f0152615cc501526101a0518181816120fd0152818161385c015281816144450152615c110152f35b90506020813d602011610310575b816102f46020938361044f565b8101031261030c5751600281101561030c575f6101a1565b5f80fd5b3d91506102e7565b6040513d5f823e3d90fd5b90506020813d60201161035e575b8161033e6020938361044f565b8101031261030c57516001600160a01b038116810361030c576004610174565b3d9150610331565b90506020813d6020116103a0575b816103816020938361044f565b8101031261030c57516001600160a01b038116810361030c575f61014b565b3d9150610374565b6001600160401b0319166001600160401b039081175f51602061645f5f395f51905f52556040519081527fc7f505b2f371ae2175ee4913f4499e1f2633a7b5936321eed1cdaeb6115181d290602090a15f610126565b63f92ee8a960e01b5f5260045ffd5b90506020813d602011610447575b816104286020938361044f565b8101031261030c57516001600160a01b038116810361030c575f6100e6565b3d915061041b565b601f909101601f19168101906001600160401b0382119082101761047257604052565b634e487b7160e01b5f52604160045260245ffdfe6080604052600436101561001a575b3615610018575f80fd5b005b5f3560e01c8063014dc2a61461035957806301ffc9a71461035457806303da64a81461034f57806306433b1b1461034a5780630ce92d4b1461034557806311cda415146103405780631d831d5c1461033b57806322c9cc0f14610336578063293c4999146103315780633a5de07d1461032c5780633bef5ad5146103275780633f827a5a146103225780633fafa1271461031d5780634035d3b1146103185780634ca0e69b146103135780634e415ad61461030e5780634f0677e1146103095780635417694914610304578063572b6c05146102ff5780635de4e83a146102fa5780636284386a146102f5578063663d00f6146102f05780636d9e384b146102eb5780636f4115a9146102e657806373cbdfc6146102e157806375451559146102dc5780637da0a877146102d75780637de6fba2146102d2578063802c8fa0146102cd57806388bc2ef3146102c857806392ee1ea7146102c35780639e6d7d43146102be578063af629bbb146102b9578063b1012368146102b4578063b71c1179146102af578063bf557aee146102aa578063c19d93fb146102a5578063c1ca1ec7146102a0578063c86719b71461029b578063cbb2adce14610296578063cdfceeba14610291578063cf26bafb1461028c578063d5f3948814610287578063d935222f14610282578063defbb6971461027d578063eac1f29e14610278578063f134654314610273578063f3aefd7b1461026e578063f434c91414610269578063f925558c14610264578063fc072f231461025f5763fe4b84df0361000e5761279a565b6126d3565b612698565b612654565b612551565b6124e8565b6124a3565b61245f565b612382565b61235b565b61233e565b612324565b612141565b6120eb565b611f6f565b611f44565b611ee1565b611bf8565b611bb4565b611a39565b611a12565b6119f5565b6119b1565b6118a6565b611787565b611743565b6116e8565b6116be565b611684565b6115fd565b61137c565b61129f565b611213565b6111bb565b611099565b61107c565b610f60565b610dd9565b610d90565b610d62565b610d47565b610d1d565b610d00565b610cbc565b610b6a565b610aac565b610a8a565b6105ff565b6105bb565b610555565b6104cf565b60203660031901126104cb576004356001600160401b0381116104cb57366023820112156104cb578060040135906001600160401b0382116104cb57602481019060243691606085020101116104cb575f5f5b83811061043e57508061042d57505f91905b5f925f925b8084106103ff57848034116103d457005b610018906103f96103f26103e66149a4565b6001600160a01b031690565b91346128d8565b906137f3565b9091929361042360019161041d8561041889878a61284d565b61348e565b906128bd565b94019291906103c3565b6104379034612891565b91906103be565b61046d61045461044f83878761284d565b612862565b6001600160a01b03165f908152600e6020526040902090565b604061047a83878761284d565b01351590816104a6575b50610492575b6001016103ac565b9061049e600191612883565b91905061048a565b905060226104b5825460401c90565b9101546001600160c01b0390911614155f610484565b5f80fd5b346104cb5760203660031901126104cb5760043563ffffffff60e01b81168091036104cb576314a66dd360e21b8114908115610544575b8115610533575b8115610522575b506040519015158152602090f35b6301ffc9a760e01b1490505f610514565b633d0d324560e21b8114915061050d565b6332af4eb960e21b81149150610506565b346104cb5760203660031901126104cb576004356001600160401b0381116104cb57366023820112156104cb5780600401356001600160401b0381116104cb573660246104c08302840101116104cb5760246100189201612a04565b5f9103126104cb57565b346104cb575f3660031901126104cb576040517f00000000000000000000000000000000000000000000000000000000000000006001600160a01b03168152602090f35b60603660031901126104cb575f6106166004612862565b6001600160a01b0381165f908152600f602052604090206044359291906106419061300d565b61300d565b9061064f6020830151151590565b610a6f5761065d600461481f565b6011546106aa61066c82613b01565b6106746149a4565b6001600160a01b037f000000000000000000000000000000000000000000000000000000000000000081169491168414916148b7565b6106b2613301565b90803b156104cb576040516303827e8d60e01b81526001600160a01b03841660048201526024810192909252604482018690525f90829060649082905afa8015610a6a57610a50575b50606082018051858115159182610a45575b505080610a3c575b80610a19575b6109f8578415948515938461098f575b868061093e575b6108f6575b50906107b9929161080c959685806108ec575b806108e1575b806108aa575b61087f575b156108785750515b8061083e575b61079b6107766024613484565b610788610781612af2565b9615158752565b5f602087015263ffffffff166040860152565b60608401526001600160a01b03165f908152600f6020526040902090565b815181546020840151604085015165ffffffffffff1990921660ff931515939093169290921791151560081b61ff00169190911760109190911b65ffffffff000016178155606090910151600190910155565b80341161081557005b6001600160a01b036108256149a4565b1690340334811161083957610018916137f3565b61286f565b61087382610854835f52600d60205260405f2090565b80546001600160a01b0319166001600160a01b03909216919091179055565b610769565b9050610763565b6108a561089584515f52600d60205260405f2090565b80546001600160a01b0319169055565b61075b565b506108ce6108c184515f52600d60205260405f2090565b546001600160a01b031690565b6001600160a01b03858116911614610756565b508183511415610750565b508251151561074a565b6001600160a01b0384165f908152600f6020526040902061080c96506107b9949392916109339161092c905b805460ff19169055565b84346141d3565b349550909192610737565b506001600160a01b0384165f908152600e60205260409020610962905b5460401c90565b6001600160a01b0385165f908152600e60205260409020602201546001600160c01b039091161415610732565b6109a46108c1835f52600d60205260405f2090565b6001600160a01b03811680151590816109e4575b506109c3575061072b565b63d6a305d960e01b5f5260048390526001600160a01b031660245260445b5ffd5b6001600160a01b038716141590505f6109b8565b5163aef430a360e01b5f526001600160a01b0390911660045260245260445ffd5b506001600160a01b0382165f908152600e6020526040902060220154151561071b565b50841515610715565b14159050855f61070d565b80610a5e5f610a649361297b565b806105b1565b5f6106fb565b6129f9565b6304bba81f60e41b5f526001600160a01b031660045260245ffd5b346104cb575f3660031901126104cb576020610aa4612ae5565b604051908152f35b346104cb575f3660031901126104cb576040517f00000000000000000000000000000000000000000000000000000000000000006001600160a01b03168152602090f35b92919060408401906040855280518092526020606086019101915f5b818110610b1e57505060209150930152565b9091602060806001926001600160801b036060885163ffffffff815116845260ff8682015116868501528260408201511660408501520151166060820152019401910192919092610b0c565b346104cb5760203660031901126104cb5760043560115490805f52601560205260405f2091604051928391633a37eccb60e01b8352606483019060018060a01b037f0000000000000000000000000000000000000000000000000000000000000000166004850152602484015260606044840152815480915260848301915f5260205f20905f5b818110610c765750505090805f920381730b2b545a4e2fd65d29f2417f1b26698d71769a8f5af4918215610a6a575f92610c4e575b50610c39905f52600760205260405f2090565b5490610c4a60405192839283610af0565b0390f35b610c39919250610c6f903d805f833e610c67818361297b565b810190612b42565b9190610c26565b8254845260018084015460ff8116602087015260081c6001600160801b039081166040870152600285015416606086015287955060809094019360039093019201610bf1565b346104cb575f3660031901126104cb576040517f00000000000000000000000000000000000000000000000000000000000000006001600160a01b03168152602090f35b346104cb575f3660031901126104cb57602060405162030d408152f35b346104cb5760203660031901126104cb576004355f526002602052602060405f2054604051908152f35b346104cb575f3660031901126104cb57602060405160018152f35b346104cb575f3660031901126104cb576020601154604051908152f35b6001600160a01b038116036104cb57565b346104cb5760403660031901126104cb57600435610dad81610d7f565b6024359060018060a01b03165f52600160205260405f20905f52602052602060405f2054604051908152f35b346104cb5760203660031901126104cb576004356001600160401b0381116104cb578060040190604060031982360301126104cb57610e173361384f565b15610e6f578135610e2781612b26565b600160ff821603610e4857610018610e426024840185612c21565b906139f4565b80610e556109e192612b26565b63e667c12560e01b5f5260ff166004526001602452604490565b63f957028d60e01b5f523360045260245ffd5b602081016020825282518091526040820191602060408360051b8301019401925f915b838310610eb457505050505090565b9091929394603f1982820301835285519060808101918051825260208101516020830152604081015192608060408401528351809152602060a084019401905f905b808210610f1c575050506060908101519101529460209081019493600101920190610ea5565b909194602060806001926001600160801b0360608a518051845260ff8682015116868501528260408201511660408501520151166060820152019601920190610ef6565b346104cb575f3660031901126104cb57601454610f7c81612b01565b90610f8a604051928361297b565b808252601f19610f9982612b01565b015f5b81811061104c5750505f5b818110610fbc5760405180610c4a8582610e82565b80610fd5610fcb600193612c56565b90549060031b1c90565b610fe7815f52600260205260405f2090565b54611026610ffd835f52601560205260405f2090565b61100f845f52600760205260405f2090565b5492611019612af2565b9485526020850152612c6e565b6040830152606082015261103a8286612d08565b526110458185612d08565b5001610fa7565b60209060405161105b8161290a565b5f81525f83820152606060408201525f606082015282828701015201610f9c565b346104cb575f3660031901126104cb576020600454604051908152f35b346104cb5760403660031901126104cb575f516020615fac5f395f51905f52546004356024356001600160401b036110e9604085901c60ff16156110dc565b1590565b946001600160401b031690565b16801590816111b3575b60011490816111a9575b1590816111a0575b50611191576111209183611117612d1c565b61118457613aa5565b61112657005b61115060ff60401b195f516020615fac5f395f51905f5254165f516020615fac5f395f51905f5255565b604051600181527fc7f505b2f371ae2175ee4913f4499e1f2633a7b5936321eed1cdaeb6115181d29080602081015b0390a1005b61118c612d49565b613aa5565b63f92ee8a960e01b5f5260045ffd5b9050155f611105565b303b1591506110fd565b8491506110f3565b346104cb5760203660031901126104cb5760206004356111da81610d7f565b6040517f00000000000000000000000000000000000000000000000000000000000000006001600160a01b039081169216919091148152f35b346104cb5760203660031901126104cb57610c4a6004355f604080516112388161292a565b8281528260208201520152805f52600260205260405f205490805f52600760205260405f2054906040519261126c8461292a565b83526020830152604082015260405191829182919091604080606083019480518452602081015160208501520151910152565b346104cb5760203660031901126104cb5760043564ffffffffff8116908181036104cb576112cb613abb565b6112df6011546112da81613b01565b613bbf565b6212750042018042116108395782151580611372575b61135457506113247f455efa76af2a8686dc0dd3041bda89ece5ba4691277d525e2161003bbca8b24592600855565b61132c6149a4565b6040805164ffffffffff90931683526001600160a01b0390911660208301528190810161117f565b630111a46b60e21b5f5264ffffffffff90911660045260245260445ffd5b50808311156112f5565b60203660031901126104cb576004356001600160401b0381116104cb57806004019060c060031982360301126104cb576113b86110d83361384f565b6115dd57600160ff6113c984612c17565b16036115d15760248101356001600160a01b03165f818152600a6020526040902061001893610e4293909260a492606483019061140582612d87565b81546001600160401b03908116911681101561155957506114a38260019261146d6114507fc69d3412489554fb7820c4c2784cb644b6c79bfc117444b93977d3d33a9b8eac96612d87565b825467ffffffffffffffff19166001600160401b03909116178255565b608487013593849101557f27ae5ba08d7291c96c8cbddcc148bf48a6d68c7974b94356f53754ef6171d75783036114f257612d87565b926114e76114af6149a4565b604080516001600160401b03909716875260208701949094526001600160a01b03908116938601939093529116929081906060820190565b0390a25b0190612c21565b6115548361154e61152561151f6115198a60018060a01b03165f52600b60205260405f2090565b546128af565b60031690565b6001600160a01b0389165f908152600b60209081526040808320849055600c9091529020612d91565b90612da0565b612d87565b90506115857f2eb8abf720d2b9cf9e357f7a24a2bee502a7bdba38de0de230e10c33dafbd3eb92612d87565b926115c96115916149a4565b604080516001600160401b0397881681529490961660208501526001600160a01b039081169584019590955293169281906060820190565b0390a26114eb565b6109e1610e5583612c17565b6109e16115e9336103e6565b63f957028d60e01b5f52600452602490565b565b346104cb5760203660031901126104cb5760043561161a81610d7f565b5f602060405161162981612945565b828152015260018060a01b03165f52600a602052610c4a60405f2060016040519161165383612945565b80546001600160401b0316808452910154602092830190815260408051928352905192820192909252918291820190565b346104cb575f3660031901126104cb5760206040517f00000000000000000000000000000000000000000000000000000000000000008152f35b346104cb5760203660031901126104cb576004355f526007602052602060405f2054604051908152f35b346104cb5760203660031901126104cb576004356001600160401b0381116104cb57366023820112156104cb5780600401356001600160401b0381116104cb573660248260051b840101116104cb5760246100189201612e27565b346104cb575f3660031901126104cb576040517f00000000000000000000000000000000000000000000000000000000000000006001600160a01b03168152602090f35b346104cb5760203660031901126104cb576004356117a481610d7f565b6117ac612fe9565b5060018060a01b03165f52600f602052610c4a60405f206001604051916117d28361290a565b63ffffffff815460ff81161515855260ff8160081c161515602086015260101c1660408401520154606082015260405191829182919091606080608083019480511515845260208101511515602085015263ffffffff60408201511660408501520151910152565b81516001600160401b031681526020808301516001600160c01b031690820152604080830151908201526060918201518051610480830194935f9084015b60208210611890575050506020610460910151910152565b6020806001928551815201930191019091611878565b346104cb5760203660031901126104cb576004356118c381610d7f565b604051906118d08261290a565b5f82525f60208301525f60408301526040516118eb81612945565b6060610400936040516118fe868261297b565b8536823783525f6020840152015260018060a01b03165f52600e60205260405f20906040519061192d8261290a565b82546001600160401b038116835260401c6020830152600183015460408301526040519061195a82612945565b60405190600285015f835b6020821061199b575050509381611981610c4a9660229461297b565b83520154602082015260608201526040519182918261183a565b6001602081928554815201930191019091611965565b346104cb575f3660031901126104cb576040517f00000000000000000000000000000000000000000000000000000000000000006001600160a01b03168152602090f35b346104cb575f3660031901126104cb576020604051620493e08152f35b346104cb5760203660031901126104cb576020610aa4600435611a3481610d7f565b613063565b346104cb5760a03660031901126104cb57606435604435602435600435611a5f84610d7f565b608435928115611ba5578215611b915760115460405163ea78803f60e01b8152600481018290526020816024816001600160a01b037f0000000000000000000000000000000000000000000000000000000000000000165afa908115610a6a575f91611b62575b506001600160a01b0316908115611b5057506001600160a01b0386165f908152600f60205260409020611aff906110d8905b5460ff1690565b611b34576100189591611b2784611b2e93611b18613abb565b611b206149a4565b3091613d15565b8284613e2a565b91613f02565b63027edf0360e11b5f526001600160a01b03861660045260245ffd5b6309794d0160e11b5f5260045260245ffd5b611b84915060203d602011611b8a575b611b7c818361297b565b8101906130d1565b5f611ac6565b503d611b72565b63b2fe07f160e01b5f52600483905260245ffd5b632bcf4c5760e21b5f5260045ffd5b346104cb575f3660031901126104cb576040517f00000000000000000000000000000000000000000000000000000000000000006001600160a01b03168152602090f35b60203660031901126104cb57600435611c1081610d7f565b6001600160a01b0381165f908152600f60205260409020611c309061300d565b6020810151611ec5576001600160a01b0382165f908152600e60205260409020600181015490811580611e9f575b611e42575050604051634211591560e01b8152916020836004817f00000000000000000000000000000000000000000000000000000000000000006001600160a01b03165afa928315610a6a575f93611e21575b50823410611e095782611cc861001894346128d8565b907f0000000000000000000000000000000000000000000000000000000000000000611cf38161403b565b5f91906001600160a01b031680151580611e00575b611d41575b50501580611d38575b611d21575b506141d3565b611d3290611d2d6149a4565b61413c565b5f611d1b565b50801515611d16565b611db3916020918580611d526149a4565b936040519687958694859363fef4325760e01b855260048501916101209391835261eeee6020840152604083015260018060a01b031660608201525f608082015260e060a08201525f60e082015261010060c08201525f6101008201520190565b03925af19081611dd3575b50611dcb575b5f80611d0d565b506001611dc4565b611df49060203d602011611df9575b611dec818361297b565b8101906130e6565b611dbe565b503d611de2565b50831515611d08565b630ee99a4760e01b5f5234600452602483905260445ffd5b611e3b91935060203d602011611df957611dec818361297b565b915f611cb2565b611e9b81611e57602287940154915460401c90565b60405163096c1e2160e21b81526001600160a01b039094166004850152602484019490945260448301526001600160c01b0390921660648201529081906084820190565b0390fd5b506022810154611ebf611eb3835460401c90565b6001600160c01b031690565b14611c5e565b6304bba81f60e41b5f526001600160a01b03821660045260245ffd5b346104cb5760203660031901126104cb57600435611efe81610d7f565b60018060a01b03165f52600f6020526020600160405f2001541515604051908152f35b634e487b7160e01b5f52602160045260245ffd5b60041115611f3f57565b611f21565b346104cb575f3660031901126104cb57611f5c6130f5565b6040516004821015611f3f576020918152f35b5f3660031901126104cb57611f82613abb565b611f97600160125401806012554260801b1790565b60115490611fa3613301565b60405163f1d0f27760e01b81526001600160a01b037f0000000000000000000000000000000000000000000000000000000000000000811660048301527f0000000000000000000000000000000000000000000000000000000000000000166024820152604481019390935260648301526001608483015260a482018190525f8260c481730b2b545a4e2fd65d29f2417f1b26698d71769a8f5af4908115610a6a57610018925f9261209b575b507f77bd1556265e71d247f11bb5886efda7fd5e5b21e6a4d2c871e8e6b49ac92f3d9061207b6149a4565b604080519283526001600160a01b0391909116602083015290a1346143eb565b7f77bd1556265e71d247f11bb5886efda7fd5e5b21e6a4d2c871e8e6b49ac92f3d9192506120da903d805f833e6120d2818361297b565b81019061329c565b9190612050565b60021115611f3f57565b346104cb575f3660031901126104cb577f00000000000000000000000000000000000000000000000000000000000000006040516002821015611f3f576020918152f35b6104c09060031901126104cb57600490565b346104cb5761214f3661212f565b803590606081013561216083610d7f565b608082013560408301359260a0810135602082013560c08301640100000000821015612311576001600160a01b0388165f908152600960209081526040808320600886901c8452909152902054600160ff84161b166122f05791866122e38361228f86828d61228a6100189f9a838f8f6122eb9f9e8d917fa8d6760b4e1a89f513fc87990f66d051c419d735fb8191104014e0529d9ae2d39f936122388f939561221d6122569760018060a01b03165f52600960205260405f2090565b8160081c5f52602052600160ff60405f2092161b8154179055565b91608093916040519384526020840152604083015260608201522090565b848161228484612277839960018060a01b03165f52600160205260405f2090565b905f5260205260405f2090565b5561580f565b615901565b61229886612862565b936122a16149a4565b604080519586526001600160a01b03968716602087015285018b9052606085018a9052608085019290925260a084015290921660c082015290819060e0820190565b0390a1612862565b6144ca565b632939af3b60e21b5f526001600160a01b038816600452602482905260445ffd5b506309f6605160e41b5f5260045260245ffd5b346104cb575f3660031901126104cb576020610aa4613301565b346104cb575f3660031901126104cb576020600354604051908152f35b346104cb575f3660031901126104cb575f546040516001600160a01b039091168152602090f35b346104cb576100186123933661212f565b60608101356123a182612862565b916122eb6080820135916123cc60408201359560a0830135602084013590888760c08701948a614605565b60016123da61045483612862565b016123e68482546128d8565b90556001600160a01b0385166123fb82612862565b7fe33107c4043e574d8a4da32dac235e219f8f34a0e45e473ea6643a6145f252856124576124276149a4565b60408051898152602081018b90526001600160a01b03928316918101919091529381169416929081906060820190565b0390a3612862565b346104cb575f3660031901126104cb576040517f00000000000000000000000000000000000000000000000000000000000000006001600160a01b03168152602090f35b346104cb5760203660031901126104cb576004356124c081610d7f565b60018060a01b03165f526006602052602060405f2054604051908152f35b801515036104cb57565b346104cb5760203660031901126104cb5761250d600435612508816124de565b6133b2565b6040518091602082016020835281518091526020604084019201905f5b818110612538575050500390f35b825184528594506020938401939092019160010161252a565b346104cb5760203660031901126104cb5760043561256e81610d7f565b6001600160a01b038116908115612641576125876149a4565b6001600160a01b0381165f81815260066020526040902054909290918215612626576001600160a01b03165f9081526006602052604081207ffbcfe54e4aa35e7772f25a5f52fedccde889e4fc5031ad9826b9bf6b890baa599392612602928492556125fd6125f8836004546128d8565b600455565b6137f3565b61260a6149a4565b604080519283526001600160a01b0391909116602083015290a3005b631733ad2160e21b5f526001600160a01b031660045260245ffd5b63b2fe07f160e01b5f525f60045260245ffd5b346104cb575f3660031901126104cb576040517f00000000000000000000000000000000000000000000000000000000000000006001600160a01b03168152602090f35b346104cb5760203660031901126104cb576004356126b581610d7f565b60018060a01b03165f526005602052602060405f2054604051908152f35b346104cb5760203660031901126104cb576004356126f081610d7f565b6001600160a01b038116908115612641576127096149a4565b6001600160a01b0381165f8181526005602052604090205490929091821561277f576001600160a01b03165f9081526005602052604081207f1e70ff8443e61b2a2555b5ad56645461a75dd29591b5c4a6281f70a6d395db459392612602928492556125fd61277a836003546128d8565b600355565b63578a51dd60e11b5f526001600160a01b031660045260245ffd5b346104cb5760203660031901126104cb575f516020615fac5f395f51905f52546004356001600160401b036127de604084901c60ff1615936001600160401b031690565b1680159081612831575b6001149081612827575b15908161281e575b5061119157611120908261280c612d1c565b15613a7557612819612d49565b613a75565b9050155f6127fa565b303b1591506127f2565b8391506127e8565b634e487b7160e01b5f52603260045260245ffd5b919081101561285d576060020190565b612839565b3561286c81610d7f565b90565b634e487b7160e01b5f52601160045260245ffd5b5f1981146108395760010190565b811561289b570490565b634e487b7160e01b5f52601260045260245ffd5b906001820180921161083957565b9190820180921161083957565b5f1981019190821161083957565b9190820391821161083957565b919081101561285d576104c0020190565b634e487b7160e01b5f52604160045260245ffd5b608081019081106001600160401b0382111761292557604052565b6128f6565b606081019081106001600160401b0382111761292557604052565b604081019081106001600160401b0382111761292557604052565b60a081019081106001600160401b0382111761292557604052565b90601f801991011681019081106001600160401b0382111761292557604052565b6104009092919260c0806104c083019580356129b781610d7f565b60018060a01b031684526020810135602085015260408101356040850152606081013560608501526080810135608085015260a081013560a085015201910137565b6040513d5f823e3d90fd5b5f5b828110612a1257505050565b612a1d8184846128e5565b90303b156104cb57612a465f600193604051809381926365d956e760e11b83526004830161299c565b038183305af19081612ad1575b50612acc57612a6661044f8286866128e5565b7fc1054f794d197971822697afa7ff4777cac6fb7a512e4bfec63aebaab98187b66020612a948488886128e5565b013591612a9f6149a4565b604080519485526001600160a01b0391909116602085015260a086901b8690039190911692a25b01612a06565b612ac6565b80610a5e5f612adf9361297b565b5f612a53565b6013548061286c57503090565b604051906115fb60808361297b565b6001600160401b0381116129255760051b60200190565b63ffffffff8116036104cb57565b60ff8116036104cb57565b6001600160801b038116036104cb57565b6020818303126104cb578051906001600160401b0382116104cb570181601f820112156104cb57805190612b7582612b01565b92612b83604051948561297b565b82845260208085019360071b830101918183116104cb57602001925b828410612bad575050505090565b6080848303126104cb576020608091604051612bc88161290a565b8651612bd381612b18565b815282870151612be281612b26565b838201526040870151612bf481612b31565b60408201526060870151612c0781612b31565b6060820152815201930192612b9f565b3561286c81612b26565b903590601e19813603018212156104cb57018035906001600160401b0382116104cb57602001918160051b360383136104cb57565b60145481101561285d5760145f5260205f2001905f90565b908154612c7a81612b01565b92612c88604051948561297b565b81845260208401905f5260205f205f915b838310612ca65750505050565b60036020600192604051612cb98161290a565b855481526001600160801b038587015460ff81168584015260081c1660408201526001600160801b036002870154166060820152815201920192019190612c99565b80511561285d5760200190565b805182101561285d5760209160051b010190565b60016001600160401b03195f516020615fac5f395f51905f525416175f516020615fac5f395f51905f5255565b600160401b60ff60401b195f516020615fac5f395f51905f525416175f516020615fac5f395f51905f5255565b6001600160401b038116036104cb57565b3561286c81612d76565b600482101561285d5701905f90565b91612db99183549060031b91821b915f19901b19161790565b9055565b919081101561285d5760051b0190565b604080825281018390529293929160608301905f5b818110612dfd575050602091509360018060a01b0316910152565b90916020806001928635612e1081610d7f565b848060a01b03168152019401910192919092612de2565b9190601154612e3581613b01565b612e3d6149a4565b916001600160a01b03808416908316141580612f54575b612f1d575050505f5b818110612ea457507f8021bce60b20a9afb57085869a3552e0ee5b272b868df894fb30c5e90e74c0729192612e9f612e936149a4565b60405193849384612dcd565b0390a1565b80612eb26001928487612dbd565b35612ebc81610d7f565b828060a01b03165f52600f602052612edb60405f2060ff198154169055565b612f17612f08612eef61044f84878a612dbd565b6001600160a01b03165f908152600f6020526040902090565b805461ff001916610100179055565b01612e5d565b604051631326f75560e11b81526001600160a01b039283166004820152929091166024830152604482015260236064820152608490fd5b50604051631a45b42760e11b815260208180612f77602386888a60048601613b87565b03817f00000000000000000000000000000000000000000000000000000000000000006001600160a01b03165afa908115610a6a575f91612fba575b5015612e54565b612fdc915060203d602011612fe2575b612fd4818361297b565b810190613b72565b5f612fb3565b503d612fca565b60405190612ff68261290a565b5f6060838281528260208201528260408201520152565b9060405161301a8161290a565b60606001829463ffffffff815460ff81161515865260ff8160081c161515602087015260101c1660408501520154910152565b6040519061040061305e818461297b565b368337565b61306d3082613ca8565b9060018060a01b031690815f52600e602052600160405f20015481039081116108395761eeee81921461309e575090565b9050600354808211156130cb57810390811161083957600454808211156130cb5781039081116108395790565b50505f90565b908160209103126104cb575161286c81610d7f565b908160209103126104cb575190565b600854801561312857621274ff19810181811161083957421061312257421061311d57600390565b600290565b50600190565b505f90565b81601f820112156104cb5780519061314482612b01565b92613152604051948561297b565b82845260208085019360051b830101918183116104cb5760208101935b83851061317e57505050505090565b84516001600160401b0381116104cb5782016080818503601f1901126104cb57604051906131ab8261290a565b602081015182526040810151602083015260608101516001600160401b0381116104cb5760209082010185601f820112156104cb5780516131eb81612b01565b916131f9604051938461297b565b81835260208084019260071b820101908882116104cb57602001915b81831061323b57505050604083015260800151606082015281526020948501940161316f565b6080838a03126104cb5760206080916040516132568161290a565b855181528286015161326781612b26565b83820152604086015161327981612b31565b6040820152606086015161328c81612b31565b6060820152815201920191613215565b6020818303126104cb578051906001600160401b0382116104cb57016040818303126104cb57604051916132cf83612945565b81516132da81612b26565b835260208201516001600160401b0381116104cb576132f9920161312d565b602082015290565b6001461461333d5761a4b146146133385762aa36a746146133315762066eee461461332a575f90565b62aa36a790565b62066eee90565b600190565b61a4b190565b6040519061335260208361297b565b5f808352366020840137565b6040805190919061336f838261297b565b6001815291601f1901366020840137565b9061338a82612b01565b613397604051918261297b565b82815280926133a8601f1991612b01565b0190602036910137565b906133bb613301565b8015159283613479575b156134535782613433575b601454831561342a576133ea6133e5826128af565b613380565b935f5b82811061340a57506133fd575050565b6134079084612d08565b52565b80613419610fcb600193612c56565b6134238289612d08565b52016133ed565b6133ea81613380565b915061344d6110d8611af8845f52601060205260405f2090565b916133d0565b9091156134705761346261335e565b9061346c82612cfb565b5290565b5061286c613343565b4682141593506133c5565b3561286c81612b18565b91905f9261349b81612862565b906040810135926134bf61063c8460018060a01b03165f52600f60205260405f2090565b936134cd6020860151151590565b6137a8576134da8361481f565b6011546134e961066c82613b01565b6134f1613301565b90803b156104cb576040516303827e8d60e01b81526001600160a01b03871660048201526024810192909252604482018390525f90829060649082905afa8015610a6a57613794575b5060608501918251828115159182613789575b505080613780575b8061375d575b61373c57811590811596876136d4575b8280613686575b613638575b505061077660208796946107b9969461079b94896115fb9b9061362e575b80613623575b806135f9575b6135de575b156135d6575051935b846135bb575b01613484565b6135d186610854875f52600d60205260405f2090565b6135b5565b9050936135af565b6135f461089584515f52600d60205260405f2090565b6135a6565b506136106108c184515f52600d60205260405f2090565b6001600160a01b038981169116146135a1565b50818351141561359b565b5082511515613595565b61079b92995086946107b99694610776936136776020946136706109226115fb9e9d60018060a01b03165f52600f60205260405f2090565b89836141d3565b9b945094965094969750613577565b506001600160a01b0387165f908152600e602052604090206136a79061095b565b6001600160a01b0388165f908152600e60205260409020602201546001600160c01b039091161415613572565b6136e96108c1855f52600d60205260405f2090565b6001600160a01b0381168015159081613728575b50613708575061356b565b63d6a305d960e01b5f5260048590526001600160a01b031660245260445ffd5b6001600160a01b038a16141590505f6136fd565b825163aef430a360e01b5f526001600160a01b03861660045260245260445ffd5b506001600160a01b0385165f908152600e6020526040902060220154151561355b565b50811515613555565b14159050825f61354d565b80610a5e5f6137a29361297b565b5f61353a565b6304bba81f60e41b5f526001600160a01b03841660045260245ffd5b6001600160401b03811161292557601f01601f191660200190565b604051906137ee60208361297b565b5f8252565b6001600160a01b03165f80808085855af13d1561384a573d613814816137c4565b90613822604051928361297b565b81525f60203d92013e5b15613835575050565b630590bd2d60e41b5f5260045260245260445ffd5b61382c565b61385a6103e6612ae5565b7f0000000000000000000000000000000000000000000000000000000000000000613884816120e1565b156138c3576138b4906001600160a01b0390811673111100000000000000000000000000000000111101166103e6565b6001600160a01b039091161490565b6040516373c6754960e11b81526020816004817f00000000000000000000000000000000000000000000000000000000000000006001600160a01b03165afa908115610a6a575f916139d5575b506001600160a01b0390811692168214918261392b57505090565b60405163ab5d894360e01b8152919250602090829060049082905afa908115610a6a576004916020915f916139b8575b50604051634032458160e11b815292839182906001600160a01b03165afa908115610a6a575f91613999575b506001600160a01b0391821691161490565b6139b2915060203d602011611b8a57611b7c818361297b565b5f613987565b6139cf9150823d8411611b8a57611b7c818361297b565b5f61395b565b6139ee915060203d602011611b8a57611b7c818361297b565b5f613910565b90915f5b83811015613a6f578060051b830135607e19843603018112156104cb578301908135606083013592602081013590604081013590601e19813603018212156104cb5701908135916001600160401b0383116104cb57602001908260071b360382136104cb57600195613a6994614b92565b016139f8565b50915050565b6011555f6013556001600160a01b03613a8c6149a4565b166bffffffffffffffffffffffff60a01b5f5416175f55565b6011556013556001600160a01b03613a8c6149a4565b613ac36130f5565b600481101580611f3f57600382148015613af5575b613ae0575050565b62a7958f60e81b5f52611f3f5760045260245ffd5b50505f60028214613ad8565b6040516331a9108f60e11b815260048101919091526020816024817f00000000000000000000000000000000000000000000000000000000000000006001600160a01b03165afa908115610a6a575f91613b59575090565b61286c915060203d602011611b8a57611b7c818361297b565b908160209103126104cb575161286c816124de565b6001600160a01b039182168152911660208201526040810191909152606081019190915260016080820181905260a082015260c00190565b613bc76149a4565b916001600160a01b03808416908316141580613c23575b613be757505050565b604051631326f75560e11b81526001600160a01b0392831660048201529290911660248084019190915260448301919091526064820152608490fd5b50604051631a45b42760e11b815260208180613c46602486888a60048601613b87565b03817f00000000000000000000000000000000000000000000000000000000000000006001600160a01b03165afa908115610a6a575f91613c89575b5015613bde565b613ca2915060203d602011612fe257612fd4818361297b565b5f613c82565b6001600160a01b03169061eeee8214613d0f576040516370a0823160e01b81526001600160a01b03909116600482015290602090829060249082905afa908115610a6a575f91613cf6575090565b61286c915060203d602011611df957611dec818361297b565b90503190565b6040516323b872dd60e01b5f9081526001600160a01b039384166004529290931660245260449390935260209060648180865af160015f5114811615613d83575b6040919091525f60605215613d685750565b635274afe760e01b5f526001600160a01b031660045260245ffd5b6001811516613d99573d15833b15151616613d56565b503d5f823e3d90fd5b805180835260209291819084018484015e5f828201840152601f01601f1916010190565b6001600160a01b0391821681526020810192909252604082019290925291811660608301526080820192909252911660a082015260e060c0820181905261286c92910190613da2565b15613e1657565b634e487b7160e01b5f52600160045260245ffd5b601154919392613e3f6103e6808088876140d0565b6001600160a01b03811615613ee15790602091865f613e5e3083613ca8565b95613e8a613e6a6137df565b6040516313da831760e01b8152998a978896879530938460048901613dc6565b03925af1908115610a6a576115fb925f92613ebc575b50613eb690613eb183963090613ca8565b6128d8565b14613e0f565b613eb6919250613eda9060203d602011611df957611dec818361297b565b9190613ea0565b63b61c181f60e01b5f5260048490526001600160a01b03861660245260445ffd5b9193906001600160801b038511614028576001600160801b03831161401557613f468285878691608093916040519384526020840152604083015260608201522090565b6001600160a01b0382165f908152600e60205260409020909590936002850193613f708886614ce3565b600186019283549681880180981161083957613fb96022613fbf927fc92fa1150c24ee5470c272112539aab52450a5e05573e7ea7bdfb98829b893219a614010985501546128ca565b96614dcf565b92613fc86149a4565b604080519b8c5260208c0198909852968a01939093526060890192909252608088019190915260a08701526001600160a01b0392831660c087015291169390819060e0820190565b0390a3565b826335bf001160e11b5f5260045260245ffd5b846335bf001160e11b5f5260045260245ffd5b604051630862026560e41b8152600481019190915261eeee60248201526020816044817f00000000000000000000000000000000000000000000000000000000000000006001600160a01b03165afa908115610a6a575f9161409b575090565b90506020813d6020116140c8575b816140b66020938361297b565b810103126104cb575161286c81610d7f565b3d91506140a9565b604051630862026560e41b815260048101919091526001600160a01b039091166024820152602081806044810103817f00000000000000000000000000000000000000000000000000000000000000006001600160a01b03165afa908115610a6a575f9161409b575090565b60018060a01b031690815f52600560205260405f20805490828201809211610839575560035490808201809211610839577f2a3798c6648c17f70b43a33a8378cec543367ac1543e62aa7b392660569717779160035561419a6149a4565b604080519283526001600160a01b0391909116602083015290a2565b6001600160401b03166001600160401b0381146108395760010190565b906060830151156142f4576141e6613abb565b6001600160a01b0381165f908152600e602052604090209060228201549081156142ed576115fb9460018401915f8354935561428461423461422f87546001600160401b031690565b6141b6565b865467ffffffffffffffff19166001600160401b0382161787559461427f61425e60028901614dcf565b88546001600160401b0316604084901b67ffffffffffffffff191617909855565b6128ca565b9586867f47c5615513b0f669da2dd7e3362a34610ca2695d0a0e2da2160cee952eab203c6142e56142b36149a4565b604080519586526001600160401b038b1660208701526001600160a01b03918216908601528616939081906060820190565b0390a3614f41565b5050505050565b63027edf0360e11b5f9081526001600160a01b0391909116600452602490fd5b9080602083519182815201916020808360051b8301019401925f915b83831061433f57505050505090565b9091929394601f1982820301835285519060808101918051825260208101516020830152604081015192608060408401528351809152602060a084019401905f905b8082106143a7575050506060908101519101529460209081019493600101920190614330565b909194602060806001926001600160801b0360608a518051845260ff8682015116868501528260408201511660408501520151166060820152019601920190614381565b919091604051634ca0e69b60e01b602082015261443a8161442c602482016020815260ff885116602082015260606020890151916040808201520190614314565b03601f19810183528261297b565b614442612fe9565b907f000000000000000000000000000000000000000000000000000000000000000061446d816120e1565b6144a257821561448e5761448860206115fb959601516152a2565b926153a4565b631587a6a360e31b5f52600483905260245ffd5b90918094506144b6576115fb92935061511d565b636ba3461960e11b5f52600484905260245ffd5b6011548281936145dc575b5050604051632eec7b5560e11b8152600481018390529290506020836024816001600160a01b037f0000000000000000000000000000000000000000000000000000000000000000165afa908115610a6a57614586946020945f936145bb575b506040516363fdc96f60e11b8152600481019490945260248401919091526001600160a01b0316604483015260a060648301525f60a4830181905260848301819052919384928391829060c4820190565b03926001600160a01b03165af18015610a6a576145a05750565b6145b89060203d602011611df957611dec818361297b565b50565b5f9193506145d590863d8811611b8a57611b7c818361297b565b9290614535565b6145e592615989565b5f81816144d5565b6001600160c01b039081165f19019190821161083957565b9290969594939164010000000085101561480b576146216130f5565b61462a81611f35565b600381141590816147f6575b50806147c7575b6147ab576001600160a01b0388165f908152600e602052604090206146619061095b565b6001600160c01b038116151590869082614793575b505061477257604080516001600160a01b038a16602082019081526146c2926146bc92906146a7908290810161442c565b5190206bffffffffffffffffffffffff191690565b60601c90565b6001600160a01b0381165f90815260096020908152604080832060088a901c8452909152902054600160ff88161b16614751579061472c60026147266115fb9a9b6104548a61221d61474b9a999860018060a01b03165f52600960205260405f2090565b01614dcf565b9491608093916040519384526020840152604083015260608201522090565b90615901565b632939af3b60e21b5f526001600160a01b038916600452602486905260445ffd5b632939af3b60e21b5f526001600160a01b038816600452602485905260445ffd5b6147a2919250611eb3906145ed565b1015855f614676565b6304bba81f60e41b5f526001600160a01b03881660045260245ffd5b506001600160a01b0388165f908152600f602052604090206147f1906110d8905460081c60ff1690565b61463d565b6002915061480381611f35565b14155f614636565b6309f6605160e41b5f52600485905260245ffd5b61eeee813561482d81610d7f565b6001600160a01b0316146148865760200162030d4063ffffffff823561485281612b18565b161061485b5750565b6148676109e191613484565b630555d0f160e41b5f5263ffffffff1660045262030d40602452604490565b6040013561eeee811415806148ae575b61489d5750565b62e80c7760e31b5f5260045260245ffd5b50801515614896565b90916149a0576148c56149a4565b916001600160a01b0380841690831614158061491c575b6148e557505050565b604051631326f75560e11b81526001600160a01b039283166004820152929091166024830152604482015260206064820152608490fd5b50604051631a45b42760e11b81526020818061493e8386888a60048601613b87565b03817f00000000000000000000000000000000000000000000000000000000000000006001600160a01b03165afa908115610a6a575f91614981575b50156148dc565b61499a915060203d602011612fe257612fd4818361297b565b5f61497a565b5050565b6014361015806149cb575b156149c75760131936013681116104cb573560601c90565b3390565b50337f00000000000000000000000000000000000000000000000000000000000000006001600160a01b0316146149af565b601454600160401b811015612925576001810160145560145481101561285d5760145f527fce6d7b5282bd9a3661ae061feed1dbda4e52ab073b1f9285be6e155d9c38d4ec0155565b8181029291811591840414171561083957565b8054905f815581614a68575050565b81600302916003830403610839575f5260205f20908101905b818110614a8c575050565b6003905f81555f60018201555f600282015501614a81565b919081101561285d5760071b0190565b805482101561285d575f52600360205f20910201905f90565b3561286c81612b31565b8054600160401b81101561292557614af491600182018155614ab4565b614b7f576002614b6260606115fb9480358555600185016020820135614b1981612b26565b815460ff70ffffffffffffffffffffffffffffffff006040860135614b3d81612b31565b60081b1692169070ffffffffffffffffffffffffffffffffff19161717905501614acd565b9101906001600160801b03166001600160801b0319825416179055565b634e487b7160e01b5f525f60045260245ffd5b90919392934682148015614ccc575b6142ed57614bb7825f52600760205260405f2090565b548311156142ed57614c2e92614bd5835f52600760205260405f2090565b55614be8825f52600260205260405f2090565b55614c016110d8611af8835f52601060205260405f2090565b614c9c575b614c20614c1b825f52601560205260405f2090565b614a59565b5f52601560205260405f2090565b905f5b818110614c3e5750505050565b80614c55614c4f6001938588614aa4565b85614ad7565b614c60818487614aa4565b35614c7c6108c1848060a01b03925f52600d60205260405f2090565b1680614c8a575b5001614c31565b614c948286614ab4565b50555f614c83565b614cbe614cb1825f52601060205260405f2090565b805460ff19166001179055565b614cc7816149fd565b614c06565b508115614ba1565b602082101561285d5701905f90565b916020830190614cf38254612883565b92838355839463ffffffff94858111614d7457505f95915b60208710614d2c57845463515447c160e01b5f52600452602486905260445ffd5b600180841614614d6157614d43610fcb8884614cd4565b5f526020526001614d5860405f209360011c90565b96019591614d0b565b93506115fb945061154e92959150614cd4565b63515447c160e01b5f52600452602485905260445ffd5b90602081101561285d5760051b0190565b61042081019392915f825b60208210614db9575050506104000152565b6020806001928551815201930191019091614da7565b6020810154908115614e6d57614de361304d565b905f5b60208110614e3d575050604051634a490c2560e01b81529160209183918291614e13919060048401614d9c565b0381730b2b545a4e2fd65d29f2417f1b26698d71769a8f5af4908115610a6a575f91613cf6575090565b80600180921b8516614e50575b01614de6565b614e5d610fcb8285614cd4565b614e678286614d8b565b52614e4a565b50507f27ae5ba08d7291c96c8cbddcc148bf48a6d68c7974b94356f53754ef6171d75790565b6020818303126104cb578051906001600160401b0382116104cb57018082039160c083126104cb576040805193614ec985612960565b8351614ed481612b26565b8552602084015160208601528184015182860152605f1901126104cb57604051614efd81612945565b6060830151614f0b81612d76565b815260808301516020820152606084015260a08201516001600160401b0381116104cb57614f39920161312d565b608082015290565b949091939550614f5c600160125401806012554260801b1790565b906001600160401b0360115497614f71613301565b6060880151604051634cba057b60e11b81526001600160a01b037f0000000000000000000000000000000000000000000000000000000000000000811660048301527f0000000000000000000000000000000000000000000000000000000000000000166024820152604481019b909b5260648b019190915260848a015260a489018690521660c488015260e487015260016101048701526101248601525f8561014481730b2b545a4e2fd65d29f2417f1b26698d71769a8f5af4938415610a6a576115fb955f95615044575b50615b84565b6150619195503d805f833e615059818361297b565b810190614e93565b935f61503e565b6020818303126104cb578051906001600160401b0382116104cb570181601f820112156104cb5780519061509b826137c4565b926150a9604051948561297b565b828452602083830101116104cb57815f9260208093018386015e8301015290565b6001600160a01b03918216815291166020820152604081019190915260806060820181905261286c92910190613da2565b6001600160a01b03909116815260406020820181905261286c92910190613da2565b615151915060209061512d612ae5565b6040516349460b4d60e11b815293849283926001600160a01b0316600484016150fb565b03815f60645af18015610a6a576145a05750565b9190915f906151756103e6612ae5565b6001600160a01b0382169590919061eeee87141580615299575b1561528757826151c66151b88860605f9501956151b2875160018060a01b031690565b90615c97565b93516001600160a01b031690565b6151ec6151d16137df565b604051637b3a3c8b60e01b8152998a948594600486016150ca565b0381837f00000000000000000000000000000000000000000000000000000000000000006001600160a01b03165af1908115610a6a576152549660209661523893615267575b50615d29565b6040518095819482936349460b4d60e11b8452600484016150fb565b039160645af18015610a6a576145a05750565b615282903d805f833e61527a818361297b565b810190615068565b615232565b50509050615254935060209290615238565b5085151561518f565b5f9080515f915b8183106152dc57505050620124f8810290808204620124f8149015171561083957620493e00180620493e0116108395790565b90919260406152eb8584612d08565b510151518101809111610839579260010191906152a9565b6001600160a01b03918216815291811660208301529091166040820152606081019190915260a06080820181905261286c92910190613da2565b60409061286c939281528160208201520190613da2565b6001600160a01b03918216815291811660208301529091166040820152606081019190915263ffffffff91909116608082015260a081019190915260e060c0820181905261286c92910190613da2565b815160405163a66b327d60e01b815260048101919091524860248201529094939192506020816044816001600160a01b037f0000000000000000000000000000000000000000000000000000000000000000165afa908115610a6a575f91615448575b506154124883614a46565b8101808211610839578086106154315750936115fb93945f4892615df0565b6328a7a8cb60e11b5f52600486905260245260445ffd5b615461915060203d602011611df957611dec818361297b565b5f615407565b835160405163a66b327d60e01b815260048101919091524860248201529095939490915f916001600160a01b037f000000000000000000000000000000000000000000000000000000000000000016602085604481845afa948515610a6a575f956157d3575b506154e16154db4889614a46565b866128bd565b6001600160a01b038a16939061eeee851415806157ca575b1561579857604051635ed004ff60e11b81526001600160a01b038c8116600483015290947f000000000000000000000000000000000000000000000000000000000000000090911693929190602086602481885afa958615610a6a578d8b915f98615775575b505f9061556d6103e6612ae5565b906155966155796137df565b604051635063b54b60e11b81529586948594309060048701615303565b03816001600160a01b038b165afa948515610a6a576155e5956020925f9161575b575b505160405163a66b327d60e01b8152600481019190915248602482015295869190829081906044820190565b03915afa938415610a6a575f94615737575b50604001906156286156224861561d615614865163ffffffff1690565b63ffffffff1690565b614a46565b856128bd565b9261563384836128bd565b81106157125781848f928d9594615649916128d8565b90615653916128d8565b60011c9485615661916128bd565b9461566b916128bd565b9a8161567692615c97565b5061567f6149a4565b9c615688612ae5565b6001600160a01b0316915163ffffffff16946156a26137df565b6040519182916156b5916020840161533d565b03601f19810182526156c7908261297b565b604051634fb1a07b60e01b81529e8f96879586956156eb9548949060048901615354565b03915a945f95f1918215610a6a576115fb9861570b936152675750615d29565b4892615df0565b61571f846109e1936128bd565b6328a7a8cb60e11b5f52600491909152602452604490565b60409194506157549060203d602011611df957611dec818361297b565b93906155f7565b61576f91503d805f833e61527a818361297b565b5f6155b9565b5f9198506157919060203d602011611b8a57611b7c818361297b565b979061555f565b94509998505050508087106157b357506115fb94959161570b565b6328a7a8cb60e11b5f52600487905260245260445ffd5b508715156154f9565b6157ed91955060203d602011611df957611dec818361297b565b935f6154cd565b61040061042092959493610440830196835260208301370152565b909260209060016158308460018060a01b03165f52600a60205260405f2090565b01549461585160405195869384936307fbe4d560e41b8552600485016157f4565b0381730b2b545a4e2fd65d29f2417f1b26698d71769a8f5af4918215610a6a575f926158e0575b508282146158db576001600160a01b03165f908152600c60205260409020905f5b600481106158a75750505090565b6158b4610fcb8285612d91565b801515806158d2575b6158ca5750600101615899565b935050505090565b508083146158bd565b505090565b6158fa91925060203d602011611df957611dec818361297b565b905f615878565b9260209161592360405194859384936307fbe4d560e41b8552600485016157f4565b0381730b2b545a4e2fd65d29f2417f1b26698d71769a8f5af4908115610a6a575f9161596a575b50818103615956575050565b6272c3e960e11b5f5260045260245260445ffd5b615983915060203d602011611df957611dec818361297b565b5f61594a565b9061599382613063565b808211615b6c57506159a86103e683856140d0565b906001600160a01b03821615615b4b576001600160a01b038316935f9261eeee8614801592908590615b4357506040516370a0823160e01b81523060048201526020816024818b5afa908115610a6a575f91615b24575b5094615a0c85848a615da1565b823b156104cb57604051639e6eec0560e01b815260048101929092526001600160a01b0387166024830152604482018590525f6064830181905260c0608484015260c4830181905260e060a484015260e4830181905291928391610104918391905af18015610a6a57615b10575b50615a86575b50505050565b615a8f916128d8565b6040516370a0823160e01b815230600482015292909190602090849060249082905afa928315610a6a575f93615aef575b50818303615ace5780615a80565b63884aa24960e01b5f526001600160a01b031660045260245260445260645ffd5b615b0991935060203d602011611df957611dec818361297b565b915f615ac0565b80610a5e5f615b1e9361297b565b5f615a7a565b615b3d915060203d602011611df957611dec818361297b565b5f6159ff565b945083615a0c565b63b61c181f60e01b5f5260048490526001600160a01b03831660245260445ffd5b6360ec3e7160e01b5f5260049190915260245260445ffd5b94939092916040519163331e807b60e11b6020840152615c0f83615c01602482016020815260ff85511660208201526020850151604082015260408501516060820152615bec60608601516080830190602080916001600160401b0381511684520151910152565b60e060808601519160c0808201520190614314565b03601f19810185528461297b565b7f0000000000000000000000000000000000000000000000000000000000000000615c39816120e1565b615c6f578615615c5b5795615c5560806115fb979801516152a2565b94615467565b631587a6a360e31b5f52600487905260245ffd5b5090919285615c83576115fb949550615165565b636ba3461960e11b5f52600486905260245ffd5b604051635ed004ff60e11b81526001600160a01b0392831660048201529093929091602090839060249082907f0000000000000000000000000000000000000000000000000000000000000000165afa8015610a6a576115fb925f91615d0a575b509384906001600160a01b0316615da1565b615d23915060203d602011611b8a57611b7c818361297b565b5f615cf8565b90615d355f8284615ebf565b15615d3e575050565b615d488183615f0c565b15615d80575f615d589183615f70565b15615d605750565b635274afe760e01b5f9081526001600160a01b0391909116600452602490fd5b50635274afe760e01b5f9081526001600160a01b0391909116600452602490fd5b9190615dae828285615ebf565b15615db857505050565b615dc28184615f0c565b15615dd25790615d589183615f70565b635274afe760e01b5f9081526001600160a01b038416600452602490fd5b939493909290916001600160a01b03615e07612ae5565b169380840180941161083957602095610100615e8492615e256149a4565b956040519a8b998a988998633737453560e11b8a5260048a019560018060a01b03841687528e870152604086015260018060a01b0316606085015260018060a01b0316608084015260a083015260c08201528160e08201520190613da2565b03917f00000000000000000000000000000000000000000000000000000000000000006001600160a01b03165af18015610a6a576145a05750565b92916040519163095ea7b360e01b5f5260018060a01b031660045260245260205f60448180875af19260015f5114841615615efb575b50604052565b3d15903b151516909216915f615ef5565b60405163095ea7b360e01b5f9081526001600160a01b03909316600452602483905290929160209060448180875af19260015f5114841615615f4e5750604052565b60018492941516615f67573b15153d151616915f615ef5565b833d5f823e3d90fd5b92916040519163095ea7b360e01b5f5260018060a01b031660045260245260205f60448180875af19260015f5114841615615f4e575060405256fef0c57e16840df040f15088dc2f81fe391c3923bec73e23a9662efc9c229c6a00a164736f6c634300081c000af0c57e16840df040f15088dc2f81fe391c3923bec73e23a9662efc9c229c6a00",
	"gitCommit": "npm:@bananapus/suckers-v6@1.0.2",
	"gitDirty": false,
	"history": []
}