{
	"format": "sphinx-sol-ct-artifact-1",
	"address": "0x132b87830d686413851daff7b050524576536643",
	"sourceName": "node_modules/@bananapus/suckers-v6/src/JBCCIPSucker.sol",
	"contractName": "JBCCIPSucker",
	"chainId": "0x66eee",
	"abi": [
		{
			"type": "constructor",
			"inputs": [
				{
					"name": "deployer",
					"type": "address",
					"internalType": "contract JBCCIPSuckerDeployer"
				},
				{
					"name": "directory",
					"type": "address",
					"internalType": "contract IJBDirectory"
				},
				{
					"name": "permissions",
					"type": "address",
					"internalType": "contract IJBPermissions"
				},
				{
					"name": "tokens",
					"type": "address",
					"internalType": "contract IJBTokens"
				},
				{
					"name": "feeProjectId",
					"type": "uint256",
					"internalType": "uint256"
				},
				{
					"name": "registry",
					"type": "address",
					"internalType": "contract IJBSuckerRegistry"
				},
				{
					"name": "trustedForwarder",
					"type": "address",
					"internalType": "address"
				}
			],
			"stateMutability": "nonpayable"
		},
		{
			"type": "receive",
			"stateMutability": "payable"
		},
		{
			"type": "function",
			"name": "CCIP_ROUTER",
			"inputs": [],
			"outputs": [
				{
					"name": "",
					"type": "address",
					"internalType": "contract ICCIPRouter"
				}
			],
			"stateMutability": "view"
		},
		{
			"type": "function",
			"name": "DIRECTORY",
			"inputs": [],
			"outputs": [
				{
					"name": "",
					"type": "address",
					"internalType": "contract IJBDirectory"
				}
			],
			"stateMutability": "view"
		},
		{
			"type": "function",
			"name": "FEE_PROJECT_ID",
			"inputs": [],
			"outputs": [
				{
					"name": "",
					"type": "uint256",
					"internalType": "uint256"
				}
			],
			"stateMutability": "view"
		},
		{
			"type": "function",
			"name": "MESSAGE_VERSION",
			"inputs": [],
			"outputs": [
				{
					"name": "",
					"type": "uint8",
					"internalType": "uint8"
				}
			],
			"stateMutability": "view"
		},
		{
			"type": "function",
			"name": "MESSENGER_BASE_GAS_LIMIT",
			"inputs": [],
			"outputs": [
				{
					"name": "",
					"type": "uint32",
					"internalType": "uint32"
				}
			],
			"stateMutability": "view"
		},
		{
			"type": "function",
			"name": "MESSENGER_ERC20_MIN_GAS_LIMIT",
			"inputs": [],
			"outputs": [
				{
					"name": "",
					"type": "uint32",
					"internalType": "uint32"
				}
			],
			"stateMutability": "view"
		},
		{
			"type": "function",
			"name": "PERMISSIONS",
			"inputs": [],
			"outputs": [
				{
					"name": "",
					"type": "address",
					"internalType": "contract IJBPermissions"
				}
			],
			"stateMutability": "view"
		},
		{
			"type": "function",
			"name": "PROJECTS",
			"inputs": [],
			"outputs": [
				{
					"name": "",
					"type": "address",
					"internalType": "contract IJBProjects"
				}
			],
			"stateMutability": "view"
		},
		{
			"type": "function",
			"name": "REGISTRY",
			"inputs": [],
			"outputs": [
				{
					"name": "",
					"type": "address",
					"internalType": "contract IJBSuckerRegistry"
				}
			],
			"stateMutability": "view"
		},
		{
			"type": "function",
			"name": "REMOTE_CHAIN_ID",
			"inputs": [],
			"outputs": [
				{
					"name": "",
					"type": "uint256",
					"internalType": "uint256"
				}
			],
			"stateMutability": "view"
		},
		{
			"type": "function",
			"name": "REMOTE_CHAIN_SELECTOR",
			"inputs": [],
			"outputs": [
				{
					"name": "",
					"type": "uint64",
					"internalType": "uint64"
				}
			],
			"stateMutability": "view"
		},
		{
			"type": "function",
			"name": "TOKENS",
			"inputs": [],
			"outputs": [
				{
					"name": "",
					"type": "address",
					"internalType": "contract IJBTokens"
				}
			],
			"stateMutability": "view"
		},
		{
			"type": "function",
			"name": "amountToAddToBalanceOf",
			"inputs": [
				{
					"name": "token",
					"type": "address",
					"internalType": "address"
				}
			],
			"outputs": [
				{
					"name": "",
					"type": "uint256",
					"internalType": "uint256"
				}
			],
			"stateMutability": "view"
		},
		{
			"type": "function",
			"name": "ccipReceive",
			"inputs": [
				{
					"name": "any2EvmMessage",
					"type": "tuple",
					"internalType": "struct Client.Any2EVMMessage",
					"components": [
						{
							"name": "messageId",
							"type": "bytes32",
							"internalType": "bytes32"
						},
						{
							"name": "sourceChainSelector",
							"type": "uint64",
							"internalType": "uint64"
						},
						{
							"name": "sender",
							"type": "bytes",
							"internalType": "bytes"
						},
						{
							"name": "data",
							"type": "bytes",
							"internalType": "bytes"
						},
						{
							"name": "destTokenAmounts",
							"type": "tuple[]",
							"internalType": "struct Client.EVMTokenAmount[]",
							"components": [
								{
									"name": "token",
									"type": "address",
									"internalType": "address"
								},
								{
									"name": "amount",
									"type": "uint256",
									"internalType": "uint256"
								}
							]
						}
					]
				}
			],
			"outputs": [],
			"stateMutability": "nonpayable"
		},
		{
			"type": "function",
			"name": "claim",
			"inputs": [
				{
					"name": "claims",
					"type": "tuple[]",
					"internalType": "struct JBClaim[]",
					"components": [
						{
							"name": "token",
							"type": "address",
							"internalType": "address"
						},
						{
							"name": "leaf",
							"type": "tuple",
							"internalType": "struct JBLeaf",
							"components": [
								{
									"name": "index",
									"type": "uint256",
									"internalType": "uint256"
								},
								{
									"name": "beneficiary",
									"type": "bytes32",
									"internalType": "bytes32"
								},
								{
									"name": "projectTokenCount",
									"type": "uint256",
									"internalType": "uint256"
								},
								{
									"name": "terminalTokenAmount",
									"type": "uint256",
									"internalType": "uint256"
								},
								{
									"name": "metadata",
									"type": "bytes32",
									"internalType": "bytes32"
								}
							]
						},
						{
							"name": "proof",
							"type": "bytes32[32]",
							"internalType": "bytes32[32]"
						}
					]
				}
			],
			"outputs": [],
			"stateMutability": "nonpayable"
		},
		{
			"type": "function",
			"name": "claim",
			"inputs": [
				{
					"name": "claimData",
					"type": "tuple",
					"internalType": "struct JBClaim",
					"components": [
						{
							"name": "token",
							"type": "address",
							"internalType": "address"
						},
						{
							"name": "leaf",
							"type": "tuple",
							"internalType": "struct JBLeaf",
							"components": [
								{
									"name": "index",
									"type": "uint256",
									"internalType": "uint256"
								},
								{
									"name": "beneficiary",
									"type": "bytes32",
									"internalType": "bytes32"
								},
								{
									"name": "projectTokenCount",
									"type": "uint256",
									"internalType": "uint256"
								},
								{
									"name": "terminalTokenAmount",
									"type": "uint256",
									"internalType": "uint256"
								},
								{
									"name": "metadata",
									"type": "bytes32",
									"internalType": "bytes32"
								}
							]
						},
						{
							"name": "proof",
							"type": "bytes32[32]",
							"internalType": "bytes32[32]"
						}
					]
				}
			],
			"outputs": [],
			"stateMutability": "nonpayable"
		},
		{
			"type": "function",
			"name": "claimRetainedToRemoteFee",
			"inputs": [
				{
					"name": "beneficiary",
					"type": "address",
					"internalType": "address payable"
				}
			],
			"outputs": [],
			"stateMutability": "nonpayable"
		},
		{
			"type": "function",
			"name": "claimRetainedTransportPaymentRefund",
			"inputs": [
				{
					"name": "beneficiary",
					"type": "address",
					"internalType": "address payable"
				}
			],
			"outputs": [],
			"stateMutability": "nonpayable"
		},
		{
			"type": "function",
			"name": "deployer",
			"inputs": [],
			"outputs": [
				{
					"name": "",
					"type": "address",
					"internalType": "address"
				}
			],
			"stateMutability": "view"
		},
		{
			"type": "function",
			"name": "enableEmergencyHatchFor",
			"inputs": [
				{
					"name": "tokens",
					"type": "address[]",
					"internalType": "address[]"
				}
			],
			"outputs": [],
			"stateMutability": "nonpayable"
		},
		{
			"type": "function",
			"name": "executedLeafHashOf",
			"inputs": [
				{
					"name": "token",
					"type": "address",
					"internalType": "address"
				},
				{
					"name": "index",
					"type": "uint256",
					"internalType": "uint256"
				}
			],
			"outputs": [
				{
					"name": "",
					"type": "bytes32",
					"internalType": "bytes32"
				}
			],
			"stateMutability": "view"
		},
		{
			"type": "function",
			"name": "exitThroughEmergencyHatch",
			"inputs": [
				{
					"name": "claimData",
					"type": "tuple",
					"internalType": "struct JBClaim",
					"components": [
						{
							"name": "token",
							"type": "address",
							"internalType": "address"
						},
						{
							"name": "leaf",
							"type": "tuple",
							"internalType": "struct JBLeaf",
							"components": [
								{
									"name": "index",
									"type": "uint256",
									"internalType": "uint256"
								},
								{
									"name": "beneficiary",
									"type": "bytes32",
									"internalType": "bytes32"
								},
								{
									"name": "projectTokenCount",
									"type": "uint256",
									"internalType": "uint256"
								},
								{
									"name": "terminalTokenAmount",
									"type": "uint256",
									"internalType": "uint256"
								},
								{
									"name": "metadata",
									"type": "bytes32",
									"internalType": "bytes32"
								}
							]
						},
						{
							"name": "proof",
							"type": "bytes32[32]",
							"internalType": "bytes32[32]"
						}
					]
				}
			],
			"outputs": [],
			"stateMutability": "nonpayable"
		},
		{
			"type": "function",
			"name": "fromRemote",
			"inputs": [
				{
					"name": "root",
					"type": "tuple",
					"internalType": "struct JBMessageRoot",
					"components": [
						{
							"name": "version",
							"type": "uint8",
							"internalType": "uint8"
						},
						{
							"name": "token",
							"type": "bytes32",
							"internalType": "bytes32"
						},
						{
							"name": "amount",
							"type": "uint256",
							"internalType": "uint256"
						},
						{
							"name": "remoteRoot",
							"type": "tuple",
							"internalType": "struct JBInboxTreeRoot",
							"components": [
								{
									"name": "nonce",
									"type": "uint64",
									"internalType": "uint64"
								},
								{
									"name": "root",
									"type": "bytes32",
									"internalType": "bytes32"
								}
							]
						},
						{
							"name": "sourceTotalSupply",
							"type": "uint256",
							"internalType": "uint256"
						},
						{
							"name": "sourceContexts",
							"type": "tuple[]",
							"internalType": "struct JBSourceContext[]",
							"components": [
								{
									"name": "token",
									"type": "bytes32",
									"internalType": "bytes32"
								},
								{
									"name": "decimals",
									"type": "uint8",
									"internalType": "uint8"
								},
								{
									"name": "surplus",
									"type": "uint128",
									"internalType": "uint128"
								},
								{
									"name": "balance",
									"type": "uint128",
									"internalType": "uint128"
								}
							]
						},
						{
							"name": "sourceTimestamp",
							"type": "uint256",
							"internalType": "uint256"
						}
					]
				}
			],
			"outputs": [],
			"stateMutability": "payable"
		},
		{
			"type": "function",
			"name": "getRouter",
			"inputs": [],
			"outputs": [
				{
					"name": "router",
					"type": "address",
					"internalType": "address"
				}
			],
			"stateMutability": "view"
		},
		{
			"type": "function",
			"name": "inboxOf",
			"inputs": [
				{
					"name": "token",
					"type": "address",
					"internalType": "address"
				}
			],
			"outputs": [
				{
					"name": "",
					"type": "tuple",
					"internalType": "struct JBInboxTreeRoot",
					"components": [
						{
							"name": "nonce",
							"type": "uint64",
							"internalType": "uint64"
						},
						{
							"name": "root",
							"type": "bytes32",
							"internalType": "bytes32"
						}
					]
				}
			],
			"stateMutability": "view"
		},
		{
			"type": "function",
			"name": "initialize",
			"inputs": [
				{
					"name": "localProjectId",
					"type": "uint256",
					"internalType": "uint256"
				},
				{
					"name": "remotePeer",
					"type": "bytes32",
					"internalType": "bytes32"
				}
			],
			"outputs": [],
			"stateMutability": "nonpayable"
		},
		{
			"type": "function",
			"name": "initialize",
			"inputs": [
				{
					"name": "initialProjectId",
					"type": "uint256",
					"internalType": "uint256"
				}
			],
			"outputs": [],
			"stateMutability": "nonpayable"
		},
		{
			"type": "function",
			"name": "isMapped",
			"inputs": [
				{
					"name": "token",
					"type": "address",
					"internalType": "address"
				}
			],
			"outputs": [
				{
					"name": "",
					"type": "bool",
					"internalType": "bool"
				}
			],
			"stateMutability": "view"
		},
		{
			"type": "function",
			"name": "isTrustedForwarder",
			"inputs": [
				{
					"name": "forwarder",
					"type": "address",
					"internalType": "address"
				}
			],
			"outputs": [
				{
					"name": "",
					"type": "bool",
					"internalType": "bool"
				}
			],
			"stateMutability": "view"
		},
		{
			"type": "function",
			"name": "mapToken",
			"inputs": [
				{
					"name": "map",
					"type": "tuple",
					"internalType": "struct JBTokenMapping",
					"components": [
						{
							"name": "localToken",
							"type": "address",
							"internalType": "address"
						},
						{
							"name": "minGas",
							"type": "uint32",
							"internalType": "uint32"
						},
						{
							"name": "remoteToken",
							"type": "bytes32",
							"internalType": "bytes32"
						}
					]
				}
			],
			"outputs": [],
			"stateMutability": "payable"
		},
		{
			"type": "function",
			"name": "mapTokens",
			"inputs": [
				{
					"name": "maps",
					"type": "tuple[]",
					"internalType": "struct JBTokenMapping[]",
					"components": [
						{
							"name": "localToken",
							"type": "address",
							"internalType": "address"
						},
						{
							"name": "minGas",
							"type": "uint32",
							"internalType": "uint32"
						},
						{
							"name": "remoteToken",
							"type": "bytes32",
							"internalType": "bytes32"
						}
					]
				}
			],
			"outputs": [],
			"stateMutability": "payable"
		},
		{
			"type": "function",
			"name": "outboxOf",
			"inputs": [
				{
					"name": "token",
					"type": "address",
					"internalType": "address"
				}
			],
			"outputs": [
				{
					"name": "",
					"type": "tuple",
					"internalType": "struct JBOutboxTree",
					"components": [
						{
							"name": "nonce",
							"type": "uint64",
							"internalType": "uint64"
						},
						{
							"name": "numberOfClaimsSent",
							"type": "uint192",
							"internalType": "uint192"
						},
						{
							"name": "balance",
							"type": "uint256",
							"internalType": "uint256"
						},
						{
							"name": "tree",
							"type": "tuple",
							"internalType": "struct MerkleLib.Tree",
							"components": [
								{
									"name": "branch",
									"type": "bytes32[32]",
									"internalType": "bytes32[32]"
								},
								{
									"name": "count",
									"type": "uint256",
									"internalType": "uint256"
								}
							]
						}
					]
				}
			],
			"stateMutability": "view"
		},
		{
			"type": "function",
			"name": "peer",
			"inputs": [],
			"outputs": [
				{
					"name": "",
					"type": "bytes32",
					"internalType": "bytes32"
				}
			],
			"stateMutability": "view"
		},
		{
			"type": "function",
			"name": "peerChainContextsOf",
			"inputs": [],
			"outputs": [
				{
					"name": "contexts",
					"type": "tuple[]",
					"internalType": "struct JBPeerChainContext[]",
					"components": [
						{
							"name": "currency",
							"type": "uint32",
							"internalType": "uint32"
						},
						{
							"name": "decimals",
							"type": "uint8",
							"internalType": "uint8"
						},
						{
							"name": "surplus",
							"type": "uint128",
							"internalType": "uint128"
						},
						{
							"name": "balance",
							"type": "uint128",
							"internalType": "uint128"
						}
					]
				},
				{
					"name": "chainId",
					"type": "uint256",
					"internalType": "uint256"
				},
				{
					"name": "snapshot",
					"type": "uint256",
					"internalType": "uint256"
				}
			],
			"stateMutability": "view"
		},
		{
			"type": "function",
			"name": "peerChainId",
			"inputs": [],
			"outputs": [
				{
					"name": "chainId",
					"type": "uint256",
					"internalType": "uint256"
				}
			],
			"stateMutability": "view"
		},
		{
			"type": "function",
			"name": "peerChainTotalSupply",
			"inputs": [],
			"outputs": [
				{
					"name": "",
					"type": "uint256",
					"internalType": "uint256"
				}
			],
			"stateMutability": "view"
		},
		{
			"type": "function",
			"name": "peerChainTotalSupplyValue",
			"inputs": [],
			"outputs": [
				{
					"name": "",
					"type": "tuple",
					"internalType": "struct JBPeerChainValue",
					"components": [
						{
							"name": "value",
							"type": "uint256",
							"internalType": "uint256"
						},
						{
							"name": "peerChainId",
							"type": "uint256",
							"internalType": "uint256"
						},
						{
							"name": "snapshotTimestamp",
							"type": "uint256",
							"internalType": "uint256"
						}
					]
				}
			],
			"stateMutability": "view"
		},
		{
			"type": "function",
			"name": "prepare",
			"inputs": [
				{
					"name": "projectTokenCount",
					"type": "uint256",
					"internalType": "uint256"
				},
				{
					"name": "beneficiary",
					"type": "bytes32",
					"internalType": "bytes32"
				},
				{
					"name": "minTokensReclaimed",
					"type": "uint256",
					"internalType": "uint256"
				},
				{
					"name": "token",
					"type": "address",
					"internalType": "address"
				},
				{
					"name": "metadata",
					"type": "bytes32",
					"internalType": "bytes32"
				}
			],
			"outputs": [],
			"stateMutability": "nonpayable"
		},
		{
			"type": "function",
			"name": "projectId",
			"inputs": [],
			"outputs": [
				{
					"name": "",
					"type": "uint256",
					"internalType": "uint256"
				}
			],
			"stateMutability": "view"
		},
		{
			"type": "function",
			"name": "remoteTokenFor",
			"inputs": [
				{
					"name": "token",
					"type": "address",
					"internalType": "address"
				}
			],
			"outputs": [
				{
					"name": "",
					"type": "tuple",
					"internalType": "struct JBRemoteToken",
					"components": [
						{
							"name": "enabled",
							"type": "bool",
							"internalType": "bool"
						},
						{
							"name": "emergencyHatch",
							"type": "bool",
							"internalType": "bool"
						},
						{
							"name": "minGas",
							"type": "uint32",
							"internalType": "uint32"
						},
						{
							"name": "addr",
							"type": "bytes32",
							"internalType": "bytes32"
						}
					]
				}
			],
			"stateMutability": "view"
		},
		{
			"type": "function",
			"name": "retainedToRemoteFeeBalance",
			"inputs": [],
			"outputs": [
				{
					"name": "",
					"type": "uint256",
					"internalType": "uint256"
				}
			],
			"stateMutability": "view"
		},
		{
			"type": "function",
			"name": "retainedToRemoteFeeOf",
			"inputs": [
				{
					"name": "account",
					"type": "address",
					"internalType": "address"
				}
			],
			"outputs": [
				{
					"name": "amount",
					"type": "uint256",
					"internalType": "uint256"
				}
			],
			"stateMutability": "view"
		},
		{
			"type": "function",
			"name": "retainedTransportPaymentRefundBalance",
			"inputs": [],
			"outputs": [
				{
					"name": "",
					"type": "uint256",
					"internalType": "uint256"
				}
			],
			"stateMutability": "view"
		},
		{
			"type": "function",
			"name": "retainedTransportPaymentRefundOf",
			"inputs": [
				{
					"name": "account",
					"type": "address",
					"internalType": "address"
				}
			],
			"outputs": [
				{
					"name": "amount",
					"type": "uint256",
					"internalType": "uint256"
				}
			],
			"stateMutability": "view"
		},
		{
			"type": "function",
			"name": "setDeprecation",
			"inputs": [
				{
					"name": "timestamp",
					"type": "uint40",
					"internalType": "uint40"
				}
			],
			"outputs": [],
			"stateMutability": "nonpayable"
		},
		{
			"type": "function",
			"name": "snapshotTimestamp",
			"inputs": [],
			"outputs": [
				{
					"name": "",
					"type": "uint256",
					"internalType": "uint256"
				}
			],
			"stateMutability": "view"
		},
		{
			"type": "function",
			"name": "state",
			"inputs": [],
			"outputs": [
				{
					"name": "",
					"type": "uint8",
					"internalType": "enum JBSuckerState"
				}
			],
			"stateMutability": "view"
		},
		{
			"type": "function",
			"name": "supportsInterface",
			"inputs": [
				{
					"name": "interfaceId",
					"type": "bytes4",
					"internalType": "bytes4"
				}
			],
			"outputs": [
				{
					"name": "supported",
					"type": "bool",
					"internalType": "bool"
				}
			],
			"stateMutability": "view"
		},
		{
			"type": "function",
			"name": "toRemote",
			"inputs": [
				{
					"name": "token",
					"type": "address",
					"internalType": "address"
				}
			],
			"outputs": [],
			"stateMutability": "payable"
		},
		{
			"type": "function",
			"name": "trustedForwarder",
			"inputs": [],
			"outputs": [
				{
					"name": "",
					"type": "address",
					"internalType": "address"
				}
			],
			"stateMutability": "view"
		},
		{
			"type": "event",
			"name": "ClaimFailed",
			"inputs": [
				{
					"name": "token",
					"type": "address",
					"indexed": true,
					"internalType": "address"
				},
				{
					"name": "index",
					"type": "uint256",
					"indexed": false,
					"internalType": "uint256"
				},
				{
					"name": "caller",
					"type": "address",
					"indexed": false,
					"internalType": "address"
				}
			],
			"anonymous": false
		},
		{
			"type": "event",
			"name": "Claimed",
			"inputs": [
				{
					"name": "beneficiary",
					"type": "bytes32",
					"indexed": false,
					"internalType": "bytes32"
				},
				{
					"name": "token",
					"type": "address",
					"indexed": false,
					"internalType": "address"
				},
				{
					"name": "projectTokenCount",
					"type": "uint256",
					"indexed": false,
					"internalType": "uint256"
				},
				{
					"name": "terminalTokenAmount",
					"type": "uint256",
					"indexed": false,
					"internalType": "uint256"
				},
				{
					"name": "index",
					"type": "uint256",
					"indexed": false,
					"internalType": "uint256"
				},
				{
					"name": "metadata",
					"type": "bytes32",
					"indexed": false,
					"internalType": "bytes32"
				},
				{
					"name": "caller",
					"type": "address",
					"indexed": false,
					"internalType": "address"
				}
			],
			"anonymous": false
		},
		{
			"type": "event",
			"name": "DeprecationTimeUpdated",
			"inputs": [
				{
					"name": "timestamp",
					"type": "uint40",
					"indexed": false,
					"internalType": "uint40"
				},
				{
					"name": "caller",
					"type": "address",
					"indexed": false,
					"internalType": "address"
				}
			],
			"anonymous": false
		},
		{
			"type": "event",
			"name": "EmergencyExit",
			"inputs": [
				{
					"name": "beneficiary",
					"type": "address",
					"indexed": true,
					"internalType": "address"
				},
				{
					"name": "token",
					"type": "address",
					"indexed": true,
					"internalType": "address"
				},
				{
					"name": "terminalTokenAmount",
					"type": "uint256",
					"indexed": false,
					"internalType": "uint256"
				},
				{
					"name": "projectTokenCount",
					"type": "uint256",
					"indexed": false,
					"internalType": "uint256"
				},
				{
					"name": "caller",
					"type": "address",
					"indexed": false,
					"internalType": "address"
				}
			],
			"anonymous": false
		},
		{
			"type": "event",
			"name": "EmergencyHatchOpened",
			"inputs": [
				{
					"name": "tokens",
					"type": "address[]",
					"indexed": false,
					"internalType": "address[]"
				},
				{
					"name": "caller",
					"type": "address",
					"indexed": false,
					"internalType": "address"
				}
			],
			"anonymous": false
		},
		{
			"type": "event",
			"name": "Initialized",
			"inputs": [
				{
					"name": "version",
					"type": "uint64",
					"indexed": false,
					"internalType": "uint64"
				}
			],
			"anonymous": false
		},
		{
			"type": "event",
			"name": "InsertToOutboxTree",
			"inputs": [
				{
					"name": "beneficiary",
					"type": "bytes32",
					"indexed": true,
					"internalType": "bytes32"
				},
				{
					"name": "token",
					"type": "address",
					"indexed": true,
					"internalType": "address"
				},
				{
					"name": "hashed",
					"type": "bytes32",
					"indexed": false,
					"internalType": "bytes32"
				},
				{
					"name": "index",
					"type": "uint256",
					"indexed": false,
					"internalType": "uint256"
				},
				{
					"name": "root",
					"type": "bytes32",
					"indexed": false,
					"internalType": "bytes32"
				},
				{
					"name": "projectTokenCount",
					"type": "uint256",
					"indexed": false,
					"internalType": "uint256"
				},
				{
					"name": "terminalTokenAmount",
					"type": "uint256",
					"indexed": false,
					"internalType": "uint256"
				},
				{
					"name": "metadata",
					"type": "bytes32",
					"indexed": false,
					"internalType": "bytes32"
				},
				{
					"name": "caller",
					"type": "address",
					"indexed": false,
					"internalType": "address"
				}
			],
			"anonymous": false
		},
		{
			"type": "event",
			"name": "NewInboxTreeRoot",
			"inputs": [
				{
					"name": "token",
					"type": "address",
					"indexed": true,
					"internalType": "address"
				},
				{
					"name": "nonce",
					"type": "uint64",
					"indexed": false,
					"internalType": "uint64"
				},
				{
					"name": "root",
					"type": "bytes32",
					"indexed": false,
					"internalType": "bytes32"
				},
				{
					"name": "caller",
					"type": "address",
					"indexed": false,
					"internalType": "address"
				}
			],
			"anonymous": false
		},
		{
			"type": "event",
			"name": "RetainedToRemoteFee",
			"inputs": [
				{
					"name": "account",
					"type": "address",
					"indexed": true,
					"internalType": "address"
				},
				{
					"name": "amount",
					"type": "uint256",
					"indexed": false,
					"internalType": "uint256"
				},
				{
					"name": "caller",
					"type": "address",
					"indexed": false,
					"internalType": "address"
				}
			],
			"anonymous": false
		},
		{
			"type": "event",
			"name": "RetainedToRemoteFeeClaimed",
			"inputs": [
				{
					"name": "account",
					"type": "address",
					"indexed": true,
					"internalType": "address"
				},
				{
					"name": "beneficiary",
					"type": "address",
					"indexed": true,
					"internalType": "address"
				},
				{
					"name": "amount",
					"type": "uint256",
					"indexed": false,
					"internalType": "uint256"
				},
				{
					"name": "caller",
					"type": "address",
					"indexed": false,
					"internalType": "address"
				}
			],
			"anonymous": false
		},
		{
			"type": "event",
			"name": "RetainedTransportPaymentRefund",
			"inputs": [
				{
					"name": "account",
					"type": "address",
					"indexed": true,
					"internalType": "address"
				},
				{
					"name": "amount",
					"type": "uint256",
					"indexed": false,
					"internalType": "uint256"
				},
				{
					"name": "caller",
					"type": "address",
					"indexed": false,
					"internalType": "address"
				}
			],
			"anonymous": false
		},
		{
			"type": "event",
			"name": "RetainedTransportPaymentRefundClaimed",
			"inputs": [
				{
					"name": "account",
					"type": "address",
					"indexed": true,
					"internalType": "address"
				},
				{
					"name": "beneficiary",
					"type": "address",
					"indexed": true,
					"internalType": "address"
				},
				{
					"name": "amount",
					"type": "uint256",
					"indexed": false,
					"internalType": "uint256"
				},
				{
					"name": "caller",
					"type": "address",
					"indexed": false,
					"internalType": "address"
				}
			],
			"anonymous": false
		},
		{
			"type": "event",
			"name": "RootToRemote",
			"inputs": [
				{
					"name": "root",
					"type": "bytes32",
					"indexed": true,
					"internalType": "bytes32"
				},
				{
					"name": "token",
					"type": "address",
					"indexed": true,
					"internalType": "address"
				},
				{
					"name": "index",
					"type": "uint256",
					"indexed": false,
					"internalType": "uint256"
				},
				{
					"name": "nonce",
					"type": "uint64",
					"indexed": false,
					"internalType": "uint64"
				},
				{
					"name": "caller",
					"type": "address",
					"indexed": false,
					"internalType": "address"
				}
			],
			"anonymous": false
		},
		{
			"type": "event",
			"name": "StaleRootRejected",
			"inputs": [
				{
					"name": "token",
					"type": "address",
					"indexed": true,
					"internalType": "address"
				},
				{
					"name": "receivedNonce",
					"type": "uint64",
					"indexed": false,
					"internalType": "uint64"
				},
				{
					"name": "currentNonce",
					"type": "uint64",
					"indexed": false,
					"internalType": "uint64"
				},
				{
					"name": "caller",
					"type": "address",
					"indexed": false,
					"internalType": "address"
				}
			],
			"anonymous": false
		},
		{
			"type": "event",
			"name": "TransportPaymentRefundFailed",
			"inputs": [
				{
					"name": "recipient",
					"type": "address",
					"indexed": true,
					"internalType": "address"
				},
				{
					"name": "amount",
					"type": "uint256",
					"indexed": false,
					"internalType": "uint256"
				},
				{
					"name": "caller",
					"type": "address",
					"indexed": false,
					"internalType": "address"
				}
			],
			"anonymous": false
		},
		{
			"type": "error",
			"name": "InvalidInitialization",
			"inputs": []
		},
		{
			"type": "error",
			"name": "JBCCIPSucker_InvalidRouter",
			"inputs": [
				{
					"name": "router",
					"type": "address",
					"internalType": "address"
				}
			]
		},
		{
			"type": "error",
			"name": "JBCCIPSucker_PositiveRootWithoutDelivery",
			"inputs": [
				{
					"name": "rootAmount",
					"type": "uint256",
					"internalType": "uint256"
				}
			]
		},
		{
			"type": "error",
			"name": "JBCCIPSucker_UnderDeliveredAmount",
			"inputs": [
				{
					"name": "delivered",
					"type": "uint256",
					"internalType": "uint256"
				},
				{
					"name": "rootAmount",
					"type": "uint256",
					"internalType": "uint256"
				}
			]
		},
		{
			"type": "error",
			"name": "JBCCIPSucker_UnexpectedDeliveredTokens",
			"inputs": [
				{
					"name": "count",
					"type": "uint256",
					"internalType": "uint256"
				}
			]
		},
		{
			"type": "error",
			"name": "JBCCIPSucker_UnknownMessageType",
			"inputs": [
				{
					"name": "messageType",
					"type": "uint8",
					"internalType": "uint8"
				}
			]
		},
		{
			"type": "error",
			"name": "JBCCIPSucker_WrongDeliveredToken",
			"inputs": [
				{
					"name": "delivered",
					"type": "address",
					"internalType": "address"
				},
				{
					"name": "expected",
					"type": "address",
					"internalType": "address"
				}
			]
		},
		{
			"type": "error",
			"name": "JBPermissioned_Unauthorized",
			"inputs": [
				{
					"name": "account",
					"type": "address",
					"internalType": "address"
				},
				{
					"name": "sender",
					"type": "address",
					"internalType": "address"
				},
				{
					"name": "projectId",
					"type": "uint256",
					"internalType": "uint256"
				},
				{
					"name": "permissionId",
					"type": "uint256",
					"internalType": "uint256"
				}
			]
		},
		{
			"type": "error",
			"name": "JBSucker_AmountExceedsUint128",
			"inputs": [
				{
					"name": "amount",
					"type": "uint256",
					"internalType": "uint256"
				}
			]
		},
		{
			"type": "error",
			"name": "JBSucker_BelowMinGas",
			"inputs": [
				{
					"name": "minGas",
					"type": "uint256",
					"internalType": "uint256"
				},
				{
					"name": "minGasLimit",
					"type": "uint256",
					"internalType": "uint256"
				}
			]
		},
		{
			"type": "error",
			"name": "JBSucker_Deprecated",
			"inputs": [
				{
					"name": "state",
					"type": "uint8",
					"internalType": "enum JBSuckerState"
				}
			]
		},
		{
			"type": "error",
			"name": "JBSucker_DeprecationTimestampTooSoon",
			"inputs": [
				{
					"name": "givenTime",
					"type": "uint256",
					"internalType": "uint256"
				},
				{
					"name": "minimumTime",
					"type": "uint256",
					"internalType": "uint256"
				}
			]
		},
		{
			"type": "error",
			"name": "JBSucker_ExpectedMsgValue",
			"inputs": [
				{
					"name": "msgValue",
					"type": "uint256",
					"internalType": "uint256"
				}
			]
		},
		{
			"type": "error",
			"name": "JBSucker_IndexOutOfRange",
			"inputs": [
				{
					"name": "index",
					"type": "uint256",
					"internalType": "uint256"
				}
			]
		},
		{
			"type": "error",
			"name": "JBSucker_InsufficientBalance",
			"inputs": [
				{
					"name": "amount",
					"type": "uint256",
					"internalType": "uint256"
				},
				{
					"name": "balance",
					"type": "uint256",
					"internalType": "uint256"
				}
			]
		},
		{
			"type": "error",
			"name": "JBSucker_InsufficientMsgValue",
			"inputs": [
				{
					"name": "received",
					"type": "uint256",
					"internalType": "uint256"
				},
				{
					"name": "expected",
					"type": "uint256",
					"internalType": "uint256"
				}
			]
		},
		{
			"type": "error",
			"name": "JBSucker_InvalidMessageVersion",
			"inputs": [
				{
					"name": "received",
					"type": "uint8",
					"internalType": "uint8"
				},
				{
					"name": "expected",
					"type": "uint8",
					"internalType": "uint8"
				}
			]
		},
		{
			"type": "error",
			"name": "JBSucker_InvalidNativeRemoteAddress",
			"inputs": [
				{
					"name": "remoteToken",
					"type": "bytes32",
					"internalType": "bytes32"
				}
			]
		},
		{
			"type": "error",
			"name": "JBSucker_InvalidProof",
			"inputs": [
				{
					"name": "root",
					"type": "bytes32",
					"internalType": "bytes32"
				},
				{
					"name": "inboxRoot",
					"type": "bytes32",
					"internalType": "bytes32"
				}
			]
		},
		{
			"type": "error",
			"name": "JBSucker_LeafAlreadyExecuted",
			"inputs": [
				{
					"name": "token",
					"type": "address",
					"internalType": "address"
				},
				{
					"name": "index",
					"type": "uint256",
					"internalType": "uint256"
				}
			]
		},
		{
			"type": "error",
			"name": "JBSucker_NoRetainedToRemoteFee",
			"inputs": [
				{
					"name": "account",
					"type": "address",
					"internalType": "address"
				}
			]
		},
		{
			"type": "error",
			"name": "JBSucker_NoRetainedTransportPaymentRefund",
			"inputs": [
				{
					"name": "account",
					"type": "address",
					"internalType": "address"
				}
			]
		},
		{
			"type": "error",
			"name": "JBSucker_NoTerminalForToken",
			"inputs": [
				{
					"name": "projectId",
					"type": "uint256",
					"internalType": "uint256"
				},
				{
					"name": "token",
					"type": "address",
					"internalType": "address"
				}
			]
		},
		{
			"type": "error",
			"name": "JBSucker_NotPeer",
			"inputs": [
				{
					"name": "caller",
					"type": "bytes32",
					"internalType": "bytes32"
				}
			]
		},
		{
			"type": "error",
			"name": "JBSucker_NothingToSend",
			"inputs": [
				{
					"name": "token",
					"type": "address",
					"internalType": "address"
				},
				{
					"name": "outboxBalance",
					"type": "uint256",
					"internalType": "uint256"
				},
				{
					"name": "treeCount",
					"type": "uint256",
					"internalType": "uint256"
				},
				{
					"name": "numberOfClaimsSent",
					"type": "uint256",
					"internalType": "uint256"
				}
			]
		},
		{
			"type": "error",
			"name": "JBSucker_RefundFailed",
			"inputs": [
				{
					"name": "beneficiary",
					"type": "address",
					"internalType": "address"
				},
				{
					"name": "amount",
					"type": "uint256",
					"internalType": "uint256"
				}
			]
		},
		{
			"type": "error",
			"name": "JBSucker_RemoteTokenAlreadyMapped",
			"inputs": [
				{
					"name": "remoteToken",
					"type": "bytes32",
					"internalType": "bytes32"
				},
				{
					"name": "localToken",
					"type": "address",
					"internalType": "address"
				}
			]
		},
		{
			"type": "error",
			"name": "JBSucker_TokenAlreadyMapped",
			"inputs": [
				{
					"name": "localToken",
					"type": "address",
					"internalType": "address"
				},
				{
					"name": "mappedTo",
					"type": "bytes32",
					"internalType": "bytes32"
				}
			]
		},
		{
			"type": "error",
			"name": "JBSucker_TokenHasInvalidEmergencyHatchState",
			"inputs": [
				{
					"name": "token",
					"type": "address",
					"internalType": "address"
				}
			]
		},
		{
			"type": "error",
			"name": "JBSucker_TokenNotMapped",
			"inputs": [
				{
					"name": "token",
					"type": "address",
					"internalType": "address"
				}
			]
		},
		{
			"type": "error",
			"name": "JBSucker_UnexpectedMsgValue",
			"inputs": [
				{
					"name": "value",
					"type": "uint256",
					"internalType": "uint256"
				}
			]
		},
		{
			"type": "error",
			"name": "JBSucker_ZeroBeneficiary",
			"inputs": [
				{
					"name": "beneficiary",
					"type": "bytes32",
					"internalType": "bytes32"
				}
			]
		},
		{
			"type": "error",
			"name": "JBSucker_ZeroERC20Token",
			"inputs": [
				{
					"name": "projectId",
					"type": "uint256",
					"internalType": "uint256"
				}
			]
		},
		{
			"type": "error",
			"name": "JBSucker_ZeroProjectTokenCount",
			"inputs": []
		},
		{
			"type": "error",
			"name": "MerkleLib_InsertTreeIsFull",
			"inputs": [
				{
					"name": "size",
					"type": "uint256",
					"internalType": "uint256"
				},
				{
					"name": "maxLeaves",
					"type": "uint256",
					"internalType": "uint256"
				}
			]
		},
		{
			"type": "error",
			"name": "NotInitializing",
			"inputs": []
		},
		{
			"type": "error",
			"name": "SafeERC20FailedOperation",
			"inputs": [
				{
					"name": "token",
					"type": "address",
					"internalType": "address"
				}
			]
		}
	],
	"args": [
		"0x952998E8Fc8A09a4E843B0F169bCd7230D394F22",
		"0xE7d0F5ADC3847d4AfD70B7bcd58e34B1AAFDffbc",
		"0xCF5870A8F942110C2ea89fd03B7a3D578816a265",
		"0x8eA8B4B71e8C68b92A14E16b8c6Ab18B5C42f113",
		"1",
		"0x952648f3A4BbE85C07398e7D3235D330dBFACA32",
		"0x53d5A7E174A87721c527ED14c7Ce7cb515465607"
	],
	"solcInputHash": "467ac1f4d6efed8b82cf7921a3600ed0",
	"bytecode": "0x6101c0604052348015610010575f5ffd5b5060405161608c38038061608c83398101604081905261002f91610336565b6001600160a01b0380821660805280861660a052861660c081905260e08490526040805163293c499960e01b8152905188928892889288928892889263293c4999916004808201926020929091908290030181865afa158015610094573d5f5f3e3d5ffd5b505050506040513d601f19601f820116820180604052508101906100b891906103c3565b6001600160a01b0390811661010052828116610120528416610140526100dc610270565b505050505050866001600160a01b03166363a49dc36040518163ffffffff1660e01b8152600401602060405180830381865afa15801561011e573d5f5f3e3d5ffd5b505050506040513d601f19601f8201168201806040525081019061014291906103e5565b6101808181525050866001600160a01b031663d86161876040518163ffffffff1660e01b8152600401602060405180830381865afa158015610186573d5f5f3e3d5ffd5b505050506040513d601f19601f820116820180604052508101906101aa91906103fc565b6001600160401b03166101a0816001600160401b031681525050866001600160a01b0316630de229846040518163ffffffff1660e01b8152600401602060405180830381865afa158015610200573d5f5f3e3d5ffd5b505050506040513d601f19601f8201168201806040525081019061022491906103c3565b6001600160a01b03166101608190526102645761016051604051636e1f4ccd60e01b81526001600160a01b03909116600482015260240160405180910390fd5b50505050505050610422565b7ff0c57e16840df040f15088dc2f81fe391c3923bec73e23a9662efc9c229c6a00805468010000000000000000900460ff16156102c05760405163f92ee8a960e01b815260040160405180910390fd5b80546001600160401b039081161461031f5780546001600160401b0319166001600160401b0390811782556040519081527fc7f505b2f371ae2175ee4913f4499e1f2633a7b5936321eed1cdaeb6115181d29060200160405180910390a15b50565b6001600160a01b038116811461031f575f5ffd5b5f5f5f5f5f5f5f60e0888a03121561034c575f5ffd5b875161035781610322565b602089015190975061036881610322565b604089015190965061037981610322565b606089015190955061038a81610322565b608089015160a08a015191955093506103a281610322565b60c08901519092506103b381610322565b8091505092959891949750929550565b5f602082840312156103d3575f5ffd5b81516103de81610322565b9392505050565b5f602082840312156103f5575f5ffd5b5051919050565b5f6020828403121561040c575f5ffd5b81516001600160401b03811681146103de575f5ffd5b60805160a05160c05160e05161010051610120516101405161016051610180516101a051615b536105395f395f818161034601528181611305015261466701525f81816106c3015281816109a301528181610f8a01526126c801525f81816108e501528181610b4601528181611278015281816114b5015281816115fe015281816144ca015261464601525f818161041101526117bb01525f818161039101528181611a1e015261294801525f81816104440152612e2b01525f818161067101528181611adb0152611b3301525f818161084c0152818161331b015281816136ca015281816138150152613fda01525f8181610a870152612f0701525f8181610566015281816106f30152613cfb0152615b535ff3fe6080604052600436106102c2575f3560e01c8063802c8fa01161016f578063cdfceeba116100d8578063f3aefd7b11610092578063fc072f231161006d578063fc072f2314610ad4578063fc9f18b014610af3578063fe4b84df14610b16578063fe5f42ca14610b35575f5ffd5b8063f3aefd7b14610a57578063f434c91414610a76578063f925558c14610aa9575f5ffd5b8063cdfceeba14610995578063cf26bafb146109c7578063cf2a1c74146109dc578063d5f39488146109ef578063d935222f14610a0d578063eac1f29e14610a2c575f5ffd5b8063af629bbb11610129578063af629bbb146108b8578063b0f479a1146108d7578063b71c117914610909578063bf557aee1461091c578063c19d93fb14610955578063cbb2adce14610976575f5ffd5b8063802c8fa0146107f057806385572ffb1461081c57806388bc2ef31461083b57806392ee1ea71461086e5780639c43eb54146108845780639e6d7d4314610899575f5ffd5b80633fafa1271161022b5780636284386a116101e557806375451559116101c057806375451559146106935780637d1d0c5b146106b25780637da0a877146106e55780637de6fba214610717575f5ffd5b80636284386a146105cc5780636d9e384b146105eb5780636f4115a914610660575f5ffd5b80633fafa127146104cc5780634035d3b1146104e05780634f0677e114610516578063541769491461052b578063572b6c051461054a5780635cc4f36914610596575f5ffd5b806311cda4151161027c57806311cda415146103de5780631d831d5c14610400578063293c499914610433578063352a34e3146104665780633a5de07d1461047b5780633f827a5a146104a6575f5ffd5b8063014dc2a6146102cd57806301ffc9a7146102e257806303da64a814610316578063056965111461033557806306433b1b146103805780630ce92d4b146103cb575f5ffd5b366102c957005b5f5ffd5b6102e06102db3660046149fd565b610b68565b005b3480156102ed575f5ffd5b506103016102fc366004614a6c565b610cf6565b60405190151581526020015b60405180910390f35b348015610321575f5ffd5b506102e0610330366004614a93565b610d20565b348015610340575f5ffd5b506103687f000000000000000000000000000000000000000000000000000000000000000081565b6040516001600160401b03909116815260200161030d565b34801561038b575f5ffd5b506103b37f000000000000000000000000000000000000000000000000000000000000000081565b6040516001600160a01b03909116815260200161030d565b6102e06103d9366004614af3565b610e34565b3480156103e9575f5ffd5b506103f2610e41565b60405190815260200161030d565b34801561040b575f5ffd5b506103b37f000000000000000000000000000000000000000000000000000000000000000081565b34801561043e575f5ffd5b506103b37f000000000000000000000000000000000000000000000000000000000000000081565b348015610471575f5ffd5b506103f260025481565b348015610486575f5ffd5b5061049162030d4081565b60405163ffffffff909116815260200161030d565b3480156104b1575f5ffd5b506104ba600181565b60405160ff909116815260200161030d565b3480156104d7575f5ffd5b506011546103f2565b3480156104eb575f5ffd5b506103f26104fa366004614b20565b600160209081525f928352604080842090915290825290205481565b348015610521575f5ffd5b506103f260045481565b348015610536575f5ffd5b506102e0610545366004614b4a565b610e58565b348015610555575f5ffd5b50610301610564366004614b6a565b7f00000000000000000000000000000000000000000000000000000000000000006001600160a01b0390811691161490565b3480156105a1575f5ffd5b506105aa610f51565b604080518251815260208084015190820152918101519082015260600161030d565b3480156105d7575f5ffd5b506102e06105e6366004614b85565b610fbc565b3480156105f6575f5ffd5b50610653610605366004614b6a565b604080518082019091525f8082526020820152506001600160a01b03165f908152600a6020908152604091829020825180840190935280546001600160401b03168352600101549082015290565b60405161030d9190614ba9565b34801561066b575f5ffd5b506103f27f000000000000000000000000000000000000000000000000000000000000000081565b34801561069e575f5ffd5b506102e06106ad366004614bc9565b6110a7565b3480156106bd575f5ffd5b506103f27f000000000000000000000000000000000000000000000000000000000000000081565b3480156106f0575f5ffd5b507f00000000000000000000000000000000000000000000000000000000000000006103b3565b348015610722575f5ffd5b506107b3610731366004614b6a565b604080516080810182525f808252602082018190529181018290526060810191909152506001600160a01b03165f908152600f60209081526040918290208251608081018452815460ff808216151583526101008204161515938201939093526201000090920463ffffffff1692820192909252600190910154606082015290565b60405161030d919081511515815260208083015115159082015260408083015163ffffffff16908201526060918201519181019190915260800190565b3480156107fb575f5ffd5b5061080f61080a366004614b6a565b6111c4565b60405161030d9190614c28565b348015610827575f5ffd5b506102e0610836366004614c9a565b61126d565b348015610846575f5ffd5b506103b37f000000000000000000000000000000000000000000000000000000000000000081565b348015610879575f5ffd5b50610491620493e081565b34801561088f575f5ffd5b506103f260075481565b3480156108a4575f5ffd5b506103f26108b3366004614b6a565b6116ea565b3480156108c3575f5ffd5b506102e06108d2366004614cd0565b611777565b3480156108e2575f5ffd5b507f00000000000000000000000000000000000000000000000000000000000000006103b3565b6102e0610917366004614b6a565b611901565b348015610927575f5ffd5b50610301610936366004614b6a565b6001600160a01b03165f908152600f6020526040902060010154151590565b348015610960575f5ffd5b50610969611c3a565b60405161030d9190614d29565b348015610981575f5ffd5b506102e0610990366004614d4f565b611c81565b3480156109a0575f5ffd5b507f00000000000000000000000000000000000000000000000000000000000000006103f2565b3480156109d2575f5ffd5b506103f260035481565b6102e06109ea366004614d61565b611d66565b3480156109fa575f5ffd5b505f546103b3906001600160a01b031681565b348015610a18575f5ffd5b506102e0610a27366004614d4f565b6123ac565b348015610a37575f5ffd5b506103f2610a46366004614b6a565b60066020525f908152604090205481565b348015610a62575f5ffd5b506102e0610a71366004614b6a565b6124b7565b348015610a81575f5ffd5b506103b37f000000000000000000000000000000000000000000000000000000000000000081565b348015610ab4575f5ffd5b506103f2610ac3366004614b6a565b60056020525f908152604090205481565b348015610adf575f5ffd5b506102e0610aee366004614b6a565b6125ce565b348015610afe575f5ffd5b50610b076126c0565b60405161030d93929190614d98565b348015610b21575f5ffd5b506102e0610b30366004614e27565b61278e565b348015610b40575f5ffd5b506103b37f000000000000000000000000000000000000000000000000000000000000000081565b5f5f5b82811015610c15575f600e5f868685818110610b8957610b89614e3e565b610b9f9260206060909202019081019150614b6a565b6001600160a01b0316815260208101919091526040015f9081209150858584818110610bcd57610bcd614e3e565b90506060020160400135148015610bf9575060228101548154600160401b90046001600160c01b031614155b15610c0c5782610c0881614e66565b9350505b50600101610b6b565b505f5b82811015610c5f57610c57848483818110610c3557610c35614e3e565b9050606002015f8411610c48575f612886565b610c528434614e92565b612886565b600101610c18565b50805f03610c83573415610c7e57610c7e610c78612c61565b34612c6f565b505050565b5f610c8e8234614ea5565b90508015610cf0575f610c9f612c61565b6001600160a01b0316826040515f6040518083038185875af1925050503d805f8114610ce6576040519150601f19603f3d011682016040523d82523d5f602084013e610ceb565b606091505b505050505b50505050565b5f6001600160e01b031982166385572ffb60e01b1480610d1a5750610d1a82612cf1565b92915050565b5f5b81811015610c7e573063cbb2adce848484818110610d4257610d42614e3e565b90506104c002016040518263ffffffff1660e01b8152600401610d659190614eb8565b5f604051808303815f87803b158015610d7c575f5ffd5b505af1925050508015610d8d575060015b610e2c57828282818110610da357610da3614e3e565b610dba9260206104c0909202019081019150614b6a565b6001600160a01b03167fc1054f794d197971822697afa7ff4777cac6fb7a512e4bfec63aebaab98187b6848484818110610df657610df6614e3e565b90506104c002016020015f0135610e0b612c61565b604080519283526001600160a01b0390911660208301520160405180910390a25b600101610d22565b610e3e8134612886565b50565b6013545f908015610e5157919050565b3091505090565b5f610e61612d5b565b805490915060ff600160401b82041615906001600160401b03165f81158015610e875750825b90505f826001600160401b03166001148015610ea25750303b155b905081158015610eb0575080155b15610ece5760405163f92ee8a960e01b815260040160405180910390fd5b845467ffffffffffffffff191660011785558315610ef857845460ff60401b1916600160401b1785555b610f028787612d83565b8315610f4857845460ff60401b19168555604051600181527fc7f505b2f371ae2175ee4913f4499e1f2633a7b5936321eed1cdaeb6115181d29060200160405180910390a15b50505050505050565b610f7260405180606001604052805f81526020015f81526020015f81525090565b60405180606001604052806002548152602001610fac7f000000000000000000000000000000000000000000000000000000000000000090565b8152602001600754815250905090565b610fc4612db8565b5f610fce60115490565b9050610fe4610fdc82612e13565b826024612e9c565b5f610ff26212750042614f17565b905064ffffffffff8316158015906110115750808364ffffffffff1611155b1561104457604051630111a46b60e21b815264ffffffffff84166004820152602481018290526044015b60405180910390fd5b64ffffffffff83166008557f455efa76af2a8686dc0dd3041bda89ece5ba4691277d525e2161003bbca8b24583611079612c61565b6040805164ffffffffff90931683526001600160a01b039091166020830152015b60405180910390a1505050565b5f6110b160115490565b90506110c76110bf82612e13565b826023612e9c565b5f5b82811015611189575f600f5f8686858181106110e7576110e7614e3e565b90506020020160208101906110fc9190614b6a565b6001600160a01b0316815260208101919091526040015f908120805460ff191692151592909217909155600190600f9086868581811061113e5761113e614e3e565b90506020020160208101906111539190614b6a565b6001600160a01b0316815260208101919091526040015f2080549115156101000261ff00199092169190911790556001016110c9565b507f8021bce60b20a9afb57085869a3552e0ee5b272b868df894fb30c5e90e74c07283836111b5612c61565b60405161109a93929190614f2a565b6111cc614930565b6001600160a01b0382165f908152600e6020908152604091829020825160808101845281546001600160401b0381168252600160401b90046001600160c01b031681840152600182015481850152835161044081018086529194929360608601939192600286019284929083019184919082845b81548152602001906001019080831161124057505050918352505060209182015491015290525092915050565b336001600160a01b037f000000000000000000000000000000000000000000000000000000000000000016146112bb57335b60405163f957028d60e01b815260040161103b91815260200190565b5f6112c96040830183614f8c565b8101906112d69190614b6a565b90506112e0612fb1565b6001600160a01b0316816001600160a01b031614158061134157506001600160401b037f0000000000000000000000000000000000000000000000000000000000000000166113356040840160208501614fe9565b6001600160401b031614155b15611355576001600160a01b03811661129f565b5f807373f3a913eae70c4d3b3b8dc1354b2ea680225d8863476deacb61137e6060870187614f8c565b6040518363ffffffff1660e01b815260040161139b929190615004565b5f60405180830381865af41580156113b5573d5f5f3e3d5ffd5b505050506040513d5f823e601f3d908101601f191682016040526113dc9190810190615100565b909250905060ff82166116cc575f818060200190518101906113fe91906152d3565b90505f61140e608087018761538a565b9150506001811115611436576040516330b6751d60e01b81526004810182905260240161103b565b805f036114705760408201511561146b57816040015160405160016272c62f60e11b0319815260040161103b91815260200190565b6115d4565b3661147e608088018861538a565b5f81811061148e5761148e614e3e565b602086015160409091029290920192505061eeee145f816114b3576020850151611533565b7f00000000000000000000000000000000000000000000000000000000000000006001600160a01b031663e861e9076040518163ffffffff1660e01b8152600401602060405180830381865afa15801561150f573d5f5f3e3d5ffd5b505050506040513d601f19601f8201168201806040525081019061153391906153cf565b90506001600160a01b03811661154c6020850185614b6a565b6001600160a01b031614611594576115676020840184614b6a565b6040516346f21d7f60e01b81526001600160a01b039182166004820152908216602482015260440161103b565b8460400151836020013510156115d0576040808601519051635231144f60e11b815260208501356004820152602481019190915260440161103b565b5050505b602082015161eeed1901611675577373f3a913eae70c4d3b3b8dc1354b2ea680225d8863511bd95c7f000000000000000000000000000000000000000000000000000000000000000061162a60808a018a61538a565b6040518463ffffffff1660e01b8152600401611648939291906153ea565b5f6040518083038186803b15801561165e575f5ffd5b505af4158015611670573d5f5f3e3d5ffd5b505050505b6040516333ca871d60e21b8152309063cf2a1c7490611698908590600401615451565b5f604051808303815f87803b1580156116af575f5ffd5b505af11580156116c1573d5f5f3e3d5ffd5b505050505050610cf0565b604051638664a67360e01b815260ff8316600482015260240161103b565b6001600160a01b0381165f908152600e602052604081206001015481906117118430612fc0565b61171b919061553a565b905061eeed196001600160a01b03841601610d1a5760035480821161174357505f9392505050565b61174d818361553a565b60045490925080831161176457505f949350505050565b61176e818461553a565b95945050505050565b845f0361179757604051632bcf4c5760e21b815260040160405180910390fd5b836117b85760405163b2fe07f160e01b81526004810185905260240161103b565b5f7f00000000000000000000000000000000000000000000000000000000000000006001600160a01b031663ea78803f6117f160115490565b6040518263ffffffff1660e01b815260040161180f91815260200190565b602060405180830381865afa15801561182a573d5f5f3e3d5ffd5b505050506040513d601f19601f8201168201806040525081019061184e91906153cf565b90506001600160a01b03811661187d576011546040516309794d0160e11b815260040161103b91815260200190565b6001600160a01b0383165f908152600f602052604090205460ff166118c05760405163027edf0360e11b81526001600160a01b038416600482015260240161103b565b6118c8612db8565b6118e56118d3612c61565b6001600160a01b038316903089613054565b5f6118f28288868861308a565b9050610f48878583898761319d565b6001600160a01b0381165f908152600f60209081526040918290208251608081018452815460ff808216151583526101008204161580159483019490945262010000900463ffffffff1693810193909352600101546060830152611983576040516304bba81f60e41b81526001600160a01b038316600482015260240161103b565b6001600160a01b0382165f908152600e6020526040902060018101541580156119c1575080546022820154600160401b9091046001600160c01b0316145b15611a1b5760018101546022820154825460405163096c1e2160e21b81526001600160a01b038716600482015260248101939093526044830191909152600160401b90046001600160c01b0316606482015260840161103b565b5f7f00000000000000000000000000000000000000000000000000000000000000006001600160a01b031663421159156040518163ffffffff1660e01b8152600401602060405180830381865afa158015611a78573d5f5f3e3d5ffd5b505050506040513d601f19601f82011682018060405250810190611a9c919061554d565b905080341015611ac857604051630ee99a4760e01b81523460048201526024810182905260440161103b565b5f611ad3823461553a565b90505f611b027f000000000000000000000000000000000000000000000000000000000000000061eeee6132f3565b90505f6001600160a01b03821615801590611b1c57508315155b15611c0c57816001600160a01b031663fef43257857f000000000000000000000000000000000000000000000000000000000000000061eeee88611b5e612c61565b5f6040518763ffffffff1660e01b8152600401611bc69594939291909485526001600160a01b03938416602086015260408501929092529091166060830152608082015260e060a082018190525f90820181905261010060c083018190528201526101200190565b60206040518083038185885af193505050508015611c01575060408051601f3d908101601f19168201909252611bfe9181019061554d565b60015b15611c0c5760019150505b80158015611c1957508315155b15611c2f57611c2f611c29612c61565b85613386565b610f48838888613422565b6008545f90808203611c4d575f91505090565b611c5a621275008261553a565b421015611c6957600191505090565b80421015611c7957600291505090565b600391505090565b611cb36060820135611c966020840184614b6a565b6080840135604085013560a0860135602087013560c08801613585565b7fa8d6760b4e1a89f513fc87990f66d051c419d735fb8191104014e0529d9ae2d36040820135611ce66020840184614b6a565b60608401356080850135602086013560a0870135611d02612c61565b604080519788526001600160a01b0396871660208901528701949094526060860192909252608085015260a08401521660c082015260e00160405180910390a1610e3e611d526020830183614b6a565b608083013560608401356040850135613697565b303314611d73573361129f565b6001611d826020830183615564565b60ff1614611dbd57611d976020820182615564565b60405163e667c12560e01b815260ff90911660048201526001602482015260440161103b565b6001600160a01b036020828101359182165f908152600a9091526040902080546001600160401b0316611df66080850160608601614fe9565b6001600160401b03161115611f5357611e156080840160608501614fe9565b815467ffffffffffffffff19166001600160401b03919091161781556080830135600182018190557f27ae5ba08d7291c96c8cbddcc148bf48a6d68c7974b94356f53754ef6171d75714611ed5576001600160a01b0382165f908152600b6020526040812054600490611e89906001614f17565b611e939190614ea5565b6001600160a01b0384165f908152600b60209081526040808320849055600c90915290209091506080850135908260048110611ed157611ed1614e3e565b0155505b6001600160a01b0382167fc69d3412489554fb7820c4c2784cb644b6c79bfc117444b93977d3d33a9b8eac611f106080860160608701614fe9565b6080860135611f1d612c61565b604080516001600160401b03909416845260208401929092526001600160a01b03169082015260600160405180910390a2611fd4565b6001600160a01b0382167f2eb8abf720d2b9cf9e357f7a24a2bee502a7bdba38de0de230e10c33dafbd3eb611f8e6080860160608701614fe9565b83546001600160401b0316611fa1612c61565b604080516001600160401b0394851681529390921660208401526001600160a01b03169082015260600160405180910390a25b6007548360e001351115610c7e5760e083013560075560a0830135600255611ffd60145f61496c565b5f61200b60c085018561557f565b905090505f5b818110156123a5573661202760c087018761557f565b8381811061203757612037614e3e565b6080029190910180355f908152600d60205260409020549092506001600160a01b0316905080612065575080355b5f5f612070836137d5565b9150915080801561209c57506001600160a01b0383165f9081526010602052604090205463ffffffff16155b156120cc576001600160a01b0383165f908152601060205260409020805463ffffffff191663ffffffff84161790555b6014545f805b82811015612284578463ffffffff16601482815481106120f4576120f4614e3e565b5f91825260209091206002909102015463ffffffff1614801561215557506121226040880160208901615564565b60ff166014828154811061213857612138614e3e565b5f918252602090912060029091020154640100000000900460ff16145b1561227c576121a76014828154811061217057612170614e3e565b5f9182526020909120600290910201546501000000000090046001600160801b03166121a260608a0160408b016155c4565b613a13565b601482815481106121ba576121ba614e3e565b905f5260205f2090600202015f0160056101000a8154816001600160801b0302191690836001600160801b0316021790555061222e6014828154811061220257612202614e3e565b5f9182526020909120600160029092020101546001600160801b03166121a260808a0160608b016155c4565b6014828154811061224157612241614e3e565b905f5260205f2090600202016001015f6101000a8154816001600160801b0302191690836001600160801b0316021790555060019150612284565b6001016120d2565b508061239457601460405180608001604052808663ffffffff1681526020018860200160208101906122b69190615564565b60ff1681526020016122ce60608a0160408b016155c4565b6001600160801b031681526020016122ec60808a0160608b016155c4565b6001600160801b039081169091528254600181810185555f948552602094859020845160029093020180549585015160408601518516650100000000000274ffffffffffffffffffffffffffffffff00000000001960ff9092166401000000000264ffffffffff1990981663ffffffff909516949094179690961795909516919091178455606090920151929091018054929091166001600160801b03199092169190911790555b866001019650505050505050612011565b5050505050565b6123de60608201356123c16020840184614b6a565b6080840135604085013560a0860135602087013560c08801613a41565b6080810135600e5f6123f36020850185614b6a565b6001600160a01b03166001600160a01b031681526020019081526020015f206001015f828254612423919061553a565b9091555061243690506020820182614b6a565b6001600160a01b031660408201356001600160a01b03167fe33107c4043e574d8a4da32dac235e219f8f34a0e45e473ea6643a6145f2528560808401356060850135612480612c61565b6040805193845260208401929092526001600160a01b03169082015260600160405180910390a3610e3e611d526020830183614b6a565b6001600160a01b0381166124e05760405163b2fe07f160e01b81525f600482015260240161103b565b5f6124e9612c61565b6001600160a01b0381165f9081526006602052604081205491925081900361252f57604051631733ad2160e21b81526001600160a01b038316600482015260240161103b565b6001600160a01b0382165f9081526006602052604081208190556004805483929061255b90849061553a565b9091555061256b90508382612c6f565b826001600160a01b0316826001600160a01b03167ffbcfe54e4aa35e7772f25a5f52fedccde889e4fc5031ad9826b9bf6b890baa59836125a9612c61565b604080519283526001600160a01b0390911660208301520160405180910390a3505050565b6001600160a01b0381166125f75760405163b2fe07f160e01b81525f600482015260240161103b565b5f612600612c61565b6001600160a01b0381165f908152600560205260408120549192508190036126465760405163578a51dd60e11b81526001600160a01b038316600482015260240161103b565b6001600160a01b0382165f9081526005602052604081208190556003805483929061267290849061553a565b9091555061268290508382612c6f565b826001600160a01b0316826001600160a01b03167f1e70ff8443e61b2a2555b5ad56645461a75dd29591b5c4a6281f70a6d395db45836125a9612c61565b60605f8060147f000000000000000000000000000000000000000000000000000000000000000060075482805480602002602001604051908101604052809291908181526020015f905b8282101561277d575f8481526020908190206040805160808101825260028602909201805463ffffffff8116845260ff640100000000820416848601526001600160801b03650100000000009091048116928401929092526001908101549091166060830152908352909201910161270a565b505050509250925092509250909192565b5f612797612d5b565b805490915060ff600160401b82041615906001600160401b03165f811580156127bd5750825b90505f826001600160401b031660011480156127d85750303b155b9050811580156127e6575080155b156128045760405163f92ee8a960e01b815260040160405180910390fd5b845467ffffffffffffffff19166001178555831561282e57845460ff60401b1916600160401b1785555b612838865f612d83565b831561287e57845460ff60401b19168555604051600181527fc7f505b2f371ae2175ee4913f4499e1f2633a7b5936321eed1cdaeb6115181d29060200160405180910390a15b505050505050565b5f6128946020840184614b6a565b6001600160a01b0381165f908152600f60209081526040918290208251608081018452815460ff808216151583526101008204161580159483019490945262010000900463ffffffff16938101939093526001015460608301529192509061291a576040516304bba81f60e41b81526001600160a01b038316600482015260240161103b565b61292384613c7f565b5f61292d60115490565b905061297f61293b82612e13565b8260206001600160a01b037f000000000000000000000000000000000000000000000000000000000000000016612970612c61565b6001600160a01b031614613cda565b60608201511580159061299a57508460400135826060015114155b80156129a95750604085013515155b80156129ce57506001600160a01b0383165f908152600e602052604090206022015415155b15612a0457606082015160405163aef430a360e01b81526001600160a01b0385166004820152602481019190915260440161103b565b604085013515612a7e576040808601355f908152600d60205220546001600160a01b03168015801590612a495750836001600160a01b0316816001600160a01b031614155b15612a7c576040805163d6a305d960e01b81529087013560048201526001600160a01b038216602482015260440161103b565b505b6040850135158015612abc57506001600160a01b0383165f908152600e6020526040902060228101549054600160401b90046001600160c01b031614155b15612aeb576001600160a01b0383165f908152600f60205260409020805460ff19169055612aeb848484613422565b604085013515801590612b015750606082015115155b8015612b1557508460400135826060015114155b8015612b3e575060608201515f908152600d60205260409020546001600160a01b038481169116145b15612b645760608201515f908152600d6020526040902080546001600160a01b03191690555b5f604086013515612b79578560400135612b7f565b82606001515b90508015612bae575f818152600d6020526040902080546001600160a01b0319166001600160a01b0386161790555b604080516080810182528782018035151582525f6020808401919091529192830191612bdc91908a016155f0565b63ffffffff90811682526020918201939093526001600160a01b039095165f908152600f8652604090819020825181549784015192840151909416620100000265ffffffff0000199215156101000261ff00199515159590951661ffff1990981697909717939093171694909417815560609093015160019093019290925550505050565b5f612c6a613cea565b905090565b5f826001600160a01b0316826040515f6040518083038185875af1925050503d805f8114612cb8576040519150601f19603f3d011682016040523d82523d5f602084013e612cbd565b606091505b5050905080610c7e57604051630590bd2d60e41b81526001600160a01b03841660048201526024810183905260440161103b565b5f6001600160e01b031982166314a66dd360e21b1480612d2157506001600160e01b0319821663c699686560e01b145b80612d3c57506001600160e01b03198216633d0d324560e21b145b80610d1a57506301ffc9a760e01b6001600160e01b0319831614610d1a565b5f807ff0c57e16840df040f15088dc2f81fe391c3923bec73e23a9662efc9c229c6a00610d1a565b60118290556013819055612d95612c61565b5f80546001600160a01b0319166001600160a01b03929092169190911790555050565b5f612dc1611c3a565b90506003816003811115612dd757612dd7614d15565b1480612df457506002816003811115612df257612df2614d15565b145b15610e3e578060405162a7958f60e81b815260040161103b9190614d29565b6040516331a9108f60e11b8152600481018290525f907f00000000000000000000000000000000000000000000000000000000000000006001600160a01b031690636352211e90602401602060405180830381865afa158015612e78573d5f5f3e3d5ffd5b505050506040513d601f19601f82011682018060405250810190610d1a91906153cf565b5f612ea5612c61565b9050836001600160a01b0316816001600160a01b031614158015612f725750604051631a45b42760e11b81526001600160a01b0382811660048301528581166024830152604482018590526064820184905260016084830181905260a48301527f0000000000000000000000000000000000000000000000000000000000000000169063348b684e9060c401602060405180830381865afa158015612f4c573d5f5f3e3d5ffd5b505050506040513d601f19601f82011682018060405250810190612f709190615625565b155b15610cf057604051631326f75560e11b81526001600160a01b03808616600483015282166024820152604481018490526064810183905260840161103b565b5f612c6a612fbd610e41565b90565b5f61eeed196001600160a01b03841601612fe557506001600160a01b03811631610d1a565b6040516370a0823160e01b81526001600160a01b0383811660048301528416906370a0823190602401602060405180830381865afa158015613029573d5f5f3e3d5ffd5b505050506040513d601f19601f8201168201806040525081019061304d919061554d565b9392505050565b613062848484846001613d54565b610cf057604051635274afe760e01b81526001600160a01b038516600482015260240161103b565b5f5f61309560115490565b90505f6130a282866132f3565b90506001600160a01b0381166130dd5760405163b61c181f60e01b8152600481018390526001600160a01b038616602482015260440161103b565b5f6130e88630612fc0565b604080516020810182525f815290516313da831760e01b81529192506001600160a01b038416916313da83179161312d91309188918d918d918d91869160040161566c565b6020604051808303815f875af1158015613149573d5f5f3e3d5ffd5b505050506040513d601f19601f8201168201806040525081019061316d919061554d565b93508061317a8730612fc0565b613184919061553a565b8414613192576131926156c1565b505050949350505050565b6001600160801b038311156131c8576040516335bf001160e11b81526004810184905260240161103b565b6001600160801b038511156131f3576040516335bf001160e11b81526004810186905260240161103b565b6040805186815260208082018690528183018590526060820184905260809091206001600160a01b0387165f908152600e9092529190206132376002820183613dc1565b84816001015f82825461324a9190614f17565b92505081905550856001600160a01b0316847fc92fa1150c24ee5470c272112539aab52450a5e05573e7ea7bdfb98829b893218460018560020160200154613292919061553a565b61329e86600201613eac565b8c8b8a6132a9612c61565b604080519788526020880196909652948601939093526060850191909152608084015260a08301526001600160a01b031660c082015260e00160405180910390a350505050505050565b604051630862026560e41b8152600481018390526001600160a01b0382811660248301525f917f000000000000000000000000000000000000000000000000000000000000000090911690638620265090604401602060405180830381865afa158015613362573d5f5f3e3d5ffd5b505050506040513d601f19601f8201168201806040525081019061304d91906153cf565b6001600160a01b0382165f90815260056020526040812080548392906133ad908490614f17565b925050819055508060035f8282546133c59190614f17565b90915550506001600160a01b0382167f2a3798c6648c17f70b43a33a8378cec543367ac1543e62aa7b39266056971777826133fe612c61565b604080519283526001600160a01b0390911660208301520160405180910390a25050565b606081015161344f5760405163027edf0360e11b81526001600160a01b038316600482015260240161103b565b613457612db8565b6001600160a01b0382165f908152600e6020526040812060228101548291829182919080830361348c57505050505050505050565b6001820180545f9182905583549097508391906134b1906001600160401b03166156d5565b91906101000a8154816001600160401b0302191690836001600160401b03160217905594506134e282600201613eac565b82546001600160401b0316600160401b6001600160c01b03841602178355935061350d60018261553a565b92505050856001600160a01b0316827f47c5615513b0f669da2dd7e3362a34610ca2695d0a0e2da2160cee952eab203c8386613547612c61565b604080519384526001600160401b0390921660208401526001600160a01b03169082015260600160405180910390a3610f4887878787878787613fad565b64010000000082106135ad576040516309f6605160e41b81526004810183905260240161103b565b6001600160a01b0386165f908152600960209081526040808320600886901c8452909152902054600160ff84161b161561360c57604051632939af3b60e21b81526001600160a01b03871660048201526024810183905260440161103b565b6001600160a01b0386165f818152600960209081526040808320600887901c845282528083208054600160ff891681901b90911790915581518c81528084018b90528083018a905260608101899052608090209484528252808320868452909152812082905561367e888386866140b8565b905061368c818386866141ce565b505050505050505050565b5f6136a160115490565b905083156136b4576136b4858583614275565b604051632eec7b5560e11b8152600481018290527f00000000000000000000000000000000000000000000000000000000000000006001600160a01b031690635dd8f6aa90602401602060405180830381865afa158015613717573d5f5f3e3d5ffd5b505050506040513d601f19601f8201168201806040525081019061373b91906153cf565b6001600160a01b031663c7fb92de8285856040516001600160e01b031960e086901b168152600481019390935260248301919091526001600160a01b0316604482015260a060648201525f60a48201819052608482015260c4016020604051808303815f875af11580156137b1573d5f5f3e3d5ffd5b505050506040513d601f19601f8201168201806040525081019061287e919061554d565b6001600160a01b0381165f90815260106020526040812054819063ffffffff168015613805579360019350915050565b5f61380f60115490565b90505f5f7f00000000000000000000000000000000000000000000000000000000000000006001600160a01b031683886040516024016138629291909182526001600160a01b0316602082015260400190565b60408051601f198184030181529181526020820180516001600160e01b0316630862026560e41b1790525161389791906156ff565b5f60405180830381855afa9150503d805f81146138cf576040519150601f19603f3d011682016040523d82523d5f602084013e6138d4565b606091505b50915091508180156138e857506020815110155b15613a06575f8180602001905181019061390291906153cf565b90506001600160a01b03811615613a0457604051602481018590526001600160a01b0389811660448301525f91829184169060640160408051601f198184030181529181526020820180516001600160e01b0316633a01714f60e01b1790525161396c91906156ff565b5f60405180830381855afa9150503d805f81146139a4576040519150601f19603f3d011682016040523d82523d5f602084013e6139a9565b606091505b50915091508180156139bd57506060815110155b15613a01575f818060200190518101906139d79190615715565b9050806040015163ffffffff165f146139ff57604001519a60019a5098505050505050505050565b505b50505b505b5094955f95509350505050565b5f6001600160801b0383811681841601908111613a305780613a39565b6001600160801b035b949350505050565b6401000000008210613a69576040516309f6605160e41b81526004810183905260240161103b565b5f613a72611c3a565b90506003816003811115613a8857613a88614d15565b14158015613aa857506002816003811115613aa557613aa5614d15565b14155b8015613ad157506001600160a01b0387165f908152600f6020526040902054610100900460ff16155b15613afa576040516304bba81f60e41b81526001600160a01b038816600482015260240161103b565b6001600160a01b0387165f908152600e602052604090208054600160401b90046001600160c01b031615801590613b58575080548490613b4c90600190600160401b90046001600160c01b0316615786565b6001600160c01b031610155b15613b8857604051632939af3b60e21b81526001600160a01b03891660048201526024810185905260440161103b565b604080516001600160a01b038a1660208201525f910160408051808303601f19018152918152815160209283012060601c5f8181526009845282812060088a901c8252909352912054909150600160ff87161b1615613c0c57604051632939af3b60e21b81526001600160a01b038a1660048201526024810186905260440161103b565b6001600160a01b039081165f908152600960209081526040808320600889901c845282528083208054600160ff8b161b179055928b168252600e90522061368c90613c5990600201613eac565b604080518c8152602081018b9052908101899052606081018890526080902086866141ce565b62030d40613c9360408301602084016155f0565b63ffffffff161015610e3e57613caf60408201602083016155f0565b604051630555d0f160e41b815263ffffffff909116600482015262030d40602482015260440161103b565b80610cf057610cf0848484612e9c565b5f366014808210801590613d2657507f00000000000000000000000000000000000000000000000000000000000000006001600160a01b031633145b15613d4c57613d3936828403815f6157a5565b613d42916157cc565b60601c9250505090565b339250505090565b6040516323b872dd60e01b5f8181526001600160a01b038781166004528616602452604485905291602083606481808c5af1925060015f51148316613db0578383151615613da4573d5f823e3d81fd5b5f883b113d1516831692505b604052505f60605295945050505050565b5f826020015f8154613dd290614e66565b918290555090506001613de7602060026158fc565b613df1919061553a565b811115613e3357806001613e07602060026158fc565b613e11919061553a565b60405163515447c160e01b81526004810192909252602482015260440161103b565b5f5b6020811015613e965781600116600103613e645782848260208110613e5c57613e5c614e3e565b015550505050565b5f848260208110613e7757613e77614e3e565b01545f90815260209490945250604090922091600191821c9101613e35565b508260200154600160206002613e0791906158fc565b60208101545f90808203613ee257507f27ae5ba08d7291c96c8cbddcc148bf48a6d68c7974b94356f53754ef6171d75792915050565b613eea61498a565b5f5b6020811015613f34576001811b831615613f2c57848160208110613f1257613f12614e3e565b0154828260208110613f2657613f26614e3e565b60200201525b600101613eec565b50604051634a490c2560e01b81527309abdb576f7c7df609b0e4dd87066230f8b354d090634a490c2590613f6e9084908690600401615907565b602060405180830381865af4158015613f89573d5f5f3e3d5ffd5b505050506040513d601f19601f82011682018060405250810190613a39919061554d565b60128054600101908190554260801b175f7309abdb576f7c7df609b0e4dd87066230f8b354d063c60a0b827f000000000000000000000000000000000000000000000000000000000000000061400260115490565b60608b01516040516001600160e01b031960e086901b1681526001600160a01b03909316600484015260248301919091526044820152606481018990526001600160401b038816608482015260a48101879052600160c482015260e48101859052610104015f60405180830381865af4158015614081573d5f5f3e3d5ffd5b505050506040513d5f823e601f3d908101601f191682016040526140a891908101906152d3565b905061368c89848a898b86614492565b6001600160a01b0384165f908152600a60205260408082206001015490516307fbe4d560e41b815282907309abdb576f7c7df609b0e4dd87066230f8b354d090637fbe4d509061411090899088908a90600401615940565b602060405180830381865af415801561412b573d5f5f3e3d5ffd5b505050506040513d601f19601f8201168201806040525081019061414f919061554d565b905081810361416057509050613a39565b6001600160a01b0387165f908152600c60205260408120905b60048110156141c1575f82826004811061419557614195614e3e565b0154905080158015906141a757508084145b156141b8579450613a399350505050565b50600101614179565b5091979650505050505050565b6040516307fbe4d560e41b81525f907309abdb576f7c7df609b0e4dd87066230f8b354d090637fbe4d509061420b90879086908890600401615940565b602060405180830381865af4158015614226573d5f5f3e3d5ffd5b505050506040513d601f19601f8201168201806040525081019061424a919061554d565b90508481146123a5576040516272c3e960e11b8152600481018290526024810186905260440161103b565b5f61427f846116ea565b9050808311156142ac576040516360ec3e7160e01b8152600481018490526024810182905260440161103b565b5f6142b783866132f3565b90506001600160a01b0381166142f25760405163b61c181f60e01b8152600481018490526001600160a01b038616602482015260440161103b565b5f806001600160a01b03871661eeee14801590614381576040516370a0823160e01b81523060048201526001600160a01b038916906370a0823190602401602060405180830381865afa15801561434b573d5f5f3e3d5ffd5b505050506040513d601f19601f8201168201806040525081019061436f919061554d565b915061437c8885896147dc565b614385565b8692505b604051639e6eec0560e01b8152600481018790526001600160a01b038981166024830152604482018990525f6064830181905260c0608484015260c4830181905260e060a484015260e4830152851690639e6eec05908590610104015f604051808303818588803b1580156143f8575f5ffd5b505af115801561440a573d5f5f3e3d5ffd5b50505050508015610ceb5761441f878361553a565b6040516370a0823160e01b81523060048201526001600160a01b038a16906370a0823190602401602060405180830381865afa158015614461573d5f5f3e3d5ffd5b505050506040513d601f19601f82011682018060405250810190614485919061554d565b14610ceb57610ceb6156c1565b620493e0606084156145695760408401516144b39063ffffffff1683614f17565b60405163111504cd60e31b81526001600160a01b037f00000000000000000000000000000000000000000000000000000000000000008116600483015288166024820152604481018790529092507373f3a913eae70c4d3b3b8dc1354b2ea680225d88906388a82668906064015f60405180830381865af415801561453a573d5f5f3e3d5ffd5b505050506040513d5f823e601f3d908101601f191682016040526145619190810190615960565b5090506145a8565b604080515f80825260208201909252906145a4565b604080518082019091525f808252602082015281526020019060019003908161457e5790505b5090505b5f88156145b5575f614626565b604051632f8eeb3d60e01b815246600482015273f1e7306ba84c399c385e4ad9ca783d38a0c5b7c290632f8eeb3d90602401602060405180830381865af4158015614602573d5f5f3e3d5ffd5b505050506040513d601f19601f8201168201806040525081019061462691906153cf565b90505f5f7373f3a913eae70c4d3b3b8dc1354b2ea680225d88636b5653287f00000000000000000000000000000000000000000000000000000000000000007f000000000000000000000000000000000000000000000000000000000000000061468e612fb1565b8f886001600160a01b0381166146a4575f6146ac565b6146ac612c61565b8c5f8f6040516020016146bf9190615451565b60408051601f19818403018152908290526146dd9291602001615a30565b6040516020818303038152906040528d6146f5612c61565b6040518b63ffffffff1660e01b815260040161471a9a99989796959493929190615a4b565b6040805180830381865af4158015614734573d5f5f3e3d5ffd5b505050506040513d601f19601f820116820180604052508101906147589190615b1c565b9150915081156147cf5761477361476d612c61565b82614856565b61477b612c61565b6001600160a01b03167f49a226512c7c6d0448c9d048f6243d67cab6c593596a82f21224aa748d1c5d5e826147ae612c61565b604080519283526001600160a01b0390911660208301520160405180910390a25b5050505050505050505050565b6147e88383835f6148ce565b610c7e576147f983835f60016148ce565b61482157604051635274afe760e01b81526001600160a01b038416600482015260240161103b565b61482e83838360016148ce565b610c7e57604051635274afe760e01b81526001600160a01b038416600482015260240161103b565b6001600160a01b0382165f908152600660205260408120805483929061487d908490614f17565b925050819055508060045f8282546148959190614f17565b90915550506001600160a01b0382167feabe38586436d533b7eadb14fb6c3fd63dbb07d41e234f29313b28bf067a891f826133fe612c61565b60405163095ea7b360e01b5f8181526001600160a01b038616600452602485905291602083604481808b5af1925060015f51148316614924578383151615614918573d5f823e3d81fd5b5f873b113d1516831692505b60405250949350505050565b60405180608001604052805f6001600160401b031681526020015f6001600160c01b031681526020015f81526020016149676149a9565b905290565b5080545f8255600202905f5260205f2090810190610e3e91906149c8565b6040518061040001604052806020906020820280368337509192915050565b60405180604001604052806149bc61498a565b81526020015f81525090565b5b808211156149f95780546001600160a81b03191681556001810180546001600160801b03191690556002016149c9565b5090565b5f5f60208385031215614a0e575f5ffd5b82356001600160401b03811115614a23575f5ffd5b8301601f81018513614a33575f5ffd5b80356001600160401b03811115614a48575f5ffd5b856020606083028401011115614a5c575f5ffd5b6020919091019590945092505050565b5f60208284031215614a7c575f5ffd5b81356001600160e01b03198116811461304d575f5ffd5b5f5f60208385031215614aa4575f5ffd5b82356001600160401b03811115614ab9575f5ffd5b8301601f81018513614ac9575f5ffd5b80356001600160401b03811115614ade575f5ffd5b8560206104c083028401011115614a5c575f5ffd5b5f6060828403128015614b04575f5ffd5b509092915050565b6001600160a01b0381168114610e3e575f5ffd5b5f5f60408385031215614b31575f5ffd5b8235614b3c81614b0c565b946020939093013593505050565b5f5f60408385031215614b5b575f5ffd5b50508035926020909101359150565b5f60208284031215614b7a575f5ffd5b813561304d81614b0c565b5f60208284031215614b95575f5ffd5b813564ffffffffff8116811461304d575f5ffd5b81516001600160401b031681526020808301519082015260408101610d1a565b5f5f60208385031215614bda575f5ffd5b82356001600160401b03811115614bef575f5ffd5b8301601f81018513614bff575f5ffd5b80356001600160401b03811115614c14575f5ffd5b8560208260051b8401011115614a5c575f5ffd5b81516001600160401b031681526020808301516001600160c01b0316908201526040808301519082015260608083015180516104808401925f9085015b6020821015614c8557825181526020928301926001929092019101614c65565b50505060208101516104608401525092915050565b5f60208284031215614caa575f5ffd5b81356001600160401b03811115614cbf575f5ffd5b820160a0818503121561304d575f5ffd5b5f5f5f5f5f60a08688031215614ce4575f5ffd5b8535945060208601359350604086013592506060860135614d0481614b0c565b949793965091946080013592915050565b634e487b7160e01b5f52602160045260245ffd5b6020810160048310614d4957634e487b7160e01b5f52602160045260245ffd5b91905290565b5f6104c0828403128015614b04575f5ffd5b5f60208284031215614d71575f5ffd5b81356001600160401b03811115614d86575f5ffd5b8201610100818503121561304d575f5ffd5b606080825284519082018190525f9060208601906080840190835b81811015614e1257835163ffffffff815116845260ff60208201511660208501526001600160801b0360408201511660408501526001600160801b03606082015116606085015250608083019250602084019350600181019050614db3565b50506020840195909552505060400152919050565b5f60208284031215614e37575f5ffd5b5035919050565b634e487b7160e01b5f52603260045260245ffd5b634e487b7160e01b5f52601160045260245ffd5b5f60018201614e7757614e77614e52565b5060010190565b634e487b7160e01b5f52601260045260245ffd5b5f82614ea057614ea0614e7e565b500490565b5f82614eb357614eb3614e7e565b500690565b6104c081018235614ec881614b0c565b6001600160a01b031682526020838101359083015260408084013590830152606080840135908301526080808401359083015260a0838101359083015261040060c08085019084013792915050565b80820180821115610d1a57610d1a614e52565b604080825281018390525f8460608301825b86811015614f6c578235614f4f81614b0c565b6001600160a01b0316825260209283019290910190600101614f3c565b506001600160a01b03949094166020939093019290925250909392505050565b5f5f8335601e19843603018112614fa1575f5ffd5b8301803591506001600160401b03821115614fba575f5ffd5b602001915036819003821315614fce575f5ffd5b9250929050565b6001600160401b0381168114610e3e575f5ffd5b5f60208284031215614ff9575f5ffd5b813561304d81614fd5565b60208152816020820152818360408301375f818301604090810191909152601f909201601f19160101919050565b60ff81168114610e3e575f5ffd5b805161504b81615032565b919050565b634e487b7160e01b5f52604160045260245ffd5b604080519081016001600160401b038111828210171561508657615086615050565b60405290565b604051608081016001600160401b038111828210171561508657615086615050565b60405160e081016001600160401b038111828210171561508657615086615050565b604051601f8201601f191681016001600160401b03811182821017156150f8576150f8615050565b604052919050565b5f5f60408385031215615111575f5ffd5b825161511c81615032565b60208401519092506001600160401b03811115615137575f5ffd5b8301601f81018513615147575f5ffd5b80516001600160401b0381111561516057615160615050565b615173601f8201601f19166020016150d0565b818152866020838501011115615187575f5ffd5b8160208401602083015e5f602083830101528093505050509250929050565b5f604082840312156151b6575f5ffd5b6151be615064565b905081516151cb81614fd5565b815260209182015191810191909152919050565b5f6001600160401b038211156151f7576151f7615050565b5060051b60200190565b6001600160801b0381168114610e3e575f5ffd5b5f82601f830112615224575f5ffd5b8151615237615232826151df565b6150d0565b8082825260208201915060208360071b860101925085831115615258575f5ffd5b602085015b838110156152c95760808188031215615274575f5ffd5b61527c61508c565b81518152602082015161528e81615032565b602082015260408201516152a181615201565b604082015260608201516152b481615201565b6060820152835260209092019160800161525d565b5095945050505050565b5f602082840312156152e3575f5ffd5b81516001600160401b038111156152f8575f5ffd5b8201610100818503121561530a575f5ffd5b6153126150ae565b61531b82615040565b8152602082810151908201526040808301519082015261533e85606084016151a6565b606082015260a0820151608082015260c08201516001600160401b03811115615365575f5ffd5b61537186828501615215565b60a08301525060e0919091015160c08201529392505050565b5f5f8335601e1984360301811261539f575f5ffd5b8301803591506001600160401b038211156153b8575f5ffd5b6020019150600681901b3603821315614fce575f5ffd5b5f602082840312156153df575f5ffd5b815161304d81614b0c565b6001600160a01b038416815260406020820181905281018290525f8360608301825b8581101561544657823561541f81614b0c565b6001600160a01b03168252602083810135908301526040928301929091019060010161540c565b509695505050505050565b602081525f610120820160ff84511660208401526020840151604084015260408401516060840152606084015161549e608085018280516001600160401b03168252602090810151910152565b50608084015160c084015260a084015161010060e0850152805191829052602001905f906101408501905b808310156155225783518051835260ff60208201511660208401526001600160801b0360408201511660408401526001600160801b036060820151166060840152506080820191506020840193506001830192506154c9565b5060c086015161010086015280935050505092915050565b81810381811115610d1a57610d1a614e52565b5f6020828403121561555d575f5ffd5b5051919050565b5f60208284031215615574575f5ffd5b813561304d81615032565b5f5f8335601e19843603018112615594575f5ffd5b8301803591506001600160401b038211156155ad575f5ffd5b6020019150600781901b3603821315614fce575f5ffd5b5f602082840312156155d4575f5ffd5b813561304d81615201565b63ffffffff81168114610e3e575f5ffd5b5f60208284031215615600575f5ffd5b813561304d816155df565b805161504b81614b0c565b8051801515811461504b575f5ffd5b5f60208284031215615635575f5ffd5b61304d82615616565b5f81518084528060208401602086015e5f602082860101526020601f19601f83011685010191505092915050565b6001600160a01b0388811682526020820188905260408201879052858116606083015260808201859052831660a082015260e060c082018190525f906156b49083018461563e565b9998505050505050505050565b634e487b7160e01b5f52600160045260245ffd5b5f6001600160401b0382166001600160401b0381036156f6576156f6614e52565b60010192915050565b5f82518060208501845e5f920191825250919050565b5f6060828403128015615726575f5ffd5b50604051606081016001600160401b038111828210171561574957615749615050565b604052825161575781614b0c565b8152602083015161576781615032565b6020820152604083015161577a816155df565b60408201529392505050565b6001600160c01b038281168282160390811115610d1a57610d1a614e52565b5f5f858511156157b3575f5ffd5b838611156157bf575f5ffd5b5050820193919092039150565b80356bffffffffffffffffffffffff198116906014841015615812576bffffffffffffffffffffffff196bffffffffffffffffffffffff198560140360031b1b82161691505b5092915050565b6001815b60018411156158545780850481111561583857615838614e52565b600184161561584657908102905b60019390931c92800261581d565b935093915050565b5f8261586a57506001610d1a565b8161587657505f610d1a565b816001811461588c5760028114615896576158b2565b6001915050610d1a565b60ff8411156158a7576158a7614e52565b50506001821b610d1a565b5060208310610133831016604e8410600b84101617156158d5575081810a610d1a565b6158e15f198484615819565b805f19048211156158f4576158f4614e52565b029392505050565b5f61304d838361585c565b610420810181845f5b602081101561592f578151835260209283019290910190600101615910565b505050826104008301529392505050565b838152610440810161040084602084013782610420830152949350505050565b5f5f60408385031215615971575f5ffd5b82516001600160401b03811115615986575f5ffd5b8301601f81018513615996575f5ffd5b80516159a4615232826151df565b8082825260208201915060208360061b8501019250878311156159c5575f5ffd5b6020840193505b82841015615a1557604084890312156159e3575f5ffd5b6159eb615064565b84516159f681614b0c565b81526020858101518183015290835260409094019391909101906159cc565b9450615a27925050506020840161560b565b90509250929050565b60ff83168152604060208201525f613a39604083018461563e565b6001600160a01b038b811682526001600160401b038b1660208301528981166040830152606082018990528781166080830152861660a082015260c0810185905261014060e082018190525f90615aa49083018661563e565b828103610100840152845180825260208087019201905f90815b81811015615af157845180516001600160a01b031685526020908101518186015290940193604090930192600101615abe565b5050506001600160a01b0385166101208501529150615b0d9050565b9b9a5050505050505050505050565b5f5f60408385031215615b2d575f5ffd5b615b3683615616565b602093909301519294929350505056fea164736f6c634300081c000a",
	"gitCommit": "npm:@bananapus/suckers-v6@0.0.72",
	"gitDirty": false,
	"history": []
}