{
	"format": "sphinx-sol-ct-artifact-1",
	"address": "0x09abdb576f7c7df609b0e4dd87066230f8b354d0",
	"sourceName": "node_modules/@bananapus/suckers-v6/src/libraries/JBSuckerLib.sol",
	"contractName": "JBSuckerLib",
	"chainId": "0x66eee",
	"abi": [
		{
			"type": "function",
			"name": "buildSnapshotMessage",
			"inputs": [
				{
					"name": "directory",
					"type": "IJBDirectory",
					"internalType": "contract IJBDirectory"
				},
				{
					"name": "projectId",
					"type": "uint256",
					"internalType": "uint256"
				},
				{
					"name": "remoteToken",
					"type": "bytes32",
					"internalType": "bytes32"
				},
				{
					"name": "amount",
					"type": "uint256",
					"internalType": "uint256"
				},
				{
					"name": "nonce",
					"type": "uint64",
					"internalType": "uint64"
				},
				{
					"name": "root",
					"type": "bytes32",
					"internalType": "bytes32"
				},
				{
					"name": "messageVersion",
					"type": "uint8",
					"internalType": "uint8"
				},
				{
					"name": "sourceTimestamp",
					"type": "uint256",
					"internalType": "uint256"
				}
			],
			"outputs": [
				{
					"name": "message",
					"type": "tuple",
					"internalType": "struct JBMessageRoot",
					"components": [
						{
							"name": "version",
							"type": "uint8",
							"internalType": "uint8"
						},
						{
							"name": "token",
							"type": "bytes32",
							"internalType": "bytes32"
						},
						{
							"name": "amount",
							"type": "uint256",
							"internalType": "uint256"
						},
						{
							"name": "remoteRoot",
							"type": "tuple",
							"internalType": "struct JBInboxTreeRoot",
							"components": [
								{
									"name": "nonce",
									"type": "uint64",
									"internalType": "uint64"
								},
								{
									"name": "root",
									"type": "bytes32",
									"internalType": "bytes32"
								}
							]
						},
						{
							"name": "sourceTotalSupply",
							"type": "uint256",
							"internalType": "uint256"
						},
						{
							"name": "sourceContexts",
							"type": "tuple[]",
							"internalType": "struct JBSourceContext[]",
							"components": [
								{
									"name": "token",
									"type": "bytes32",
									"internalType": "bytes32"
								},
								{
									"name": "decimals",
									"type": "uint8",
									"internalType": "uint8"
								},
								{
									"name": "surplus",
									"type": "uint128",
									"internalType": "uint128"
								},
								{
									"name": "balance",
									"type": "uint128",
									"internalType": "uint128"
								}
							]
						},
						{
							"name": "sourceTimestamp",
							"type": "uint256",
							"internalType": "uint256"
						}
					]
				}
			],
			"stateMutability": "view"
		},
		{
			"type": "function",
			"name": "computeBranchRoot",
			"inputs": [
				{
					"name": "item",
					"type": "bytes32",
					"internalType": "bytes32"
				},
				{
					"name": "branch",
					"type": "bytes32[32]",
					"internalType": "bytes32[32]"
				},
				{
					"name": "index",
					"type": "uint256",
					"internalType": "uint256"
				}
			],
			"outputs": [
				{
					"name": "",
					"type": "bytes32",
					"internalType": "bytes32"
				}
			],
			"stateMutability": "pure"
		},
		{
			"type": "function",
			"name": "computeTreeRoot",
			"inputs": [
				{
					"name": "branch",
					"type": "bytes32[32]",
					"internalType": "bytes32[32]"
				},
				{
					"name": "count",
					"type": "uint256",
					"internalType": "uint256"
				}
			],
			"outputs": [
				{
					"name": "current",
					"type": "bytes32",
					"internalType": "bytes32"
				}
			],
			"stateMutability": "pure"
		}
	],
	"args": [],
	"solcInputHash": "fb1b404de61c542257dbfe08801e1040",
	"bytecode": "0x61198b610034600b8282823980515f1a607314602857634e487b7160e01b5f525f60045260245ffd5b305f52607381538281f3fe730000000000000000000000000000000000000000301460806040526004361061004a575f3560e01c80634a490c251461004e5780637fbe4d5014610074578063c60a0b82146103cf575b5f5ffd5b61006161005c36600461110d565b6103ef565b6040519081526020015b60405180910390f35b610061610082366004611138565b6020600582811b821694855283519482039490945260405f8181206002851615871b808503919091528584015190528181206004851615871b808503919091528286015190528181206008851615871b80850391909152606086015190528181206010851615871b8085039190915260808087015190915282822084861615881b8086039190915260a0870151905282822083861615881b8086039190915260c0870151905282822090851615871b8085039190915260e0860151905281812061010080861615881b80860392909252860151905281812061020080861615881b80860392909252610120870151909152828220610400861615881b808603919091526101408701519052828220610800861615881b808603919091526101608701519052828220611000861615881b808603919091526101808701519052828220612000861615881b808603919091526101a08701519052828220614000861615881b808603919091526101c08701519052828220618000861615881b808603919091526101e0870151905282822062010000861615881b8086039190915290860151905281812062020000851615871b80850391909152610220860151905281812062040000851615871b80850391909152610240860151905281812062080000851615871b80850391909152610260860151905281812062100000851615871b80850391909152610280860151905281812062200000851615871b808503919091526102a0860151905281812062400000851615871b808503919091526102c0860151905281812062800000851615871b808503919091526102e086015190528181206301000000851615871b8085039190915261030086015190528181206302000000851615871b8085039190915261032086015190528181206304000000851615871b8085039190915261034086015190528181206308000000851615871b8085039190915261036086015190528181206310000000851615871b8085039190915261038086015190528181206320000000851615871b808503919091526103a086015190528181206340000000851615871b808503919091526103c0860151905281812063800000009094161590951b91829003929092526103e090920151909152902090565b6103e26103dd366004611193565b6104e7565b60405161006b919061128a565b5f815f0361041e57507f27ae5ba08d7291c96c8cbddcc148bf48a6d68c7974b94356f53754ef6171d7576104e1565b60405161042081016040525f81525f5b602081101561045f5760208102820151805f52806020525060405f206020600183010283015260018101905061042e565b505f5f5b60208110156104dd578180156104ab576001821b8616801561049157602083028801515f528560205261049f565b855f52602083028501516020525b5060405f2094506104d4565b6001821b8616156104d457602082028701515f526020820284015160205260405f209450600192505b50600101610463565b5050505b92915050565b6105336040805160e0810182525f8082526020808301829052828401829052835180850190945281845283015290606082019081526020015f8152602001606081526020015f81525090565b5f5f61053f8b8b61059f565b6040805160e08101825260ff909816885260208089019c909c528781019a909a528951808b01909a526001600160401b039098168952988801959095525050606082019490945260808101949094525060a083015260c082015292915050565b5f60605f6105ad8585610796565b90506001600160a01b0381161561062757604051634da781a960e01b8152600481018590526001600160a01b03821690634da781a990602401602060405180830381865afa92505050801561061f575060408051601f3d908101601f1916820190925261061c91810190611309565b60015b156106275792505b5f60606001600160a01b0383161580159061064b57506001600160a01b0383163b15155b1561066c5761065a8387610894565b90925090506106698286611334565b94505b5f5f61067a89898551610ac9565b915091505f5b83518110156106d45783818151811061069b5761069b611347565b60200260200101518383806106af9061135b565b9450815181106106c1576106c1611347565b6020908102919091010152600101610680565b50806001600160401b038111156106ed576106ed610fcd565b60405190808252806020026020018201604052801561073d57816020015b604080516080810182525f8082526020808301829052928201819052606082015282525f1990920191018161070b5790505b5095505f5b818110156107895782818151811061075c5761075c611347565b602002602001015187828151811061077657610776611347565b6020908102919091010152600101610742565b5050505050509250929050565b604051632eec7b5560e11b8152600481018290525f906001600160a01b03841690635dd8f6aa90602401602060405180830381865afa9250505080156107f9575060408051601f3d908101601f191682019092526107f691810190611373565b60015b156104e1576001600160a01b038116610815575f9150506104e1565b6040516301ffc9a760e01b8152630756feb760e51b60048201526001600160a01b038216906301ffc9a790602401602060405180830381865afa92505050801561087c575060408051601f3d908101601f19168201909252610879918101906113a9565b60015b1561088d57801561088b578192505b505b5092915050565b5f60605f5f856001600160a01b0316856040516024016108b691815260200190565b60408051601f198184030181529181526020820180516001600160e01b03166320c94b1360e11b179052516108eb91906113c2565b5f60405180830381855afa9150503d805f8114610923576040519150601f19603f3d011682016040523d82523d5f602084013e610928565b606091505b509150915081158061093c57506103808151105b1561099457604080515f8082526020820190925281610988565b604080516080810182525f8082526020808301829052928201819052606082015282525f199092019101816109565790505b50935093505050610ac2565b5f818060200190518101906109a991906115ad565b5090505f6109bc82610100015160521c90565b90506001600160a01b03811615806109dc57506001600160a01b0381163b155b15610a3657604080515f8082526020820190925281610a28565b604080516080810182525f8082526020808301829052928201819052606082015282525f199092019101816109f65790505b509550955050505050610ac2565b60405163b64ce2c360e01b8152600481018890526001600160a01b0382169063b64ce2c3906024015f60405180830381865afa925050508015610a9a57506040513d5f823e601f3d908101601f19168201604052610a9791908101906116b5565b60015b610ab357604080515f8082526020820190925281610a28565b9096509450610ac29350505050565b9250929050565b60605f5f856001600160a01b031663d1754153866040518263ffffffff1660e01b8152600401610afb91815260200190565b5f60405180830381865afa158015610b15573d5f5f3e3d5ffd5b505050506040513d5f823e601f3d908101601f19168201604052610b3c91908101906117a8565b8051909150845f5b82811015610bec57838181518110610b5e57610b5e611347565b60200260200101516001600160a01b031663515a9293896040518263ffffffff1660e01b8152600401610b9391815260200190565b5f60405180830381865afa925050508015610bcf57506040513d5f823e601f3d908101601f19168201604052610bcc9190810190611841565b60015b15610be4578051610be09084611334565b9250505b600101610b44565b50806001600160401b03811115610c0557610c05610fcd565b604051908082528060200260200182016040528015610c5557816020015b604080516080810182525f8082526020808301829052928201819052606082015282525f19909201910181610c235790505b5094505f5b82811015610d6d57838181518110610c7457610c74611347565b60200260200101516001600160a01b031663515a9293896040518263ffffffff1660e01b8152600401610ca991815260200190565b5f60405180830381865afa925050508015610ce557506040513d5f823e601f3d908101601f19168201604052610ce29190810190611841565b60015b15610d65575f5b8151811015610d6257610d32868481518110610d0a57610d0a611347565b60200260200101518b848481518110610d2557610d25611347565b6020026020010151610d79565b8888610d3d8161135b565b995081518110610d4f57610d4f611347565b6020908102919091010152600101610cec565b50505b600101610c5a565b50505050935093915050565b604080516080810182525f8082526020820181905291810182905260608101919091526040805160018082528183019092525f91816020016020820280368337019050509050825f0151815f81518110610dd557610dd5611347565b60200260200101906001600160a01b031690816001600160a01b0316815250505f856001600160a01b031663b5c104f38684876020015188604001516040518563ffffffff1660e01b8152600401610e309493929190611910565b602060405180830381865afa925050508015610e69575060408051601f3d908101601f19168201909252610e6691810190611309565b60015b15610e715790505b5f866001600160a01b031663507f14656040518163ffffffff1660e01b8152600401602060405180830381865afa158015610eae573d5f5f3e3d5ffd5b505050506040513d601f19601f82011682018060405250810190610ed29190611373565b855160405163467f4cb960e01b81526001600160a01b038a81166004830152602482018a9052918216604482015291169063467f4cb990606401602060405180830381865afa925050508015610f45575060408051601f3d908101601f19168201909252610f4291810190611309565b60015b15610f4d5790505b6040805160808101825286516001600160a01b0316815260208088015160ff1690820152908101610f7d84610faa565b6001600160801b03168152602001610f9483610faa565b6001600160801b03169052979650505050505050565b5f6001600160801b038211610fbf57816104e1565b6001600160801b0392915050565b634e487b7160e01b5f52604160045260245ffd5b60405161026081016001600160401b038111828210171561100457611004610fcd565b60405290565b60405161012081016001600160401b038111828210171561100457611004610fcd565b604051608081016001600160401b038111828210171561100457611004610fcd565b604051606081016001600160401b038111828210171561100457611004610fcd565b604051601f8201601f191681016001600160401b038111828210171561109957611099610fcd565b604052919050565b5f82601f8301126110b0575f5ffd5b60405161040081016001600160401b03811182821017156110d3576110d3610fcd565b604052806104008401858111156110e8575f5ffd5b845b818110156111025780358352602092830192016110ea565b509195945050505050565b5f5f610420838503121561111f575f5ffd5b61112984846110a1565b94610400939093013593505050565b5f5f5f610440848603121561114b575f5ffd5b8335925061115c85602086016110a1565b92959294505050610420919091013590565b6001600160a01b0381168114611182575f5ffd5b50565b60ff81168114611182575f5ffd5b5f5f5f5f5f5f5f5f610100898b0312156111ab575f5ffd5b88356111b68161116e565b975060208901359650604089013595506060890135945060808901356001600160401b03811681146111e6575f5ffd5b935060a0890135925060c08901356111fd81611185565b979a969950949793969295919450919260e001359150565b5f8151808452602084019350602083015f5b828110156112805781518051875260ff60208201511660208801526001600160801b0360408201511660408801526001600160801b03606082015116606088015250608086019550602082019150600181019050611227565b5093949350505050565b6020815260ff825116602082015260208201516040820152604082015160608201525f60608301516001600160401b038151166080840152602081015160a084015250608083015160c083015260a083015161010060e08401526112f2610120840182611215565b905060c08401516101008401528091505092915050565b5f60208284031215611319575f5ffd5b5051919050565b634e487b7160e01b5f52601160045260245ffd5b808201808211156104e1576104e1611320565b634e487b7160e01b5f52603260045260245ffd5b5f6001820161136c5761136c611320565b5060010190565b5f60208284031215611383575f5ffd5b815161138e8161116e565b9392505050565b805180151581146113a4575f5ffd5b919050565b5f602082840312156113b9575f5ffd5b61138e82611395565b5f82518060208501845e5f920191825250919050565b805165ffffffffffff811681146113a4575f5ffd5b805163ffffffff811681146113a4575f5ffd5b80516dffffffffffffffffffffffffffff811681146113a4575f5ffd5b80516113a48161116e565b805161ffff811681146113a4575f5ffd5b5f610260828403121561144a575f5ffd5b611452610fe1565b905061145d82611428565b815261146b60208301611428565b602082015261147c604083016113ed565b604082015261148d60608301611395565b606082015261149e60808301611395565b60808201526114af60a08301611395565b60a08201526114c060c08301611395565b60c08201526114d160e08301611395565b60e08201526114e36101008301611395565b6101008201526114f66101208301611395565b6101208201526115096101408301611395565b61014082015261151c6101608301611395565b61016082015261152f6101808301611395565b6101808201526115426101a08301611395565b6101a08201526115556101c08301611395565b6101c08201526115686101e08301611395565b6101e082015261157b6102008301611395565b61020082015261158e610220830161141d565b6102208201526115a16102408301611428565b61024082015292915050565b5f5f8284036103808112156115c0575f5ffd5b6101208112156115ce575f5ffd5b506115d761100a565b6115e0846113d8565b81526115ee602085016113d8565b60208201526115ff604085016113d8565b6040820152611610606085016113d8565b6060820152611621608085016113ed565b608082015261163260a08501611400565b60a082015261164360c085016113ed565b60c082015261165460e0850161141d565b60e082015261010084810151908201529150611674846101208501611439565b90509250929050565b5f6001600160401b0382111561169557611695610fcd565b5060051b60200190565b80516001600160801b03811681146113a4575f5ffd5b5f5f604083850312156116c6575f5ffd5b825160208401519092506001600160401b038111156116e3575f5ffd5b8301601f810185136116f3575f5ffd5b80516117066117018261167d565b611071565b8082825260208201915060208360071b850101925087831115611727575f5ffd5b6020840193505b8284101561179a5760808489031215611745575f5ffd5b61174d61102d565b84518152602085015161175f81611185565b60208201526117706040860161169f565b60408201526117816060860161169f565b606082015282526080939093019260209091019061172e565b809450505050509250929050565b5f602082840312156117b8575f5ffd5b81516001600160401b038111156117cd575f5ffd5b8201601f810184136117dd575f5ffd5b80516117eb6117018261167d565b8082825260208201915060208360051b85010192508683111561180c575f5ffd5b6020840193505b828410156118375783516118268161116e565b825260209384019390910190611813565b9695505050505050565b5f60208284031215611851575f5ffd5b81516001600160401b03811115611866575f5ffd5b8201601f81018413611876575f5ffd5b80516118846117018261167d565b808282526020820191506020606084028501019250868311156118a5575f5ffd5b6020840193505b8284101561183757606084880312156118c3575f5ffd5b6118cb61104f565b84516118d68161116e565b815260208501516118e681611185565b60208201526118f7604086016113ed565b60408201528252606093909301926020909101906118ac565b5f608082018683526080602084015280865180835260a0850191506020880192505f5b8181101561195a5783516001600160a01b0316835260209384019390920191600101611933565b505060ff959095166040840152505063ffffffff919091166060909101529291505056fea164736f6c634300081c000a",
	"gitCommit": "npm:@bananapus/suckers-v6@0.0.72",
	"gitDirty": false,
	"history": []
}