{
	"format": "sphinx-sol-ct-artifact-1",
	"address": "0x8c3b3d0fe56b31850a000333ef16195dbcd5a806",
	"sourceName": "node_modules/@bananapus/suckers-v6/src/JBOptimismSucker.sol",
	"contractName": "JBOptimismSucker",
	"chainId": "0xa",
	"abi": [
		{
			"type": "constructor",
			"inputs": [
				{
					"name": "deployer",
					"type": "address",
					"internalType": "contract JBOptimismSuckerDeployer"
				},
				{
					"name": "directory",
					"type": "address",
					"internalType": "contract IJBDirectory"
				},
				{
					"name": "permissions",
					"type": "address",
					"internalType": "contract IJBPermissions"
				},
				{
					"name": "tokens",
					"type": "address",
					"internalType": "contract IJBTokens"
				},
				{
					"name": "feeProjectId",
					"type": "uint256",
					"internalType": "uint256"
				},
				{
					"name": "registry",
					"type": "address",
					"internalType": "contract IJBSuckerRegistry"
				},
				{
					"name": "trustedForwarder",
					"type": "address",
					"internalType": "address"
				}
			],
			"stateMutability": "nonpayable"
		},
		{
			"type": "receive",
			"stateMutability": "payable"
		},
		{
			"type": "function",
			"name": "DIRECTORY",
			"inputs": [],
			"outputs": [
				{
					"name": "",
					"type": "address",
					"internalType": "contract IJBDirectory"
				}
			],
			"stateMutability": "view"
		},
		{
			"type": "function",
			"name": "FEE_PROJECT_ID",
			"inputs": [],
			"outputs": [
				{
					"name": "",
					"type": "uint256",
					"internalType": "uint256"
				}
			],
			"stateMutability": "view"
		},
		{
			"type": "function",
			"name": "MESSAGE_VERSION",
			"inputs": [],
			"outputs": [
				{
					"name": "",
					"type": "uint8",
					"internalType": "uint8"
				}
			],
			"stateMutability": "view"
		},
		{
			"type": "function",
			"name": "MESSENGER_BASE_GAS_LIMIT",
			"inputs": [],
			"outputs": [
				{
					"name": "",
					"type": "uint32",
					"internalType": "uint32"
				}
			],
			"stateMutability": "view"
		},
		{
			"type": "function",
			"name": "MESSENGER_ERC20_MIN_GAS_LIMIT",
			"inputs": [],
			"outputs": [
				{
					"name": "",
					"type": "uint32",
					"internalType": "uint32"
				}
			],
			"stateMutability": "view"
		},
		{
			"type": "function",
			"name": "OPBRIDGE",
			"inputs": [],
			"outputs": [
				{
					"name": "",
					"type": "address",
					"internalType": "contract IOPStandardBridge"
				}
			],
			"stateMutability": "view"
		},
		{
			"type": "function",
			"name": "OPMESSENGER",
			"inputs": [],
			"outputs": [
				{
					"name": "",
					"type": "address",
					"internalType": "contract IOPMessenger"
				}
			],
			"stateMutability": "view"
		},
		{
			"type": "function",
			"name": "PERMISSIONS",
			"inputs": [],
			"outputs": [
				{
					"name": "",
					"type": "address",
					"internalType": "contract IJBPermissions"
				}
			],
			"stateMutability": "view"
		},
		{
			"type": "function",
			"name": "PROJECTS",
			"inputs": [],
			"outputs": [
				{
					"name": "",
					"type": "address",
					"internalType": "contract IJBProjects"
				}
			],
			"stateMutability": "view"
		},
		{
			"type": "function",
			"name": "REGISTRY",
			"inputs": [],
			"outputs": [
				{
					"name": "",
					"type": "address",
					"internalType": "contract IJBSuckerRegistry"
				}
			],
			"stateMutability": "view"
		},
		{
			"type": "function",
			"name": "TOKENS",
			"inputs": [],
			"outputs": [
				{
					"name": "",
					"type": "address",
					"internalType": "contract IJBTokens"
				}
			],
			"stateMutability": "view"
		},
		{
			"type": "function",
			"name": "amountToAddToBalanceOf",
			"inputs": [
				{
					"name": "token",
					"type": "address",
					"internalType": "address"
				}
			],
			"outputs": [
				{
					"name": "",
					"type": "uint256",
					"internalType": "uint256"
				}
			],
			"stateMutability": "view"
		},
		{
			"type": "function",
			"name": "claim",
			"inputs": [
				{
					"name": "claims",
					"type": "tuple[]",
					"internalType": "struct JBClaim[]",
					"components": [
						{
							"name": "token",
							"type": "address",
							"internalType": "address"
						},
						{
							"name": "leaf",
							"type": "tuple",
							"internalType": "struct JBLeaf",
							"components": [
								{
									"name": "index",
									"type": "uint256",
									"internalType": "uint256"
								},
								{
									"name": "beneficiary",
									"type": "bytes32",
									"internalType": "bytes32"
								},
								{
									"name": "projectTokenCount",
									"type": "uint256",
									"internalType": "uint256"
								},
								{
									"name": "terminalTokenAmount",
									"type": "uint256",
									"internalType": "uint256"
								},
								{
									"name": "metadata",
									"type": "bytes32",
									"internalType": "bytes32"
								}
							]
						},
						{
							"name": "proof",
							"type": "bytes32[32]",
							"internalType": "bytes32[32]"
						}
					]
				}
			],
			"outputs": [],
			"stateMutability": "nonpayable"
		},
		{
			"type": "function",
			"name": "claim",
			"inputs": [
				{
					"name": "claimData",
					"type": "tuple",
					"internalType": "struct JBClaim",
					"components": [
						{
							"name": "token",
							"type": "address",
							"internalType": "address"
						},
						{
							"name": "leaf",
							"type": "tuple",
							"internalType": "struct JBLeaf",
							"components": [
								{
									"name": "index",
									"type": "uint256",
									"internalType": "uint256"
								},
								{
									"name": "beneficiary",
									"type": "bytes32",
									"internalType": "bytes32"
								},
								{
									"name": "projectTokenCount",
									"type": "uint256",
									"internalType": "uint256"
								},
								{
									"name": "terminalTokenAmount",
									"type": "uint256",
									"internalType": "uint256"
								},
								{
									"name": "metadata",
									"type": "bytes32",
									"internalType": "bytes32"
								}
							]
						},
						{
							"name": "proof",
							"type": "bytes32[32]",
							"internalType": "bytes32[32]"
						}
					]
				}
			],
			"outputs": [],
			"stateMutability": "nonpayable"
		},
		{
			"type": "function",
			"name": "claimRetainedToRemoteFee",
			"inputs": [
				{
					"name": "beneficiary",
					"type": "address",
					"internalType": "address payable"
				}
			],
			"outputs": [],
			"stateMutability": "nonpayable"
		},
		{
			"type": "function",
			"name": "claimRetainedTransportPaymentRefund",
			"inputs": [
				{
					"name": "beneficiary",
					"type": "address",
					"internalType": "address payable"
				}
			],
			"outputs": [],
			"stateMutability": "nonpayable"
		},
		{
			"type": "function",
			"name": "deployer",
			"inputs": [],
			"outputs": [
				{
					"name": "",
					"type": "address",
					"internalType": "address"
				}
			],
			"stateMutability": "view"
		},
		{
			"type": "function",
			"name": "enableEmergencyHatchFor",
			"inputs": [
				{
					"name": "tokens",
					"type": "address[]",
					"internalType": "address[]"
				}
			],
			"outputs": [],
			"stateMutability": "nonpayable"
		},
		{
			"type": "function",
			"name": "executedLeafHashOf",
			"inputs": [
				{
					"name": "token",
					"type": "address",
					"internalType": "address"
				},
				{
					"name": "index",
					"type": "uint256",
					"internalType": "uint256"
				}
			],
			"outputs": [
				{
					"name": "",
					"type": "bytes32",
					"internalType": "bytes32"
				}
			],
			"stateMutability": "view"
		},
		{
			"type": "function",
			"name": "exitThroughEmergencyHatch",
			"inputs": [
				{
					"name": "claimData",
					"type": "tuple",
					"internalType": "struct JBClaim",
					"components": [
						{
							"name": "token",
							"type": "address",
							"internalType": "address"
						},
						{
							"name": "leaf",
							"type": "tuple",
							"internalType": "struct JBLeaf",
							"components": [
								{
									"name": "index",
									"type": "uint256",
									"internalType": "uint256"
								},
								{
									"name": "beneficiary",
									"type": "bytes32",
									"internalType": "bytes32"
								},
								{
									"name": "projectTokenCount",
									"type": "uint256",
									"internalType": "uint256"
								},
								{
									"name": "terminalTokenAmount",
									"type": "uint256",
									"internalType": "uint256"
								},
								{
									"name": "metadata",
									"type": "bytes32",
									"internalType": "bytes32"
								}
							]
						},
						{
							"name": "proof",
							"type": "bytes32[32]",
							"internalType": "bytes32[32]"
						}
					]
				}
			],
			"outputs": [],
			"stateMutability": "nonpayable"
		},
		{
			"type": "function",
			"name": "fromRemote",
			"inputs": [
				{
					"name": "root",
					"type": "tuple",
					"internalType": "struct JBMessageRoot",
					"components": [
						{
							"name": "version",
							"type": "uint8",
							"internalType": "uint8"
						},
						{
							"name": "token",
							"type": "bytes32",
							"internalType": "bytes32"
						},
						{
							"name": "amount",
							"type": "uint256",
							"internalType": "uint256"
						},
						{
							"name": "remoteRoot",
							"type": "tuple",
							"internalType": "struct JBInboxTreeRoot",
							"components": [
								{
									"name": "nonce",
									"type": "uint64",
									"internalType": "uint64"
								},
								{
									"name": "root",
									"type": "bytes32",
									"internalType": "bytes32"
								}
							]
						},
						{
							"name": "accounts",
							"type": "tuple[]",
							"internalType": "struct JBChainAccounting[]",
							"components": [
								{
									"name": "chainId",
									"type": "uint256",
									"internalType": "uint256"
								},
								{
									"name": "totalSupply",
									"type": "uint256",
									"internalType": "uint256"
								},
								{
									"name": "contexts",
									"type": "tuple[]",
									"internalType": "struct JBSourceContext[]",
									"components": [
										{
											"name": "token",
											"type": "bytes32",
											"internalType": "bytes32"
										},
										{
											"name": "decimals",
											"type": "uint8",
											"internalType": "uint8"
										},
										{
											"name": "surplus",
											"type": "uint128",
											"internalType": "uint128"
										},
										{
											"name": "balance",
											"type": "uint128",
											"internalType": "uint128"
										}
									]
								},
								{
									"name": "timestamp",
									"type": "uint256",
									"internalType": "uint256"
								}
							]
						}
					]
				}
			],
			"outputs": [],
			"stateMutability": "payable"
		},
		{
			"type": "function",
			"name": "fromRemoteAccounting",
			"inputs": [
				{
					"name": "snapshot",
					"type": "tuple",
					"internalType": "struct JBAccountingSnapshot",
					"components": [
						{
							"name": "version",
							"type": "uint8",
							"internalType": "uint8"
						},
						{
							"name": "accounts",
							"type": "tuple[]",
							"internalType": "struct JBChainAccounting[]",
							"components": [
								{
									"name": "chainId",
									"type": "uint256",
									"internalType": "uint256"
								},
								{
									"name": "totalSupply",
									"type": "uint256",
									"internalType": "uint256"
								},
								{
									"name": "contexts",
									"type": "tuple[]",
									"internalType": "struct JBSourceContext[]",
									"components": [
										{
											"name": "token",
											"type": "bytes32",
											"internalType": "bytes32"
										},
										{
											"name": "decimals",
											"type": "uint8",
											"internalType": "uint8"
										},
										{
											"name": "surplus",
											"type": "uint128",
											"internalType": "uint128"
										},
										{
											"name": "balance",
											"type": "uint128",
											"internalType": "uint128"
										}
									]
								},
								{
									"name": "timestamp",
									"type": "uint256",
									"internalType": "uint256"
								}
							]
						}
					]
				}
			],
			"outputs": [],
			"stateMutability": "nonpayable"
		},
		{
			"type": "function",
			"name": "inboxOf",
			"inputs": [
				{
					"name": "token",
					"type": "address",
					"internalType": "address"
				}
			],
			"outputs": [
				{
					"name": "",
					"type": "tuple",
					"internalType": "struct JBInboxTreeRoot",
					"components": [
						{
							"name": "nonce",
							"type": "uint64",
							"internalType": "uint64"
						},
						{
							"name": "root",
							"type": "bytes32",
							"internalType": "bytes32"
						}
					]
				}
			],
			"stateMutability": "view"
		},
		{
			"type": "function",
			"name": "initialize",
			"inputs": [
				{
					"name": "localProjectId",
					"type": "uint256",
					"internalType": "uint256"
				},
				{
					"name": "remotePeer",
					"type": "bytes32",
					"internalType": "bytes32"
				}
			],
			"outputs": [],
			"stateMutability": "nonpayable"
		},
		{
			"type": "function",
			"name": "initialize",
			"inputs": [
				{
					"name": "initialProjectId",
					"type": "uint256",
					"internalType": "uint256"
				}
			],
			"outputs": [],
			"stateMutability": "nonpayable"
		},
		{
			"type": "function",
			"name": "isMapped",
			"inputs": [
				{
					"name": "token",
					"type": "address",
					"internalType": "address"
				}
			],
			"outputs": [
				{
					"name": "",
					"type": "bool",
					"internalType": "bool"
				}
			],
			"stateMutability": "view"
		},
		{
			"type": "function",
			"name": "isTrustedForwarder",
			"inputs": [
				{
					"name": "forwarder",
					"type": "address",
					"internalType": "address"
				}
			],
			"outputs": [
				{
					"name": "",
					"type": "bool",
					"internalType": "bool"
				}
			],
			"stateMutability": "view"
		},
		{
			"type": "function",
			"name": "mapToken",
			"inputs": [
				{
					"name": "map",
					"type": "tuple",
					"internalType": "struct JBTokenMapping",
					"components": [
						{
							"name": "localToken",
							"type": "address",
							"internalType": "address"
						},
						{
							"name": "minGas",
							"type": "uint32",
							"internalType": "uint32"
						},
						{
							"name": "remoteToken",
							"type": "bytes32",
							"internalType": "bytes32"
						}
					]
				}
			],
			"outputs": [],
			"stateMutability": "payable"
		},
		{
			"type": "function",
			"name": "mapTokens",
			"inputs": [
				{
					"name": "maps",
					"type": "tuple[]",
					"internalType": "struct JBTokenMapping[]",
					"components": [
						{
							"name": "localToken",
							"type": "address",
							"internalType": "address"
						},
						{
							"name": "minGas",
							"type": "uint32",
							"internalType": "uint32"
						},
						{
							"name": "remoteToken",
							"type": "bytes32",
							"internalType": "bytes32"
						}
					]
				}
			],
			"outputs": [],
			"stateMutability": "payable"
		},
		{
			"type": "function",
			"name": "outboxOf",
			"inputs": [
				{
					"name": "token",
					"type": "address",
					"internalType": "address"
				}
			],
			"outputs": [
				{
					"name": "",
					"type": "tuple",
					"internalType": "struct JBOutboxTree",
					"components": [
						{
							"name": "nonce",
							"type": "uint64",
							"internalType": "uint64"
						},
						{
							"name": "numberOfClaimsSent",
							"type": "uint192",
							"internalType": "uint192"
						},
						{
							"name": "balance",
							"type": "uint256",
							"internalType": "uint256"
						},
						{
							"name": "tree",
							"type": "tuple",
							"internalType": "struct MerkleLib.Tree",
							"components": [
								{
									"name": "branch",
									"type": "bytes32[32]",
									"internalType": "bytes32[32]"
								},
								{
									"name": "count",
									"type": "uint256",
									"internalType": "uint256"
								}
							]
						}
					]
				}
			],
			"stateMutability": "view"
		},
		{
			"type": "function",
			"name": "peer",
			"inputs": [],
			"outputs": [
				{
					"name": "",
					"type": "bytes32",
					"internalType": "bytes32"
				}
			],
			"stateMutability": "view"
		},
		{
			"type": "function",
			"name": "peerChainAccountsOf",
			"inputs": [],
			"outputs": [
				{
					"name": "accounts",
					"type": "tuple[]",
					"internalType": "struct JBChainAccounting[]",
					"components": [
						{
							"name": "chainId",
							"type": "uint256",
							"internalType": "uint256"
						},
						{
							"name": "totalSupply",
							"type": "uint256",
							"internalType": "uint256"
						},
						{
							"name": "contexts",
							"type": "tuple[]",
							"internalType": "struct JBSourceContext[]",
							"components": [
								{
									"name": "token",
									"type": "bytes32",
									"internalType": "bytes32"
								},
								{
									"name": "decimals",
									"type": "uint8",
									"internalType": "uint8"
								},
								{
									"name": "surplus",
									"type": "uint128",
									"internalType": "uint128"
								},
								{
									"name": "balance",
									"type": "uint128",
									"internalType": "uint128"
								}
							]
						},
						{
							"name": "timestamp",
							"type": "uint256",
							"internalType": "uint256"
						}
					]
				}
			],
			"stateMutability": "view"
		},
		{
			"type": "function",
			"name": "peerChainContextsOf",
			"inputs": [
				{
					"name": "chainId",
					"type": "uint256",
					"internalType": "uint256"
				}
			],
			"outputs": [
				{
					"name": "contexts",
					"type": "tuple[]",
					"internalType": "struct JBPeerChainContext[]",
					"components": [
						{
							"name": "currency",
							"type": "uint32",
							"internalType": "uint32"
						},
						{
							"name": "decimals",
							"type": "uint8",
							"internalType": "uint8"
						},
						{
							"name": "surplus",
							"type": "uint128",
							"internalType": "uint128"
						},
						{
							"name": "balance",
							"type": "uint128",
							"internalType": "uint128"
						}
					]
				},
				{
					"name": "snapshot",
					"type": "uint256",
					"internalType": "uint256"
				}
			],
			"stateMutability": "view"
		},
		{
			"type": "function",
			"name": "peerChainId",
			"inputs": [],
			"outputs": [
				{
					"name": "",
					"type": "uint256",
					"internalType": "uint256"
				}
			],
			"stateMutability": "view"
		},
		{
			"type": "function",
			"name": "peerChainIds",
			"inputs": [
				{
					"name": "includeVirtual",
					"type": "bool",
					"internalType": "bool"
				}
			],
			"outputs": [
				{
					"name": "chainIds",
					"type": "uint256[]",
					"internalType": "uint256[]"
				}
			],
			"stateMutability": "view"
		},
		{
			"type": "function",
			"name": "peerChainTotalSupplyOf",
			"inputs": [
				{
					"name": "chainId",
					"type": "uint256",
					"internalType": "uint256"
				}
			],
			"outputs": [
				{
					"name": "",
					"type": "uint256",
					"internalType": "uint256"
				}
			],
			"stateMutability": "view"
		},
		{
			"type": "function",
			"name": "peerChainTotalSupplyValue",
			"inputs": [
				{
					"name": "chainId",
					"type": "uint256",
					"internalType": "uint256"
				}
			],
			"outputs": [
				{
					"name": "",
					"type": "tuple",
					"internalType": "struct JBPeerChainValue",
					"components": [
						{
							"name": "value",
							"type": "uint256",
							"internalType": "uint256"
						},
						{
							"name": "peerChainId",
							"type": "uint256",
							"internalType": "uint256"
						},
						{
							"name": "snapshotTimestamp",
							"type": "uint256",
							"internalType": "uint256"
						}
					]
				}
			],
			"stateMutability": "view"
		},
		{
			"type": "function",
			"name": "prepare",
			"inputs": [
				{
					"name": "projectTokenCount",
					"type": "uint256",
					"internalType": "uint256"
				},
				{
					"name": "beneficiary",
					"type": "bytes32",
					"internalType": "bytes32"
				},
				{
					"name": "minTokensReclaimed",
					"type": "uint256",
					"internalType": "uint256"
				},
				{
					"name": "token",
					"type": "address",
					"internalType": "address"
				},
				{
					"name": "metadata",
					"type": "bytes32",
					"internalType": "bytes32"
				}
			],
			"outputs": [],
			"stateMutability": "nonpayable"
		},
		{
			"type": "function",
			"name": "projectId",
			"inputs": [],
			"outputs": [
				{
					"name": "",
					"type": "uint256",
					"internalType": "uint256"
				}
			],
			"stateMutability": "view"
		},
		{
			"type": "function",
			"name": "remoteTokenFor",
			"inputs": [
				{
					"name": "token",
					"type": "address",
					"internalType": "address"
				}
			],
			"outputs": [
				{
					"name": "",
					"type": "tuple",
					"internalType": "struct JBRemoteToken",
					"components": [
						{
							"name": "enabled",
							"type": "bool",
							"internalType": "bool"
						},
						{
							"name": "emergencyHatch",
							"type": "bool",
							"internalType": "bool"
						},
						{
							"name": "minGas",
							"type": "uint32",
							"internalType": "uint32"
						},
						{
							"name": "addr",
							"type": "bytes32",
							"internalType": "bytes32"
						}
					]
				}
			],
			"stateMutability": "view"
		},
		{
			"type": "function",
			"name": "retainedToRemoteFeeBalance",
			"inputs": [],
			"outputs": [
				{
					"name": "",
					"type": "uint256",
					"internalType": "uint256"
				}
			],
			"stateMutability": "view"
		},
		{
			"type": "function",
			"name": "retainedToRemoteFeeOf",
			"inputs": [
				{
					"name": "account",
					"type": "address",
					"internalType": "address"
				}
			],
			"outputs": [
				{
					"name": "amount",
					"type": "uint256",
					"internalType": "uint256"
				}
			],
			"stateMutability": "view"
		},
		{
			"type": "function",
			"name": "retainedTransportPaymentRefundBalance",
			"inputs": [],
			"outputs": [
				{
					"name": "",
					"type": "uint256",
					"internalType": "uint256"
				}
			],
			"stateMutability": "view"
		},
		{
			"type": "function",
			"name": "retainedTransportPaymentRefundOf",
			"inputs": [
				{
					"name": "account",
					"type": "address",
					"internalType": "address"
				}
			],
			"outputs": [
				{
					"name": "amount",
					"type": "uint256",
					"internalType": "uint256"
				}
			],
			"stateMutability": "view"
		},
		{
			"type": "function",
			"name": "setDeprecation",
			"inputs": [
				{
					"name": "timestamp",
					"type": "uint40",
					"internalType": "uint40"
				}
			],
			"outputs": [],
			"stateMutability": "nonpayable"
		},
		{
			"type": "function",
			"name": "snapshotTimestampOf",
			"inputs": [
				{
					"name": "chainId",
					"type": "uint256",
					"internalType": "uint256"
				}
			],
			"outputs": [
				{
					"name": "",
					"type": "uint256",
					"internalType": "uint256"
				}
			],
			"stateMutability": "view"
		},
		{
			"type": "function",
			"name": "state",
			"inputs": [],
			"outputs": [
				{
					"name": "",
					"type": "uint8",
					"internalType": "enum JBSuckerState"
				}
			],
			"stateMutability": "view"
		},
		{
			"type": "function",
			"name": "supportsInterface",
			"inputs": [
				{
					"name": "interfaceId",
					"type": "bytes4",
					"internalType": "bytes4"
				}
			],
			"outputs": [
				{
					"name": "",
					"type": "bool",
					"internalType": "bool"
				}
			],
			"stateMutability": "view"
		},
		{
			"type": "function",
			"name": "syncAccountingData",
			"inputs": [],
			"outputs": [],
			"stateMutability": "payable"
		},
		{
			"type": "function",
			"name": "toRemote",
			"inputs": [
				{
					"name": "token",
					"type": "address",
					"internalType": "address"
				}
			],
			"outputs": [],
			"stateMutability": "payable"
		},
		{
			"type": "function",
			"name": "trustedForwarder",
			"inputs": [],
			"outputs": [
				{
					"name": "",
					"type": "address",
					"internalType": "address"
				}
			],
			"stateMutability": "view"
		},
		{
			"type": "event",
			"name": "AccountingDataSynced",
			"inputs": [
				{
					"name": "sourceTimestamp",
					"type": "uint256",
					"indexed": false,
					"internalType": "uint256"
				},
				{
					"name": "caller",
					"type": "address",
					"indexed": false,
					"internalType": "address"
				}
			],
			"anonymous": false
		},
		{
			"type": "event",
			"name": "ClaimFailed",
			"inputs": [
				{
					"name": "token",
					"type": "address",
					"indexed": true,
					"internalType": "address"
				},
				{
					"name": "index",
					"type": "uint256",
					"indexed": false,
					"internalType": "uint256"
				},
				{
					"name": "caller",
					"type": "address",
					"indexed": false,
					"internalType": "address"
				}
			],
			"anonymous": false
		},
		{
			"type": "event",
			"name": "Claimed",
			"inputs": [
				{
					"name": "beneficiary",
					"type": "bytes32",
					"indexed": false,
					"internalType": "bytes32"
				},
				{
					"name": "token",
					"type": "address",
					"indexed": false,
					"internalType": "address"
				},
				{
					"name": "projectTokenCount",
					"type": "uint256",
					"indexed": false,
					"internalType": "uint256"
				},
				{
					"name": "terminalTokenAmount",
					"type": "uint256",
					"indexed": false,
					"internalType": "uint256"
				},
				{
					"name": "index",
					"type": "uint256",
					"indexed": false,
					"internalType": "uint256"
				},
				{
					"name": "metadata",
					"type": "bytes32",
					"indexed": false,
					"internalType": "bytes32"
				},
				{
					"name": "caller",
					"type": "address",
					"indexed": false,
					"internalType": "address"
				}
			],
			"anonymous": false
		},
		{
			"type": "event",
			"name": "DeprecationTimeUpdated",
			"inputs": [
				{
					"name": "timestamp",
					"type": "uint40",
					"indexed": false,
					"internalType": "uint40"
				},
				{
					"name": "caller",
					"type": "address",
					"indexed": false,
					"internalType": "address"
				}
			],
			"anonymous": false
		},
		{
			"type": "event",
			"name": "EmergencyExit",
			"inputs": [
				{
					"name": "beneficiary",
					"type": "address",
					"indexed": true,
					"internalType": "address"
				},
				{
					"name": "token",
					"type": "address",
					"indexed": true,
					"internalType": "address"
				},
				{
					"name": "terminalTokenAmount",
					"type": "uint256",
					"indexed": false,
					"internalType": "uint256"
				},
				{
					"name": "projectTokenCount",
					"type": "uint256",
					"indexed": false,
					"internalType": "uint256"
				},
				{
					"name": "caller",
					"type": "address",
					"indexed": false,
					"internalType": "address"
				}
			],
			"anonymous": false
		},
		{
			"type": "event",
			"name": "EmergencyHatchOpened",
			"inputs": [
				{
					"name": "tokens",
					"type": "address[]",
					"indexed": false,
					"internalType": "address[]"
				},
				{
					"name": "caller",
					"type": "address",
					"indexed": false,
					"internalType": "address"
				}
			],
			"anonymous": false
		},
		{
			"type": "event",
			"name": "Initialized",
			"inputs": [
				{
					"name": "version",
					"type": "uint64",
					"indexed": false,
					"internalType": "uint64"
				}
			],
			"anonymous": false
		},
		{
			"type": "event",
			"name": "InsertToOutboxTree",
			"inputs": [
				{
					"name": "beneficiary",
					"type": "bytes32",
					"indexed": true,
					"internalType": "bytes32"
				},
				{
					"name": "token",
					"type": "address",
					"indexed": true,
					"internalType": "address"
				},
				{
					"name": "hashed",
					"type": "bytes32",
					"indexed": false,
					"internalType": "bytes32"
				},
				{
					"name": "index",
					"type": "uint256",
					"indexed": false,
					"internalType": "uint256"
				},
				{
					"name": "root",
					"type": "bytes32",
					"indexed": false,
					"internalType": "bytes32"
				},
				{
					"name": "projectTokenCount",
					"type": "uint256",
					"indexed": false,
					"internalType": "uint256"
				},
				{
					"name": "terminalTokenAmount",
					"type": "uint256",
					"indexed": false,
					"internalType": "uint256"
				},
				{
					"name": "metadata",
					"type": "bytes32",
					"indexed": false,
					"internalType": "bytes32"
				},
				{
					"name": "caller",
					"type": "address",
					"indexed": false,
					"internalType": "address"
				}
			],
			"anonymous": false
		},
		{
			"type": "event",
			"name": "NewInboxTreeRoot",
			"inputs": [
				{
					"name": "token",
					"type": "address",
					"indexed": true,
					"internalType": "address"
				},
				{
					"name": "nonce",
					"type": "uint64",
					"indexed": false,
					"internalType": "uint64"
				},
				{
					"name": "root",
					"type": "bytes32",
					"indexed": false,
					"internalType": "bytes32"
				},
				{
					"name": "caller",
					"type": "address",
					"indexed": false,
					"internalType": "address"
				}
			],
			"anonymous": false
		},
		{
			"type": "event",
			"name": "RetainedToRemoteFee",
			"inputs": [
				{
					"name": "account",
					"type": "address",
					"indexed": true,
					"internalType": "address"
				},
				{
					"name": "amount",
					"type": "uint256",
					"indexed": false,
					"internalType": "uint256"
				},
				{
					"name": "caller",
					"type": "address",
					"indexed": false,
					"internalType": "address"
				}
			],
			"anonymous": false
		},
		{
			"type": "event",
			"name": "RetainedToRemoteFeeClaimed",
			"inputs": [
				{
					"name": "account",
					"type": "address",
					"indexed": true,
					"internalType": "address"
				},
				{
					"name": "beneficiary",
					"type": "address",
					"indexed": true,
					"internalType": "address"
				},
				{
					"name": "amount",
					"type": "uint256",
					"indexed": false,
					"internalType": "uint256"
				},
				{
					"name": "caller",
					"type": "address",
					"indexed": false,
					"internalType": "address"
				}
			],
			"anonymous": false
		},
		{
			"type": "event",
			"name": "RetainedTransportPaymentRefund",
			"inputs": [
				{
					"name": "account",
					"type": "address",
					"indexed": true,
					"internalType": "address"
				},
				{
					"name": "amount",
					"type": "uint256",
					"indexed": false,
					"internalType": "uint256"
				},
				{
					"name": "caller",
					"type": "address",
					"indexed": false,
					"internalType": "address"
				}
			],
			"anonymous": false
		},
		{
			"type": "event",
			"name": "RetainedTransportPaymentRefundClaimed",
			"inputs": [
				{
					"name": "account",
					"type": "address",
					"indexed": true,
					"internalType": "address"
				},
				{
					"name": "beneficiary",
					"type": "address",
					"indexed": true,
					"internalType": "address"
				},
				{
					"name": "amount",
					"type": "uint256",
					"indexed": false,
					"internalType": "uint256"
				},
				{
					"name": "caller",
					"type": "address",
					"indexed": false,
					"internalType": "address"
				}
			],
			"anonymous": false
		},
		{
			"type": "event",
			"name": "RootToRemote",
			"inputs": [
				{
					"name": "root",
					"type": "bytes32",
					"indexed": true,
					"internalType": "bytes32"
				},
				{
					"name": "token",
					"type": "address",
					"indexed": true,
					"internalType": "address"
				},
				{
					"name": "index",
					"type": "uint256",
					"indexed": false,
					"internalType": "uint256"
				},
				{
					"name": "nonce",
					"type": "uint64",
					"indexed": false,
					"internalType": "uint64"
				},
				{
					"name": "caller",
					"type": "address",
					"indexed": false,
					"internalType": "address"
				}
			],
			"anonymous": false
		},
		{
			"type": "event",
			"name": "StaleRootRejected",
			"inputs": [
				{
					"name": "token",
					"type": "address",
					"indexed": true,
					"internalType": "address"
				},
				{
					"name": "receivedNonce",
					"type": "uint64",
					"indexed": false,
					"internalType": "uint64"
				},
				{
					"name": "currentNonce",
					"type": "uint64",
					"indexed": false,
					"internalType": "uint64"
				},
				{
					"name": "caller",
					"type": "address",
					"indexed": false,
					"internalType": "address"
				}
			],
			"anonymous": false
		},
		{
			"type": "error",
			"name": "InvalidInitialization",
			"inputs": []
		},
		{
			"type": "error",
			"name": "JBPermissioned_Unauthorized",
			"inputs": [
				{
					"name": "account",
					"type": "address",
					"internalType": "address"
				},
				{
					"name": "sender",
					"type": "address",
					"internalType": "address"
				},
				{
					"name": "projectId",
					"type": "uint256",
					"internalType": "uint256"
				},
				{
					"name": "permissionId",
					"type": "uint256",
					"internalType": "uint256"
				}
			]
		},
		{
			"type": "error",
			"name": "JBSucker_AccountingSyncUnsupported",
			"inputs": []
		},
		{
			"type": "error",
			"name": "JBSucker_AmountExceedsUint128",
			"inputs": [
				{
					"name": "amount",
					"type": "uint256",
					"internalType": "uint256"
				}
			]
		},
		{
			"type": "error",
			"name": "JBSucker_BelowMinGas",
			"inputs": [
				{
					"name": "minGas",
					"type": "uint256",
					"internalType": "uint256"
				},
				{
					"name": "minGasLimit",
					"type": "uint256",
					"internalType": "uint256"
				}
			]
		},
		{
			"type": "error",
			"name": "JBSucker_Deprecated",
			"inputs": [
				{
					"name": "state",
					"type": "uint8",
					"internalType": "enum JBSuckerState"
				}
			]
		},
		{
			"type": "error",
			"name": "JBSucker_DeprecationTimestampTooSoon",
			"inputs": [
				{
					"name": "givenTime",
					"type": "uint256",
					"internalType": "uint256"
				},
				{
					"name": "minimumTime",
					"type": "uint256",
					"internalType": "uint256"
				}
			]
		},
		{
			"type": "error",
			"name": "JBSucker_ExpectedMsgValue",
			"inputs": [
				{
					"name": "msgValue",
					"type": "uint256",
					"internalType": "uint256"
				}
			]
		},
		{
			"type": "error",
			"name": "JBSucker_IndexOutOfRange",
			"inputs": [
				{
					"name": "index",
					"type": "uint256",
					"internalType": "uint256"
				}
			]
		},
		{
			"type": "error",
			"name": "JBSucker_InsufficientBalance",
			"inputs": [
				{
					"name": "amount",
					"type": "uint256",
					"internalType": "uint256"
				},
				{
					"name": "balance",
					"type": "uint256",
					"internalType": "uint256"
				}
			]
		},
		{
			"type": "error",
			"name": "JBSucker_InsufficientMsgValue",
			"inputs": [
				{
					"name": "received",
					"type": "uint256",
					"internalType": "uint256"
				},
				{
					"name": "expected",
					"type": "uint256",
					"internalType": "uint256"
				}
			]
		},
		{
			"type": "error",
			"name": "JBSucker_InvalidMessageVersion",
			"inputs": [
				{
					"name": "received",
					"type": "uint8",
					"internalType": "uint8"
				},
				{
					"name": "expected",
					"type": "uint8",
					"internalType": "uint8"
				}
			]
		},
		{
			"type": "error",
			"name": "JBSucker_InvalidNativeRemoteAddress",
			"inputs": [
				{
					"name": "remoteToken",
					"type": "bytes32",
					"internalType": "bytes32"
				}
			]
		},
		{
			"type": "error",
			"name": "JBSucker_InvalidProof",
			"inputs": [
				{
					"name": "root",
					"type": "bytes32",
					"internalType": "bytes32"
				},
				{
					"name": "inboxRoot",
					"type": "bytes32",
					"internalType": "bytes32"
				}
			]
		},
		{
			"type": "error",
			"name": "JBSucker_LeafAlreadyExecuted",
			"inputs": [
				{
					"name": "token",
					"type": "address",
					"internalType": "address"
				},
				{
					"name": "index",
					"type": "uint256",
					"internalType": "uint256"
				}
			]
		},
		{
			"type": "error",
			"name": "JBSucker_NoRetainedToRemoteFee",
			"inputs": [
				{
					"name": "account",
					"type": "address",
					"internalType": "address"
				}
			]
		},
		{
			"type": "error",
			"name": "JBSucker_NoRetainedTransportPaymentRefund",
			"inputs": [
				{
					"name": "account",
					"type": "address",
					"internalType": "address"
				}
			]
		},
		{
			"type": "error",
			"name": "JBSucker_NoTerminalForToken",
			"inputs": [
				{
					"name": "projectId",
					"type": "uint256",
					"internalType": "uint256"
				},
				{
					"name": "token",
					"type": "address",
					"internalType": "address"
				}
			]
		},
		{
			"type": "error",
			"name": "JBSucker_NotPeer",
			"inputs": [
				{
					"name": "caller",
					"type": "bytes32",
					"internalType": "bytes32"
				}
			]
		},
		{
			"type": "error",
			"name": "JBSucker_NothingToSend",
			"inputs": [
				{
					"name": "token",
					"type": "address",
					"internalType": "address"
				},
				{
					"name": "outboxBalance",
					"type": "uint256",
					"internalType": "uint256"
				},
				{
					"name": "treeCount",
					"type": "uint256",
					"internalType": "uint256"
				},
				{
					"name": "numberOfClaimsSent",
					"type": "uint256",
					"internalType": "uint256"
				}
			]
		},
		{
			"type": "error",
			"name": "JBSucker_RefundFailed",
			"inputs": [
				{
					"name": "beneficiary",
					"type": "address",
					"internalType": "address"
				},
				{
					"name": "amount",
					"type": "uint256",
					"internalType": "uint256"
				}
			]
		},
		{
			"type": "error",
			"name": "JBSucker_RemoteTokenAlreadyMapped",
			"inputs": [
				{
					"name": "remoteToken",
					"type": "bytes32",
					"internalType": "bytes32"
				},
				{
					"name": "localToken",
					"type": "address",
					"internalType": "address"
				}
			]
		},
		{
			"type": "error",
			"name": "JBSucker_TokenAlreadyMapped",
			"inputs": [
				{
					"name": "localToken",
					"type": "address",
					"internalType": "address"
				},
				{
					"name": "mappedTo",
					"type": "bytes32",
					"internalType": "bytes32"
				}
			]
		},
		{
			"type": "error",
			"name": "JBSucker_TokenHasInvalidEmergencyHatchState",
			"inputs": [
				{
					"name": "token",
					"type": "address",
					"internalType": "address"
				}
			]
		},
		{
			"type": "error",
			"name": "JBSucker_TokenNotMapped",
			"inputs": [
				{
					"name": "token",
					"type": "address",
					"internalType": "address"
				}
			]
		},
		{
			"type": "error",
			"name": "JBSucker_UnexpectedMsgValue",
			"inputs": [
				{
					"name": "value",
					"type": "uint256",
					"internalType": "uint256"
				}
			]
		},
		{
			"type": "error",
			"name": "JBSucker_UnexpectedTokenBalance",
			"inputs": [
				{
					"name": "token",
					"type": "address",
					"internalType": "address"
				},
				{
					"name": "expectedBalance",
					"type": "uint256",
					"internalType": "uint256"
				},
				{
					"name": "actualBalance",
					"type": "uint256",
					"internalType": "uint256"
				}
			]
		},
		{
			"type": "error",
			"name": "JBSucker_ZeroBeneficiary",
			"inputs": [
				{
					"name": "beneficiary",
					"type": "bytes32",
					"internalType": "bytes32"
				}
			]
		},
		{
			"type": "error",
			"name": "JBSucker_ZeroERC20Token",
			"inputs": [
				{
					"name": "projectId",
					"type": "uint256",
					"internalType": "uint256"
				}
			]
		},
		{
			"type": "error",
			"name": "JBSucker_ZeroProjectTokenCount",
			"inputs": []
		},
		{
			"type": "error",
			"name": "MerkleLib_InsertTreeIsFull",
			"inputs": [
				{
					"name": "size",
					"type": "uint256",
					"internalType": "uint256"
				},
				{
					"name": "maxLeaves",
					"type": "uint256",
					"internalType": "uint256"
				}
			]
		},
		{
			"type": "error",
			"name": "NotInitializing",
			"inputs": []
		},
		{
			"type": "error",
			"name": "SafeCastOverflowedUintDowncast",
			"inputs": [
				{
					"name": "bits",
					"type": "uint8",
					"internalType": "uint8"
				},
				{
					"name": "value",
					"type": "uint256",
					"internalType": "uint256"
				}
			]
		},
		{
			"type": "error",
			"name": "SafeERC20FailedOperation",
			"inputs": [
				{
					"name": "token",
					"type": "address",
					"internalType": "address"
				}
			]
		}
	],
	"args": [
		"0x298A775c030aDcEDB641a89D9047eC9972674E1A",
		"0x5AfF29060E023e6FB87BE5596652B33c65Af535B",
		"0xf92AC1aB5A00033E35a3975739124F61928C36B0",
		"0x1f80d8f057eE36b4C2656D107E4e4558B71bA7D9",
		"1",
		"0x7903a854aE91eAf635430D120a1a434085cEf297",
		"0x3bA60b60933916a7C87D0860DcEE62a0CE34E3e2"
	],
	"solcInputHash": "94164e4a3a913b2bf6b48a103240a84a",
	"bytecode": "0x6101a080604052346102b65760e081615b73803803809161002082856103b7565b8339810103126102b65780516001600160a01b03811691908290036102b65760208101516001600160a01b03811691908281036102b6576040820151906001600160a01b03821682036102b6576060830151936001600160a01b03851685036102b657608084015160a0850151946001600160a01b03861686036102b65760c00151926001600160a01b03841684036102b65760049460209460805260a05260c05260e0526040519283809263293c499960e01b82525afa9081156102c2575f91610375575b506101005261012052610140525f516020615b535f395f51905f525460ff8160401c16610366576002600160401b03196001600160401b03821601610310575b5060405163146dcc9560e11b8152602081600481855afa9081156102c2575f916102cd575b506101605260405163516bf2f360e01b815290602090829060049082905afa9081156102c2575f9161027c575b506101805260405161576490816103ef82396080518181816112130152818161178c01526148a6015260a0518181816125d901528181612f2f01528181613ace0152614819015260c051818181610b9d01528181611a1101528181611fbc01528181613ee401528181613f85015281816143d50152614e51015260e0518181816116cf0152611cd2015261010051818181610d0501526139a20152610120518181816105c00152818161066e01528181611c8101528181611fe40152614e79015261014051818181610ab10152611ae1015261016051818181610cc1015261542401526101805181818161271f015281816137df015281816142cd01526154dd0152f35b90506020813d6020116102ba575b81610297602093836103b7565b810103126102b657516001600160a01b03811681036102b6575f610178565b5f80fd5b3d915061028a565b6040513d5f823e3d90fd5b90506020813d602011610308575b816102e8602093836103b7565b810103126102b657516001600160a01b03811681036102b657600461014b565b3d91506102db565b6001600160401b0319166001600160401b039081175f516020615b535f395f51905f52556040519081527fc7f505b2f371ae2175ee4913f4499e1f2633a7b5936321eed1cdaeb6115181d290602090a15f610126565b63f92ee8a960e01b5f5260045ffd5b90506020813d6020116103af575b81610390602093836103b7565b810103126102b657516001600160a01b03811681036102b6575f6100e6565b3d9150610383565b601f909101601f19168101906001600160401b038211908210176103da57604052565b634e487b7160e01b5f52604160045260245ffdfe6080604052600436101561001a575b3615610018575f80fd5b005b5f3560e01c8063014dc2a61461034957806301ffc9a71461034457806303da64a81461033f57806306433b1b1461033a5780630ce92d4b1461033557806311cda415146103305780631d831d5c1461032b57806322c9cc0f146103265780632847f1f314610321578063293c49991461031c5780633a5de07d146103175780633bef5ad5146103125780633f827a5a1461030d5780633fafa127146103085780634035d3b1146103035780634ca0e69b146102fe5780634e415ad6146102f95780634f0677e1146102f457806354176949146102ef578063572b6c05146102ea5780635de4e83a146102e55780636284386a146102e0578063663d00f6146102db5780636d9e384b146102d65780636f4115a9146102d157806373cbdfc6146102cc57806375451559146102c75780637da0a877146102c25780637de6fba2146102bd578063802c8fa0146102b857806388bc2ef3146102b357806392ee1ea7146102ae5780639e6d7d43146102a9578063af629bbb146102a4578063b71c11791461029f578063bf557aee1461029a578063c19d93fb14610295578063c1ca1ec714610290578063cbb2adce1461028b578063cdfceeba14610286578063cf26bafb14610281578063d5f394881461027c578063d935222f14610277578063eac1f29e14610272578063f13465431461026d578063f3aefd7b14610268578063f434c91414610263578063f925558c1461025e578063fc072f2314610259578063fc8fa43d146102545763fe4b84df0361000e5761274e565b61270a565b612643565b612608565b6125c4565b6124c1565b612458565b612413565b612336565b61230f565b6122f2565b6122d8565b6120f5565b611f71565b611f46565b611ee8565b611bff565b611a84565b611a5d565b611a40565b6119fc565b6118f1565b6117bb565b611777565b61171c565b6116f2565b6116b8565b611631565b6113b0565b6112d3565b611247565b6111ef565b6110cd565b6110b0565b610f94565b610e0d565b610dc4565b610d96565b610d7b565b610d51565b610d34565b610cf0565b610cac565b610b5a565b610a9c565b610a7a565b6105ef565b6105ab565b610545565b6104bf565b60203660031901126104bb576004356001600160401b0381116104bb57366023820112156104bb578060040135906001600160401b0382116104bb57602481019060243691606085020101116104bb575f5f5b83811061042e57508061041d57505f91905b5f925f925b8084106103ef57848034116103c457005b610018906103e96103e26103d661487b565b6001600160a01b031690565b913461288c565b90613781565b9091929361041360019161040d8561040889878a612801565b61341c565b90612871565b94019291906103b3565b6104279034612845565b91906103ae565b61045d61044461043f838787612801565b612816565b6001600160a01b03165f908152600e6020526040902090565b604061046a838787612801565b0135159081610496575b50610482575b60010161039c565b9061048e600191612837565b91905061047a565b905060226104a5825460401c90565b9101546001600160c01b0390911614155f610474565b5f80fd5b346104bb5760203660031901126104bb5760043563ffffffff60e01b81168091036104bb576314a66dd360e21b8114908115610534575b8115610523575b8115610512575b506040519015158152602090f35b6301ffc9a760e01b1490505f610504565b633d0d324560e21b811491506104fd565b6332af4eb960e21b811491506104f6565b346104bb5760203660031901126104bb576004356001600160401b0381116104bb57366023820112156104bb5780600401356001600160401b0381116104bb573660246104c08302840101116104bb57602461001892016129b8565b5f9103126104bb57565b346104bb575f3660031901126104bb576040517f00000000000000000000000000000000000000000000000000000000000000006001600160a01b03168152602090f35b60603660031901126104bb575f6106066004612816565b6001600160a01b0381165f908152600f6020526040902060443592919061063190612f9d565b612f9d565b9061063f6020830151151590565b610a5f5761064d60046146f6565b60115461069a61065c82613985565b61066461487b565b6001600160a01b037f0000000000000000000000000000000000000000000000000000000000000000811694911684149161478e565b6106a2613291565b90803b156104bb576040516303827e8d60e01b81526001600160a01b03841660048201526024810192909252604482018690525f90829060649082905afa8015610a5a57610a40575b50606082018051858115159182610a35575b505080610a2c575b80610a09575b6109e8578415948515938461097f575b868061092e575b6108e6575b50906107a992916107fc959685806108dc575b806108d1575b8061089a575b61086f575b156108685750515b8061082e575b61078b6107666024613412565b610778610771612aa6565b9615158752565b5f602087015263ffffffff166040860152565b60608401526001600160a01b03165f908152600f6020526040902090565b815181546020840151604085015165ffffffffffff1990921660ff931515939093169290921791151560081b61ff00169190911760109190911b65ffffffff000016178155606090910151600190910155565b80341161080557005b6001600160a01b0361081561487b565b169034033481116108295761001891613781565b612823565b61086382610844835f52600d60205260405f2090565b80546001600160a01b0319166001600160a01b03909216919091179055565b610759565b9050610753565b61089561088584515f52600d60205260405f2090565b80546001600160a01b0319169055565b61074b565b506108be6108b184515f52600d60205260405f2090565b546001600160a01b031690565b6001600160a01b03858116911614610746565b508183511415610740565b508251151561073a565b6001600160a01b0384165f908152600f602052604090206107fc96506107a9949392916109239161091c905b805460ff19169055565b8434614057565b349550909192610727565b506001600160a01b0384165f908152600e60205260409020610952905b5460401c90565b6001600160a01b0385165f908152600e60205260409020602201546001600160c01b039091161415610722565b6109946108b1835f52600d60205260405f2090565b6001600160a01b03811680151590816109d4575b506109b3575061071b565b63d6a305d960e01b5f5260048390526001600160a01b031660245260445b5ffd5b6001600160a01b038716141590505f6109a8565b5163aef430a360e01b5f526001600160a01b0390911660045260245260445ffd5b506001600160a01b0382165f908152600e6020526040902060220154151561070b565b50841515610705565b14159050855f6106fd565b80610a4e5f610a549361292f565b806105a1565b5f6106eb565b6129ad565b6304bba81f60e41b5f526001600160a01b031660045260245ffd5b346104bb575f3660031901126104bb576020610a94612a99565b604051908152f35b346104bb575f3660031901126104bb576040517f00000000000000000000000000000000000000000000000000000000000000006001600160a01b03168152602090f35b92919060408401906040855280518092526020606086019101915f5b818110610b0e57505060209150930152565b9091602060806001926001600160801b036060885163ffffffff815116845260ff8682015116868501528260408201511660408501520151166060820152019401910192919092610afc565b346104bb5760203660031901126104bb5760043560115490805f52601560205260405f2091604051928391633a37eccb60e01b8352606483019060018060a01b037f0000000000000000000000000000000000000000000000000000000000000000166004850152602484015260606044840152815480915260848301915f5260205f20905f5b818110610c665750505090805f920381730b2b545a4e2fd65d29f2417f1b26698d71769a8f5af4918215610a5a575f92610c3e575b50610c29905f52600760205260405f2090565b5490610c3a60405192839283610ae0565b0390f35b610c29919250610c5f903d805f833e610c57818361292f565b810190612af6565b9190610c16565b8254845260018084015460ff8116602087015260081c6001600160801b039081166040870152600285015416606086015287955060809094019360039093019201610be1565b346104bb575f3660031901126104bb576040517f00000000000000000000000000000000000000000000000000000000000000006001600160a01b03168152602090f35b346104bb575f3660031901126104bb576040517f00000000000000000000000000000000000000000000000000000000000000006001600160a01b03168152602090f35b346104bb575f3660031901126104bb57602060405162030d408152f35b346104bb5760203660031901126104bb576004355f526002602052602060405f2054604051908152f35b346104bb575f3660031901126104bb57602060405160018152f35b346104bb575f3660031901126104bb576020601154604051908152f35b6001600160a01b038116036104bb57565b346104bb5760403660031901126104bb57600435610de181610db3565b6024359060018060a01b03165f52600160205260405f20905f52602052602060405f2054604051908152f35b346104bb5760203660031901126104bb576004356001600160401b0381116104bb578060040190604060031982360301126104bb57610e4b336137dd565b15610ea3578135610e5b81612ada565b600160ff821603610e7c57610018610e766024840185612bd5565b90613877565b80610e896109d192612ada565b63e667c12560e01b5f5260ff166004526001602452604490565b63f957028d60e01b5f523360045260245ffd5b602081016020825282518091526040820191602060408360051b8301019401925f915b838310610ee857505050505090565b9091929394603f1982820301835285519060808101918051825260208101516020830152604081015192608060408401528351809152602060a084019401905f905b808210610f50575050506060908101519101529460209081019493600101920190610ed9565b909194602060806001926001600160801b0360608a518051845260ff8682015116868501528260408201511660408501520151166060820152019601920190610f2a565b346104bb575f3660031901126104bb57601454610fb081612ab5565b90610fbe604051928361292f565b808252601f19610fcd82612ab5565b015f5b8181106110805750505f5b818110610ff05760405180610c3a8582610eb6565b80611009610fff600193612c0a565b90549060031b1c90565b61101b815f52600260205260405f2090565b5461105a611031835f52601560205260405f2090565b611043845f52600760205260405f2090565b549261104d612aa6565b9485526020850152612c22565b6040830152606082015261106e8286612cbc565b526110798185612cbc565b5001610fdb565b60209060405161108f816128be565b5f81525f83820152606060408201525f606082015282828701015201610fd0565b346104bb575f3660031901126104bb576020600454604051908152f35b346104bb5760403660031901126104bb575f5160206157385f395f51905f52546004356024356001600160401b0361111d604085901c60ff1615611110565b1590565b946001600160401b031690565b16801590816111e7575b60011490816111dd575b1590816111d4575b506111c557611154918361114b612cd0565b6111b857613928565b61115a57005b61118460ff60401b195f5160206157385f395f51905f5254165f5160206157385f395f51905f5255565b604051600181527fc7f505b2f371ae2175ee4913f4499e1f2633a7b5936321eed1cdaeb6115181d29080602081015b0390a1005b6111c0612cfd565b613928565b63f92ee8a960e01b5f5260045ffd5b9050155f611139565b303b159150611131565b849150611127565b346104bb5760203660031901126104bb57602060043561120e81610db3565b6040517f00000000000000000000000000000000000000000000000000000000000000006001600160a01b039081169216919091148152f35b346104bb5760203660031901126104bb57610c3a6004355f6040805161126c816128de565b8281528260208201520152805f52600260205260405f205490805f52600760205260405f205490604051926112a0846128de565b83526020830152604082015260405191829182919091604080606083019480518452602081015160208501520151910152565b346104bb5760203660031901126104bb5760043564ffffffffff8116908181036104bb576112ff61393e565b61131360115461130e81613985565b613a43565b62127500420180421161082957821515806113a6575b61138857506113587f455efa76af2a8686dc0dd3041bda89ece5ba4691277d525e2161003bbca8b24592600855565b61136061487b565b6040805164ffffffffff90931683526001600160a01b039091166020830152819081016111b3565b630111a46b60e21b5f5264ffffffffff90911660045260245260445ffd5b5080831115611329565b60203660031901126104bb576004356001600160401b0381116104bb57806004019060c060031982360301126104bb576113ec61110c336137dd565b61161157600160ff6113fd84612bcb565b16036116055760248101356001600160a01b03165f818152600a6020526040902061001893610e7693909260a492606483019061143982612d3b565b81546001600160401b03908116911681101561158d57506114d7826001926114a16114847fc69d3412489554fb7820c4c2784cb644b6c79bfc117444b93977d3d33a9b8eac96612d3b565b825467ffffffffffffffff19166001600160401b03909116178255565b608487013593849101557f27ae5ba08d7291c96c8cbddcc148bf48a6d68c7974b94356f53754ef6171d757830361152657612d3b565b9261151b6114e361487b565b604080516001600160401b03909716875260208701949094526001600160a01b03908116938601939093529116929081906060820190565b0390a25b0190612bd5565b6115888361158261155961155361154d8a60018060a01b03165f52600b60205260405f2090565b54612863565b60031690565b6001600160a01b0389165f908152600b60209081526040808320849055600c9091529020612d45565b90612d54565b612d3b565b90506115b97f2eb8abf720d2b9cf9e357f7a24a2bee502a7bdba38de0de230e10c33dafbd3eb92612d3b565b926115fd6115c561487b565b604080516001600160401b0397881681529490961660208501526001600160a01b039081169584019590955293169281906060820190565b0390a261151f565b6109d1610e8983612bcb565b6109d161161d336103d6565b63f957028d60e01b5f52600452602490565b565b346104bb5760203660031901126104bb5760043561164e81610db3565b5f602060405161165d816128f9565b828152015260018060a01b03165f52600a602052610c3a60405f20600160405191611687836128f9565b80546001600160401b0316808452910154602092830190815260408051928352905192820192909252918291820190565b346104bb575f3660031901126104bb5760206040517f00000000000000000000000000000000000000000000000000000000000000008152f35b346104bb5760203660031901126104bb576004355f526007602052602060405f2054604051908152f35b346104bb5760203660031901126104bb576004356001600160401b0381116104bb57366023820112156104bb5780600401356001600160401b0381116104bb573660248260051b840101116104bb5760246100189201612ddb565b346104bb575f3660031901126104bb576040517f00000000000000000000000000000000000000000000000000000000000000006001600160a01b03168152602090f35b346104bb5760203660031901126104bb576004356117d881610db3565b5f60606040516117e7816128be565b828152826020820152826040820152015260018060a01b03165f52600f602052610c3a60405f2060016040519161181d836128be565b63ffffffff815460ff81161515855260ff8160081c161515602086015260101c1660408401520154606082015260405191829182919091606080608083019480511515845260208101511515602085015263ffffffff60408201511660408501520151910152565b81516001600160401b031681526020808301516001600160c01b031690820152604080830151908201526060918201518051610480830194935f9084015b602082106118db575050506020610460910151910152565b60208060019285518152019301910190916118c3565b346104bb5760203660031901126104bb5760043561190e81610db3565b6040519061191b826128be565b5f82525f60208301525f6040830152604051611936816128f9565b606061040093604051611949868261292f565b8536823783525f6020840152015260018060a01b03165f52600e60205260405f209060405190611978826128be565b82546001600160401b038116835260401c602083015260018301546040830152604051906119a5826128f9565b60405190600285015f835b602082106119e65750505093816119cc610c3a9660229461292f565b835201546020820152606082015260405191829182611885565b60016020819285548152019301910190916119b0565b346104bb575f3660031901126104bb576040517f00000000000000000000000000000000000000000000000000000000000000006001600160a01b03168152602090f35b346104bb575f3660031901126104bb576020604051620493e08152f35b346104bb5760203660031901126104bb576020610a94600435611a7f81610db3565b612ff3565b346104bb5760a03660031901126104bb57606435604435602435600435611aaa84610db3565b608435928115611bf0578215611bdc5760115460405163ea78803f60e01b8152600481018290526020816024816001600160a01b037f0000000000000000000000000000000000000000000000000000000000000000165afa908115610a5a575f91611bad575b506001600160a01b0316908115611b9b57506001600160a01b0386165f908152600f60205260409020611b4a9061110c905b5460ff1690565b611b7f576100189591611b7284611b7993611b6361393e565b611b6b61487b565b3091613b99565b8284613cae565b91613d86565b63027edf0360e11b5f526001600160a01b03861660045260245ffd5b6309794d0160e11b5f5260045260245ffd5b611bcf915060203d602011611bd5575b611bc7818361292f565b810190613061565b5f611b11565b503d611bbd565b63b2fe07f160e01b5f52600483905260245ffd5b632bcf4c5760e21b5f5260045ffd5b60203660031901126104bb57600435611c1781610db3565b6001600160a01b0381165f908152600f60205260409020611c3790612f9d565b6020810151611ecc576001600160a01b0382165f908152600e60205260409020600181015490811580611ea6575b611e49575050604051634211591560e01b8152916020836004817f00000000000000000000000000000000000000000000000000000000000000006001600160a01b03165afa928315610a5a575f93611e28575b50823410611e105782611ccf610018943461288c565b907f0000000000000000000000000000000000000000000000000000000000000000611cfa81613ebf565b5f91906001600160a01b031680151580611e07575b611d48575b50501580611d3f575b611d28575b50614057565b611d3990611d3461487b565b613fc0565b5f611d22565b50801515611d1d565b611dba916020918580611d5961487b565b936040519687958694859363fef4325760e01b855260048501916101209391835261eeee6020840152604083015260018060a01b031660608201525f608082015260e060a08201525f60e082015261010060c08201525f6101008201520190565b03925af19081611dda575b50611dd2575b5f80611d14565b506001611dcb565b611dfb9060203d602011611e00575b611df3818361292f565b810190613076565b611dc5565b503d611de9565b50831515611d0f565b630ee99a4760e01b5f5234600452602483905260445ffd5b611e4291935060203d602011611e0057611df3818361292f565b915f611cb9565b611ea281611e5e602287940154915460401c90565b60405163096c1e2160e21b81526001600160a01b039094166004850152602484019490945260448301526001600160c01b0390921660648201529081906084820190565b0390fd5b506022810154611ec6611eba835460401c90565b6001600160c01b031690565b14611c65565b6304bba81f60e41b5f526001600160a01b03821660045260245ffd5b346104bb5760203660031901126104bb57600435611f0581610db3565b60018060a01b03165f52600f6020526020600160405f2001541515604051908152f35b60041115611f3257565b634e487b7160e01b5f52602160045260245ffd5b346104bb575f3660031901126104bb57611f5e613085565b6040516004821015611f32576020918152f35b5f3660031901126104bb57611f8461393e565b611f99600160125401806012554260801b1790565b60115490611fa5613291565b60405163f1d0f27760e01b81526001600160a01b037f0000000000000000000000000000000000000000000000000000000000000000811660048301527f0000000000000000000000000000000000000000000000000000000000000000166024820152604481019390935260648301526001608483015260a482018190525f8260c481730b2b545a4e2fd65d29f2417f1b26698d71769a8f5af4908115610a5a57610018925f9261209d575b507f77bd1556265e71d247f11bb5886efda7fd5e5b21e6a4d2c871e8e6b49ac92f3d9061207d61487b565b604080519283526001600160a01b0391909116602083015290a1346142c5565b7f77bd1556265e71d247f11bb5886efda7fd5e5b21e6a4d2c871e8e6b49ac92f3d9192506120dc903d805f833e6120d4818361292f565b81019061322c565b9190612052565b6104c09060031901126104bb57600490565b346104bb57612103366120e3565b803590606081013561211483610db3565b608082013560408301359260a0810135602082013560c083016401000000008210156122c5576001600160a01b0388165f908152600960209081526040808320600886901c8452909152902054600160ff84161b166122a45791866122978361224386828d61223e6100189f9a838f8f61229f9f9e8d917fa8d6760b4e1a89f513fc87990f66d051c419d735fb8191104014e0529d9ae2d39f936121ec8f93956121d161220a9760018060a01b03165f52600960205260405f2090565b8160081c5f52602052600160ff60405f2092161b8154179055565b91608093916040519384526020840152604083015260608201522090565b84816122388461222b839960018060a01b03165f52600160205260405f2090565b905f5260205260405f2090565b55614fd3565b6150c5565b61224c86612816565b9361225561487b565b604080519586526001600160a01b03968716602087015285018b9052606085018a9052608085019290925260a084015290921660c082015290819060e0820190565b0390a1612816565b6143a1565b632939af3b60e21b5f526001600160a01b038816600452602482905260445ffd5b506309f6605160e41b5f5260045260245ffd5b346104bb575f3660031901126104bb576020610a94613291565b346104bb575f3660031901126104bb576020600354604051908152f35b346104bb575f3660031901126104bb575f546040516001600160a01b039091168152602090f35b346104bb57610018612347366120e3565b606081013561235582612816565b9161229f60808201359161238060408201359560a0830135602084013590888760c08701948a6144dc565b600161238e61044483612816565b0161239a84825461288c565b90556001600160a01b0385166123af82612816565b7fe33107c4043e574d8a4da32dac235e219f8f34a0e45e473ea6643a6145f2528561240b6123db61487b565b60408051898152602081018b90526001600160a01b03928316918101919091529381169416929081906060820190565b0390a3612816565b346104bb5760203660031901126104bb5760043561243081610db3565b60018060a01b03165f526006602052602060405f2054604051908152f35b801515036104bb57565b346104bb5760203660031901126104bb5761247d6004356124788161244e565b613340565b6040518091602082016020835281518091526020604084019201905f5b8181106124a8575050500390f35b825184528594506020938401939092019160010161249a565b346104bb5760203660031901126104bb576004356124de81610db3565b6001600160a01b0381169081156125b1576124f761487b565b6001600160a01b0381165f81815260066020526040902054909290918215612596576001600160a01b03165f9081526006602052604081207ffbcfe54e4aa35e7772f25a5f52fedccde889e4fc5031ad9826b9bf6b890baa5993926125729284925561256d6125688360045461288c565b600455565b613781565b61257a61487b565b604080519283526001600160a01b0391909116602083015290a3005b631733ad2160e21b5f526001600160a01b031660045260245ffd5b63b2fe07f160e01b5f525f60045260245ffd5b346104bb575f3660031901126104bb576040517f00000000000000000000000000000000000000000000000000000000000000006001600160a01b03168152602090f35b346104bb5760203660031901126104bb5760043561262581610db3565b60018060a01b03165f526005602052602060405f2054604051908152f35b346104bb5760203660031901126104bb5760043561266081610db3565b6001600160a01b0381169081156125b15761267961487b565b6001600160a01b0381165f818152600560205260409020549092909182156126ef576001600160a01b03165f9081526005602052604081207f1e70ff8443e61b2a2555b5ad56645461a75dd29591b5c4a6281f70a6d395db4593926125729284925561256d6126ea8360035461288c565b600355565b63578a51dd60e11b5f526001600160a01b031660045260245ffd5b346104bb575f3660031901126104bb576040517f00000000000000000000000000000000000000000000000000000000000000006001600160a01b03168152602090f35b346104bb5760203660031901126104bb575f5160206157385f395f51905f52546004356001600160401b03612792604084901c60ff1615936001600160401b031690565b16801590816127e5575b60011490816127db575b1590816127d2575b506111c55761115490826127c0612cd0565b156138f8576127cd612cfd565b6138f8565b9050155f6127ae565b303b1591506127a6565b83915061279c565b634e487b7160e01b5f52603260045260245ffd5b9190811015612811576060020190565b6127ed565b3561282081610db3565b90565b634e487b7160e01b5f52601160045260245ffd5b5f1981146108295760010190565b811561284f570490565b634e487b7160e01b5f52601260045260245ffd5b906001820180921161082957565b9190820180921161082957565b5f1981019190821161082957565b9190820391821161082957565b9190811015612811576104c0020190565b634e487b7160e01b5f52604160045260245ffd5b608081019081106001600160401b038211176128d957604052565b6128aa565b606081019081106001600160401b038211176128d957604052565b604081019081106001600160401b038211176128d957604052565b60a081019081106001600160401b038211176128d957604052565b90601f801991011681019081106001600160401b038211176128d957604052565b6104009092919260c0806104c0830195803561296b81610db3565b60018060a01b031684526020810135602085015260408101356040850152606081013560608501526080810135608085015260a081013560a085015201910137565b6040513d5f823e3d90fd5b5f5b8281106129c657505050565b6129d1818484612899565b90303b156104bb576129fa5f600193604051809381926365d956e760e11b835260048301612950565b038183305af19081612a85575b50612a8057612a1a61043f828686612899565b7fc1054f794d197971822697afa7ff4777cac6fb7a512e4bfec63aebaab98187b66020612a48848888612899565b013591612a5361487b565b604080519485526001600160a01b0391909116602085015260a086901b8690039190911692a25b016129ba565b612a7a565b80610a4e5f612a939361292f565b5f612a07565b6013548061282057503090565b6040519061162f60808361292f565b6001600160401b0381116128d95760051b60200190565b63ffffffff8116036104bb57565b60ff8116036104bb57565b6001600160801b038116036104bb57565b6020818303126104bb578051906001600160401b0382116104bb570181601f820112156104bb57805190612b2982612ab5565b92612b37604051948561292f565b82845260208085019360071b830101918183116104bb57602001925b828410612b61575050505090565b6080848303126104bb576020608091604051612b7c816128be565b8651612b8781612acc565b815282870151612b9681612ada565b838201526040870151612ba881612ae5565b60408201526060870151612bbb81612ae5565b6060820152815201930192612b53565b3561282081612ada565b903590601e19813603018212156104bb57018035906001600160401b0382116104bb57602001918160051b360383136104bb57565b6014548110156128115760145f5260205f2001905f90565b908154612c2e81612ab5565b92612c3c604051948561292f565b81845260208401905f5260205f205f915b838310612c5a5750505050565b60036020600192604051612c6d816128be565b855481526001600160801b038587015460ff81168584015260081c1660408201526001600160801b036002870154166060820152815201920192019190612c4d565b8051156128115760200190565b80518210156128115760209160051b010190565b60016001600160401b03195f5160206157385f395f51905f525416175f5160206157385f395f51905f5255565b600160401b60ff60401b195f5160206157385f395f51905f525416175f5160206157385f395f51905f5255565b6001600160401b038116036104bb57565b3561282081612d2a565b60048210156128115701905f90565b91612d6d9183549060031b91821b915f19901b19161790565b9055565b91908110156128115760051b0190565b604080825281018390529293929160608301905f5b818110612db1575050602091509360018060a01b0316910152565b90916020806001928635612dc481610db3565b848060a01b03168152019401910192919092612d96565b9190601154612de981613985565b612df161487b565b916001600160a01b03808416908316141580612f08575b612ed1575050505f5b818110612e5857507f8021bce60b20a9afb57085869a3552e0ee5b272b868df894fb30c5e90e74c0729192612e53612e4761487b565b60405193849384612d81565b0390a1565b80612e666001928487612d71565b35612e7081610db3565b828060a01b03165f52600f602052612e8f60405f2060ff198154169055565b612ecb612ebc612ea361043f84878a612d71565b6001600160a01b03165f908152600f6020526040902090565b805461ff001916610100179055565b01612e11565b604051631326f75560e11b81526001600160a01b039283166004820152929091166024830152604482015260236064820152608490fd5b50604051631a45b42760e11b815260208180612f2b602386888a60048601613a0b565b03817f00000000000000000000000000000000000000000000000000000000000000006001600160a01b03165afa908115610a5a575f91612f6e575b5015612e08565b612f90915060203d602011612f96575b612f88818361292f565b8101906139f6565b5f612f67565b503d612f7e565b90604051612faa816128be565b60606001829463ffffffff815460ff81161515865260ff8160081c161515602087015260101c1660408501520154910152565b60405190610400612fee818461292f565b368337565b612ffd3082613b2c565b9060018060a01b031690815f52600e602052600160405f20015481039081116108295761eeee81921461302e575090565b90506003548082111561305b578103908111610829576004548082111561305b5781039081116108295790565b50505f90565b908160209103126104bb575161282081610db3565b908160209103126104bb575190565b60085480156130b857621274ff1981018181116108295742106130b25742106130ad57600390565b600290565b50600190565b505f90565b81601f820112156104bb578051906130d482612ab5565b926130e2604051948561292f565b82845260208085019360051b830101918183116104bb5760208101935b83851061310e57505050505090565b84516001600160401b0381116104bb5782016080818503601f1901126104bb576040519061313b826128be565b602081015182526040810151602083015260608101516001600160401b0381116104bb5760209082010185601f820112156104bb57805161317b81612ab5565b91613189604051938461292f565b81835260208084019260071b820101908882116104bb57602001915b8183106131cb5750505060408301526080015160608201528152602094850194016130ff565b6080838a03126104bb5760206080916040516131e6816128be565b85518152828601516131f781612ada565b83820152604086015161320981612ae5565b6040820152606086015161321c81612ae5565b60608201528152019201916131a5565b6020818303126104bb578051906001600160401b0382116104bb57016040818303126104bb576040519161325f836128f9565b815161326a81612ada565b835260208201516001600160401b0381116104bb5761328992016130bd565b602082015290565b600146146132cc57600a46146132c75762aa36a746146132c05762aa37dc46146132b9575f90565b62aa36a790565b62aa37dc90565b600190565b600a90565b604051906132e060208361292f565b5f808352366020840137565b604080519091906132fd838261292f565b6001815291601f1901366020840137565b9061331882612ab5565b613325604051918261292f565b8281528092613336601f1991612ab5565b0190602036910137565b90613349613291565b8015159283613407575b156133e157826133c1575b60145483156133b85761337861337382612863565b61330e565b935f5b828110613398575061338b575050565b6133959084612cbc565b52565b806133a7610fff600193612c0a565b6133b18289612cbc565b520161337b565b6133788161330e565b91506133db61110c611b43845f52601060205260405f2090565b9161335e565b9091156133fe576133f06132ec565b906133fa82612caf565b5290565b506128206132d1565b468214159350613353565b3561282081612acc565b91905f9261342981612816565b9060408101359261344d61062c8460018060a01b03165f52600f60205260405f2090565b9361345b6020860151151590565b61373657613468836146f6565b60115461347761065c82613985565b61347f613291565b90803b156104bb576040516303827e8d60e01b81526001600160a01b03871660048201526024810192909252604482018390525f90829060649082905afa8015610a5a57613722575b5060608501918251828115159182613717575b50508061370e575b806136eb575b6136ca5781159081159687613662575b8280613614575b6135c6575b505061076660208796946107a9969461078b948961162f9b906135bc575b806135b1575b80613587575b61356c575b15613564575051935b84613549575b01613412565b61355f86610844875f52600d60205260405f2090565b613543565b90509361353d565b61358261088584515f52600d60205260405f2090565b613534565b5061359e6108b184515f52600d60205260405f2090565b6001600160a01b0389811691161461352f565b508183511415613529565b5082511515613523565b61078b92995086946107a99694610766936136056020946135fe61091261162f9e9d60018060a01b03165f52600f60205260405f2090565b8983614057565b9b945094965094969750613505565b506001600160a01b0387165f908152600e602052604090206136359061094b565b6001600160a01b0388165f908152600e60205260409020602201546001600160c01b039091161415613500565b6136776108b1855f52600d60205260405f2090565b6001600160a01b03811680151590816136b6575b5061369657506134f9565b63d6a305d960e01b5f5260048590526001600160a01b031660245260445ffd5b6001600160a01b038a16141590505f61368b565b825163aef430a360e01b5f526001600160a01b03861660045260245260445ffd5b506001600160a01b0385165f908152600e602052604090206022015415156134e9565b508115156134e3565b14159050825f6134db565b80610a4e5f6137309361292f565b5f6134c8565b6304bba81f60e41b5f526001600160a01b03841660045260245ffd5b6001600160401b0381116128d957601f01601f191660200190565b6040519061377c60208361292f565b5f8252565b6001600160a01b03165f80808085855af13d156137d8573d6137a281613752565b906137b0604051928361292f565b81525f60203d92013e5b156137c3575050565b630590bd2d60e41b5f5260045260245260445ffd5b6137ba565b7f00000000000000000000000000000000000000000000000000000000000000006001600160a01b03908116911681149081613817575090565b5f9150602090600460405180948193636e296e4560e01b83525af1908115610a5a575f91613858575b50613849612a99565b6001600160a01b039091161490565b613871915060203d602011611bd557611bc7818361292f565b5f613840565b90915f5b838110156138f2578060051b830135607e19843603018112156104bb578301908135606083013592602081013590604081013590601e19813603018212156104bb5701908135916001600160401b0383116104bb57602001908260071b360382136104bb576001956138ec94614a56565b0161387b565b50915050565b6011555f6013556001600160a01b0361390f61487b565b166bffffffffffffffffffffffff60a01b5f5416175f55565b6011556013556001600160a01b0361390f61487b565b613946613085565b6004811015611f3257600381148015613972575b6139615750565b62a7958f60e81b5f5260045260245ffd5b5061397c81611f28565b6002811461395a565b6040516331a9108f60e11b815260048101919091526020816024817f00000000000000000000000000000000000000000000000000000000000000006001600160a01b03165afa908115610a5a575f916139dd575090565b612820915060203d602011611bd557611bc7818361292f565b908160209103126104bb57516128208161244e565b6001600160a01b039182168152911660208201526040810191909152606081019190915260016080820181905260a082015260c00190565b613a4b61487b565b916001600160a01b03808416908316141580613aa7575b613a6b57505050565b604051631326f75560e11b81526001600160a01b0392831660048201529290911660248084019190915260448301919091526064820152608490fd5b50604051631a45b42760e11b815260208180613aca602486888a60048601613a0b565b03817f00000000000000000000000000000000000000000000000000000000000000006001600160a01b03165afa908115610a5a575f91613b0d575b5015613a62565b613b26915060203d602011612f9657612f88818361292f565b5f613b06565b6001600160a01b03169061eeee8214613b93576040516370a0823160e01b81526001600160a01b03909116600482015290602090829060249082905afa908115610a5a575f91613b7a575090565b612820915060203d602011611e0057611df3818361292f565b90503190565b6040516323b872dd60e01b5f9081526001600160a01b039384166004529290931660245260449390935260209060648180865af160015f5114811615613c07575b6040919091525f60605215613bec5750565b635274afe760e01b5f526001600160a01b031660045260245ffd5b6001811516613c1d573d15833b15151616613bda565b503d5f823e3d90fd5b805180835260209291819084018484015e5f828201840152601f01601f1916010190565b6001600160a01b0391821681526020810192909252604082019290925291811660608301526080820192909252911660a082015260e060c0820181905261282092910190613c26565b15613c9a57565b634e487b7160e01b5f52600160045260245ffd5b601154919392613cc36103d680808887613f54565b6001600160a01b03811615613d655790602091865f613ce23083613b2c565b95613d0e613cee61376d565b6040516313da831760e01b8152998a978896879530938460048901613c4a565b03925af1908115610a5a5761162f925f92613d40575b50613d3a90613d3583963090613b2c565b61288c565b14613c93565b613d3a919250613d5e9060203d602011611e0057611df3818361292f565b9190613d24565b63b61c181f60e01b5f5260048490526001600160a01b03861660245260445ffd5b9193906001600160801b038511613eac576001600160801b038311613e9957613dca8285878691608093916040519384526020840152604083015260608201522090565b6001600160a01b0382165f908152600e60205260409020909590936002850193613df48886614ba7565b600186019283549681880180981161082957613e3d6022613e43927fc92fa1150c24ee5470c272112539aab52450a5e05573e7ea7bdfb98829b893219a613e949855015461287e565b96614c93565b92613e4c61487b565b604080519b8c5260208c0198909852968a01939093526060890192909252608088019190915260a08701526001600160a01b0392831660c087015291169390819060e0820190565b0390a3565b826335bf001160e11b5f5260045260245ffd5b846335bf001160e11b5f5260045260245ffd5b604051630862026560e41b8152600481019190915261eeee60248201526020816044817f00000000000000000000000000000000000000000000000000000000000000006001600160a01b03165afa908115610a5a575f91613f1f575090565b90506020813d602011613f4c575b81613f3a6020938361292f565b810103126104bb575161282081610db3565b3d9150613f2d565b604051630862026560e41b815260048101919091526001600160a01b039091166024820152602081806044810103817f00000000000000000000000000000000000000000000000000000000000000006001600160a01b03165afa908115610a5a575f91613f1f575090565b60018060a01b031690815f52600560205260405f20805490828201809211610829575560035490808201809211610829577f2a3798c6648c17f70b43a33a8378cec543367ac1543e62aa7b392660569717779160035561401e61487b565b604080519283526001600160a01b0391909116602083015290a2565b6001600160401b03166001600160401b0381146108295760010190565b906060830151156141785761406a61393e565b6001600160a01b0381165f908152600e602052604090209060228201549081156141715761162f9460018401915f835493556141086140b86140b387546001600160401b031690565b61403a565b865467ffffffffffffffff19166001600160401b038216178755946141036140e260028901614c93565b88546001600160401b0316604084901b67ffffffffffffffff191617909855565b61287e565b9586867f47c5615513b0f669da2dd7e3362a34610ca2695d0a0e2da2160cee952eab203c61416961413761487b565b604080519586526001600160401b038b1660208701526001600160a01b03918216908601528616939081906060820190565b0390a3614e05565b5050505050565b63027edf0360e11b5f9081526001600160a01b0391909116600452602490fd5b9080602083519182815201916020808360051b8301019401925f915b8383106141c357505050505090565b9091929394601f1982820301835285519060808101918051825260208101516020830152604081015192608060408401528351809152602060a084019401905f905b80821061422b5750505060609081015191015294602090810194936001019201906141b4565b909194602060806001926001600160801b0360608a518051845260ff8682015116868501528260408201511660408501520151166060820152019601920190614205565b606060206128209381845260ff815116828501520151916040808201520190614198565b916142be63ffffffff9160409396959660018060a01b03168552606060208601526060850190613c26565b9416910152565b8061438f57507f00000000000000000000000000000000000000000000000000000000000000006001600160a01b03166143006103d6612a99565b9061434461433f602060405195634ca0e69b60e01b828801526143388761432a836024830161426f565b03601f19810189528861292f565b0151614f2c565b614f8d565b90803b156104bb57614370935f809460405196879586948593633dbb202b60e01b855260048501614293565b03925af18015610a5a576143815750565b80610a4e5f61162f9361292f565b636ba3461960e11b5f5260045260245ffd5b6011548281936144b3575b5050604051632eec7b5560e11b8152600481018390529290506020836024816001600160a01b037f0000000000000000000000000000000000000000000000000000000000000000165afa908115610a5a5761445d946020945f93614492575b506040516363fdc96f60e11b8152600481019490945260248401919091526001600160a01b0316604483015260a060648301525f60a4830181905260848301819052919384928391829060c4820190565b03926001600160a01b03165af18015610a5a576144775750565b61448f9060203d602011611e0057611df3818361292f565b50565b5f9193506144ac90863d8811611bd557611bc7818361292f565b929061440c565b6144bc9261514d565b5f81816143ac565b6001600160c01b039081165f19019190821161082957565b929096959493916401000000008510156146e2576144f8613085565b61450181611f28565b600381141590816146cd575b508061469e575b614682576001600160a01b0388165f908152600e602052604090206145389061094b565b6001600160c01b03811615159086908261466a575b505061464957604080516001600160a01b038a166020808301918252825261459992614593929061457e908261292f565b5190206bffffffffffffffffffffffff191690565b60601c90565b6001600160a01b0381165f90815260096020908152604080832060088a901c8452909152902054600160ff88161b16614628579061460360026145fd61162f9a9b6104448a6121d16146229a999860018060a01b03165f52600960205260405f2090565b01614c93565b9491608093916040519384526020840152604083015260608201522090565b906150c5565b632939af3b60e21b5f526001600160a01b038916600452602486905260445ffd5b632939af3b60e21b5f526001600160a01b038816600452602485905260445ffd5b614679919250611eba906144c4565b1015855f61454d565b6304bba81f60e41b5f526001600160a01b03881660045260245ffd5b506001600160a01b0388165f908152600f602052604090206146c89061110c905460081c60ff1690565b614514565b600291506146da81611f28565b14155f61450d565b6309f6605160e41b5f52600485905260245ffd5b61eeee813561470481610db3565b6001600160a01b03161461475d5760200162030d4063ffffffff823561472981612acc565b16106147325750565b61473e6109d191613412565b630555d0f160e41b5f5263ffffffff1660045262030d40602452604490565b6040013561eeee81141580614785575b6147745750565b62e80c7760e31b5f5260045260245ffd5b5080151561476d565b90916148775761479c61487b565b916001600160a01b038084169083161415806147f3575b6147bc57505050565b604051631326f75560e11b81526001600160a01b039283166004820152929091166024830152604482015260206064820152608490fd5b50604051631a45b42760e11b8152602081806148158386888a60048601613a0b565b03817f00000000000000000000000000000000000000000000000000000000000000006001600160a01b03165afa908115610a5a575f91614858575b50156147b3565b614871915060203d602011612f9657612f88818361292f565b5f614851565b5050565b6014361015806148a2575b1561489e5760131936013681116104bb573560601c90565b3390565b50337f00000000000000000000000000000000000000000000000000000000000000006001600160a01b031614614886565b601454600160401b8110156128d957600181016014556014548110156128115760145f527fce6d7b5282bd9a3661ae061feed1dbda4e52ab073b1f9285be6e155d9c38d4ec0155565b8054905f81558161492c575050565b81600302916003830403610829575f5260205f20908101905b818110614950575050565b6003905f81555f60018201555f600282015501614945565b91908110156128115760071b0190565b8054821015612811575f52600360205f20910201905f90565b3561282081612ae5565b8054600160401b8110156128d9576149b891600182018155614978565b614a43576002614a26606061162f94803585556001850160208201356149dd81612ada565b815460ff70ffffffffffffffffffffffffffffffff006040860135614a0181612ae5565b60081b1692169070ffffffffffffffffffffffffffffffffff19161717905501614991565b9101906001600160801b03166001600160801b0319825416179055565b634e487b7160e01b5f525f60045260245ffd5b90919392934682148015614b90575b61417157614a7b825f52600760205260405f2090565b5483111561417157614af292614a99835f52600760205260405f2090565b55614aac825f52600260205260405f2090565b55614ac561110c611b43835f52601060205260405f2090565b614b60575b614ae4614adf825f52601560205260405f2090565b61491d565b5f52601560205260405f2090565b905f5b818110614b025750505050565b80614b19614b136001938588614968565b8561499b565b614b24818487614968565b35614b406108b1848060a01b03925f52600d60205260405f2090565b1680614b4e575b5001614af5565b614b588286614978565b50555f614b47565b614b82614b75825f52601060205260405f2090565b805460ff19166001179055565b614b8b816148d4565b614aca565b508115614a65565b60208210156128115701905f90565b916020830190614bb78254612837565b92838355839463ffffffff94858111614c3857505f95915b60208710614bf057845463515447c160e01b5f52600452602486905260445ffd5b600180841614614c2557614c07610fff8884614b98565b5f526020526001614c1c60405f209360011c90565b96019591614bcf565b935061162f945061158292959150614b98565b63515447c160e01b5f52600452602485905260445ffd5b9060208110156128115760051b0190565b61042081019392915f825b60208210614c7d575050506104000152565b6020806001928551815201930191019091614c6b565b6020810154908115614d3157614ca7612fdd565b905f5b60208110614d01575050604051634a490c2560e01b81529160209183918291614cd7919060048401614c60565b0381730b2b545a4e2fd65d29f2417f1b26698d71769a8f5af4908115610a5a575f91613b7a575090565b80600180921b8516614d14575b01614caa565b614d21610fff8285614b98565b614d2b8286614c4f565b52614d0e565b50507f27ae5ba08d7291c96c8cbddcc148bf48a6d68c7974b94356f53754ef6171d75790565b6020818303126104bb578051906001600160401b0382116104bb57018082039160c083126104bb576040805193614d8d85612914565b8351614d9881612ada565b8552602084015160208601528184015182860152605f1901126104bb57604051614dc1816128f9565b6060830151614dcf81612d2a565b815260808301516020820152606084015260a08201516001600160401b0381116104bb57614dfd92016130bd565b608082015290565b949091939550614e20600160125401806012554260801b1790565b906001600160401b0360115497614e35613291565b6060880151604051634cba057b60e11b81526001600160a01b037f0000000000000000000000000000000000000000000000000000000000000000811660048301527f0000000000000000000000000000000000000000000000000000000000000000166024820152604481019b909b5260648b019190915260848a015260a489018690521660c488015260e487015260016101048701526101248601525f8561014481730b2b545a4e2fd65d29f2417f1b26698d71769a8f5af4938415610a5a5761162f955f95614f08575b506153ee565b614f259195503d805f833e614f1d818361292f565b810190614d57565b935f614f02565b5f9080515f915b818310614f6657505050620124f8810290808204620124f8149015171561082957620493e00180620493e0116108295790565b9091926040614f758584612cbc565b51015151810180911161082957926001019190614f33565b63ffffffff8111614fa15763ffffffff1690565b6306dfcc6560e41b5f52602060045260245260445ffd5b61040061042092959493610440830196835260208301370152565b90926020906001614ff48460018060a01b03165f52600a60205260405f2090565b01549461501560405195869384936307fbe4d560e41b855260048501614fb8565b0381730b2b545a4e2fd65d29f2417f1b26698d71769a8f5af4918215610a5a575f926150a4575b5082821461509f576001600160a01b03165f908152600c60205260409020905f5b6004811061506b5750505090565b615078610fff8285612d45565b80151580615096575b61508e575060010161505d565b935050505090565b50808314615081565b505090565b6150be91925060203d602011611e0057611df3818361292f565b905f61503c565b926020916150e760405194859384936307fbe4d560e41b855260048501614fb8565b0381730b2b545a4e2fd65d29f2417f1b26698d71769a8f5af4908115610a5a575f9161512e575b5081810361511a575050565b6272c3e960e11b5f5260045260245260445ffd5b615147915060203d602011611e0057611df3818361292f565b5f61510e565b9061515782612ff3565b808211615330575061516c6103d68385613f54565b906001600160a01b0382161561530f576001600160a01b038316935f9261eeee861480159290859061530757506040516370a0823160e01b81523060048201526020816024818b5afa908115610a5a575f916152e8575b50946151d085848a6155fc565b823b156104bb57604051639e6eec0560e01b815260048101929092526001600160a01b0387166024830152604482018590525f6064830181905260c0608484015260c4830181905260e060a484015260e4830181905291928391610104918391905af18015610a5a576152d4575b5061524a575b50505050565b6152539161288c565b6040516370a0823160e01b815230600482015292909190602090849060249082905afa928315610a5a575f936152b3575b508183036152925780615244565b63884aa24960e01b5f526001600160a01b031660045260245260445260645ffd5b6152cd91935060203d602011611e0057611df3818361292f565b915f615284565b80610a4e5f6152e29361292f565b5f61523e565b615301915060203d602011611e0057611df3818361292f565b5f6151c3565b9450836151d0565b63b61c181f60e01b5f5260048490526001600160a01b03831660245260445ffd5b6360ec3e7160e01b5f5260049190915260245260445ffd5b6001600160a01b03918216815291811660208301529091166040820152606081019190915263ffffffff91909116608082015260c060a0820181905261282092910190613c26565b60e06080612820936020845260ff815116602085015260208101516040850152604081015160608501526153de606082015183860190602080916001600160401b0381511684520151910152565b01519160c0808201520190614198565b939190925f948061438f57506154056103d6612a99565b936001600160a01b0381169061eeee8214158061557b575b1561556f577f00000000000000000000000000000000000000000000000000000000000000006001600160a01b0316926154588585856155fc565b6060810151615479906040906001600160a01b031692015163ffffffff1690565b9161548261376d565b95853b156104bb5760405163540abf7360e01b8152965f94889485946154ae94918d9160048801615348565b038183865af1928315610a5a576154ca9361555b575b50615584565b60405163331e807b60e11b6020820152907f00000000000000000000000000000000000000000000000000000000000000006001600160a01b0316906155309061433f90608090614338866155228360248301615390565b03601f19810188528761292f565b91813b156104bb57614370945f9460405196879586948593633dbb202b60e01b855260048501614293565b80610a4e5f6155699361292f565b5f6154c4565b505050909250916154ca565b5083151561541d565b906155905f828461564b565b15615599575050565b6155a38183615698565b156155db575f6155b391836156fc565b156155bb5750565b635274afe760e01b5f9081526001600160a01b0391909116600452602490fd5b50635274afe760e01b5f9081526001600160a01b0391909116600452602490fd5b919061560982828561564b565b1561561357505050565b61561d8184615698565b1561562d57906155b391836156fc565b635274afe760e01b5f9081526001600160a01b038416600452602490fd5b92916040519163095ea7b360e01b5f5260018060a01b031660045260245260205f60448180875af19260015f5114841615615687575b50604052565b3d15903b151516909216915f615681565b60405163095ea7b360e01b5f9081526001600160a01b03909316600452602483905290929160209060448180875af19260015f51148416156156da5750604052565b600184929415166156f3573b15153d151616915f615681565b833d5f823e3d90fd5b92916040519163095ea7b360e01b5f5260018060a01b031660045260245260205f60448180875af19260015f51148416156156da575060405256fef0c57e16840df040f15088dc2f81fe391c3923bec73e23a9662efc9c229c6a00a164736f6c634300081c000af0c57e16840df040f15088dc2f81fe391c3923bec73e23a9662efc9c229c6a00",
	"gitCommit": "npm:@bananapus/suckers-v6@1.0.2",
	"gitDirty": false,
	"history": []
}