{
	"format": "sphinx-sol-ct-artifact-1",
	"address": "0xd331f229eeeeb32e54b85fe4a0997627913fb9a5",
	"sourceName": "node_modules/@bananapus/suckers-v6/src/libraries/JBCCIPLib.sol",
	"contractName": "JBCCIPLib",
	"chainId": "0x2105",
	"abi": [
		{
			"type": "function",
			"name": "decodeTypedMessage",
			"inputs": [
				{
					"name": "data",
					"type": "bytes",
					"internalType": "bytes"
				}
			],
			"outputs": [
				{
					"name": "messageType",
					"type": "uint8",
					"internalType": "uint8"
				},
				{
					"name": "payload",
					"type": "bytes",
					"internalType": "bytes"
				}
			],
			"stateMutability": "pure"
		},
		{
			"type": "error",
			"name": "SafeERC20FailedOperation",
			"inputs": [
				{
					"name": "token",
					"type": "address",
					"internalType": "address"
				}
			]
		}
	],
	"args": [],
	"solcInputHash": "e30ae5838fcb063abbbe834006568f38",
	"bytecode": "0x60808060405234601b57610e8d90816100208239308160070152f35b5f80fdfe6080604052307f0000000000000000000000000000000000000000000000000000000000000000146004361015610034575f80fd5b5f905f3560e01c8063476deacb146107f4578063511bd95c146106515780636b56532814610112576388a826681461006a575f80fd5b61010f57606036600319011261010f57610082610994565b602435906001600160a01b038216820361010d576100a39160443591610af6565b90604051916040830193604084528251809552602060608501930190945b8086106100df5750506001600160a01b031660208301528190039150f35b815180516001600160a01b0316855260209081015181860152919390916001916040019401950194906100c1565b825b80fd5b5061010f5761014036600319011261010f5761012c610994565b90602435906001600160401b038216820361010f576044356001600160a01b038116939084900361064d57606435916084356001600160a01b038116919082900361010f5760a4356001600160a01b038116919082900361010f5760e4356001600160401b03811161064d576101a690369060040161092a565b9661010435926001600160401b03841161010d573660238501121561010d5783600401356101d3816109aa565b946101e160405196876108ee565b8186526024602087019260061b820101903682116105c257602401915b818310610605575050610124359790506001600160a01b0388168803610601578397849760018060a01b03169a604051946020860152602085526102436040866108ee565b60405190602082018281106001600160401b038211176105ed5760405260c4358252604051916397a657c960e01b60208401525160248301526024825261028b6044836108ee565b6040519560a087018781106001600160401b038211176105d957906102eb9695949392916040528752602087015287604087015288606087015260808601526020858d8d6040518098819482936320487ded60e01b845260048401610a01565b03915afa9384156105ce578694610596575b50871561049157505080610419575b5096825b845181101561040457856001600160a01b0361032c8388610ae2565b5151161461033c57600101610310565b90610369610362869798999a60206103598197966103849a610ae2565b510151906109e0565b8b89610d45565b6040516396f4e9f960e01b8152948592839260048401610a01565b0381848b5af19081156103f857506103bc575b50936103ae916103a960409683610c93565b610ccd565b825191151582526020820152f35b9490916020863d6020116103f0575b816103d8602093836108ee565b810103126103ec57909450906103ae610397565b5f80fd5b3d91506103cb565b604051903d90823e3d90fd5b50906020916103696103849596979899610362565b604051906323b872dd60e01b85526004523060245281604452602084606481808a5af1906001855114821615610470575b604052836060521561045c575f61030c565b635274afe760e01b83526004859052602483fd5b90600181151661048857863b15153d1516169061044a565b503d84823e3d90fd5b965097986104be959497506020929a93915060405195869283926396f4e9f960e01b845260048401610a01565b03818b855af1801561058b57610558575b6104d99250610c93565b84830390838211610544576040958294036104f7575b5050506103ae565b8280809381935af1903d1561053e573d906105118261090f565b9161051e875193846108ee565b825260203d92013e5b15610535575b5f80806104ef565b6001915061052d565b50610527565b634e487b7160e01b83526011600452602483fd5b6020833d602011610583575b81610571602093836108ee565b810103126103ec576104d992506104cf565b3d9150610564565b6040513d87823e3d90fd5b9093506020813d6020116105c6575b816105b2602093836108ee565b810103126105c25751925f6102fd565b8580fd5b3d91506105a5565b6040513d88823e3d90fd5b634e487b7160e01b89526041600452602489fd5b634e487b7160e01b88526041600452602488fd5b8380fd5b6040833603126105c25760405161061b816108bf565b83356001600160a01b03811681036106495791816040936020935282860135838201528152019201916101fe565b8780fd5b5080fd5b506103ec5760403660031901126103ec5761066a610994565b90602435916001600160401b0383116103ec57366023840112156103ec5782600401356001600160401b0381116103ec573660248260061b860101116103ec57600181146106b6578280f35b156107e05760405163e861e90760e01b815290602090829060049082906001600160a01b03165afa908115610799575f916107b1575b5060248301356001600160a01b03811691908290036103ec576001600160a01b0316908114806107a4575b61072057808280f35b60444793013590803b156103ec575f8091602460405180948193632e1a7d4d60e01b83528760048401525af1801561079957610783575b5061076291926109e0565b470361076f57805f808280f35b634e487b7160e01b81526001600452602490fd5b61076292505f610792916108ee565b5f91610757565b6040513d5f823e3d90fd5b5060448301351515610717565b6107d3915060203d6020116107d9575b6107cb81836108ee565b8101906109c1565b5f6106ec565b503d6107c1565b634e487b7160e01b5f52603260045260245ffd5b60203660031901126103ec576004356001600160401b0381116103ec5761081f90369060040161092a565b8051810190604081602084019303126103ec5760208101519060ff82168092036103ec576040810151906001600160401b0382116103ec570182603f820112156103ec576020810151906108728261090f565b9361088060405195866108ee565b828552604082840101116103ec57815f926040602093018387015e840101526108bb6040519283928352604060208401526040830190610970565b0390f35b604081019081106001600160401b038211176108da57604052565b634e487b7160e01b5f52604160045260245ffd5b90601f801991011681019081106001600160401b038211176108da57604052565b6001600160401b0381116108da57601f01601f191660200190565b81601f820112156103ec578035906109418261090f565b9261094f60405194856108ee565b828452602083830101116103ec57815f926020809301838601378301015290565b805180835260209291819084018484015e5f828201840152601f01601f1916010190565b600435906001600160a01b03821682036103ec57565b6001600160401b0381116108da5760051b60200190565b908160209103126103ec57516001600160a01b03811681036103ec5790565b919082018092116109ed57565b634e487b7160e01b5f52601160045260245ffd5b906001600160401b039093929316815260406020820152610a47610a31845160a0604085015260e0840190610970565b6020850151838203603f19016060850152610970565b90604084015191603f19828203016080830152602080845192838152019301905f5b818110610aa3575050506080610aa0939460018060a01b0360608201511660a084015201519060c0603f1982850301910152610970565b90565b9091936020604082610aca60019489516020809160018060a01b0381511684520151910152565b019501929101610a69565b8051156107e05760200190565b80518210156107e05760209160051b010190565b9290915f8115610c45576001600160a01b03841661eeee14610ba8575b604080519190610b2381846108ee565b60018352601f190190805b828110610b85575050509081610b839295610b7360405192610b4f846108bf565b6001600160a01b0388168085526020850186905293610b6d82610ad5565b52610ad5565b506001600160a01b031690610d45565b565b602090604051610b94816108bf565b838152838382015282828701015201610b2e565b60405163e861e90760e01b81529093506020816004816001600160a01b0389165afa908115610799575f91610c26575b506001600160a01b0316803b156103ec57604051630d0e30db60e41b81525f8160048186865af1801561079957610c11575b5092610b13565b610c1e9194505f906108ee565b5f925f610c0a565b610c3f915060203d6020116107d9576107cb81836108ee565b5f610bd8565b5091925090506040516020610c5a81836108ee565b5f8252601f19015f5b818110610c705750509190565b602090604051610c7f816108bf565b5f81525f8382015282828601015201610c63565b91905f5b8151811015610cc757600190610cc1856001600160a01b03610cb98487610ae2565b515116610ccd565b01610c97565b50509050565b90610cd95f8284610d94565b15610ce2575050565b610cec8183610de1565b15610d24575f610cfc9183610e45565b15610d045750565b635274afe760e01b5f9081526001600160a01b0391909116600452602490fd5b50635274afe760e01b5f9081526001600160a01b0391909116600452602490fd5b9190610d52828285610d94565b15610d5c57505050565b610d668184610de1565b15610d765790610cfc9183610e45565b635274afe760e01b5f9081526001600160a01b038416600452602490fd5b92916040519163095ea7b360e01b5f5260018060a01b031660045260245260205f60448180875af19260015f5114841615610dd0575b50604052565b3d15903b151516909216915f610dca565b60405163095ea7b360e01b5f9081526001600160a01b03909316600452602483905290929160209060448180875af19260015f5114841615610e235750604052565b60018492941516610e3c573b15153d151616915f610dca565b833d5f823e3d90fd5b92916040519163095ea7b360e01b5f5260018060a01b031660045260245260205f60448180875af19260015f5114841615610e23575060405256fea164736f6c634300081c000a",
	"gitCommit": "npm:@bananapus/suckers-v6@1.0.2",
	"gitDirty": false,
	"history": []
}