{
	"format": "sphinx-sol-ct-artifact-1",
	"address": "0xacf02e97a4086077a75f3123469c6372eb3b2160",
	"sourceName": "node_modules/@bananapus/suckers-v6/src/JBArbitrumSucker.sol",
	"contractName": "JBArbitrumSucker",
	"chainId": "0xaa36a7",
	"abi": [
		{
			"type": "constructor",
			"inputs": [
				{
					"name": "deployer",
					"type": "address",
					"internalType": "contract JBArbitrumSuckerDeployer"
				},
				{
					"name": "directory",
					"type": "address",
					"internalType": "contract IJBDirectory"
				},
				{
					"name": "permissions",
					"type": "address",
					"internalType": "contract IJBPermissions"
				},
				{
					"name": "tokens",
					"type": "address",
					"internalType": "contract IJBTokens"
				},
				{
					"name": "feeProjectId",
					"type": "uint256",
					"internalType": "uint256"
				},
				{
					"name": "registry",
					"type": "address",
					"internalType": "contract IJBSuckerRegistry"
				},
				{
					"name": "trustedForwarder",
					"type": "address",
					"internalType": "address"
				}
			],
			"stateMutability": "nonpayable"
		},
		{
			"type": "receive",
			"stateMutability": "payable"
		},
		{
			"type": "function",
			"name": "ARBINBOX",
			"inputs": [],
			"outputs": [
				{
					"name": "",
					"type": "address",
					"internalType": "contract IInbox"
				}
			],
			"stateMutability": "view"
		},
		{
			"type": "function",
			"name": "DIRECTORY",
			"inputs": [],
			"outputs": [
				{
					"name": "",
					"type": "address",
					"internalType": "contract IJBDirectory"
				}
			],
			"stateMutability": "view"
		},
		{
			"type": "function",
			"name": "FEE_PROJECT_ID",
			"inputs": [],
			"outputs": [
				{
					"name": "",
					"type": "uint256",
					"internalType": "uint256"
				}
			],
			"stateMutability": "view"
		},
		{
			"type": "function",
			"name": "GATEWAYROUTER",
			"inputs": [],
			"outputs": [
				{
					"name": "",
					"type": "address",
					"internalType": "contract IArbGatewayRouter"
				}
			],
			"stateMutability": "view"
		},
		{
			"type": "function",
			"name": "LAYER",
			"inputs": [],
			"outputs": [
				{
					"name": "",
					"type": "uint8",
					"internalType": "enum JBLayer"
				}
			],
			"stateMutability": "view"
		},
		{
			"type": "function",
			"name": "MESSAGE_VERSION",
			"inputs": [],
			"outputs": [
				{
					"name": "",
					"type": "uint8",
					"internalType": "uint8"
				}
			],
			"stateMutability": "view"
		},
		{
			"type": "function",
			"name": "MESSENGER_BASE_GAS_LIMIT",
			"inputs": [],
			"outputs": [
				{
					"name": "",
					"type": "uint32",
					"internalType": "uint32"
				}
			],
			"stateMutability": "view"
		},
		{
			"type": "function",
			"name": "MESSENGER_ERC20_MIN_GAS_LIMIT",
			"inputs": [],
			"outputs": [
				{
					"name": "",
					"type": "uint32",
					"internalType": "uint32"
				}
			],
			"stateMutability": "view"
		},
		{
			"type": "function",
			"name": "PERMISSIONS",
			"inputs": [],
			"outputs": [
				{
					"name": "",
					"type": "address",
					"internalType": "contract IJBPermissions"
				}
			],
			"stateMutability": "view"
		},
		{
			"type": "function",
			"name": "PROJECTS",
			"inputs": [],
			"outputs": [
				{
					"name": "",
					"type": "address",
					"internalType": "contract IJBProjects"
				}
			],
			"stateMutability": "view"
		},
		{
			"type": "function",
			"name": "REGISTRY",
			"inputs": [],
			"outputs": [
				{
					"name": "",
					"type": "address",
					"internalType": "contract IJBSuckerRegistry"
				}
			],
			"stateMutability": "view"
		},
		{
			"type": "function",
			"name": "TOKENS",
			"inputs": [],
			"outputs": [
				{
					"name": "",
					"type": "address",
					"internalType": "contract IJBTokens"
				}
			],
			"stateMutability": "view"
		},
		{
			"type": "function",
			"name": "amountToAddToBalanceOf",
			"inputs": [
				{
					"name": "token",
					"type": "address",
					"internalType": "address"
				}
			],
			"outputs": [
				{
					"name": "",
					"type": "uint256",
					"internalType": "uint256"
				}
			],
			"stateMutability": "view"
		},
		{
			"type": "function",
			"name": "claim",
			"inputs": [
				{
					"name": "claims",
					"type": "tuple[]",
					"internalType": "struct JBClaim[]",
					"components": [
						{
							"name": "token",
							"type": "address",
							"internalType": "address"
						},
						{
							"name": "leaf",
							"type": "tuple",
							"internalType": "struct JBLeaf",
							"components": [
								{
									"name": "index",
									"type": "uint256",
									"internalType": "uint256"
								},
								{
									"name": "beneficiary",
									"type": "bytes32",
									"internalType": "bytes32"
								},
								{
									"name": "projectTokenCount",
									"type": "uint256",
									"internalType": "uint256"
								},
								{
									"name": "terminalTokenAmount",
									"type": "uint256",
									"internalType": "uint256"
								},
								{
									"name": "metadata",
									"type": "bytes32",
									"internalType": "bytes32"
								}
							]
						},
						{
							"name": "proof",
							"type": "bytes32[32]",
							"internalType": "bytes32[32]"
						}
					]
				}
			],
			"outputs": [],
			"stateMutability": "nonpayable"
		},
		{
			"type": "function",
			"name": "claim",
			"inputs": [
				{
					"name": "claimData",
					"type": "tuple",
					"internalType": "struct JBClaim",
					"components": [
						{
							"name": "token",
							"type": "address",
							"internalType": "address"
						},
						{
							"name": "leaf",
							"type": "tuple",
							"internalType": "struct JBLeaf",
							"components": [
								{
									"name": "index",
									"type": "uint256",
									"internalType": "uint256"
								},
								{
									"name": "beneficiary",
									"type": "bytes32",
									"internalType": "bytes32"
								},
								{
									"name": "projectTokenCount",
									"type": "uint256",
									"internalType": "uint256"
								},
								{
									"name": "terminalTokenAmount",
									"type": "uint256",
									"internalType": "uint256"
								},
								{
									"name": "metadata",
									"type": "bytes32",
									"internalType": "bytes32"
								}
							]
						},
						{
							"name": "proof",
							"type": "bytes32[32]",
							"internalType": "bytes32[32]"
						}
					]
				}
			],
			"outputs": [],
			"stateMutability": "nonpayable"
		},
		{
			"type": "function",
			"name": "claimRetainedToRemoteFee",
			"inputs": [
				{
					"name": "beneficiary",
					"type": "address",
					"internalType": "address payable"
				}
			],
			"outputs": [],
			"stateMutability": "nonpayable"
		},
		{
			"type": "function",
			"name": "claimRetainedTransportPaymentRefund",
			"inputs": [
				{
					"name": "beneficiary",
					"type": "address",
					"internalType": "address payable"
				}
			],
			"outputs": [],
			"stateMutability": "nonpayable"
		},
		{
			"type": "function",
			"name": "deployer",
			"inputs": [],
			"outputs": [
				{
					"name": "",
					"type": "address",
					"internalType": "address"
				}
			],
			"stateMutability": "view"
		},
		{
			"type": "function",
			"name": "enableEmergencyHatchFor",
			"inputs": [
				{
					"name": "tokens",
					"type": "address[]",
					"internalType": "address[]"
				}
			],
			"outputs": [],
			"stateMutability": "nonpayable"
		},
		{
			"type": "function",
			"name": "executedLeafHashOf",
			"inputs": [
				{
					"name": "token",
					"type": "address",
					"internalType": "address"
				},
				{
					"name": "index",
					"type": "uint256",
					"internalType": "uint256"
				}
			],
			"outputs": [
				{
					"name": "",
					"type": "bytes32",
					"internalType": "bytes32"
				}
			],
			"stateMutability": "view"
		},
		{
			"type": "function",
			"name": "exitThroughEmergencyHatch",
			"inputs": [
				{
					"name": "claimData",
					"type": "tuple",
					"internalType": "struct JBClaim",
					"components": [
						{
							"name": "token",
							"type": "address",
							"internalType": "address"
						},
						{
							"name": "leaf",
							"type": "tuple",
							"internalType": "struct JBLeaf",
							"components": [
								{
									"name": "index",
									"type": "uint256",
									"internalType": "uint256"
								},
								{
									"name": "beneficiary",
									"type": "bytes32",
									"internalType": "bytes32"
								},
								{
									"name": "projectTokenCount",
									"type": "uint256",
									"internalType": "uint256"
								},
								{
									"name": "terminalTokenAmount",
									"type": "uint256",
									"internalType": "uint256"
								},
								{
									"name": "metadata",
									"type": "bytes32",
									"internalType": "bytes32"
								}
							]
						},
						{
							"name": "proof",
							"type": "bytes32[32]",
							"internalType": "bytes32[32]"
						}
					]
				}
			],
			"outputs": [],
			"stateMutability": "nonpayable"
		},
		{
			"type": "function",
			"name": "fromRemote",
			"inputs": [
				{
					"name": "root",
					"type": "tuple",
					"internalType": "struct JBMessageRoot",
					"components": [
						{
							"name": "version",
							"type": "uint8",
							"internalType": "uint8"
						},
						{
							"name": "token",
							"type": "bytes32",
							"internalType": "bytes32"
						},
						{
							"name": "amount",
							"type": "uint256",
							"internalType": "uint256"
						},
						{
							"name": "remoteRoot",
							"type": "tuple",
							"internalType": "struct JBInboxTreeRoot",
							"components": [
								{
									"name": "nonce",
									"type": "uint64",
									"internalType": "uint64"
								},
								{
									"name": "root",
									"type": "bytes32",
									"internalType": "bytes32"
								}
							]
						},
						{
							"name": "sourceTotalSupply",
							"type": "uint256",
							"internalType": "uint256"
						},
						{
							"name": "sourceContexts",
							"type": "tuple[]",
							"internalType": "struct JBSourceContext[]",
							"components": [
								{
									"name": "token",
									"type": "bytes32",
									"internalType": "bytes32"
								},
								{
									"name": "decimals",
									"type": "uint8",
									"internalType": "uint8"
								},
								{
									"name": "surplus",
									"type": "uint128",
									"internalType": "uint128"
								},
								{
									"name": "balance",
									"type": "uint128",
									"internalType": "uint128"
								}
							]
						},
						{
							"name": "sourceTimestamp",
							"type": "uint256",
							"internalType": "uint256"
						}
					]
				}
			],
			"outputs": [],
			"stateMutability": "payable"
		},
		{
			"type": "function",
			"name": "inboxOf",
			"inputs": [
				{
					"name": "token",
					"type": "address",
					"internalType": "address"
				}
			],
			"outputs": [
				{
					"name": "",
					"type": "tuple",
					"internalType": "struct JBInboxTreeRoot",
					"components": [
						{
							"name": "nonce",
							"type": "uint64",
							"internalType": "uint64"
						},
						{
							"name": "root",
							"type": "bytes32",
							"internalType": "bytes32"
						}
					]
				}
			],
			"stateMutability": "view"
		},
		{
			"type": "function",
			"name": "initialize",
			"inputs": [
				{
					"name": "localProjectId",
					"type": "uint256",
					"internalType": "uint256"
				},
				{
					"name": "remotePeer",
					"type": "bytes32",
					"internalType": "bytes32"
				}
			],
			"outputs": [],
			"stateMutability": "nonpayable"
		},
		{
			"type": "function",
			"name": "initialize",
			"inputs": [
				{
					"name": "initialProjectId",
					"type": "uint256",
					"internalType": "uint256"
				}
			],
			"outputs": [],
			"stateMutability": "nonpayable"
		},
		{
			"type": "function",
			"name": "isMapped",
			"inputs": [
				{
					"name": "token",
					"type": "address",
					"internalType": "address"
				}
			],
			"outputs": [
				{
					"name": "",
					"type": "bool",
					"internalType": "bool"
				}
			],
			"stateMutability": "view"
		},
		{
			"type": "function",
			"name": "isTrustedForwarder",
			"inputs": [
				{
					"name": "forwarder",
					"type": "address",
					"internalType": "address"
				}
			],
			"outputs": [
				{
					"name": "",
					"type": "bool",
					"internalType": "bool"
				}
			],
			"stateMutability": "view"
		},
		{
			"type": "function",
			"name": "mapToken",
			"inputs": [
				{
					"name": "map",
					"type": "tuple",
					"internalType": "struct JBTokenMapping",
					"components": [
						{
							"name": "localToken",
							"type": "address",
							"internalType": "address"
						},
						{
							"name": "minGas",
							"type": "uint32",
							"internalType": "uint32"
						},
						{
							"name": "remoteToken",
							"type": "bytes32",
							"internalType": "bytes32"
						}
					]
				}
			],
			"outputs": [],
			"stateMutability": "payable"
		},
		{
			"type": "function",
			"name": "mapTokens",
			"inputs": [
				{
					"name": "maps",
					"type": "tuple[]",
					"internalType": "struct JBTokenMapping[]",
					"components": [
						{
							"name": "localToken",
							"type": "address",
							"internalType": "address"
						},
						{
							"name": "minGas",
							"type": "uint32",
							"internalType": "uint32"
						},
						{
							"name": "remoteToken",
							"type": "bytes32",
							"internalType": "bytes32"
						}
					]
				}
			],
			"outputs": [],
			"stateMutability": "payable"
		},
		{
			"type": "function",
			"name": "outboxOf",
			"inputs": [
				{
					"name": "token",
					"type": "address",
					"internalType": "address"
				}
			],
			"outputs": [
				{
					"name": "",
					"type": "tuple",
					"internalType": "struct JBOutboxTree",
					"components": [
						{
							"name": "nonce",
							"type": "uint64",
							"internalType": "uint64"
						},
						{
							"name": "numberOfClaimsSent",
							"type": "uint192",
							"internalType": "uint192"
						},
						{
							"name": "balance",
							"type": "uint256",
							"internalType": "uint256"
						},
						{
							"name": "tree",
							"type": "tuple",
							"internalType": "struct MerkleLib.Tree",
							"components": [
								{
									"name": "branch",
									"type": "bytes32[32]",
									"internalType": "bytes32[32]"
								},
								{
									"name": "count",
									"type": "uint256",
									"internalType": "uint256"
								}
							]
						}
					]
				}
			],
			"stateMutability": "view"
		},
		{
			"type": "function",
			"name": "peer",
			"inputs": [],
			"outputs": [
				{
					"name": "",
					"type": "bytes32",
					"internalType": "bytes32"
				}
			],
			"stateMutability": "view"
		},
		{
			"type": "function",
			"name": "peerChainContextsOf",
			"inputs": [],
			"outputs": [
				{
					"name": "contexts",
					"type": "tuple[]",
					"internalType": "struct JBPeerChainContext[]",
					"components": [
						{
							"name": "currency",
							"type": "uint32",
							"internalType": "uint32"
						},
						{
							"name": "decimals",
							"type": "uint8",
							"internalType": "uint8"
						},
						{
							"name": "surplus",
							"type": "uint128",
							"internalType": "uint128"
						},
						{
							"name": "balance",
							"type": "uint128",
							"internalType": "uint128"
						}
					]
				},
				{
					"name": "chainId",
					"type": "uint256",
					"internalType": "uint256"
				},
				{
					"name": "snapshot",
					"type": "uint256",
					"internalType": "uint256"
				}
			],
			"stateMutability": "view"
		},
		{
			"type": "function",
			"name": "peerChainId",
			"inputs": [],
			"outputs": [
				{
					"name": "",
					"type": "uint256",
					"internalType": "uint256"
				}
			],
			"stateMutability": "view"
		},
		{
			"type": "function",
			"name": "peerChainTotalSupply",
			"inputs": [],
			"outputs": [
				{
					"name": "",
					"type": "uint256",
					"internalType": "uint256"
				}
			],
			"stateMutability": "view"
		},
		{
			"type": "function",
			"name": "peerChainTotalSupplyValue",
			"inputs": [],
			"outputs": [
				{
					"name": "",
					"type": "tuple",
					"internalType": "struct JBPeerChainValue",
					"components": [
						{
							"name": "value",
							"type": "uint256",
							"internalType": "uint256"
						},
						{
							"name": "peerChainId",
							"type": "uint256",
							"internalType": "uint256"
						},
						{
							"name": "snapshotTimestamp",
							"type": "uint256",
							"internalType": "uint256"
						}
					]
				}
			],
			"stateMutability": "view"
		},
		{
			"type": "function",
			"name": "prepare",
			"inputs": [
				{
					"name": "projectTokenCount",
					"type": "uint256",
					"internalType": "uint256"
				},
				{
					"name": "beneficiary",
					"type": "bytes32",
					"internalType": "bytes32"
				},
				{
					"name": "minTokensReclaimed",
					"type": "uint256",
					"internalType": "uint256"
				},
				{
					"name": "token",
					"type": "address",
					"internalType": "address"
				},
				{
					"name": "metadata",
					"type": "bytes32",
					"internalType": "bytes32"
				}
			],
			"outputs": [],
			"stateMutability": "nonpayable"
		},
		{
			"type": "function",
			"name": "projectId",
			"inputs": [],
			"outputs": [
				{
					"name": "",
					"type": "uint256",
					"internalType": "uint256"
				}
			],
			"stateMutability": "view"
		},
		{
			"type": "function",
			"name": "remoteTokenFor",
			"inputs": [
				{
					"name": "token",
					"type": "address",
					"internalType": "address"
				}
			],
			"outputs": [
				{
					"name": "",
					"type": "tuple",
					"internalType": "struct JBRemoteToken",
					"components": [
						{
							"name": "enabled",
							"type": "bool",
							"internalType": "bool"
						},
						{
							"name": "emergencyHatch",
							"type": "bool",
							"internalType": "bool"
						},
						{
							"name": "minGas",
							"type": "uint32",
							"internalType": "uint32"
						},
						{
							"name": "addr",
							"type": "bytes32",
							"internalType": "bytes32"
						}
					]
				}
			],
			"stateMutability": "view"
		},
		{
			"type": "function",
			"name": "retainedToRemoteFeeBalance",
			"inputs": [],
			"outputs": [
				{
					"name": "",
					"type": "uint256",
					"internalType": "uint256"
				}
			],
			"stateMutability": "view"
		},
		{
			"type": "function",
			"name": "retainedToRemoteFeeOf",
			"inputs": [
				{
					"name": "account",
					"type": "address",
					"internalType": "address"
				}
			],
			"outputs": [
				{
					"name": "amount",
					"type": "uint256",
					"internalType": "uint256"
				}
			],
			"stateMutability": "view"
		},
		{
			"type": "function",
			"name": "retainedTransportPaymentRefundBalance",
			"inputs": [],
			"outputs": [
				{
					"name": "",
					"type": "uint256",
					"internalType": "uint256"
				}
			],
			"stateMutability": "view"
		},
		{
			"type": "function",
			"name": "retainedTransportPaymentRefundOf",
			"inputs": [
				{
					"name": "account",
					"type": "address",
					"internalType": "address"
				}
			],
			"outputs": [
				{
					"name": "amount",
					"type": "uint256",
					"internalType": "uint256"
				}
			],
			"stateMutability": "view"
		},
		{
			"type": "function",
			"name": "setDeprecation",
			"inputs": [
				{
					"name": "timestamp",
					"type": "uint40",
					"internalType": "uint40"
				}
			],
			"outputs": [],
			"stateMutability": "nonpayable"
		},
		{
			"type": "function",
			"name": "snapshotTimestamp",
			"inputs": [],
			"outputs": [
				{
					"name": "",
					"type": "uint256",
					"internalType": "uint256"
				}
			],
			"stateMutability": "view"
		},
		{
			"type": "function",
			"name": "state",
			"inputs": [],
			"outputs": [
				{
					"name": "",
					"type": "uint8",
					"internalType": "enum JBSuckerState"
				}
			],
			"stateMutability": "view"
		},
		{
			"type": "function",
			"name": "supportsInterface",
			"inputs": [
				{
					"name": "interfaceId",
					"type": "bytes4",
					"internalType": "bytes4"
				}
			],
			"outputs": [
				{
					"name": "",
					"type": "bool",
					"internalType": "bool"
				}
			],
			"stateMutability": "view"
		},
		{
			"type": "function",
			"name": "toRemote",
			"inputs": [
				{
					"name": "token",
					"type": "address",
					"internalType": "address"
				}
			],
			"outputs": [],
			"stateMutability": "payable"
		},
		{
			"type": "function",
			"name": "trustedForwarder",
			"inputs": [],
			"outputs": [
				{
					"name": "",
					"type": "address",
					"internalType": "address"
				}
			],
			"stateMutability": "view"
		},
		{
			"type": "event",
			"name": "ClaimFailed",
			"inputs": [
				{
					"name": "token",
					"type": "address",
					"indexed": true,
					"internalType": "address"
				},
				{
					"name": "index",
					"type": "uint256",
					"indexed": false,
					"internalType": "uint256"
				},
				{
					"name": "caller",
					"type": "address",
					"indexed": false,
					"internalType": "address"
				}
			],
			"anonymous": false
		},
		{
			"type": "event",
			"name": "Claimed",
			"inputs": [
				{
					"name": "beneficiary",
					"type": "bytes32",
					"indexed": false,
					"internalType": "bytes32"
				},
				{
					"name": "token",
					"type": "address",
					"indexed": false,
					"internalType": "address"
				},
				{
					"name": "projectTokenCount",
					"type": "uint256",
					"indexed": false,
					"internalType": "uint256"
				},
				{
					"name": "terminalTokenAmount",
					"type": "uint256",
					"indexed": false,
					"internalType": "uint256"
				},
				{
					"name": "index",
					"type": "uint256",
					"indexed": false,
					"internalType": "uint256"
				},
				{
					"name": "metadata",
					"type": "bytes32",
					"indexed": false,
					"internalType": "bytes32"
				},
				{
					"name": "caller",
					"type": "address",
					"indexed": false,
					"internalType": "address"
				}
			],
			"anonymous": false
		},
		{
			"type": "event",
			"name": "DeprecationTimeUpdated",
			"inputs": [
				{
					"name": "timestamp",
					"type": "uint40",
					"indexed": false,
					"internalType": "uint40"
				},
				{
					"name": "caller",
					"type": "address",
					"indexed": false,
					"internalType": "address"
				}
			],
			"anonymous": false
		},
		{
			"type": "event",
			"name": "EmergencyExit",
			"inputs": [
				{
					"name": "beneficiary",
					"type": "address",
					"indexed": true,
					"internalType": "address"
				},
				{
					"name": "token",
					"type": "address",
					"indexed": true,
					"internalType": "address"
				},
				{
					"name": "terminalTokenAmount",
					"type": "uint256",
					"indexed": false,
					"internalType": "uint256"
				},
				{
					"name": "projectTokenCount",
					"type": "uint256",
					"indexed": false,
					"internalType": "uint256"
				},
				{
					"name": "caller",
					"type": "address",
					"indexed": false,
					"internalType": "address"
				}
			],
			"anonymous": false
		},
		{
			"type": "event",
			"name": "EmergencyHatchOpened",
			"inputs": [
				{
					"name": "tokens",
					"type": "address[]",
					"indexed": false,
					"internalType": "address[]"
				},
				{
					"name": "caller",
					"type": "address",
					"indexed": false,
					"internalType": "address"
				}
			],
			"anonymous": false
		},
		{
			"type": "event",
			"name": "Initialized",
			"inputs": [
				{
					"name": "version",
					"type": "uint64",
					"indexed": false,
					"internalType": "uint64"
				}
			],
			"anonymous": false
		},
		{
			"type": "event",
			"name": "InsertToOutboxTree",
			"inputs": [
				{
					"name": "beneficiary",
					"type": "bytes32",
					"indexed": true,
					"internalType": "bytes32"
				},
				{
					"name": "token",
					"type": "address",
					"indexed": true,
					"internalType": "address"
				},
				{
					"name": "hashed",
					"type": "bytes32",
					"indexed": false,
					"internalType": "bytes32"
				},
				{
					"name": "index",
					"type": "uint256",
					"indexed": false,
					"internalType": "uint256"
				},
				{
					"name": "root",
					"type": "bytes32",
					"indexed": false,
					"internalType": "bytes32"
				},
				{
					"name": "projectTokenCount",
					"type": "uint256",
					"indexed": false,
					"internalType": "uint256"
				},
				{
					"name": "terminalTokenAmount",
					"type": "uint256",
					"indexed": false,
					"internalType": "uint256"
				},
				{
					"name": "metadata",
					"type": "bytes32",
					"indexed": false,
					"internalType": "bytes32"
				},
				{
					"name": "caller",
					"type": "address",
					"indexed": false,
					"internalType": "address"
				}
			],
			"anonymous": false
		},
		{
			"type": "event",
			"name": "NewInboxTreeRoot",
			"inputs": [
				{
					"name": "token",
					"type": "address",
					"indexed": true,
					"internalType": "address"
				},
				{
					"name": "nonce",
					"type": "uint64",
					"indexed": false,
					"internalType": "uint64"
				},
				{
					"name": "root",
					"type": "bytes32",
					"indexed": false,
					"internalType": "bytes32"
				},
				{
					"name": "caller",
					"type": "address",
					"indexed": false,
					"internalType": "address"
				}
			],
			"anonymous": false
		},
		{
			"type": "event",
			"name": "RetainedToRemoteFee",
			"inputs": [
				{
					"name": "account",
					"type": "address",
					"indexed": true,
					"internalType": "address"
				},
				{
					"name": "amount",
					"type": "uint256",
					"indexed": false,
					"internalType": "uint256"
				},
				{
					"name": "caller",
					"type": "address",
					"indexed": false,
					"internalType": "address"
				}
			],
			"anonymous": false
		},
		{
			"type": "event",
			"name": "RetainedToRemoteFeeClaimed",
			"inputs": [
				{
					"name": "account",
					"type": "address",
					"indexed": true,
					"internalType": "address"
				},
				{
					"name": "beneficiary",
					"type": "address",
					"indexed": true,
					"internalType": "address"
				},
				{
					"name": "amount",
					"type": "uint256",
					"indexed": false,
					"internalType": "uint256"
				},
				{
					"name": "caller",
					"type": "address",
					"indexed": false,
					"internalType": "address"
				}
			],
			"anonymous": false
		},
		{
			"type": "event",
			"name": "RetainedTransportPaymentRefund",
			"inputs": [
				{
					"name": "account",
					"type": "address",
					"indexed": true,
					"internalType": "address"
				},
				{
					"name": "amount",
					"type": "uint256",
					"indexed": false,
					"internalType": "uint256"
				},
				{
					"name": "caller",
					"type": "address",
					"indexed": false,
					"internalType": "address"
				}
			],
			"anonymous": false
		},
		{
			"type": "event",
			"name": "RetainedTransportPaymentRefundClaimed",
			"inputs": [
				{
					"name": "account",
					"type": "address",
					"indexed": true,
					"internalType": "address"
				},
				{
					"name": "beneficiary",
					"type": "address",
					"indexed": true,
					"internalType": "address"
				},
				{
					"name": "amount",
					"type": "uint256",
					"indexed": false,
					"internalType": "uint256"
				},
				{
					"name": "caller",
					"type": "address",
					"indexed": false,
					"internalType": "address"
				}
			],
			"anonymous": false
		},
		{
			"type": "event",
			"name": "RootToRemote",
			"inputs": [
				{
					"name": "root",
					"type": "bytes32",
					"indexed": true,
					"internalType": "bytes32"
				},
				{
					"name": "token",
					"type": "address",
					"indexed": true,
					"internalType": "address"
				},
				{
					"name": "index",
					"type": "uint256",
					"indexed": false,
					"internalType": "uint256"
				},
				{
					"name": "nonce",
					"type": "uint64",
					"indexed": false,
					"internalType": "uint64"
				},
				{
					"name": "caller",
					"type": "address",
					"indexed": false,
					"internalType": "address"
				}
			],
			"anonymous": false
		},
		{
			"type": "event",
			"name": "StaleRootRejected",
			"inputs": [
				{
					"name": "token",
					"type": "address",
					"indexed": true,
					"internalType": "address"
				},
				{
					"name": "receivedNonce",
					"type": "uint64",
					"indexed": false,
					"internalType": "uint64"
				},
				{
					"name": "currentNonce",
					"type": "uint64",
					"indexed": false,
					"internalType": "uint64"
				},
				{
					"name": "caller",
					"type": "address",
					"indexed": false,
					"internalType": "address"
				}
			],
			"anonymous": false
		},
		{
			"type": "error",
			"name": "InvalidInitialization",
			"inputs": []
		},
		{
			"type": "error",
			"name": "JBArbitrumSucker_NotEnoughGas",
			"inputs": [
				{
					"name": "payment",
					"type": "uint256",
					"internalType": "uint256"
				},
				{
					"name": "cost",
					"type": "uint256",
					"internalType": "uint256"
				}
			]
		},
		{
			"type": "error",
			"name": "JBPermissioned_Unauthorized",
			"inputs": [
				{
					"name": "account",
					"type": "address",
					"internalType": "address"
				},
				{
					"name": "sender",
					"type": "address",
					"internalType": "address"
				},
				{
					"name": "projectId",
					"type": "uint256",
					"internalType": "uint256"
				},
				{
					"name": "permissionId",
					"type": "uint256",
					"internalType": "uint256"
				}
			]
		},
		{
			"type": "error",
			"name": "JBSucker_AmountExceedsUint128",
			"inputs": [
				{
					"name": "amount",
					"type": "uint256",
					"internalType": "uint256"
				}
			]
		},
		{
			"type": "error",
			"name": "JBSucker_BelowMinGas",
			"inputs": [
				{
					"name": "minGas",
					"type": "uint256",
					"internalType": "uint256"
				},
				{
					"name": "minGasLimit",
					"type": "uint256",
					"internalType": "uint256"
				}
			]
		},
		{
			"type": "error",
			"name": "JBSucker_Deprecated",
			"inputs": [
				{
					"name": "state",
					"type": "uint8",
					"internalType": "enum JBSuckerState"
				}
			]
		},
		{
			"type": "error",
			"name": "JBSucker_DeprecationTimestampTooSoon",
			"inputs": [
				{
					"name": "givenTime",
					"type": "uint256",
					"internalType": "uint256"
				},
				{
					"name": "minimumTime",
					"type": "uint256",
					"internalType": "uint256"
				}
			]
		},
		{
			"type": "error",
			"name": "JBSucker_ExpectedMsgValue",
			"inputs": [
				{
					"name": "msgValue",
					"type": "uint256",
					"internalType": "uint256"
				}
			]
		},
		{
			"type": "error",
			"name": "JBSucker_IndexOutOfRange",
			"inputs": [
				{
					"name": "index",
					"type": "uint256",
					"internalType": "uint256"
				}
			]
		},
		{
			"type": "error",
			"name": "JBSucker_InsufficientBalance",
			"inputs": [
				{
					"name": "amount",
					"type": "uint256",
					"internalType": "uint256"
				},
				{
					"name": "balance",
					"type": "uint256",
					"internalType": "uint256"
				}
			]
		},
		{
			"type": "error",
			"name": "JBSucker_InsufficientMsgValue",
			"inputs": [
				{
					"name": "received",
					"type": "uint256",
					"internalType": "uint256"
				},
				{
					"name": "expected",
					"type": "uint256",
					"internalType": "uint256"
				}
			]
		},
		{
			"type": "error",
			"name": "JBSucker_InvalidMessageVersion",
			"inputs": [
				{
					"name": "received",
					"type": "uint8",
					"internalType": "uint8"
				},
				{
					"name": "expected",
					"type": "uint8",
					"internalType": "uint8"
				}
			]
		},
		{
			"type": "error",
			"name": "JBSucker_InvalidNativeRemoteAddress",
			"inputs": [
				{
					"name": "remoteToken",
					"type": "bytes32",
					"internalType": "bytes32"
				}
			]
		},
		{
			"type": "error",
			"name": "JBSucker_InvalidProof",
			"inputs": [
				{
					"name": "root",
					"type": "bytes32",
					"internalType": "bytes32"
				},
				{
					"name": "inboxRoot",
					"type": "bytes32",
					"internalType": "bytes32"
				}
			]
		},
		{
			"type": "error",
			"name": "JBSucker_LeafAlreadyExecuted",
			"inputs": [
				{
					"name": "token",
					"type": "address",
					"internalType": "address"
				},
				{
					"name": "index",
					"type": "uint256",
					"internalType": "uint256"
				}
			]
		},
		{
			"type": "error",
			"name": "JBSucker_NoRetainedToRemoteFee",
			"inputs": [
				{
					"name": "account",
					"type": "address",
					"internalType": "address"
				}
			]
		},
		{
			"type": "error",
			"name": "JBSucker_NoRetainedTransportPaymentRefund",
			"inputs": [
				{
					"name": "account",
					"type": "address",
					"internalType": "address"
				}
			]
		},
		{
			"type": "error",
			"name": "JBSucker_NoTerminalForToken",
			"inputs": [
				{
					"name": "projectId",
					"type": "uint256",
					"internalType": "uint256"
				},
				{
					"name": "token",
					"type": "address",
					"internalType": "address"
				}
			]
		},
		{
			"type": "error",
			"name": "JBSucker_NotPeer",
			"inputs": [
				{
					"name": "caller",
					"type": "bytes32",
					"internalType": "bytes32"
				}
			]
		},
		{
			"type": "error",
			"name": "JBSucker_NothingToSend",
			"inputs": [
				{
					"name": "token",
					"type": "address",
					"internalType": "address"
				},
				{
					"name": "outboxBalance",
					"type": "uint256",
					"internalType": "uint256"
				},
				{
					"name": "treeCount",
					"type": "uint256",
					"internalType": "uint256"
				},
				{
					"name": "numberOfClaimsSent",
					"type": "uint256",
					"internalType": "uint256"
				}
			]
		},
		{
			"type": "error",
			"name": "JBSucker_RefundFailed",
			"inputs": [
				{
					"name": "beneficiary",
					"type": "address",
					"internalType": "address"
				},
				{
					"name": "amount",
					"type": "uint256",
					"internalType": "uint256"
				}
			]
		},
		{
			"type": "error",
			"name": "JBSucker_RemoteTokenAlreadyMapped",
			"inputs": [
				{
					"name": "remoteToken",
					"type": "bytes32",
					"internalType": "bytes32"
				},
				{
					"name": "localToken",
					"type": "address",
					"internalType": "address"
				}
			]
		},
		{
			"type": "error",
			"name": "JBSucker_TokenAlreadyMapped",
			"inputs": [
				{
					"name": "localToken",
					"type": "address",
					"internalType": "address"
				},
				{
					"name": "mappedTo",
					"type": "bytes32",
					"internalType": "bytes32"
				}
			]
		},
		{
			"type": "error",
			"name": "JBSucker_TokenHasInvalidEmergencyHatchState",
			"inputs": [
				{
					"name": "token",
					"type": "address",
					"internalType": "address"
				}
			]
		},
		{
			"type": "error",
			"name": "JBSucker_TokenNotMapped",
			"inputs": [
				{
					"name": "token",
					"type": "address",
					"internalType": "address"
				}
			]
		},
		{
			"type": "error",
			"name": "JBSucker_UnexpectedMsgValue",
			"inputs": [
				{
					"name": "value",
					"type": "uint256",
					"internalType": "uint256"
				}
			]
		},
		{
			"type": "error",
			"name": "JBSucker_ZeroBeneficiary",
			"inputs": [
				{
					"name": "beneficiary",
					"type": "bytes32",
					"internalType": "bytes32"
				}
			]
		},
		{
			"type": "error",
			"name": "JBSucker_ZeroERC20Token",
			"inputs": [
				{
					"name": "projectId",
					"type": "uint256",
					"internalType": "uint256"
				}
			]
		},
		{
			"type": "error",
			"name": "JBSucker_ZeroProjectTokenCount",
			"inputs": []
		},
		{
			"type": "error",
			"name": "MerkleLib_InsertTreeIsFull",
			"inputs": [
				{
					"name": "size",
					"type": "uint256",
					"internalType": "uint256"
				},
				{
					"name": "maxLeaves",
					"type": "uint256",
					"internalType": "uint256"
				}
			]
		},
		{
			"type": "error",
			"name": "NotInitializing",
			"inputs": []
		},
		{
			"type": "error",
			"name": "SafeERC20FailedOperation",
			"inputs": [
				{
					"name": "token",
					"type": "address",
					"internalType": "address"
				}
			]
		}
	],
	"args": [
		"0x1f87a1Ece47a1B77eccaE67772B78DA54470b5cE",
		"0xE7d0F5ADC3847d4AfD70B7bcd58e34B1AAFDffbc",
		"0xCF5870A8F942110C2ea89fd03B7a3D578816a265",
		"0x8eA8B4B71e8C68b92A14E16b8c6Ab18B5C42f113",
		"1",
		"0x952648f3A4BbE85C07398e7D3235D330dBFACA32",
		"0x53d5A7E174A87721c527ED14c7Ce7cb515465607"
	],
	"solcInputHash": "b2b69aae22c57e4ebf113bb91dce36e7",
	"bytecode": "0x6101c0604052348015610010575f5ffd5b50604051615fbe380380615fbe83398101604081905261002f91610332565b6001600160a01b0380821660805280861660a052861660c081905260e08490526040805163293c499960e01b8152905188928892889288928892889263293c4999916004808201926020929091908290030181865afa158015610094573d5f5f3e3d5ffd5b505050506040513d601f19601f820116820180604052508101906100b891906103bf565b6001600160a01b0390811661010052828116610120528416610140526100dc61026c565b505050505050866001600160a01b03166307fada496040518163ffffffff1660e01b8152600401602060405180830381865afa15801561011e573d5f5f3e3d5ffd5b505050506040513d601f19601f8201168201806040525081019061014291906103bf565b6001600160a01b0316610180816001600160a01b031681525050866001600160a01b031663557819a46040518163ffffffff1660e01b8152600401602060405180830381865afa158015610198573d5f5f3e3d5ffd5b505050506040513d601f19601f820116820180604052508101906101bc91906103bf565b6001600160a01b0316610160816001600160a01b031681525050866001600160a01b03166370a2b8db6040518163ffffffff1660e01b8152600401602060405180830381865afa158015610212573d5f5f3e3d5ffd5b505050506040513d601f19601f8201168201806040525081019061023691906103e1565b6001811115610247576102476103ff565b6101a081600181111561025c5761025c6103ff565b8152505050505050505050610413565b7ff0c57e16840df040f15088dc2f81fe391c3923bec73e23a9662efc9c229c6a00805468010000000000000000900460ff16156102bc5760405163f92ee8a960e01b815260040160405180910390fd5b80546001600160401b039081161461031b5780546001600160401b0319166001600160401b0390811782556040519081527fc7f505b2f371ae2175ee4913f4499e1f2633a7b5936321eed1cdaeb6115181d29060200160405180910390a15b50565b6001600160a01b038116811461031b575f5ffd5b5f5f5f5f5f5f5f60e0888a031215610348575f5ffd5b87516103538161031e565b60208901519097506103648161031e565b60408901519096506103758161031e565b60608901519095506103868161031e565b608089015160a08a0151919550935061039e8161031e565b60c08901519092506103af8161031e565b8091505092959891949750929550565b5f602082840312156103cf575f5ffd5b81516103da8161031e565b9392505050565b5f602082840312156103f1575f5ffd5b8151600281106103da575f5ffd5b634e487b7160e01b5f52602160045260245ffd5b60805160a05160c05160e05161010051610120516101405161016051610180516101a051615a9b6105235f395f81816108b7015281816132b8015261421701525f818161098f0152818161442001528181614658015281816147c0015261496c01525f8181610817015281816132f0015281816143500152818161453901526149f901525f818161039201526112b301525f818161031201528181611516015261249501525f81816103c5015261290e01525f81816105f2015281816115d3015261162b01525f818161077b01528181612def0152818161319e015281816134db0152613d0f01525f8181610a0c01526129ea01525f81816104e7015281816106410152613a300152615a9b5ff3fe60806040526004361061028e575f3560e01c806388bc2ef311610155578063cf26bafb116100be578063f3aefd7b11610078578063f3aefd7b146109dc578063f434c914146109fb578063f925558c14610a2e578063fc072f2314610a59578063fc9f18b014610a78578063fe4b84df14610a9b575f5ffd5b8063cf26bafb14610919578063cf2a1c741461092e578063d5f3948814610941578063d935222f1461095f578063defbb6971461097e578063eac1f29e146109b1575f5ffd5b8063b71c11791161010f578063b71c117914610839578063bf557aee1461084c578063c19d93fb14610885578063c86719b7146108a6578063cbb2adce146108e6578063cdfceeba14610905575f5ffd5b806388bc2ef31461076a57806392ee1ea71461079d5780639c43eb54146107b35780639e6d7d43146107c8578063af629bbb146107e7578063b101236814610806575f5ffd5b80634035d3b1116101f75780636d9e384b116101b15780636d9e384b1461056c5780636f4115a9146105e157806375451559146106145780637da0a877146106335780637de6fba214610665578063802c8fa01461073e575f5ffd5b80634035d3b1146104615780634f0677e11461049757806354176949146104ac578063572b6c05146104cb5780635cc4f369146105175780636284386a1461054d575f5ffd5b80631d831d5c116102485780631d831d5c14610381578063293c4999146103b4578063352a34e3146103e75780633a5de07d146103fc5780633f827a5a146104275780633fafa1271461044d575f5ffd5b8063014dc2a61461029957806301ffc9a7146102ae57806303da64a8146102e257806306433b1b146103015780630ce92d4b1461034c57806311cda4151461035f575f5ffd5b3661029557005b5f5ffd5b6102ac6102a7366004614b2a565b610aba565b005b3480156102b9575f5ffd5b506102cd6102c8366004614b99565b610c48565b60405190151581526020015b60405180910390f35b3480156102ed575f5ffd5b506102ac6102fc366004614bc0565b610cb4565b34801561030c575f5ffd5b506103347f000000000000000000000000000000000000000000000000000000000000000081565b6040516001600160a01b0390911681526020016102d9565b6102ac61035a366004614c20565b610dc8565b34801561036a575f5ffd5b50610373610dd5565b6040519081526020016102d9565b34801561038c575f5ffd5b506103347f000000000000000000000000000000000000000000000000000000000000000081565b3480156103bf575f5ffd5b506103347f000000000000000000000000000000000000000000000000000000000000000081565b3480156103f2575f5ffd5b5061037360025481565b348015610407575f5ffd5b5061041262030d4081565b60405163ffffffff90911681526020016102d9565b348015610432575f5ffd5b5061043b600181565b60405160ff90911681526020016102d9565b348015610458575f5ffd5b50601154610373565b34801561046c575f5ffd5b5061037361047b366004614c4d565b600160209081525f928352604080842090915290825290205481565b3480156104a2575f5ffd5b5061037360045481565b3480156104b7575f5ffd5b506102ac6104c6366004614c77565b610dec565b3480156104d6575f5ffd5b506102cd6104e5366004614c97565b7f00000000000000000000000000000000000000000000000000000000000000006001600160a01b0390811691161490565b348015610522575f5ffd5b5061052b610ee5565b60408051825181526020808401519082015291810151908201526060016102d9565b348015610558575f5ffd5b506102ac610567366004614cb2565b610f31565b348015610577575f5ffd5b506105d4610586366004614c97565b604080518082019091525f8082526020820152506001600160a01b03165f908152600a6020908152604091829020825180840190935280546001600160401b03168352600101549082015290565b6040516102d99190614cd6565b3480156105ec575f5ffd5b506103737f000000000000000000000000000000000000000000000000000000000000000081565b34801561061f575f5ffd5b506102ac61062e366004614cf6565b61101c565b34801561063e575f5ffd5b507f0000000000000000000000000000000000000000000000000000000000000000610334565b348015610670575f5ffd5b5061070161067f366004614c97565b604080516080810182525f808252602082018190529181018290526060810191909152506001600160a01b03165f908152600f60209081526040918290208251608081018452815460ff808216151583526101008204161515938201939093526201000090920463ffffffff1692820192909252600190910154606082015290565b6040516102d9919081511515815260208083015115159082015260408083015163ffffffff16908201526060918201519181019190915260800190565b348015610749575f5ffd5b5061075d610758366004614c97565b611139565b6040516102d99190614d55565b348015610775575f5ffd5b506103347f000000000000000000000000000000000000000000000000000000000000000081565b3480156107a8575f5ffd5b50610412620493e081565b3480156107be575f5ffd5b5061037360075481565b3480156107d3575f5ffd5b506103736107e2366004614c97565b6111e2565b3480156107f2575f5ffd5b506102ac610801366004614dc7565b61126f565b348015610811575f5ffd5b506103347f000000000000000000000000000000000000000000000000000000000000000081565b6102ac610847366004614c97565b6113f9565b348015610857575f5ffd5b506102cd610866366004614c97565b6001600160a01b03165f908152600f6020526040902060010154151590565b348015610890575f5ffd5b50610899611732565b6040516102d99190614e20565b3480156108b1575f5ffd5b506108d97f000000000000000000000000000000000000000000000000000000000000000081565b6040516102d99190614e3a565b3480156108f1575f5ffd5b506102ac610900366004614e4e565b611779565b348015610910575f5ffd5b5061037361185e565b348015610924575f5ffd5b5061037360035481565b6102ac61093c366004614e60565b6118b1565b34801561094c575f5ffd5b505f54610334906001600160a01b031681565b34801561096a575f5ffd5b506102ac610979366004614e4e565b611f12565b348015610989575f5ffd5b506103347f000000000000000000000000000000000000000000000000000000000000000081565b3480156109bc575f5ffd5b506103736109cb366004614c97565b60066020525f908152604090205481565b3480156109e7575f5ffd5b506102ac6109f6366004614c97565b61201d565b348015610a06575f5ffd5b506103347f000000000000000000000000000000000000000000000000000000000000000081565b348015610a39575f5ffd5b50610373610a48366004614c97565b60056020525f908152604090205481565b348015610a64575f5ffd5b506102ac610a73366004614c97565b612134565b348015610a83575f5ffd5b50610a8c612226565b6040516102d993929190614e97565b348015610aa6575f5ffd5b506102ac610ab5366004614f26565b6122db565b5f5f5b82811015610b67575f600e5f868685818110610adb57610adb614f3d565b610af19260206060909202019081019150614c97565b6001600160a01b0316815260208101919091526040015f9081209150858584818110610b1f57610b1f614f3d565b90506060020160400135148015610b4b575060228101548154600160401b90046001600160c01b031614155b15610b5e5782610b5a81614f65565b9350505b50600101610abd565b505f5b82811015610bb157610ba9848483818110610b8757610b87614f3d565b9050606002015f8411610b9a575f6123d3565b610ba48434614f91565b6123d3565b600101610b6a565b50805f03610bd5573415610bd057610bd0610bca6127ae565b346127bc565b505050565b5f610be08234614fa4565b90508015610c42575f610bf16127ae565b6001600160a01b0316826040515f6040518083038185875af1925050503d805f8114610c38576040519150601f19603f3d011682016040523d82523d5f602084013e610c3d565b606091505b505050505b50505050565b5f6001600160e01b031982166314a66dd360e21b1480610c7857506001600160e01b0319821663c699686560e01b145b80610c9357506001600160e01b03198216633d0d324560e21b145b80610cae57506301ffc9a760e01b6001600160e01b03198316145b92915050565b5f5b81811015610bd0573063cbb2adce848484818110610cd657610cd6614f3d565b90506104c002016040518263ffffffff1660e01b8152600401610cf99190614fb7565b5f604051808303815f87803b158015610d10575f5ffd5b505af1925050508015610d21575060015b610dc057828282818110610d3757610d37614f3d565b610d4e9260206104c0909202019081019150614c97565b6001600160a01b03167fc1054f794d197971822697afa7ff4777cac6fb7a512e4bfec63aebaab98187b6848484818110610d8a57610d8a614f3d565b90506104c002016020015f0135610d9f6127ae565b604080519283526001600160a01b0390911660208301520160405180910390a25b600101610cb6565b610dd281346123d3565b50565b6013545f908015610de557919050565b3091505090565b5f610df561283e565b805490915060ff600160401b82041615906001600160401b03165f81158015610e1b5750825b90505f826001600160401b03166001148015610e365750303b155b905081158015610e44575080155b15610e625760405163f92ee8a960e01b815260040160405180910390fd5b845467ffffffffffffffff191660011785558315610e8c57845460ff60401b1916600160401b1785555b610e968787612866565b8315610edc57845460ff60401b19168555604051600181527fc7f505b2f371ae2175ee4913f4499e1f2633a7b5936321eed1cdaeb6115181d29060200160405180910390a15b50505050505050565b610f0660405180606001604052805f81526020015f81526020015f81525090565b60405180606001604052806002548152602001610f2161185e565b8152602001600754815250905090565b610f3961289b565b5f610f4360115490565b9050610f59610f51826128f6565b82602461297f565b5f610f676212750042615016565b905064ffffffffff831615801590610f865750808364ffffffffff1611155b15610fb957604051630111a46b60e21b815264ffffffffff84166004820152602481018290526044015b60405180910390fd5b64ffffffffff83166008557f455efa76af2a8686dc0dd3041bda89ece5ba4691277d525e2161003bbca8b24583610fee6127ae565b6040805164ffffffffff90931683526001600160a01b039091166020830152015b60405180910390a1505050565b5f61102660115490565b905061103c611034826128f6565b82602361297f565b5f5b828110156110fe575f600f5f86868581811061105c5761105c614f3d565b90506020020160208101906110719190614c97565b6001600160a01b0316815260208101919091526040015f908120805460ff191692151592909217909155600190600f908686858181106110b3576110b3614f3d565b90506020020160208101906110c89190614c97565b6001600160a01b0316815260208101919091526040015f2080549115156101000261ff001990921691909117905560010161103e565b507f8021bce60b20a9afb57085869a3552e0ee5b272b868df894fb30c5e90e74c072838361112a6127ae565b60405161100f93929190615029565b611141614a5d565b6001600160a01b0382165f908152600e6020908152604091829020825160808101845281546001600160401b0381168252600160401b90046001600160c01b031681840152600182015481850152835161044081018086529194929360608601939192600286019284929083019184919082845b8154815260200190600101908083116111b557505050918352505060209182015491015290525092915050565b6001600160a01b0381165f908152600e602052604081206001015481906112098430612a94565b611213919061508b565b905061eeed196001600160a01b03841601610cae5760035480821161123b57505f9392505050565b611245818361508b565b60045490925080831161125c57505f949350505050565b611266818461508b565b95945050505050565b845f0361128f57604051632bcf4c5760e21b815260040160405180910390fd5b836112b05760405163b2fe07f160e01b815260048101859052602401610fb0565b5f7f00000000000000000000000000000000000000000000000000000000000000006001600160a01b031663ea78803f6112e960115490565b6040518263ffffffff1660e01b815260040161130791815260200190565b602060405180830381865afa158015611322573d5f5f3e3d5ffd5b505050506040513d601f19601f82011682018060405250810190611346919061509e565b90506001600160a01b038116611375576011546040516309794d0160e11b8152600401610fb091815260200190565b6001600160a01b0383165f908152600f602052604090205460ff166113b85760405163027edf0360e11b81526001600160a01b0384166004820152602401610fb0565b6113c061289b565b6113dd6113cb6127ae565b6001600160a01b038316903089612b28565b5f6113ea82888688612b5e565b9050610edc8785838987612c71565b6001600160a01b0381165f908152600f60209081526040918290208251608081018452815460ff808216151583526101008204161580159483019490945262010000900463ffffffff169381019390935260010154606083015261147b576040516304bba81f60e41b81526001600160a01b0383166004820152602401610fb0565b6001600160a01b0382165f908152600e6020526040902060018101541580156114b9575080546022820154600160401b9091046001600160c01b0316145b156115135760018101546022820154825460405163096c1e2160e21b81526001600160a01b038716600482015260248101939093526044830191909152600160401b90046001600160c01b03166064820152608401610fb0565b5f7f00000000000000000000000000000000000000000000000000000000000000006001600160a01b031663421159156040518163ffffffff1660e01b8152600401602060405180830381865afa158015611570573d5f5f3e3d5ffd5b505050506040513d601f19601f8201168201806040525081019061159491906150b9565b9050803410156115c057604051630ee99a4760e01b815234600482015260248101829052604401610fb0565b5f6115cb823461508b565b90505f6115fa7f000000000000000000000000000000000000000000000000000000000000000061eeee612dc7565b90505f6001600160a01b0382161580159061161457508315155b1561170457816001600160a01b031663fef43257857f000000000000000000000000000000000000000000000000000000000000000061eeee886116566127ae565b5f6040518763ffffffff1660e01b81526004016116be9594939291909485526001600160a01b03938416602086015260408501929092529091166060830152608082015260e060a082018190525f90820181905261010060c083018190528201526101200190565b60206040518083038185885af1935050505080156116f9575060408051601f3d908101601f191682019092526116f6918101906150b9565b60015b156117045760019150505b8015801561171157508315155b15611727576117276117216127ae565b85612e5a565b610edc838888612ef6565b6008545f90808203611745575f91505090565b611752621275008261508b565b42101561176157600191505090565b8042101561177157600291505090565b600391505090565b6117ab606082013561178e6020840184614c97565b6080840135604085013560a0860135602087013560c08801613059565b7fa8d6760b4e1a89f513fc87990f66d051c419d735fb8191104014e0529d9ae2d360408201356117de6020840184614c97565b60608401356080850135602086013560a08701356117fa6127ae565b604080519788526001600160a01b0396871660208901528701949094526060860192909252608085015260a08401521660c082015260e00160405180910390a1610dd261184a6020830183614c97565b60808301356060840135604085013561316b565b5f465f1981016118715761a4b191505090565b61a4b1810361188257600191505090565b62aa36a781036118965762066eee91505090565b62066eee81036118aa5762aa36a791505090565b5f91505090565b6118ba336132a9565b6118d95760405163f957028d60e01b8152336004820152602401610fb0565b60016118e860208301836150de565b60ff1614611923576118fd60208201826150de565b60405163e667c12560e01b815260ff909116600482015260016024820152604401610fb0565b6001600160a01b036020828101359182165f908152600a9091526040902080546001600160401b031661195c608085016060860161510d565b6001600160401b03161115611ab95761197b608084016060850161510d565b815467ffffffffffffffff19166001600160401b03919091161781556080830135600182018190557f27ae5ba08d7291c96c8cbddcc148bf48a6d68c7974b94356f53754ef6171d75714611a3b576001600160a01b0382165f908152600b60205260408120546004906119ef906001615016565b6119f99190614fa4565b6001600160a01b0384165f908152600b60209081526040808320849055600c90915290209091506080850135908260048110611a3757611a37614f3d565b0155505b6001600160a01b0382167fc69d3412489554fb7820c4c2784cb644b6c79bfc117444b93977d3d33a9b8eac611a76608086016060870161510d565b6080860135611a836127ae565b604080516001600160401b03909416845260208401929092526001600160a01b03169082015260600160405180910390a2611b3a565b6001600160a01b0382167f2eb8abf720d2b9cf9e357f7a24a2bee502a7bdba38de0de230e10c33dafbd3eb611af4608086016060870161510d565b83546001600160401b0316611b076127ae565b604080516001600160401b0394851681529390921660208401526001600160a01b03169082015260600160405180910390a25b6007548360e001351115610bd05760e083013560075560a0830135600255611b6360145f614a99565b5f611b7160c0850185615128565b905090505f5b81811015611f0b5736611b8d60c0870187615128565b83818110611b9d57611b9d614f3d565b6080029190910180355f908152600d60205260409020549092506001600160a01b0316905080611bcb575080355b5f5f611bd68361349b565b91509150808015611c0257506001600160a01b0383165f9081526010602052604090205463ffffffff16155b15611c32576001600160a01b0383165f908152601060205260409020805463ffffffff191663ffffffff84161790555b6014545f805b82811015611dea578463ffffffff1660148281548110611c5a57611c5a614f3d565b5f91825260209091206002909102015463ffffffff16148015611cbb5750611c8860408801602089016150de565b60ff1660148281548110611c9e57611c9e614f3d565b5f918252602090912060029091020154640100000000900460ff16145b15611de257611d0d60148281548110611cd657611cd6614f3d565b5f9182526020909120600290910201546501000000000090046001600160801b0316611d0860608a0160408b01615188565b6136d9565b60148281548110611d2057611d20614f3d565b905f5260205f2090600202015f0160056101000a8154816001600160801b0302191690836001600160801b03160217905550611d9460148281548110611d6857611d68614f3d565b5f9182526020909120600160029092020101546001600160801b0316611d0860808a0160608b01615188565b60148281548110611da757611da7614f3d565b905f5260205f2090600202016001015f6101000a8154816001600160801b0302191690836001600160801b0316021790555060019150611dea565b600101611c38565b5080611efa57601460405180608001604052808663ffffffff168152602001886020016020810190611e1c91906150de565b60ff168152602001611e3460608a0160408b01615188565b6001600160801b03168152602001611e5260808a0160608b01615188565b6001600160801b039081169091528254600181810185555f948552602094859020845160029093020180549585015160408601518516650100000000000274ffffffffffffffffffffffffffffffff00000000001960ff9092166401000000000264ffffffffff1990981663ffffffff909516949094179690961795909516919091178455606090920151929091018054929091166001600160801b03199092169190911790555b866001019650505050505050611b77565b5050505050565b611f446060820135611f276020840184614c97565b6080840135604085013560a0860135602087013560c08801613706565b6080810135600e5f611f596020850185614c97565b6001600160a01b03166001600160a01b031681526020019081526020015f206001015f828254611f89919061508b565b90915550611f9c90506020820182614c97565b6001600160a01b031660408201356001600160a01b03167fe33107c4043e574d8a4da32dac235e219f8f34a0e45e473ea6643a6145f2528560808401356060850135611fe66127ae565b6040805193845260208401929092526001600160a01b03169082015260600160405180910390a3610dd261184a6020830183614c97565b6001600160a01b0381166120465760405163b2fe07f160e01b81525f6004820152602401610fb0565b5f61204f6127ae565b6001600160a01b0381165f9081526006602052604081205491925081900361209557604051631733ad2160e21b81526001600160a01b0383166004820152602401610fb0565b6001600160a01b0382165f908152600660205260408120819055600480548392906120c190849061508b565b909155506120d1905083826127bc565b826001600160a01b0316826001600160a01b03167ffbcfe54e4aa35e7772f25a5f52fedccde889e4fc5031ad9826b9bf6b890baa598361210f6127ae565b604080519283526001600160a01b0390911660208301520160405180910390a3505050565b6001600160a01b03811661215d5760405163b2fe07f160e01b81525f6004820152602401610fb0565b5f6121666127ae565b6001600160a01b0381165f908152600560205260408120549192508190036121ac5760405163578a51dd60e11b81526001600160a01b0383166004820152602401610fb0565b6001600160a01b0382165f908152600560205260408120819055600380548392906121d890849061508b565b909155506121e8905083826127bc565b826001600160a01b0316826001600160a01b03167f1e70ff8443e61b2a2555b5ad56645461a75dd29591b5c4a6281f70a6d395db458361210f6127ae565b60605f5f601461223461185e565b60075482805480602002602001604051908101604052809291908181526020015f905b828210156122ca575f8481526020908190206040805160808101825260028602909201805463ffffffff8116845260ff640100000000820416848601526001600160801b036501000000000090910481169284019290925260019081015490911660608301529083529092019101612257565b505050509250925092509250909192565b5f6122e461283e565b805490915060ff600160401b82041615906001600160401b03165f8115801561230a5750825b90505f826001600160401b031660011480156123255750303b155b905081158015612333575080155b156123515760405163f92ee8a960e01b815260040160405180910390fd5b845467ffffffffffffffff19166001178555831561237b57845460ff60401b1916600160401b1785555b612385865f612866565b83156123cb57845460ff60401b19168555604051600181527fc7f505b2f371ae2175ee4913f4499e1f2633a7b5936321eed1cdaeb6115181d29060200160405180910390a15b505050505050565b5f6123e16020840184614c97565b6001600160a01b0381165f908152600f60209081526040918290208251608081018452815460ff808216151583526101008204161580159483019490945262010000900463ffffffff169381019390935260010154606083015291925090612467576040516304bba81f60e41b81526001600160a01b0383166004820152602401610fb0565b61247084613944565b5f61247a60115490565b90506124cc612488826128f6565b8260206001600160a01b037f0000000000000000000000000000000000000000000000000000000000000000166124bd6127ae565b6001600160a01b031614613a0f565b6060820151158015906124e757508460400135826060015114155b80156124f65750604085013515155b801561251b57506001600160a01b0383165f908152600e602052604090206022015415155b1561255157606082015160405163aef430a360e01b81526001600160a01b03851660048201526024810191909152604401610fb0565b6040850135156125cb576040808601355f908152600d60205220546001600160a01b031680158015906125965750836001600160a01b0316816001600160a01b031614155b156125c9576040805163d6a305d960e01b81529087013560048201526001600160a01b0382166024820152604401610fb0565b505b604085013515801561260957506001600160a01b0383165f908152600e6020526040902060228101549054600160401b90046001600160c01b031614155b15612638576001600160a01b0383165f908152600f60205260409020805460ff19169055612638848484612ef6565b60408501351580159061264e5750606082015115155b801561266257508460400135826060015114155b801561268b575060608201515f908152600d60205260409020546001600160a01b038481169116145b156126b15760608201515f908152600d6020526040902080546001600160a01b03191690555b5f6040860135156126c65785604001356126cc565b82606001515b905080156126fb575f818152600d6020526040902080546001600160a01b0319166001600160a01b0386161790555b604080516080810182528782018035151582525f602080840191909152919283019161272991908a016151b4565b63ffffffff90811682526020918201939093526001600160a01b039095165f908152600f8652604090819020825181549784015192840151909416620100000265ffffffff0000199215156101000261ff00199515159590951661ffff1990981697909717939093171694909417815560609093015160019093019290925550505050565b5f6127b7613a1f565b905090565b5f826001600160a01b0316826040515f6040518083038185875af1925050503d805f8114612805576040519150601f19603f3d011682016040523d82523d5f602084013e61280a565b606091505b5050905080610bd057604051630590bd2d60e41b81526001600160a01b038416600482015260248101839052604401610fb0565b5f807ff0c57e16840df040f15088dc2f81fe391c3923bec73e23a9662efc9c229c6a00610cae565b601182905560138190556128786127ae565b5f80546001600160a01b0319166001600160a01b03929092169190911790555050565b5f6128a4611732565b905060038160038111156128ba576128ba614e0c565b14806128d7575060028160038111156128d5576128d5614e0c565b145b15610dd2578060405162a7958f60e81b8152600401610fb09190614e20565b6040516331a9108f60e11b8152600481018290525f907f00000000000000000000000000000000000000000000000000000000000000006001600160a01b031690636352211e90602401602060405180830381865afa15801561295b573d5f5f3e3d5ffd5b505050506040513d601f19601f82011682018060405250810190610cae919061509e565b5f6129886127ae565b9050836001600160a01b0316816001600160a01b031614158015612a555750604051631a45b42760e11b81526001600160a01b0382811660048301528581166024830152604482018590526064820184905260016084830181905260a48301527f0000000000000000000000000000000000000000000000000000000000000000169063348b684e9060c401602060405180830381865afa158015612a2f573d5f5f3e3d5ffd5b505050506040513d601f19601f82011682018060405250810190612a5391906151cf565b155b15610c4257604051631326f75560e11b81526001600160a01b038086166004830152821660248201526044810184905260648101839052608401610fb0565b5f61eeed196001600160a01b03841601612ab957506001600160a01b03811631610cae565b6040516370a0823160e01b81526001600160a01b0383811660048301528416906370a0823190602401602060405180830381865afa158015612afd573d5f5f3e3d5ffd5b505050506040513d601f19601f82011682018060405250810190612b2191906150b9565b9392505050565b612b36848484846001613a89565b610c4257604051635274afe760e01b81526001600160a01b0385166004820152602401610fb0565b5f5f612b6960115490565b90505f612b768286612dc7565b90506001600160a01b038116612bb15760405163b61c181f60e01b8152600481018390526001600160a01b0386166024820152604401610fb0565b5f612bbc8630612a94565b604080516020810182525f815290516313da831760e01b81529192506001600160a01b038416916313da831791612c0191309188918d918d918d91869160040161521c565b6020604051808303815f875af1158015612c1d573d5f5f3e3d5ffd5b505050506040513d601f19601f82011682018060405250810190612c4191906150b9565b935080612c4e8730612a94565b612c58919061508b565b8414612c6657612c66615271565b505050949350505050565b6001600160801b03831115612c9c576040516335bf001160e11b815260048101849052602401610fb0565b6001600160801b03851115612cc7576040516335bf001160e11b815260048101869052602401610fb0565b6040805186815260208082018690528183018590526060820184905260809091206001600160a01b0387165f908152600e909252919020612d0b6002820183613af6565b84816001015f828254612d1e9190615016565b92505081905550856001600160a01b0316847fc92fa1150c24ee5470c272112539aab52450a5e05573e7ea7bdfb98829b893218460018560020160200154612d66919061508b565b612d7286600201613be1565b8c8b8a612d7d6127ae565b604080519788526020880196909652948601939093526060850191909152608084015260a08301526001600160a01b031660c082015260e00160405180910390a350505050505050565b604051630862026560e41b8152600481018390526001600160a01b0382811660248301525f917f000000000000000000000000000000000000000000000000000000000000000090911690638620265090604401602060405180830381865afa158015612e36573d5f5f3e3d5ffd5b505050506040513d601f19601f82011682018060405250810190612b21919061509e565b6001600160a01b0382165f9081526005602052604081208054839290612e81908490615016565b925050819055508060035f828254612e999190615016565b90915550506001600160a01b0382167f2a3798c6648c17f70b43a33a8378cec543367ac1543e62aa7b3926605697177782612ed26127ae565b604080519283526001600160a01b0390911660208301520160405180910390a25050565b6060810151612f235760405163027edf0360e11b81526001600160a01b0383166004820152602401610fb0565b612f2b61289b565b6001600160a01b0382165f908152600e60205260408120602281015482918291829190808303612f6057505050505050505050565b6001820180545f918290558354909750839190612f85906001600160401b0316615285565b91906101000a8154816001600160401b0302191690836001600160401b0316021790559450612fb682600201613be1565b82546001600160401b0316600160401b6001600160c01b038416021783559350612fe160018261508b565b92505050856001600160a01b0316827f47c5615513b0f669da2dd7e3362a34610ca2695d0a0e2da2160cee952eab203c838661301b6127ae565b604080519384526001600160401b0390921660208401526001600160a01b03169082015260600160405180910390a3610edc87878787878787613ce2565b6401000000008210613081576040516309f6605160e41b815260048101839052602401610fb0565b6001600160a01b0386165f908152600960209081526040808320600886901c8452909152902054600160ff84161b16156130e057604051632939af3b60e21b81526001600160a01b038716600482015260248101839052604401610fb0565b6001600160a01b0386165f818152600960209081526040808320600887901c845282528083208054600160ff891681901b90911790915581518c81528084018b90528083018a905260608101899052608090209484528252808320868452909152812082905561315288838686613ded565b905061316081838686613f03565b505050505050505050565b5f61317560115490565b9050831561318857613188858583613faa565b604051632eec7b5560e11b8152600481018290527f00000000000000000000000000000000000000000000000000000000000000006001600160a01b031690635dd8f6aa90602401602060405180830381865afa1580156131eb573d5f5f3e3d5ffd5b505050506040513d601f19601f8201168201806040525081019061320f919061509e565b6001600160a01b031663c7fb92de8285856040516001600160e01b031960e086901b168152600481019390935260248301919091526001600160a01b0316604482015260a060648201525f60a48201819052608482015260c4016020604051808303815f875af1158015613285573d5f5f3e3d5ffd5b505050506040513d601f19601f820116820180604052508101906123cb91906150b9565b5f5f6132b36141c7565b90505f7f000000000000000000000000000000000000000000000000000000000000000060018111156132e8576132e8614e0c565b03613468575f7f00000000000000000000000000000000000000000000000000000000000000006001600160a01b031663e78cea926040518163ffffffff1660e01b8152600401602060405180830381865afa15801561334a573d5f5f3e3d5ffd5b505050506040513d601f19601f8201168201806040525081019061336e919061509e565b9050806001600160a01b0316846001600160a01b03161480156134605750806001600160a01b031663ab5d89436040518163ffffffff1660e01b8152600401602060405180830381865afa1580156133c8573d5f5f3e3d5ffd5b505050506040513d601f19601f820116820180604052508101906133ec919061509e565b6001600160a01b03166380648b026040518163ffffffff1660e01b8152600401602060405180830381865afa158015613427573d5f5f3e3d5ffd5b505050506040513d601f19601f8201168201806040525081019061344b919061509e565b6001600160a01b0316826001600160a01b0316145b949350505050565b73111100000000000000000000000000000000111181016001600160a01b0316836001600160a01b031614915050919050565b6001600160a01b0381165f90815260106020526040812054819063ffffffff1680156134cb579360019350915050565b5f6134d560115490565b90505f5f7f00000000000000000000000000000000000000000000000000000000000000006001600160a01b031683886040516024016135289291909182526001600160a01b0316602082015260400190565b60408051601f198184030181529181526020820180516001600160e01b0316630862026560e41b1790525161355d91906152af565b5f60405180830381855afa9150503d805f8114613595576040519150601f19603f3d011682016040523d82523d5f602084013e61359a565b606091505b50915091508180156135ae57506020815110155b156136cc575f818060200190518101906135c8919061509e565b90506001600160a01b038116156136ca57604051602481018590526001600160a01b0389811660448301525f91829184169060640160408051601f198184030181529181526020820180516001600160e01b0316633a01714f60e01b1790525161363291906152af565b5f60405180830381855afa9150503d805f811461366a576040519150601f19603f3d011682016040523d82523d5f602084013e61366f565b606091505b509150915081801561368357506060815110155b156136c7575f8180602001905181019061369d9190615363565b9050806040015163ffffffff165f146136c557604001519a60019a5098505050505050505050565b505b50505b505b5094955f95509350505050565b5f6001600160801b03838116818416019081116136f65780613460565b6001600160801b03949350505050565b640100000000821061372e576040516309f6605160e41b815260048101839052602401610fb0565b5f613737611732565b9050600381600381111561374d5761374d614e0c565b1415801561376d5750600281600381111561376a5761376a614e0c565b14155b801561379657506001600160a01b0387165f908152600f6020526040902054610100900460ff16155b156137bf576040516304bba81f60e41b81526001600160a01b0388166004820152602401610fb0565b6001600160a01b0387165f908152600e602052604090208054600160401b90046001600160c01b03161580159061381d57508054849061381190600190600160401b90046001600160c01b03166153d4565b6001600160c01b031610155b1561384d57604051632939af3b60e21b81526001600160a01b038916600482015260248101859052604401610fb0565b604080516001600160a01b038a1660208201525f910160408051808303601f19018152918152815160209283012060601c5f8181526009845282812060088a901c8252909352912054909150600160ff87161b16156138d157604051632939af3b60e21b81526001600160a01b038a16600482015260248101869052604401610fb0565b6001600160a01b039081165f908152600960209081526040808320600889901c845282528083208054600160ff8b161b179055928b168252600e9052206131609061391e90600201613be1565b604080518c8152602081018b905290810189905260608101889052608090208686613f03565b5f61eeee6139556020840184614c97565b6001600160a01b0316149050808015613974575061eeee826040013514155b80156139835750604082013515155b156139a6576040805162e80c7760e31b8152908301356004820152602401610fb0565b62030d406139ba60408401602085016151b4565b63ffffffff161080156139cb575080155b15613a0b576139e060408301602084016151b4565b604051630555d0f160e41b815263ffffffff909116600482015262030d406024820152604401610fb0565b5050565b80610c4257610c4284848461297f565b5f366014808210801590613a5b57507f00000000000000000000000000000000000000000000000000000000000000006001600160a01b031633145b15613a8157613a6e36828403815f6153f3565b613a779161541a565b60601c9250505090565b339250505090565b6040516323b872dd60e01b5f8181526001600160a01b038781166004528616602452604485905291602083606481808c5af1925060015f51148316613ae5578383151615613ad9573d5f823e3d81fd5b5f883b113d1516831692505b604052505f60605295945050505050565b5f826020015f8154613b0790614f65565b918290555090506001613b1c6020600261554a565b613b26919061508b565b811115613b6857806001613b3c6020600261554a565b613b46919061508b565b60405163515447c160e01b815260048101929092526024820152604401610fb0565b5f5b6020811015613bcb5781600116600103613b995782848260208110613b9157613b91614f3d565b015550505050565b5f848260208110613bac57613bac614f3d565b01545f90815260209490945250604090922091600191821c9101613b6a565b508260200154600160206002613b3c919061554a565b60208101545f90808203613c1757507f27ae5ba08d7291c96c8cbddcc148bf48a6d68c7974b94356f53754ef6171d75792915050565b613c1f614ab7565b5f5b6020811015613c69576001811b831615613c6157848160208110613c4757613c47614f3d565b0154828260208110613c5b57613c5b614f3d565b60200201525b600101613c21565b50604051634a490c2560e01b81527309abdb576f7c7df609b0e4dd87066230f8b354d090634a490c2590613ca39084908690600401615555565b602060405180830381865af4158015613cbe573d5f5f3e3d5ffd5b505050506040513d601f19601f8201168201806040525081019061346091906150b9565b60128054600101908190554260801b175f7309abdb576f7c7df609b0e4dd87066230f8b354d063c60a0b827f0000000000000000000000000000000000000000000000000000000000000000613d3760115490565b60608b01516040516001600160e01b031960e086901b1681526001600160a01b03909316600484015260248301919091526044820152606481018990526001600160401b038816608482015260a48101879052600160c482015260e48101859052610104015f60405180830381865af4158015613db6573d5f5f3e3d5ffd5b505050506040513d5f823e601f3d908101601f19168201604052613ddd91908101906156b9565b905061316089848a898b866141d6565b6001600160a01b0384165f908152600a60205260408082206001015490516307fbe4d560e41b815282907309abdb576f7c7df609b0e4dd87066230f8b354d090637fbe4d5090613e4590899088908a90600401615770565b602060405180830381865af4158015613e60573d5f5f3e3d5ffd5b505050506040513d601f19601f82011682018060405250810190613e8491906150b9565b9050818103613e9557509050613460565b6001600160a01b0387165f908152600c60205260408120905b6004811015613ef6575f828260048110613eca57613eca614f3d565b015490508015801590613edc57508084145b15613eed5794506134609350505050565b50600101613eae565b5091979650505050505050565b6040516307fbe4d560e41b81525f907309abdb576f7c7df609b0e4dd87066230f8b354d090637fbe4d5090613f4090879086908890600401615770565b602060405180830381865af4158015613f5b573d5f5f3e3d5ffd5b505050506040513d601f19601f82011682018060405250810190613f7f91906150b9565b9050848114611f0b576040516272c3e960e11b81526004810182905260248101869052604401610fb0565b5f613fb4846111e2565b905080831115613fe1576040516360ec3e7160e01b81526004810184905260248101829052604401610fb0565b5f613fec8386612dc7565b90506001600160a01b0381166140275760405163b61c181f60e01b8152600481018490526001600160a01b0386166024820152604401610fb0565b5f806001600160a01b03871661eeee148015906140b6576040516370a0823160e01b81523060048201526001600160a01b038916906370a0823190602401602060405180830381865afa158015614080573d5f5f3e3d5ffd5b505050506040513d601f19601f820116820180604052508101906140a491906150b9565b91506140b18885896142af565b6140ba565b8692505b604051639e6eec0560e01b8152600481018790526001600160a01b038981166024830152604482018990525f6064830181905260c0608484015260c4830181905260e060a484015260e4830152851690639e6eec05908590610104015f604051808303818588803b15801561412d575f5ffd5b505af115801561413f573d5f5f3e3d5ffd5b50505050508015610c3d57614154878361508b565b6040516370a0823160e01b81523060048201526001600160a01b038a16906370a0823190602401602060405180830381865afa158015614196573d5f5f3e3d5ffd5b505050506040513d601f19601f820116820180604052508101906141ba91906150b9565b14610c3d57610c3d615271565b5f6127b76141d3610dd5565b90565b5f816040516024016141e89190615790565b60408051601f198184030181529190526020810180516001600160e01b03166333ca871d60e21b17905290505f7f0000000000000000000000000000000000000000000000000000000000000000600181111561424757614247614e0c565b0361428157865f0361426f57604051631587a6a360e31b815260048101889052602401610fb0565b61427c8588868487614329565b610edc565b86156142a357604051636ba3461960e11b815260048101889052602401610fb0565b610edc85858386614786565b6142bb8383835f6148e9565b610bd0576142cc83835f60016148e9565b6142f457604051635274afe760e01b81526001600160a01b0384166004820152602401610fb0565b61430183838360016148e9565b610bd057604051635274afe760e01b81526001600160a01b0384166004820152602401610fb0565b815160405163a66b327d60e01b8152600481019190915248602482018190525f91829081907f00000000000000000000000000000000000000000000000000000000000000006001600160a01b03169063a66b327d90604401602060405180830381865afa15801561439d573d5f5f3e3d5ffd5b505050506040513d601f19601f820116820180604052508101906143c191906150b9565b90506143d083620493e0615879565b6143da9082615016565b91506001600160a01b03891661eeee148015906143f657508615155b1561474757604051635ed004ff60e11b81526001600160a01b038a811660048301525f91829182917f00000000000000000000000000000000000000000000000000000000000000009091169063bda009fe90602401602060405180830381865afa158015614467573d5f5f3e3d5ffd5b505050506040513d601f19601f8201168201806040525081019061448b919061509e565b92505f836001600160a01b031663a0c76a968e306144a76141c7565b8f60405180602001604052805f8152506040518663ffffffff1660e01b81526004016144d7959493929190615890565b5f60405180830381865afa1580156144f1573d5f5f3e3d5ffd5b505050506040513d5f823e601f3d908101601f1916820160405261451891908101906158d5565b5160405163a66b327d60e01b815260048101829052602481018990529091507f00000000000000000000000000000000000000000000000000000000000000006001600160a01b03169063a66b327d90604401602060405180830381865afa158015614586573d5f5f3e3d5ffd5b505050506040513d601f19601f820116820180604052508101906145aa91906150b9565b915086896040015163ffffffff166145c29190615879565b6145cc9083615016565b92506145da90508286615016565b8b101561460e578a6145ec8387615016565b6040516328a7a8cb60e11b815260048101929092526024820152604401610fb0565b5f60028361461c888f61508b565b614626919061508b565b6146309190614f91565b905061463c8184615016565b92506146488187615016565b9550506146558c8b61494b565b507f00000000000000000000000000000000000000000000000000000000000000006001600160a01b0316634fb1a07b838e61468f6127ae565b6146976141c7565b8f8e604001518d8960405180602001604052805f8152506040516020016146bf929190615967565b6040516020818303038152906040526040518963ffffffff1660e01b81526004016146f0979695949392919061597f565b5f6040518083038185885af115801561470b573d5f5f3e3d5ffd5b50505050506040513d5f823e601f3d908101601f1916820160405261473391908101906158d5565b5061473f8c845f6142af565b505050614779565b81881015614772576040516328a7a8cb60e11b81526004810189905260248101839052604401610fb0565b8791508693505b613160828583868a6149e4565b5f5f6147906141c7565b90506001600160a01b03861661eeee148015906147ac57508415155b1561487c575f6147bc878761494b565b90507f00000000000000000000000000000000000000000000000000000000000000006001600160a01b0316637b3a3c8b6147f8866060015190565b848960405180602001604052805f8152506040518563ffffffff1660e01b815260040161482894939291906159cc565b5f604051808303815f875af1158015614843573d5f5f3e3d5ffd5b505050506040513d5f823e601f3d908101601f1916820160405261486a91908101906158d5565b5061487687825f6142af565b50614880565b8491505b6040516349460b4d60e11b815260649063928c169a9084906148a89085908990600401615a08565b60206040518083038185885af11580156148c4573d5f5f3e3d5ffd5b50505050506040513d601f19601f82011682018060405250810190610edc91906150b9565b60405163095ea7b360e01b5f8181526001600160a01b038616600452602485905291602083604481808b5af1925060015f5114831661493f578383151615614933573d5f823e3d81fd5b5f873b113d1516831692505b60405250949350505050565b604051635ed004ff60e11b81526001600160a01b0383811660048301525f917f00000000000000000000000000000000000000000000000000000000000000009091169063bda009fe90602401602060405180830381865afa1580156149b3573d5f5f3e3d5ffd5b505050506040513d601f19601f820116820180604052508101906149d7919061509e565b9050610cae8382846142af565b5f6149ed6141c7565b90506001600160a01b037f000000000000000000000000000000000000000000000000000000000000000016636e6e8a6a614a288789615016565b838888614a336127ae565b87620493e08b8b6040518a63ffffffff1660e01b81526004016148a8989796959493929190615a2b565b60405180608001604052805f6001600160401b031681526020015f6001600160c01b031681526020015f8152602001614a94614ad6565b905290565b5080545f8255600202905f5260205f2090810190610dd29190614af5565b6040518061040001604052806020906020820280368337509192915050565b6040518060400160405280614ae9614ab7565b81526020015f81525090565b5b80821115614b265780546001600160a81b03191681556001810180546001600160801b0319169055600201614af6565b5090565b5f5f60208385031215614b3b575f5ffd5b82356001600160401b03811115614b50575f5ffd5b8301601f81018513614b60575f5ffd5b80356001600160401b03811115614b75575f5ffd5b856020606083028401011115614b89575f5ffd5b6020919091019590945092505050565b5f60208284031215614ba9575f5ffd5b81356001600160e01b031981168114612b21575f5ffd5b5f5f60208385031215614bd1575f5ffd5b82356001600160401b03811115614be6575f5ffd5b8301601f81018513614bf6575f5ffd5b80356001600160401b03811115614c0b575f5ffd5b8560206104c083028401011115614b89575f5ffd5b5f6060828403128015614c31575f5ffd5b509092915050565b6001600160a01b0381168114610dd2575f5ffd5b5f5f60408385031215614c5e575f5ffd5b8235614c6981614c39565b946020939093013593505050565b5f5f60408385031215614c88575f5ffd5b50508035926020909101359150565b5f60208284031215614ca7575f5ffd5b8135612b2181614c39565b5f60208284031215614cc2575f5ffd5b813564ffffffffff81168114612b21575f5ffd5b81516001600160401b031681526020808301519082015260408101610cae565b5f5f60208385031215614d07575f5ffd5b82356001600160401b03811115614d1c575f5ffd5b8301601f81018513614d2c575f5ffd5b80356001600160401b03811115614d41575f5ffd5b8560208260051b8401011115614b89575f5ffd5b81516001600160401b031681526020808301516001600160c01b0316908201526040808301519082015260608083015180516104808401925f9085015b6020821015614db257825181526020928301926001929092019101614d92565b50505060208101516104608401525092915050565b5f5f5f5f5f60a08688031215614ddb575f5ffd5b8535945060208601359350604086013592506060860135614dfb81614c39565b949793965091946080013592915050565b634e487b7160e01b5f52602160045260245ffd5b6020810160048310614e3457614e34614e0c565b91905290565b6020810160028310614e3457614e34614e0c565b5f6104c0828403128015614c31575f5ffd5b5f60208284031215614e70575f5ffd5b81356001600160401b03811115614e85575f5ffd5b82016101008185031215612b21575f5ffd5b606080825284519082018190525f9060208601906080840190835b81811015614f1157835163ffffffff815116845260ff60208201511660208501526001600160801b0360408201511660408501526001600160801b03606082015116606085015250608083019250602084019350600181019050614eb2565b50506020840195909552505060400152919050565b5f60208284031215614f36575f5ffd5b5035919050565b634e487b7160e01b5f52603260045260245ffd5b634e487b7160e01b5f52601160045260245ffd5b5f60018201614f7657614f76614f51565b5060010190565b634e487b7160e01b5f52601260045260245ffd5b5f82614f9f57614f9f614f7d565b500490565b5f82614fb257614fb2614f7d565b500690565b6104c081018235614fc781614c39565b6001600160a01b031682526020838101359083015260408084013590830152606080840135908301526080808401359083015260a0838101359083015261040060c08085019084013792915050565b80820180821115610cae57610cae614f51565b604080825281018390525f8460608301825b8681101561506b57823561504e81614c39565b6001600160a01b031682526020928301929091019060010161503b565b506001600160a01b03949094166020939093019290925250909392505050565b81810381811115610cae57610cae614f51565b5f602082840312156150ae575f5ffd5b8151612b2181614c39565b5f602082840312156150c9575f5ffd5b5051919050565b60ff81168114610dd2575f5ffd5b5f602082840312156150ee575f5ffd5b8135612b21816150d0565b6001600160401b0381168114610dd2575f5ffd5b5f6020828403121561511d575f5ffd5b8135612b21816150f9565b5f5f8335601e1984360301811261513d575f5ffd5b8301803591506001600160401b03821115615156575f5ffd5b6020019150600781901b360382131561516d575f5ffd5b9250929050565b6001600160801b0381168114610dd2575f5ffd5b5f60208284031215615198575f5ffd5b8135612b2181615174565b63ffffffff81168114610dd2575f5ffd5b5f602082840312156151c4575f5ffd5b8135612b21816151a3565b5f602082840312156151df575f5ffd5b81518015158114612b21575f5ffd5b5f81518084528060208401602086015e5f602082860101526020601f19601f83011685010191505092915050565b6001600160a01b0388811682526020820188905260408201879052858116606083015260808201859052831660a082015260e060c082018190525f90615264908301846151ee565b9998505050505050505050565b634e487b7160e01b5f52600160045260245ffd5b5f6001600160401b0382166001600160401b0381036152a6576152a6614f51565b60010192915050565b5f82518060208501845e5f920191825250919050565b634e487b7160e01b5f52604160045260245ffd5b604051608081016001600160401b03811182821017156152fb576152fb6152c5565b60405290565b60405160e081016001600160401b03811182821017156152fb576152fb6152c5565b604051601f8201601f191681016001600160401b038111828210171561534b5761534b6152c5565b604052919050565b805161535e816150d0565b919050565b5f6060828403128015615374575f5ffd5b50604051606081016001600160401b0381118282101715615397576153976152c5565b60405282516153a581614c39565b815260208301516153b5816150d0565b602082015260408301516153c8816151a3565b60408201529392505050565b6001600160c01b038281168282160390811115610cae57610cae614f51565b5f5f85851115615401575f5ffd5b8386111561540d575f5ffd5b5050820193919092039150565b80356bffffffffffffffffffffffff198116906014841015615460576bffffffffffffffffffffffff196bffffffffffffffffffffffff198560140360031b1b82161691505b5092915050565b6001815b60018411156154a25780850481111561548657615486614f51565b600184161561549457908102905b60019390931c92800261546b565b935093915050565b5f826154b857506001610cae565b816154c457505f610cae565b81600181146154da57600281146154e457615500565b6001915050610cae565b60ff8411156154f5576154f5614f51565b50506001821b610cae565b5060208310610133831016604e8410600b8410161715615523575081810a610cae565b61552f5f198484615467565b805f190482111561554257615542614f51565b029392505050565b5f612b2183836154aa565b610420810181845f5b602081101561557d57815183526020928301929091019060010161555e565b505050826104008301529392505050565b5f6040828403121561559e575f5ffd5b604080519081016001600160401b03811182821017156155c0576155c06152c5565b806040525080915082516155d3816150f9565b8152602092830151920191909152919050565b5f82601f8301126155f5575f5ffd5b81516001600160401b0381111561560e5761560e6152c5565b61561d60208260051b01615323565b8082825260208201915060208360071b86010192508583111561563e575f5ffd5b602085015b838110156156af576080818803121561565a575f5ffd5b6156626152d9565b815181526020820151615674816150d0565b6020820152604082015161568781615174565b6040820152606082015161569a81615174565b60608201528352602090920191608001615643565b5095945050505050565b5f602082840312156156c9575f5ffd5b81516001600160401b038111156156de575f5ffd5b820161010081850312156156f0575f5ffd5b6156f8615301565b61570182615353565b81526020828101519082015260408083015190820152615724856060840161558e565b606082015260a0820151608082015260c08201516001600160401b0381111561574b575f5ffd5b615757868285016155e6565b60a08301525060e0919091015160c08201529392505050565b838152610440810161040084602084013782610420830152949350505050565b602081525f610120820160ff8451166020840152602084015160408401526040840151606084015260608401516157dd608085018280516001600160401b03168252602090810151910152565b50608084015160c084015260a084015161010060e0850152805191829052602001905f906101408501905b808310156158615783518051835260ff60208201511660208401526001600160801b0360408201511660408401526001600160801b03606082015116606084015250608082019150602084019350600183019250615808565b5060c086015161010086015280935050505092915050565b8082028115828204841417610cae57610cae614f51565b6001600160a01b0386811682528581166020830152841660408201526060810183905260a0608082018190525f906158ca908301846151ee565b979650505050505050565b5f602082840312156158e5575f5ffd5b81516001600160401b038111156158fa575f5ffd5b8201601f8101841361590a575f5ffd5b80516001600160401b03811115615923576159236152c5565b615936601f8201601f1916602001615323565b81815285602083850101111561594a575f5ffd5b8160208401602083015e5f91810160200191909152949350505050565b828152604060208201525f61346060408301846151ee565b6001600160a01b0388811682528781166020830152861660408201526060810185905263ffffffff8416608082015260a0810183905260e060c082018190525f90615264908301846151ee565b6001600160a01b03858116825284166020820152604081018390526080606082018190525f906159fe908301846151ee565b9695505050505050565b6001600160a01b03831681526040602082018190525f90613460908301846151ee565b6001600160a01b038981168252602082018990526040820188905286811660608301528516608082015263ffffffff841660a082015260c0810183905261010060e082018190525f90615a80908301846151ee565b9a995050505050505050505056fea164736f6c634300081c000a",
	"gitCommit": "npm:@bananapus/suckers-v6@0.0.72",
	"gitDirty": false,
	"history": []
}