{
	"format": "sphinx-sol-ct-artifact-1",
	"address": "0xd8299d2634aa6842f71d43f50e3bfe7ea6630e96",
	"sourceName": "node_modules/@bananapus/suckers-v6/src/JBCCIPSucker.sol",
	"contractName": "JBCCIPSucker",
	"chainId": "0x14a34",
	"abi": [
		{
			"type": "constructor",
			"inputs": [
				{
					"name": "deployer",
					"type": "address",
					"internalType": "contract JBCCIPSuckerDeployer"
				},
				{
					"name": "directory",
					"type": "address",
					"internalType": "contract IJBDirectory"
				},
				{
					"name": "permissions",
					"type": "address",
					"internalType": "contract IJBPermissions"
				},
				{
					"name": "tokens",
					"type": "address",
					"internalType": "contract IJBTokens"
				},
				{
					"name": "feeProjectId",
					"type": "uint256",
					"internalType": "uint256"
				},
				{
					"name": "registry",
					"type": "address",
					"internalType": "contract IJBSuckerRegistry"
				},
				{
					"name": "trustedForwarder",
					"type": "address",
					"internalType": "address"
				}
			],
			"stateMutability": "nonpayable"
		},
		{
			"type": "receive",
			"stateMutability": "payable"
		},
		{
			"type": "function",
			"name": "CCIP_ROUTER",
			"inputs": [],
			"outputs": [
				{
					"name": "",
					"type": "address",
					"internalType": "contract ICCIPRouter"
				}
			],
			"stateMutability": "view"
		},
		{
			"type": "function",
			"name": "DIRECTORY",
			"inputs": [],
			"outputs": [
				{
					"name": "",
					"type": "address",
					"internalType": "contract IJBDirectory"
				}
			],
			"stateMutability": "view"
		},
		{
			"type": "function",
			"name": "FEE_PROJECT_ID",
			"inputs": [],
			"outputs": [
				{
					"name": "",
					"type": "uint256",
					"internalType": "uint256"
				}
			],
			"stateMutability": "view"
		},
		{
			"type": "function",
			"name": "MESSAGE_VERSION",
			"inputs": [],
			"outputs": [
				{
					"name": "",
					"type": "uint8",
					"internalType": "uint8"
				}
			],
			"stateMutability": "view"
		},
		{
			"type": "function",
			"name": "MESSENGER_BASE_GAS_LIMIT",
			"inputs": [],
			"outputs": [
				{
					"name": "",
					"type": "uint32",
					"internalType": "uint32"
				}
			],
			"stateMutability": "view"
		},
		{
			"type": "function",
			"name": "MESSENGER_ERC20_MIN_GAS_LIMIT",
			"inputs": [],
			"outputs": [
				{
					"name": "",
					"type": "uint32",
					"internalType": "uint32"
				}
			],
			"stateMutability": "view"
		},
		{
			"type": "function",
			"name": "PERMISSIONS",
			"inputs": [],
			"outputs": [
				{
					"name": "",
					"type": "address",
					"internalType": "contract IJBPermissions"
				}
			],
			"stateMutability": "view"
		},
		{
			"type": "function",
			"name": "PROJECTS",
			"inputs": [],
			"outputs": [
				{
					"name": "",
					"type": "address",
					"internalType": "contract IJBProjects"
				}
			],
			"stateMutability": "view"
		},
		{
			"type": "function",
			"name": "REGISTRY",
			"inputs": [],
			"outputs": [
				{
					"name": "",
					"type": "address",
					"internalType": "contract IJBSuckerRegistry"
				}
			],
			"stateMutability": "view"
		},
		{
			"type": "function",
			"name": "REMOTE_CHAIN_ID",
			"inputs": [],
			"outputs": [
				{
					"name": "",
					"type": "uint256",
					"internalType": "uint256"
				}
			],
			"stateMutability": "view"
		},
		{
			"type": "function",
			"name": "REMOTE_CHAIN_SELECTOR",
			"inputs": [],
			"outputs": [
				{
					"name": "",
					"type": "uint64",
					"internalType": "uint64"
				}
			],
			"stateMutability": "view"
		},
		{
			"type": "function",
			"name": "TOKENS",
			"inputs": [],
			"outputs": [
				{
					"name": "",
					"type": "address",
					"internalType": "contract IJBTokens"
				}
			],
			"stateMutability": "view"
		},
		{
			"type": "function",
			"name": "amountToAddToBalanceOf",
			"inputs": [
				{
					"name": "token",
					"type": "address",
					"internalType": "address"
				}
			],
			"outputs": [
				{
					"name": "",
					"type": "uint256",
					"internalType": "uint256"
				}
			],
			"stateMutability": "view"
		},
		{
			"type": "function",
			"name": "ccipReceive",
			"inputs": [
				{
					"name": "any2EvmMessage",
					"type": "tuple",
					"internalType": "struct Client.Any2EVMMessage",
					"components": [
						{
							"name": "messageId",
							"type": "bytes32",
							"internalType": "bytes32"
						},
						{
							"name": "sourceChainSelector",
							"type": "uint64",
							"internalType": "uint64"
						},
						{
							"name": "sender",
							"type": "bytes",
							"internalType": "bytes"
						},
						{
							"name": "data",
							"type": "bytes",
							"internalType": "bytes"
						},
						{
							"name": "destTokenAmounts",
							"type": "tuple[]",
							"internalType": "struct Client.EVMTokenAmount[]",
							"components": [
								{
									"name": "token",
									"type": "address",
									"internalType": "address"
								},
								{
									"name": "amount",
									"type": "uint256",
									"internalType": "uint256"
								}
							]
						}
					]
				}
			],
			"outputs": [],
			"stateMutability": "nonpayable"
		},
		{
			"type": "function",
			"name": "claim",
			"inputs": [
				{
					"name": "claims",
					"type": "tuple[]",
					"internalType": "struct JBClaim[]",
					"components": [
						{
							"name": "token",
							"type": "address",
							"internalType": "address"
						},
						{
							"name": "leaf",
							"type": "tuple",
							"internalType": "struct JBLeaf",
							"components": [
								{
									"name": "index",
									"type": "uint256",
									"internalType": "uint256"
								},
								{
									"name": "beneficiary",
									"type": "bytes32",
									"internalType": "bytes32"
								},
								{
									"name": "projectTokenCount",
									"type": "uint256",
									"internalType": "uint256"
								},
								{
									"name": "terminalTokenAmount",
									"type": "uint256",
									"internalType": "uint256"
								},
								{
									"name": "metadata",
									"type": "bytes32",
									"internalType": "bytes32"
								}
							]
						},
						{
							"name": "proof",
							"type": "bytes32[32]",
							"internalType": "bytes32[32]"
						}
					]
				}
			],
			"outputs": [],
			"stateMutability": "nonpayable"
		},
		{
			"type": "function",
			"name": "claim",
			"inputs": [
				{
					"name": "claimData",
					"type": "tuple",
					"internalType": "struct JBClaim",
					"components": [
						{
							"name": "token",
							"type": "address",
							"internalType": "address"
						},
						{
							"name": "leaf",
							"type": "tuple",
							"internalType": "struct JBLeaf",
							"components": [
								{
									"name": "index",
									"type": "uint256",
									"internalType": "uint256"
								},
								{
									"name": "beneficiary",
									"type": "bytes32",
									"internalType": "bytes32"
								},
								{
									"name": "projectTokenCount",
									"type": "uint256",
									"internalType": "uint256"
								},
								{
									"name": "terminalTokenAmount",
									"type": "uint256",
									"internalType": "uint256"
								},
								{
									"name": "metadata",
									"type": "bytes32",
									"internalType": "bytes32"
								}
							]
						},
						{
							"name": "proof",
							"type": "bytes32[32]",
							"internalType": "bytes32[32]"
						}
					]
				}
			],
			"outputs": [],
			"stateMutability": "nonpayable"
		},
		{
			"type": "function",
			"name": "claimRetainedToRemoteFee",
			"inputs": [
				{
					"name": "beneficiary",
					"type": "address",
					"internalType": "address payable"
				}
			],
			"outputs": [],
			"stateMutability": "nonpayable"
		},
		{
			"type": "function",
			"name": "claimRetainedTransportPaymentRefund",
			"inputs": [
				{
					"name": "beneficiary",
					"type": "address",
					"internalType": "address payable"
				}
			],
			"outputs": [],
			"stateMutability": "nonpayable"
		},
		{
			"type": "function",
			"name": "deployer",
			"inputs": [],
			"outputs": [
				{
					"name": "",
					"type": "address",
					"internalType": "address"
				}
			],
			"stateMutability": "view"
		},
		{
			"type": "function",
			"name": "enableEmergencyHatchFor",
			"inputs": [
				{
					"name": "tokens",
					"type": "address[]",
					"internalType": "address[]"
				}
			],
			"outputs": [],
			"stateMutability": "nonpayable"
		},
		{
			"type": "function",
			"name": "executedLeafHashOf",
			"inputs": [
				{
					"name": "token",
					"type": "address",
					"internalType": "address"
				},
				{
					"name": "index",
					"type": "uint256",
					"internalType": "uint256"
				}
			],
			"outputs": [
				{
					"name": "",
					"type": "bytes32",
					"internalType": "bytes32"
				}
			],
			"stateMutability": "view"
		},
		{
			"type": "function",
			"name": "exitThroughEmergencyHatch",
			"inputs": [
				{
					"name": "claimData",
					"type": "tuple",
					"internalType": "struct JBClaim",
					"components": [
						{
							"name": "token",
							"type": "address",
							"internalType": "address"
						},
						{
							"name": "leaf",
							"type": "tuple",
							"internalType": "struct JBLeaf",
							"components": [
								{
									"name": "index",
									"type": "uint256",
									"internalType": "uint256"
								},
								{
									"name": "beneficiary",
									"type": "bytes32",
									"internalType": "bytes32"
								},
								{
									"name": "projectTokenCount",
									"type": "uint256",
									"internalType": "uint256"
								},
								{
									"name": "terminalTokenAmount",
									"type": "uint256",
									"internalType": "uint256"
								},
								{
									"name": "metadata",
									"type": "bytes32",
									"internalType": "bytes32"
								}
							]
						},
						{
							"name": "proof",
							"type": "bytes32[32]",
							"internalType": "bytes32[32]"
						}
					]
				}
			],
			"outputs": [],
			"stateMutability": "nonpayable"
		},
		{
			"type": "function",
			"name": "fromRemote",
			"inputs": [
				{
					"name": "root",
					"type": "tuple",
					"internalType": "struct JBMessageRoot",
					"components": [
						{
							"name": "version",
							"type": "uint8",
							"internalType": "uint8"
						},
						{
							"name": "token",
							"type": "bytes32",
							"internalType": "bytes32"
						},
						{
							"name": "amount",
							"type": "uint256",
							"internalType": "uint256"
						},
						{
							"name": "remoteRoot",
							"type": "tuple",
							"internalType": "struct JBInboxTreeRoot",
							"components": [
								{
									"name": "nonce",
									"type": "uint64",
									"internalType": "uint64"
								},
								{
									"name": "root",
									"type": "bytes32",
									"internalType": "bytes32"
								}
							]
						},
						{
							"name": "accounts",
							"type": "tuple[]",
							"internalType": "struct JBChainAccounting[]",
							"components": [
								{
									"name": "chainId",
									"type": "uint256",
									"internalType": "uint256"
								},
								{
									"name": "totalSupply",
									"type": "uint256",
									"internalType": "uint256"
								},
								{
									"name": "contexts",
									"type": "tuple[]",
									"internalType": "struct JBSourceContext[]",
									"components": [
										{
											"name": "token",
											"type": "bytes32",
											"internalType": "bytes32"
										},
										{
											"name": "decimals",
											"type": "uint8",
											"internalType": "uint8"
										},
										{
											"name": "surplus",
											"type": "uint128",
											"internalType": "uint128"
										},
										{
											"name": "balance",
											"type": "uint128",
											"internalType": "uint128"
										}
									]
								},
								{
									"name": "timestamp",
									"type": "uint256",
									"internalType": "uint256"
								}
							]
						}
					]
				}
			],
			"outputs": [],
			"stateMutability": "payable"
		},
		{
			"type": "function",
			"name": "fromRemoteAccounting",
			"inputs": [
				{
					"name": "snapshot",
					"type": "tuple",
					"internalType": "struct JBAccountingSnapshot",
					"components": [
						{
							"name": "version",
							"type": "uint8",
							"internalType": "uint8"
						},
						{
							"name": "accounts",
							"type": "tuple[]",
							"internalType": "struct JBChainAccounting[]",
							"components": [
								{
									"name": "chainId",
									"type": "uint256",
									"internalType": "uint256"
								},
								{
									"name": "totalSupply",
									"type": "uint256",
									"internalType": "uint256"
								},
								{
									"name": "contexts",
									"type": "tuple[]",
									"internalType": "struct JBSourceContext[]",
									"components": [
										{
											"name": "token",
											"type": "bytes32",
											"internalType": "bytes32"
										},
										{
											"name": "decimals",
											"type": "uint8",
											"internalType": "uint8"
										},
										{
											"name": "surplus",
											"type": "uint128",
											"internalType": "uint128"
										},
										{
											"name": "balance",
											"type": "uint128",
											"internalType": "uint128"
										}
									]
								},
								{
									"name": "timestamp",
									"type": "uint256",
									"internalType": "uint256"
								}
							]
						}
					]
				}
			],
			"outputs": [],
			"stateMutability": "nonpayable"
		},
		{
			"type": "function",
			"name": "getRouter",
			"inputs": [],
			"outputs": [
				{
					"name": "router",
					"type": "address",
					"internalType": "address"
				}
			],
			"stateMutability": "view"
		},
		{
			"type": "function",
			"name": "inboxOf",
			"inputs": [
				{
					"name": "token",
					"type": "address",
					"internalType": "address"
				}
			],
			"outputs": [
				{
					"name": "",
					"type": "tuple",
					"internalType": "struct JBInboxTreeRoot",
					"components": [
						{
							"name": "nonce",
							"type": "uint64",
							"internalType": "uint64"
						},
						{
							"name": "root",
							"type": "bytes32",
							"internalType": "bytes32"
						}
					]
				}
			],
			"stateMutability": "view"
		},
		{
			"type": "function",
			"name": "initialize",
			"inputs": [
				{
					"name": "localProjectId",
					"type": "uint256",
					"internalType": "uint256"
				},
				{
					"name": "remotePeer",
					"type": "bytes32",
					"internalType": "bytes32"
				}
			],
			"outputs": [],
			"stateMutability": "nonpayable"
		},
		{
			"type": "function",
			"name": "initialize",
			"inputs": [
				{
					"name": "initialProjectId",
					"type": "uint256",
					"internalType": "uint256"
				}
			],
			"outputs": [],
			"stateMutability": "nonpayable"
		},
		{
			"type": "function",
			"name": "isMapped",
			"inputs": [
				{
					"name": "token",
					"type": "address",
					"internalType": "address"
				}
			],
			"outputs": [
				{
					"name": "",
					"type": "bool",
					"internalType": "bool"
				}
			],
			"stateMutability": "view"
		},
		{
			"type": "function",
			"name": "isTrustedForwarder",
			"inputs": [
				{
					"name": "forwarder",
					"type": "address",
					"internalType": "address"
				}
			],
			"outputs": [
				{
					"name": "",
					"type": "bool",
					"internalType": "bool"
				}
			],
			"stateMutability": "view"
		},
		{
			"type": "function",
			"name": "mapToken",
			"inputs": [
				{
					"name": "map",
					"type": "tuple",
					"internalType": "struct JBTokenMapping",
					"components": [
						{
							"name": "localToken",
							"type": "address",
							"internalType": "address"
						},
						{
							"name": "minGas",
							"type": "uint32",
							"internalType": "uint32"
						},
						{
							"name": "remoteToken",
							"type": "bytes32",
							"internalType": "bytes32"
						}
					]
				}
			],
			"outputs": [],
			"stateMutability": "payable"
		},
		{
			"type": "function",
			"name": "mapTokens",
			"inputs": [
				{
					"name": "maps",
					"type": "tuple[]",
					"internalType": "struct JBTokenMapping[]",
					"components": [
						{
							"name": "localToken",
							"type": "address",
							"internalType": "address"
						},
						{
							"name": "minGas",
							"type": "uint32",
							"internalType": "uint32"
						},
						{
							"name": "remoteToken",
							"type": "bytes32",
							"internalType": "bytes32"
						}
					]
				}
			],
			"outputs": [],
			"stateMutability": "payable"
		},
		{
			"type": "function",
			"name": "outboxOf",
			"inputs": [
				{
					"name": "token",
					"type": "address",
					"internalType": "address"
				}
			],
			"outputs": [
				{
					"name": "",
					"type": "tuple",
					"internalType": "struct JBOutboxTree",
					"components": [
						{
							"name": "nonce",
							"type": "uint64",
							"internalType": "uint64"
						},
						{
							"name": "numberOfClaimsSent",
							"type": "uint192",
							"internalType": "uint192"
						},
						{
							"name": "balance",
							"type": "uint256",
							"internalType": "uint256"
						},
						{
							"name": "tree",
							"type": "tuple",
							"internalType": "struct MerkleLib.Tree",
							"components": [
								{
									"name": "branch",
									"type": "bytes32[32]",
									"internalType": "bytes32[32]"
								},
								{
									"name": "count",
									"type": "uint256",
									"internalType": "uint256"
								}
							]
						}
					]
				}
			],
			"stateMutability": "view"
		},
		{
			"type": "function",
			"name": "peer",
			"inputs": [],
			"outputs": [
				{
					"name": "",
					"type": "bytes32",
					"internalType": "bytes32"
				}
			],
			"stateMutability": "view"
		},
		{
			"type": "function",
			"name": "peerChainAccountsOf",
			"inputs": [],
			"outputs": [
				{
					"name": "accounts",
					"type": "tuple[]",
					"internalType": "struct JBChainAccounting[]",
					"components": [
						{
							"name": "chainId",
							"type": "uint256",
							"internalType": "uint256"
						},
						{
							"name": "totalSupply",
							"type": "uint256",
							"internalType": "uint256"
						},
						{
							"name": "contexts",
							"type": "tuple[]",
							"internalType": "struct JBSourceContext[]",
							"components": [
								{
									"name": "token",
									"type": "bytes32",
									"internalType": "bytes32"
								},
								{
									"name": "decimals",
									"type": "uint8",
									"internalType": "uint8"
								},
								{
									"name": "surplus",
									"type": "uint128",
									"internalType": "uint128"
								},
								{
									"name": "balance",
									"type": "uint128",
									"internalType": "uint128"
								}
							]
						},
						{
							"name": "timestamp",
							"type": "uint256",
							"internalType": "uint256"
						}
					]
				}
			],
			"stateMutability": "view"
		},
		{
			"type": "function",
			"name": "peerChainContextsOf",
			"inputs": [
				{
					"name": "chainId",
					"type": "uint256",
					"internalType": "uint256"
				}
			],
			"outputs": [
				{
					"name": "contexts",
					"type": "tuple[]",
					"internalType": "struct JBPeerChainContext[]",
					"components": [
						{
							"name": "currency",
							"type": "uint32",
							"internalType": "uint32"
						},
						{
							"name": "decimals",
							"type": "uint8",
							"internalType": "uint8"
						},
						{
							"name": "surplus",
							"type": "uint128",
							"internalType": "uint128"
						},
						{
							"name": "balance",
							"type": "uint128",
							"internalType": "uint128"
						}
					]
				},
				{
					"name": "snapshot",
					"type": "uint256",
					"internalType": "uint256"
				}
			],
			"stateMutability": "view"
		},
		{
			"type": "function",
			"name": "peerChainId",
			"inputs": [],
			"outputs": [
				{
					"name": "chainId",
					"type": "uint256",
					"internalType": "uint256"
				}
			],
			"stateMutability": "view"
		},
		{
			"type": "function",
			"name": "peerChainIds",
			"inputs": [
				{
					"name": "includeVirtual",
					"type": "bool",
					"internalType": "bool"
				}
			],
			"outputs": [
				{
					"name": "chainIds",
					"type": "uint256[]",
					"internalType": "uint256[]"
				}
			],
			"stateMutability": "view"
		},
		{
			"type": "function",
			"name": "peerChainTotalSupplyOf",
			"inputs": [
				{
					"name": "chainId",
					"type": "uint256",
					"internalType": "uint256"
				}
			],
			"outputs": [
				{
					"name": "",
					"type": "uint256",
					"internalType": "uint256"
				}
			],
			"stateMutability": "view"
		},
		{
			"type": "function",
			"name": "peerChainTotalSupplyValue",
			"inputs": [
				{
					"name": "chainId",
					"type": "uint256",
					"internalType": "uint256"
				}
			],
			"outputs": [
				{
					"name": "",
					"type": "tuple",
					"internalType": "struct JBPeerChainValue",
					"components": [
						{
							"name": "value",
							"type": "uint256",
							"internalType": "uint256"
						},
						{
							"name": "peerChainId",
							"type": "uint256",
							"internalType": "uint256"
						},
						{
							"name": "snapshotTimestamp",
							"type": "uint256",
							"internalType": "uint256"
						}
					]
				}
			],
			"stateMutability": "view"
		},
		{
			"type": "function",
			"name": "prepare",
			"inputs": [
				{
					"name": "projectTokenCount",
					"type": "uint256",
					"internalType": "uint256"
				},
				{
					"name": "beneficiary",
					"type": "bytes32",
					"internalType": "bytes32"
				},
				{
					"name": "minTokensReclaimed",
					"type": "uint256",
					"internalType": "uint256"
				},
				{
					"name": "token",
					"type": "address",
					"internalType": "address"
				},
				{
					"name": "metadata",
					"type": "bytes32",
					"internalType": "bytes32"
				}
			],
			"outputs": [],
			"stateMutability": "nonpayable"
		},
		{
			"type": "function",
			"name": "projectId",
			"inputs": [],
			"outputs": [
				{
					"name": "",
					"type": "uint256",
					"internalType": "uint256"
				}
			],
			"stateMutability": "view"
		},
		{
			"type": "function",
			"name": "remoteTokenFor",
			"inputs": [
				{
					"name": "token",
					"type": "address",
					"internalType": "address"
				}
			],
			"outputs": [
				{
					"name": "",
					"type": "tuple",
					"internalType": "struct JBRemoteToken",
					"components": [
						{
							"name": "enabled",
							"type": "bool",
							"internalType": "bool"
						},
						{
							"name": "emergencyHatch",
							"type": "bool",
							"internalType": "bool"
						},
						{
							"name": "minGas",
							"type": "uint32",
							"internalType": "uint32"
						},
						{
							"name": "addr",
							"type": "bytes32",
							"internalType": "bytes32"
						}
					]
				}
			],
			"stateMutability": "view"
		},
		{
			"type": "function",
			"name": "retainedToRemoteFeeBalance",
			"inputs": [],
			"outputs": [
				{
					"name": "",
					"type": "uint256",
					"internalType": "uint256"
				}
			],
			"stateMutability": "view"
		},
		{
			"type": "function",
			"name": "retainedToRemoteFeeOf",
			"inputs": [
				{
					"name": "account",
					"type": "address",
					"internalType": "address"
				}
			],
			"outputs": [
				{
					"name": "amount",
					"type": "uint256",
					"internalType": "uint256"
				}
			],
			"stateMutability": "view"
		},
		{
			"type": "function",
			"name": "retainedTransportPaymentRefundBalance",
			"inputs": [],
			"outputs": [
				{
					"name": "",
					"type": "uint256",
					"internalType": "uint256"
				}
			],
			"stateMutability": "view"
		},
		{
			"type": "function",
			"name": "retainedTransportPaymentRefundOf",
			"inputs": [
				{
					"name": "account",
					"type": "address",
					"internalType": "address"
				}
			],
			"outputs": [
				{
					"name": "amount",
					"type": "uint256",
					"internalType": "uint256"
				}
			],
			"stateMutability": "view"
		},
		{
			"type": "function",
			"name": "setDeprecation",
			"inputs": [
				{
					"name": "timestamp",
					"type": "uint40",
					"internalType": "uint40"
				}
			],
			"outputs": [],
			"stateMutability": "nonpayable"
		},
		{
			"type": "function",
			"name": "snapshotTimestampOf",
			"inputs": [
				{
					"name": "chainId",
					"type": "uint256",
					"internalType": "uint256"
				}
			],
			"outputs": [
				{
					"name": "",
					"type": "uint256",
					"internalType": "uint256"
				}
			],
			"stateMutability": "view"
		},
		{
			"type": "function",
			"name": "state",
			"inputs": [],
			"outputs": [
				{
					"name": "",
					"type": "uint8",
					"internalType": "enum JBSuckerState"
				}
			],
			"stateMutability": "view"
		},
		{
			"type": "function",
			"name": "supportsInterface",
			"inputs": [
				{
					"name": "interfaceId",
					"type": "bytes4",
					"internalType": "bytes4"
				}
			],
			"outputs": [
				{
					"name": "supported",
					"type": "bool",
					"internalType": "bool"
				}
			],
			"stateMutability": "view"
		},
		{
			"type": "function",
			"name": "syncAccountingData",
			"inputs": [],
			"outputs": [],
			"stateMutability": "payable"
		},
		{
			"type": "function",
			"name": "toRemote",
			"inputs": [
				{
					"name": "token",
					"type": "address",
					"internalType": "address"
				}
			],
			"outputs": [],
			"stateMutability": "payable"
		},
		{
			"type": "function",
			"name": "trustedForwarder",
			"inputs": [],
			"outputs": [
				{
					"name": "",
					"type": "address",
					"internalType": "address"
				}
			],
			"stateMutability": "view"
		},
		{
			"type": "event",
			"name": "AccountingDataSynced",
			"inputs": [
				{
					"name": "sourceTimestamp",
					"type": "uint256",
					"indexed": false,
					"internalType": "uint256"
				},
				{
					"name": "caller",
					"type": "address",
					"indexed": false,
					"internalType": "address"
				}
			],
			"anonymous": false
		},
		{
			"type": "event",
			"name": "ClaimFailed",
			"inputs": [
				{
					"name": "token",
					"type": "address",
					"indexed": true,
					"internalType": "address"
				},
				{
					"name": "index",
					"type": "uint256",
					"indexed": false,
					"internalType": "uint256"
				},
				{
					"name": "caller",
					"type": "address",
					"indexed": false,
					"internalType": "address"
				}
			],
			"anonymous": false
		},
		{
			"type": "event",
			"name": "Claimed",
			"inputs": [
				{
					"name": "beneficiary",
					"type": "bytes32",
					"indexed": false,
					"internalType": "bytes32"
				},
				{
					"name": "token",
					"type": "address",
					"indexed": false,
					"internalType": "address"
				},
				{
					"name": "projectTokenCount",
					"type": "uint256",
					"indexed": false,
					"internalType": "uint256"
				},
				{
					"name": "terminalTokenAmount",
					"type": "uint256",
					"indexed": false,
					"internalType": "uint256"
				},
				{
					"name": "index",
					"type": "uint256",
					"indexed": false,
					"internalType": "uint256"
				},
				{
					"name": "metadata",
					"type": "bytes32",
					"indexed": false,
					"internalType": "bytes32"
				},
				{
					"name": "caller",
					"type": "address",
					"indexed": false,
					"internalType": "address"
				}
			],
			"anonymous": false
		},
		{
			"type": "event",
			"name": "DeprecationTimeUpdated",
			"inputs": [
				{
					"name": "timestamp",
					"type": "uint40",
					"indexed": false,
					"internalType": "uint40"
				},
				{
					"name": "caller",
					"type": "address",
					"indexed": false,
					"internalType": "address"
				}
			],
			"anonymous": false
		},
		{
			"type": "event",
			"name": "EmergencyExit",
			"inputs": [
				{
					"name": "beneficiary",
					"type": "address",
					"indexed": true,
					"internalType": "address"
				},
				{
					"name": "token",
					"type": "address",
					"indexed": true,
					"internalType": "address"
				},
				{
					"name": "terminalTokenAmount",
					"type": "uint256",
					"indexed": false,
					"internalType": "uint256"
				},
				{
					"name": "projectTokenCount",
					"type": "uint256",
					"indexed": false,
					"internalType": "uint256"
				},
				{
					"name": "caller",
					"type": "address",
					"indexed": false,
					"internalType": "address"
				}
			],
			"anonymous": false
		},
		{
			"type": "event",
			"name": "EmergencyHatchOpened",
			"inputs": [
				{
					"name": "tokens",
					"type": "address[]",
					"indexed": false,
					"internalType": "address[]"
				},
				{
					"name": "caller",
					"type": "address",
					"indexed": false,
					"internalType": "address"
				}
			],
			"anonymous": false
		},
		{
			"type": "event",
			"name": "Initialized",
			"inputs": [
				{
					"name": "version",
					"type": "uint64",
					"indexed": false,
					"internalType": "uint64"
				}
			],
			"anonymous": false
		},
		{
			"type": "event",
			"name": "InsertToOutboxTree",
			"inputs": [
				{
					"name": "beneficiary",
					"type": "bytes32",
					"indexed": true,
					"internalType": "bytes32"
				},
				{
					"name": "token",
					"type": "address",
					"indexed": true,
					"internalType": "address"
				},
				{
					"name": "hashed",
					"type": "bytes32",
					"indexed": false,
					"internalType": "bytes32"
				},
				{
					"name": "index",
					"type": "uint256",
					"indexed": false,
					"internalType": "uint256"
				},
				{
					"name": "root",
					"type": "bytes32",
					"indexed": false,
					"internalType": "bytes32"
				},
				{
					"name": "projectTokenCount",
					"type": "uint256",
					"indexed": false,
					"internalType": "uint256"
				},
				{
					"name": "terminalTokenAmount",
					"type": "uint256",
					"indexed": false,
					"internalType": "uint256"
				},
				{
					"name": "metadata",
					"type": "bytes32",
					"indexed": false,
					"internalType": "bytes32"
				},
				{
					"name": "caller",
					"type": "address",
					"indexed": false,
					"internalType": "address"
				}
			],
			"anonymous": false
		},
		{
			"type": "event",
			"name": "NewInboxTreeRoot",
			"inputs": [
				{
					"name": "token",
					"type": "address",
					"indexed": true,
					"internalType": "address"
				},
				{
					"name": "nonce",
					"type": "uint64",
					"indexed": false,
					"internalType": "uint64"
				},
				{
					"name": "root",
					"type": "bytes32",
					"indexed": false,
					"internalType": "bytes32"
				},
				{
					"name": "caller",
					"type": "address",
					"indexed": false,
					"internalType": "address"
				}
			],
			"anonymous": false
		},
		{
			"type": "event",
			"name": "RetainedToRemoteFee",
			"inputs": [
				{
					"name": "account",
					"type": "address",
					"indexed": true,
					"internalType": "address"
				},
				{
					"name": "amount",
					"type": "uint256",
					"indexed": false,
					"internalType": "uint256"
				},
				{
					"name": "caller",
					"type": "address",
					"indexed": false,
					"internalType": "address"
				}
			],
			"anonymous": false
		},
		{
			"type": "event",
			"name": "RetainedToRemoteFeeClaimed",
			"inputs": [
				{
					"name": "account",
					"type": "address",
					"indexed": true,
					"internalType": "address"
				},
				{
					"name": "beneficiary",
					"type": "address",
					"indexed": true,
					"internalType": "address"
				},
				{
					"name": "amount",
					"type": "uint256",
					"indexed": false,
					"internalType": "uint256"
				},
				{
					"name": "caller",
					"type": "address",
					"indexed": false,
					"internalType": "address"
				}
			],
			"anonymous": false
		},
		{
			"type": "event",
			"name": "RetainedTransportPaymentRefund",
			"inputs": [
				{
					"name": "account",
					"type": "address",
					"indexed": true,
					"internalType": "address"
				},
				{
					"name": "amount",
					"type": "uint256",
					"indexed": false,
					"internalType": "uint256"
				},
				{
					"name": "caller",
					"type": "address",
					"indexed": false,
					"internalType": "address"
				}
			],
			"anonymous": false
		},
		{
			"type": "event",
			"name": "RetainedTransportPaymentRefundClaimed",
			"inputs": [
				{
					"name": "account",
					"type": "address",
					"indexed": true,
					"internalType": "address"
				},
				{
					"name": "beneficiary",
					"type": "address",
					"indexed": true,
					"internalType": "address"
				},
				{
					"name": "amount",
					"type": "uint256",
					"indexed": false,
					"internalType": "uint256"
				},
				{
					"name": "caller",
					"type": "address",
					"indexed": false,
					"internalType": "address"
				}
			],
			"anonymous": false
		},
		{
			"type": "event",
			"name": "RootToRemote",
			"inputs": [
				{
					"name": "root",
					"type": "bytes32",
					"indexed": true,
					"internalType": "bytes32"
				},
				{
					"name": "token",
					"type": "address",
					"indexed": true,
					"internalType": "address"
				},
				{
					"name": "index",
					"type": "uint256",
					"indexed": false,
					"internalType": "uint256"
				},
				{
					"name": "nonce",
					"type": "uint64",
					"indexed": false,
					"internalType": "uint64"
				},
				{
					"name": "caller",
					"type": "address",
					"indexed": false,
					"internalType": "address"
				}
			],
			"anonymous": false
		},
		{
			"type": "event",
			"name": "StaleRootRejected",
			"inputs": [
				{
					"name": "token",
					"type": "address",
					"indexed": true,
					"internalType": "address"
				},
				{
					"name": "receivedNonce",
					"type": "uint64",
					"indexed": false,
					"internalType": "uint64"
				},
				{
					"name": "currentNonce",
					"type": "uint64",
					"indexed": false,
					"internalType": "uint64"
				},
				{
					"name": "caller",
					"type": "address",
					"indexed": false,
					"internalType": "address"
				}
			],
			"anonymous": false
		},
		{
			"type": "event",
			"name": "TransportPaymentRefundFailed",
			"inputs": [
				{
					"name": "recipient",
					"type": "address",
					"indexed": true,
					"internalType": "address"
				},
				{
					"name": "amount",
					"type": "uint256",
					"indexed": false,
					"internalType": "uint256"
				},
				{
					"name": "caller",
					"type": "address",
					"indexed": false,
					"internalType": "address"
				}
			],
			"anonymous": false
		},
		{
			"type": "error",
			"name": "InvalidInitialization",
			"inputs": []
		},
		{
			"type": "error",
			"name": "JBCCIPSucker_InvalidRouter",
			"inputs": [
				{
					"name": "router",
					"type": "address",
					"internalType": "address"
				}
			]
		},
		{
			"type": "error",
			"name": "JBCCIPSucker_PositiveRootWithoutDelivery",
			"inputs": [
				{
					"name": "rootAmount",
					"type": "uint256",
					"internalType": "uint256"
				}
			]
		},
		{
			"type": "error",
			"name": "JBCCIPSucker_UnderDeliveredAmount",
			"inputs": [
				{
					"name": "delivered",
					"type": "uint256",
					"internalType": "uint256"
				},
				{
					"name": "rootAmount",
					"type": "uint256",
					"internalType": "uint256"
				}
			]
		},
		{
			"type": "error",
			"name": "JBCCIPSucker_UnexpectedDeliveredTokens",
			"inputs": [
				{
					"name": "count",
					"type": "uint256",
					"internalType": "uint256"
				}
			]
		},
		{
			"type": "error",
			"name": "JBCCIPSucker_UnknownMessageType",
			"inputs": [
				{
					"name": "messageType",
					"type": "uint8",
					"internalType": "uint8"
				}
			]
		},
		{
			"type": "error",
			"name": "JBCCIPSucker_WrongDeliveredToken",
			"inputs": [
				{
					"name": "delivered",
					"type": "address",
					"internalType": "address"
				},
				{
					"name": "expected",
					"type": "address",
					"internalType": "address"
				}
			]
		},
		{
			"type": "error",
			"name": "JBPermissioned_Unauthorized",
			"inputs": [
				{
					"name": "account",
					"type": "address",
					"internalType": "address"
				},
				{
					"name": "sender",
					"type": "address",
					"internalType": "address"
				},
				{
					"name": "projectId",
					"type": "uint256",
					"internalType": "uint256"
				},
				{
					"name": "permissionId",
					"type": "uint256",
					"internalType": "uint256"
				}
			]
		},
		{
			"type": "error",
			"name": "JBSucker_AccountingSyncUnsupported",
			"inputs": []
		},
		{
			"type": "error",
			"name": "JBSucker_AmountExceedsUint128",
			"inputs": [
				{
					"name": "amount",
					"type": "uint256",
					"internalType": "uint256"
				}
			]
		},
		{
			"type": "error",
			"name": "JBSucker_BelowMinGas",
			"inputs": [
				{
					"name": "minGas",
					"type": "uint256",
					"internalType": "uint256"
				},
				{
					"name": "minGasLimit",
					"type": "uint256",
					"internalType": "uint256"
				}
			]
		},
		{
			"type": "error",
			"name": "JBSucker_Deprecated",
			"inputs": [
				{
					"name": "state",
					"type": "uint8",
					"internalType": "enum JBSuckerState"
				}
			]
		},
		{
			"type": "error",
			"name": "JBSucker_DeprecationTimestampTooSoon",
			"inputs": [
				{
					"name": "givenTime",
					"type": "uint256",
					"internalType": "uint256"
				},
				{
					"name": "minimumTime",
					"type": "uint256",
					"internalType": "uint256"
				}
			]
		},
		{
			"type": "error",
			"name": "JBSucker_ExpectedMsgValue",
			"inputs": [
				{
					"name": "msgValue",
					"type": "uint256",
					"internalType": "uint256"
				}
			]
		},
		{
			"type": "error",
			"name": "JBSucker_IndexOutOfRange",
			"inputs": [
				{
					"name": "index",
					"type": "uint256",
					"internalType": "uint256"
				}
			]
		},
		{
			"type": "error",
			"name": "JBSucker_InsufficientBalance",
			"inputs": [
				{
					"name": "amount",
					"type": "uint256",
					"internalType": "uint256"
				},
				{
					"name": "balance",
					"type": "uint256",
					"internalType": "uint256"
				}
			]
		},
		{
			"type": "error",
			"name": "JBSucker_InsufficientMsgValue",
			"inputs": [
				{
					"name": "received",
					"type": "uint256",
					"internalType": "uint256"
				},
				{
					"name": "expected",
					"type": "uint256",
					"internalType": "uint256"
				}
			]
		},
		{
			"type": "error",
			"name": "JBSucker_InvalidMessageVersion",
			"inputs": [
				{
					"name": "received",
					"type": "uint8",
					"internalType": "uint8"
				},
				{
					"name": "expected",
					"type": "uint8",
					"internalType": "uint8"
				}
			]
		},
		{
			"type": "error",
			"name": "JBSucker_InvalidNativeRemoteAddress",
			"inputs": [
				{
					"name": "remoteToken",
					"type": "bytes32",
					"internalType": "bytes32"
				}
			]
		},
		{
			"type": "error",
			"name": "JBSucker_InvalidProof",
			"inputs": [
				{
					"name": "root",
					"type": "bytes32",
					"internalType": "bytes32"
				},
				{
					"name": "inboxRoot",
					"type": "bytes32",
					"internalType": "bytes32"
				}
			]
		},
		{
			"type": "error",
			"name": "JBSucker_LeafAlreadyExecuted",
			"inputs": [
				{
					"name": "token",
					"type": "address",
					"internalType": "address"
				},
				{
					"name": "index",
					"type": "uint256",
					"internalType": "uint256"
				}
			]
		},
		{
			"type": "error",
			"name": "JBSucker_NoRetainedToRemoteFee",
			"inputs": [
				{
					"name": "account",
					"type": "address",
					"internalType": "address"
				}
			]
		},
		{
			"type": "error",
			"name": "JBSucker_NoRetainedTransportPaymentRefund",
			"inputs": [
				{
					"name": "account",
					"type": "address",
					"internalType": "address"
				}
			]
		},
		{
			"type": "error",
			"name": "JBSucker_NoTerminalForToken",
			"inputs": [
				{
					"name": "projectId",
					"type": "uint256",
					"internalType": "uint256"
				},
				{
					"name": "token",
					"type": "address",
					"internalType": "address"
				}
			]
		},
		{
			"type": "error",
			"name": "JBSucker_NotPeer",
			"inputs": [
				{
					"name": "caller",
					"type": "bytes32",
					"internalType": "bytes32"
				}
			]
		},
		{
			"type": "error",
			"name": "JBSucker_NothingToSend",
			"inputs": [
				{
					"name": "token",
					"type": "address",
					"internalType": "address"
				},
				{
					"name": "outboxBalance",
					"type": "uint256",
					"internalType": "uint256"
				},
				{
					"name": "treeCount",
					"type": "uint256",
					"internalType": "uint256"
				},
				{
					"name": "numberOfClaimsSent",
					"type": "uint256",
					"internalType": "uint256"
				}
			]
		},
		{
			"type": "error",
			"name": "JBSucker_RefundFailed",
			"inputs": [
				{
					"name": "beneficiary",
					"type": "address",
					"internalType": "address"
				},
				{
					"name": "amount",
					"type": "uint256",
					"internalType": "uint256"
				}
			]
		},
		{
			"type": "error",
			"name": "JBSucker_RemoteTokenAlreadyMapped",
			"inputs": [
				{
					"name": "remoteToken",
					"type": "bytes32",
					"internalType": "bytes32"
				},
				{
					"name": "localToken",
					"type": "address",
					"internalType": "address"
				}
			]
		},
		{
			"type": "error",
			"name": "JBSucker_TokenAlreadyMapped",
			"inputs": [
				{
					"name": "localToken",
					"type": "address",
					"internalType": "address"
				},
				{
					"name": "mappedTo",
					"type": "bytes32",
					"internalType": "bytes32"
				}
			]
		},
		{
			"type": "error",
			"name": "JBSucker_TokenHasInvalidEmergencyHatchState",
			"inputs": [
				{
					"name": "token",
					"type": "address",
					"internalType": "address"
				}
			]
		},
		{
			"type": "error",
			"name": "JBSucker_TokenNotMapped",
			"inputs": [
				{
					"name": "token",
					"type": "address",
					"internalType": "address"
				}
			]
		},
		{
			"type": "error",
			"name": "JBSucker_UnexpectedMsgValue",
			"inputs": [
				{
					"name": "value",
					"type": "uint256",
					"internalType": "uint256"
				}
			]
		},
		{
			"type": "error",
			"name": "JBSucker_UnexpectedTokenBalance",
			"inputs": [
				{
					"name": "token",
					"type": "address",
					"internalType": "address"
				},
				{
					"name": "expectedBalance",
					"type": "uint256",
					"internalType": "uint256"
				},
				{
					"name": "actualBalance",
					"type": "uint256",
					"internalType": "uint256"
				}
			]
		},
		{
			"type": "error",
			"name": "JBSucker_ZeroBeneficiary",
			"inputs": [
				{
					"name": "beneficiary",
					"type": "bytes32",
					"internalType": "bytes32"
				}
			]
		},
		{
			"type": "error",
			"name": "JBSucker_ZeroERC20Token",
			"inputs": [
				{
					"name": "projectId",
					"type": "uint256",
					"internalType": "uint256"
				}
			]
		},
		{
			"type": "error",
			"name": "JBSucker_ZeroProjectTokenCount",
			"inputs": []
		},
		{
			"type": "error",
			"name": "MerkleLib_InsertTreeIsFull",
			"inputs": [
				{
					"name": "size",
					"type": "uint256",
					"internalType": "uint256"
				},
				{
					"name": "maxLeaves",
					"type": "uint256",
					"internalType": "uint256"
				}
			]
		},
		{
			"type": "error",
			"name": "NotInitializing",
			"inputs": []
		},
		{
			"type": "error",
			"name": "SafeERC20FailedOperation",
			"inputs": [
				{
					"name": "token",
					"type": "address",
					"internalType": "address"
				}
			]
		}
	],
	"args": [
		"0x3955Fec11FE15f0BE4DFA2b0153FeEf55D55E1EE",
		"0x5AfF29060E023e6FB87BE5596652B33c65Af535B",
		"0xf92AC1aB5A00033E35a3975739124F61928C36B0",
		"0x1f80d8f057eE36b4C2656D107E4e4558B71bA7D9",
		"1",
		"0x7903a854aE91eAf635430D120a1a434085cEf297",
		"0x3bA60b60933916a7C87D0860DcEE62a0CE34E3e2"
	],
	"solcInputHash": "02c61ed241a5148112a5af136a58bbd9",
	"bytecode": "0x6101c080604052346103365760e08161635d80380380916100208285610469565b8339810103126103365780516001600160a01b03811691908290036103365760208101516001600160a01b0381169190828103610336576040820151906001600160a01b0382168203610336576060830151936001600160a01b038516850361033657608084015160a0850151946001600160a01b03861686036103365760c00151926001600160a01b03841684036103365760049460209460805260a05260c05260e0526040519283809263293c499960e01b82525afa908115610342575f91610427575b506101005261012052610140525f51602061633d5f395f51905f525460ff8160401c16610418576002600160401b03196001600160401b038216016103c2575b506040516363a49dc360e01b8152602081600481855afa908115610342575f91610390575b506101805260405163d861618760e01b8152602081600481855afa908115610342575f9161034d575b506101a0526040516303788a6160e21b815290602090829060049082905afa908115610342575f916102fc575b506101608190526001600160a01b031680156102ea57604051615e9c90816104a18239608051818181611273015281816118090152614e37015260a051818181612a7e015281816133a7015281816141f20152614daa015260c051818181610c4401528181611e5e0152818161243701528181614608015281816146a9015281816149b90152615322015260e0518181816117120152612153015261010051818181610d6401526140c6015261012051818181610651015281816106ff015281816121020152818161245f015261534a015261014051818181610b580152611f2e015261016051818181611aaf015281816120510152818161561c0152615bc4015261018051818181610750015281816117d10152818161248e01528181613ae201528181613c54015261537901526101a05181818161061801528181611e2001526155fb0152f35b636e1f4ccd60e01b5f5260045260245ffd5b90506020813d60201161033a575b8161031760209383610469565b8101031261033657516001600160a01b0381168103610336575f6101a1565b5f80fd5b3d915061030a565b6040513d5f823e3d90fd5b90506020813d602011610388575b8161036860209383610469565b8101031261033657516001600160401b0381168103610336576004610174565b3d915061035b565b90506020813d6020116103ba575b816103ab60209383610469565b8101031261033657515f61014b565b3d915061039e565b6001600160401b0319166001600160401b039081175f51602061633d5f395f51905f52556040519081527fc7f505b2f371ae2175ee4913f4499e1f2633a7b5936321eed1cdaeb6115181d290602090a15f610126565b63f92ee8a960e01b5f5260045ffd5b90506020813d602011610461575b8161044260209383610469565b8101031261033657516001600160a01b0381168103610336575f6100e6565b3d9150610435565b601f909101601f19168101906001600160401b0382119082101761048c57604052565b634e487b7160e01b5f52604160045260245ffdfe6080604052600436101561001a575b3615610018575f80fd5b005b5f3560e01c8063014dc2a61461037057806301ffc9a71461036b57806303da64a814610366578063056965111461036157806306433b1b1461035c5780630ce92d4b1461035757806311cda415146103525780631d831d5c1461034d57806322c9cc0f14610348578063293c4999146103435780633a5de07d1461033e5780633bef5ad5146103395780633f827a5a146103345780633fafa1271461032f5780634035d3b11461032a5780634ca0e69b146103255780634e415ad6146103205780634f0677e11461031b5780635417694914610316578063572b6c05146103115780635de4e83a1461030c5780636284386a14610307578063663d00f6146103025780636d9e384b146102fd5780636f4115a9146102f857806373cbdfc6146102f357806375451559146102ee5780637d1d0c5b146102a85780637da0a877146102e95780637de6fba2146102e4578063802c8fa0146102df57806385572ffb146102da57806388bc2ef3146102d557806392ee1ea7146102d05780639e6d7d43146102cb578063af629bbb146102c6578063b0f479a114610271578063b71c1179146102c1578063bf557aee146102bc578063c19d93fb146102b7578063c1ca1ec7146102b2578063cbb2adce146102ad578063cdfceeba146102a8578063cf26bafb146102a3578063d5f394881461029e578063d935222f14610299578063eac1f29e14610294578063f13465431461028f578063f3aefd7b1461028a578063f434c91414610285578063f925558c14610280578063fc072f231461027b578063fe4b84df146102765763fe5f42ca0361000e575b61203c565b612baf565b612ae8565b612aad565b612a69565b612966565b6128e5565b6128a0565b6127c3565b61279c565b61277f565b6117ba565b61259c565b6123f2565b6123c7565b612369565b612080565b611ed1565b611eaa565b611e8d565b611e49565b611a79565b61196e565b611838565b6117f4565b61175f565b611735565b6116fb565b611679565b611410565b611333565b6112a7565b61124f565b61112d565b611110565b610ff4565b610e6c565b610e23565b610df5565b610dda565b610db0565b610d93565b610d4f565b610c01565b610b43565b610b21565b610680565b61063c565b6105f9565b610593565b6104e6565b60203660031901126104e2576004356001600160401b0381116104e257366023820112156104e2578060040135906001600160401b0382116104e257602481019060243691606085020101116104e2575f5f5b83811061045557508061044457505f91905b5f925f925b80841061041657848034116103eb57005b610018906104106104096103fd614e0c565b6001600160a01b031690565b9134612cea565b90613f34565b9091929361043a6001916104348561042f89878a612c62565b613bd4565b90612ccf565b94019291906103da565b61044e9034612ca3565b91906103d5565b61048461046b610466838787612c62565b612c77565b6001600160a01b03165f908152600e6020526040902090565b6040610491838787612c62565b01351590816104bd575b506104a9575b6001016103c3565b906104b5600191612c95565b9190506104a1565b905060226104cc825460401c90565b9101546001600160c01b0390911614155f61049b565b5f80fd5b346104e25760203660031901126104e25760043563ffffffff60e01b81168091036104e257610534906385572ffb60e01b8114908115610538575b5060405190151581529081906020820190565b0390f35b6314a66dd360e21b811491508115610582575b8115610571575b8115610560575b505f610521565b6301ffc9a760e01b1490505f610559565b633d0d324560e21b81149150610552565b6332af4eb960e21b8114915061054b565b346104e25760203660031901126104e2576004356001600160401b0381116104e257366023820112156104e25780600401356001600160401b0381116104e2573660246104c08302840101116104e25760246100189201612e16565b5f9103126104e257565b346104e2575f3660031901126104e25760206040516001600160401b037f0000000000000000000000000000000000000000000000000000000000000000168152f35b346104e2575f3660031901126104e2576040517f00000000000000000000000000000000000000000000000000000000000000006001600160a01b03168152602090f35b60603660031901126104e2575f6106976004612c77565b6001600160a01b0381165f908152600f602052604090206044359291906106c290613415565b613415565b906106d06020830151151590565b610b06576106de6004614cda565b60115461072b6106ed826140a9565b6106f5614e0c565b6001600160a01b037f00000000000000000000000000000000000000000000000000000000000000008116949116841491614d1f565b803b156104e2576040516303827e8d60e01b81526001600160a01b03831660048201527f0000000000000000000000000000000000000000000000000000000000000000602482015260448101869052905f90829060649082905afa8015610b0157610ae7575b50606082018051858115159182610adc575b505080610ad3575b80610ab0575b610a8f5784159485159384610a26575b86806109d5575b61098d575b509061085092916108a395968580610983575b80610978575b80610941575b610916575b1561090f5750515b806108d5575b61083261080d6024613bca565b61081f610818612f04565b9615158752565b5f602087015263ffffffff166040860152565b60608401526001600160a01b03165f908152600f6020526040902090565b815181546020840151604085015165ffffffffffff1990921660ff931515939093169290921791151560081b61ff00169190911760109190911b65ffffffff000016178155606090910151600190910155565b8034116108ac57005b6001600160a01b036108bc614e0c565b169034033481116108d05761001891613f34565b612c81565b61090a826108eb835f52600d60205260405f2090565b80546001600160a01b0319166001600160a01b03909216919091179055565b610800565b90506107fa565b61093c61092c84515f52600d60205260405f2090565b80546001600160a01b0319169055565b6107f2565b5061096561095884515f52600d60205260405f2090565b546001600160a01b031690565b6001600160a01b038581169116146107ed565b5081835114156107e7565b50825115156107e1565b6001600160a01b0384165f908152600f602052604090206108a39650610850949392916109ca916109c3905b805460ff19169055565b8434614780565b3495509091926107ce565b506001600160a01b0384165f908152600e602052604090206109f9905b5460401c90565b6001600160a01b0385165f908152600e60205260409020602201546001600160c01b0390911614156107c9565b610a3b610958835f52600d60205260405f2090565b6001600160a01b0381168015159081610a7b575b50610a5a57506107c2565b63d6a305d960e01b5f5260048390526001600160a01b031660245260445b5ffd5b6001600160a01b038716141590505f610a4f565b5163aef430a360e01b5f526001600160a01b0390911660045260245260445ffd5b506001600160a01b0382165f908152600e602052604090206022015415156107b2565b508415156107ac565b14159050855f6107a4565b80610af55f610afb93612d8d565b806105ef565b5f610792565b612e0b565b6304bba81f60e41b5f526001600160a01b031660045260245ffd5b346104e2575f3660031901126104e2576020610b3b612ef7565b604051908152f35b346104e2575f3660031901126104e2576040517f00000000000000000000000000000000000000000000000000000000000000006001600160a01b03168152602090f35b92919060408401906040855280518092526020606086019101915f5b818110610bb557505060209150930152565b9091602060806001926001600160801b036060885163ffffffff815116845260ff8682015116868501528260408201511660408501520151166060820152019401910192919092610ba3565b346104e25760203660031901126104e25760043560115490805f52601560205260405f2091604051928391633a37eccb60e01b8352606483019060018060a01b037f0000000000000000000000000000000000000000000000000000000000000000166004850152602484015260606044840152815480915260848301915f5260205f20905f5b818110610d095750505090805f920381730b2b545a4e2fd65d29f2417f1b26698d71769a8f5af4918215610b01575f92610ce1575b50610cd0905f52600760205260405f2090565b549061053460405192839283610b87565b610cd0919250610d02903d805f833e610cfa8183612d8d565b810190612f56565b9190610cbd565b8254845260018084015460ff8116602087015260081c6001600160801b039081166040870152600285015416606086015287955060809094019360039093019201610c88565b346104e2575f3660031901126104e2576040517f00000000000000000000000000000000000000000000000000000000000000006001600160a01b03168152602090f35b346104e2575f3660031901126104e257602060405162030d408152f35b346104e25760203660031901126104e2576004355f526002602052602060405f2054604051908152f35b346104e2575f3660031901126104e257602060405160018152f35b346104e2575f3660031901126104e2576020601154604051908152f35b6001600160a01b038116036104e257565b346104e25760403660031901126104e257600435610e4081610e12565b6024359060018060a01b03165f52600160205260405f20905f52602052602060405f2054604051908152f35b346104e25760203660031901126104e2576004356001600160401b0381116104e2578060040190604060031982360301126104e257303303610ef857600160ff610eb58461302b565b1603610ed257610018916024610ecc920190613035565b90613f90565b610a78610ede8361302b565b63e667c12560e01b5f5260ff166004526001602452604490565b610a78610f04336103fd565b63f957028d60e01b5f52600452602490565b602081016020825282518091526040820191602060408360051b8301019401925f915b838310610f4857505050505090565b9091929394603f1982820301835285519060808101918051825260208101516020830152604081015192608060408401528351809152602060a084019401905f905b808210610fb0575050506060908101519101529460209081019493600101920190610f39565b909194602060806001926001600160801b0360608a518051845260ff8682015116868501528260408201511660408501520151166060820152019601920190610f8a565b346104e2575f3660031901126104e25760145461101081612f15565b9061101e6040519283612d8d565b808252601f1961102d82612f15565b015f5b8181106110e05750505f5b81811061105057604051806105348582610f16565b8061106961105f60019361306a565b90549060031b1c90565b61107b815f52600260205260405f2090565b546110ba611091835f52601560205260405f2090565b6110a3845f52600760205260405f2090565b54926110ad612f04565b9485526020850152613082565b604083015260608201526110ce828661311c565b526110d9818561311c565b500161103b565b6020906040516110ef81612d1c565b5f81525f83820152606060408201525f606082015282828701015201611030565b346104e2575f3660031901126104e2576020600454604051908152f35b346104e25760403660031901126104e2575f516020615e705f395f51905f52546004356024356001600160401b0361117d604085901c60ff1615611170565b1590565b946001600160401b031690565b1680159081611247575b600114908161123d575b159081611234575b50611225576111b491836111ab613130565b61121857614041565b6111ba57005b6111e460ff60401b195f516020615e705f395f51905f5254165f516020615e705f395f51905f5255565b604051600181527fc7f505b2f371ae2175ee4913f4499e1f2633a7b5936321eed1cdaeb6115181d29080602081015b0390a1005b61122061315d565b614041565b63f92ee8a960e01b5f5260045ffd5b9050155f611199565b303b159150611191565b849150611187565b346104e25760203660031901126104e257602060043561126e81610e12565b6040517f00000000000000000000000000000000000000000000000000000000000000006001600160a01b039081169216919091148152f35b346104e25760203660031901126104e2576105346004355f604080516112cc81612d3c565b8281528260208201520152805f52600260205260405f205490805f52600760205260405f2054906040519261130084612d3c565b83526020830152604082015260405191829182919091604080606083019480518452602081015160208501520151910152565b346104e25760203660031901126104e25760043564ffffffffff8116908181036104e25761135f614057565b61137360115461136e816140a9565b614167565b6212750042018042116108d05782151580611406575b6113e857506113b87f455efa76af2a8686dc0dd3041bda89ece5ba4691277d525e2161003bbca8b24592600855565b6113c0614e0c565b6040805164ffffffffff90931683526001600160a01b03909116602083015281908101611213565b630111a46b60e21b5f5264ffffffffff90911660045260245260445ffd5b5080831115611389565b60203660031901126104e2576004356001600160401b0381116104e257806004019060c060031982360301126104e257611449306103fd565b339081036116675750600160ff61145f8461302b565b1603610ed25760248101356001600160a01b03165f818152600a6020526040902061001893610ecc93909260a492606483019061149b8261319b565b81546001600160401b0390811691168110156115ef5750611539826001926115036114e67fc69d3412489554fb7820c4c2784cb644b6c79bfc117444b93977d3d33a9b8eac9661319b565b825467ffffffffffffffff19166001600160401b03909116178255565b608487013593849101557f27ae5ba08d7291c96c8cbddcc148bf48a6d68c7974b94356f53754ef6171d75783036115885761319b565b9261157d611545614e0c565b604080516001600160401b03909716875260208701949094526001600160a01b03908116938601939093529116929081906060820190565b0390a25b0190613035565b6115ea836115e46115bb6115b56115af8a60018060a01b03165f52600b60205260405f2090565b54612cc1565b60031690565b6001600160a01b0389165f908152600b60209081526040808320849055600c90915290206131a5565b906131b4565b61319b565b905061161b7f2eb8abf720d2b9cf9e357f7a24a2bee502a7bdba38de0de230e10c33dafbd3eb9261319b565b9261165f611627614e0c565b604080516001600160401b0397881681529490961660208501526001600160a01b039081169584019590955293169281906060820190565b0390a2611581565b610a78906001600160a01b0316610f04565b346104e25760203660031901126104e25760043561169681610e12565b61169e6131d1565b5060018060a01b03165f52600a60205260405f206001604051916116c183612d57565b6001600160401b038154168352015460208201526040518091610534826040810192602080916001600160401b0381511684520151910152565b346104e2575f3660031901126104e25760206040517f00000000000000000000000000000000000000000000000000000000000000008152f35b346104e25760203660031901126104e2576004355f526007602052602060405f2054604051908152f35b346104e25760203660031901126104e2576004356001600160401b0381116104e257366023820112156104e25780600401356001600160401b0381116104e2573660248260051b840101116104e25760246100189201613253565b346104e2575f3660031901126104e25760206040517f00000000000000000000000000000000000000000000000000000000000000008152f35b346104e2575f3660031901126104e2576040517f00000000000000000000000000000000000000000000000000000000000000006001600160a01b03168152602090f35b346104e25760203660031901126104e25760043561185581610e12565b5f606060405161186481612d1c565b828152826020820152826040820152015260018060a01b03165f52600f60205261053460405f2060016040519161189a83612d1c565b63ffffffff815460ff81161515855260ff8160081c161515602086015260101c1660408401520154606082015260405191829182919091606080608083019480511515845260208101511515602085015263ffffffff60408201511660408501520151910152565b81516001600160401b031681526020808301516001600160c01b031690820152604080830151908201526060918201518051610480830194935f9084015b60208210611958575050506020610460910151910152565b6020806001928551815201930191019091611940565b346104e25760203660031901126104e25760043561198b81610e12565b6040519061199882612d1c565b5f82525f60208301525f60408301526040516119b381612d57565b6060610400936040516119c68682612d8d565b8536823783525f6020840152015260018060a01b03165f52600e60205260405f2090604051906119f582612d1c565b82546001600160401b038116835260401c60208301526001830154604083015260405190611a2282612d57565b60405190600285015f835b60208210611a63575050509381611a4961053496602294612d8d565b835201546020820152606082015260405191829182611902565b6001602081928554815201930191019091611a2d565b346104e25760203660031901126104e2576004356001600160401b0381116104e2578060040160a060031983360301126104e2577f00000000000000000000000000000000000000000000000000000000000000006001600160a01b03811633819003610ef857611afb6103fd611af3604487018661346b565b81019061294e565b611b096103fd6103fd612ef7565b6001600160a01b03821614801590611e08575b611df25750611b39611b31606486018561346b565b8101906134b8565b9060ff811680611d80575050611b5a8160208060849451830101910161382f565b940190611b67828561352b565b905060018111611d6e57611c635750604084015180611c4e57505b61eeee602085015114611bd9575b505050303b156104e2575f611bb9916040518093819263331e807b60e11b83526004830161395d565b038183305af18015610b0157611bcb57005b80610af55f61001893612d8d565b611bf89073d331f229eeeeb32e54b85fe4a0997627913fb9a59361352b565b9092803b156104e257611c24935f9360405195869485938493631446f65760e21b8552600485016138fb565b03915af48015610b0157611c3a575b8080611b90565b80610af55f611c4893612d8d565b5f611c33565b60016272c62f60e11b03195f5260045260245ffd5b611c76611c70838661352b565b906138dd565b90602086015161eeee81145f14611d5e575060206004916040519283809263e861e90760e01b82525afa908115610b01575f91611d2f575b506001600160a01b03165b611cc282612c77565b6001600160a01b03828116911603611d02575060200135604085015190818110611ced575050611b82565b635231144f60e11b5f5260045260245260445ffd5b611d0e610a7892612c77565b6346f21d7f60e01b5f526001600160a01b0390811660045216602452604490565b611d51915060203d602011611d57575b611d498183612d8d565b8101906138e6565b5f611cae565b503d611d3f565b6001600160a01b03169050611cb9565b6330b6751d60e01b5f5260045260245ffd5b919593509150600103611ddd5750906084611d9c92019061352b565b809150611d6e575080602080611db7935183010191016136cf565b303b156104e2575f611bb99160405180938192634ca0e69b60e01b83526004830161380b565b638664a67360e01b5f5260ff1660045260245ffd5b610a7890610f04906001600160a01b03166103fd565b50611e156024860161319b565b6001600160401b03807f00000000000000000000000000000000000000000000000000000000000000001691161415611b1c565b346104e2575f3660031901126104e2576040517f00000000000000000000000000000000000000000000000000000000000000006001600160a01b03168152602090f35b346104e2575f3660031901126104e2576020604051620493e08152f35b346104e25760203660031901126104e2576020610b3b600435611ecc81610e12565b6139bb565b346104e25760a03660031901126104e257606435604435602435600435611ef784610e12565b60843592811561202d5782156120195760115460405163ea78803f60e01b8152600481018290526020816024816001600160a01b037f0000000000000000000000000000000000000000000000000000000000000000165afa908115610b01575f91611ffa575b506001600160a01b0316908115611fe857506001600160a01b0386165f908152600f60205260409020611f979061116c905b5460ff1690565b611fcc576100189591611fbf84611fc693611fb0614057565b611fb8614e0c565b30916142bd565b82846143d2565b916144aa565b63027edf0360e11b5f526001600160a01b03861660045260245ffd5b6309794d0160e11b5f5260045260245ffd5b612013915060203d602011611d5757611d498183612d8d565b5f611f5e565b63b2fe07f160e01b5f52600483905260245ffd5b632bcf4c5760e21b5f5260045ffd5b346104e2575f3660031901126104e2576040517f00000000000000000000000000000000000000000000000000000000000000006001600160a01b03168152602090f35b60203660031901126104e25760043561209881610e12565b6001600160a01b0381165f908152600f602052604090206120b890613415565b602081015161234d576001600160a01b0382165f908152600e60205260409020600181015490811580612327575b6122ca575050604051634211591560e01b8152916020836004817f00000000000000000000000000000000000000000000000000000000000000006001600160a01b03165afa928315610b01575f936122a9575b5082341061229157826121506100189434612cea565b907f000000000000000000000000000000000000000000000000000000000000000061217b816145e3565b5f91906001600160a01b031680151580612288575b6121c9575b505015806121c0575b6121a9575b50614780565b6121ba906121b5614e0c565b6146e4565b5f6121a3565b5080151561219e565b61223b9160209185806121da614e0c565b936040519687958694859363fef4325760e01b855260048501916101209391835261eeee6020840152604083015260018060a01b031660608201525f608082015260e060a08201525f60e082015261010060c08201525f6101008201520190565b03925af1908161225b575b50612253575b5f80612195565b50600161224c565b61227c9060203d602011612281575b6122748183612d8d565b810190613a29565b612246565b503d61226a565b50831515612190565b630ee99a4760e01b5f5234600452602483905260445ffd5b6122c391935060203d602011612281576122748183612d8d565b915f61213a565b612323816122df602287940154915460401c90565b60405163096c1e2160e21b81526001600160a01b039094166004850152602484019490945260448301526001600160c01b0390921660648201529081906084820190565b0390fd5b50602281015461234761233b835460401c90565b6001600160c01b031690565b146120e6565b6304bba81f60e41b5f526001600160a01b03821660045260245ffd5b346104e25760203660031901126104e25760043561238681610e12565b60018060a01b03165f52600f6020526020600160405f2001541515604051908152f35b600411156123b357565b634e487b7160e01b5f52602160045260245ffd5b346104e2575f3660031901126104e2576123df613a38565b60405160048210156123b3576020918152f35b5f3660031901126104e257612405614057565b6124ce61241d600160125401806012554260801b1790565b60115460405163f1d0f27760e01b81526001600160a01b037f0000000000000000000000000000000000000000000000000000000000000000811660048301527f000000000000000000000000000000000000000000000000000000000000000016602482015260448101919091527f000000000000000000000000000000000000000000000000000000000000000060648201526001608482015260a48101829052915f908390819060c4820190565b0381730b2b545a4e2fd65d29f2417f1b26698d71769a8f5af4908115610b0157610018925f92612544575b507f77bd1556265e71d247f11bb5886efda7fd5e5b21e6a4d2c871e8e6b49ac92f3d90612524614e0c565b604080519283526001600160a01b0391909116602083015290a134614911565b7f77bd1556265e71d247f11bb5886efda7fd5e5b21e6a4d2c871e8e6b49ac92f3d919250612583903d805f833e61257b8183612d8d565b8101906136cf565b91906124f9565b6104c09060031901126104e257600490565b346104e2576125aa3661258a565b80359060608101356125bb83610e12565b608082013560408301359260a0810135602082013560c0830164010000000082101561276c576001600160a01b0388165f908152600960209081526040808320600886901c8452909152902054600160ff84161b1661274b57918661273e836126ea86828d6126e56100189f9a838f8f6127469f9e8d917fa8d6760b4e1a89f513fc87990f66d051c419d735fb8191104014e0529d9ae2d39f936126938f93956126786126b19760018060a01b03165f52600960205260405f2090565b8160081c5f52602052600160ff60405f2092161b8154179055565b91608093916040519384526020840152604083015260608201522090565b84816126df846126d2839960018060a01b03165f52600160205260405f2090565b905f5260205260405f2090565b55615749565b61583b565b6126f386612c77565b936126fc614e0c565b604080519586526001600160a01b03968716602087015285018b9052606085018a9052608085019290925260a084015290921660c082015290819060e0820190565b0390a1612c77565b614985565b632939af3b60e21b5f526001600160a01b038816600452602482905260445ffd5b506309f6605160e41b5f5260045260245ffd5b346104e2575f3660031901126104e2576020600354604051908152f35b346104e2575f3660031901126104e2575f546040516001600160a01b039091168152602090f35b346104e2576100186127d43661258a565b60608101356127e282612c77565b9161274660808201359161280d60408201359560a0830135602084013590888760c08701948a614ac0565b600161281b61046b83612c77565b01612827848254612cea565b90556001600160a01b03851661283c82612c77565b7fe33107c4043e574d8a4da32dac235e219f8f34a0e45e473ea6643a6145f25285612898612868614e0c565b60408051898152602081018b90526001600160a01b03928316918101919091529381169416929081906060820190565b0390a3612c77565b346104e25760203660031901126104e2576004356128bd81610e12565b60018060a01b03165f526006602052602060405f2054604051908152f35b801515036104e257565b346104e25760203660031901126104e25761290a600435612905816128db565b613adf565b6040518091602082016020835281518091526020604084019201905f5b818110612935575050500390f35b8251845285945060209384019390920191600101612927565b908160209103126104e2573561296381610e12565b90565b346104e25760203660031901126104e25760043561298381610e12565b6001600160a01b038116908115612a565761299c614e0c565b6001600160a01b0381165f81815260066020526040902054909290918215612a3b576001600160a01b03165f9081526006602052604081207ffbcfe54e4aa35e7772f25a5f52fedccde889e4fc5031ad9826b9bf6b890baa599392612a1792849255612a12612a0d83600454612cea565b600455565b613f34565b612a1f614e0c565b604080519283526001600160a01b0391909116602083015290a3005b631733ad2160e21b5f526001600160a01b031660045260245ffd5b63b2fe07f160e01b5f525f60045260245ffd5b346104e2575f3660031901126104e2576040517f00000000000000000000000000000000000000000000000000000000000000006001600160a01b03168152602090f35b346104e25760203660031901126104e257600435612aca81610e12565b60018060a01b03165f526005602052602060405f2054604051908152f35b346104e25760203660031901126104e257600435612b0581610e12565b6001600160a01b038116908115612a5657612b1e614e0c565b6001600160a01b0381165f81815260056020526040902054909290918215612b94576001600160a01b03165f9081526005602052604081207f1e70ff8443e61b2a2555b5ad56645461a75dd29591b5c4a6281f70a6d395db459392612a1792849255612a12612b8f83600354612cea565b600355565b63578a51dd60e11b5f526001600160a01b031660045260245ffd5b346104e25760203660031901126104e2575f516020615e705f395f51905f52546004356001600160401b03612bf3604084901c60ff1615936001600160401b031690565b1680159081612c46575b6001149081612c3c575b159081612c33575b50611225576111b49082612c21613130565b1561401157612c2e61315d565b614011565b9050155f612c0f565b303b159150612c07565b839150612bfd565b634e487b7160e01b5f52603260045260245ffd5b9190811015612c72576060020190565b612c4e565b3561296381610e12565b634e487b7160e01b5f52601160045260245ffd5b5f1981146108d05760010190565b8115612cad570490565b634e487b7160e01b5f52601260045260245ffd5b90600182018092116108d057565b919082018092116108d057565b5f198101919082116108d057565b919082039182116108d057565b9190811015612c72576104c0020190565b634e487b7160e01b5f52604160045260245ffd5b608081019081106001600160401b03821117612d3757604052565b612d08565b606081019081106001600160401b03821117612d3757604052565b604081019081106001600160401b03821117612d3757604052565b60a081019081106001600160401b03821117612d3757604052565b90601f801991011681019081106001600160401b03821117612d3757604052565b6104009092919260c0806104c08301958035612dc981610e12565b60018060a01b031684526020810135602085015260408101356040850152606081013560608501526080810135608085015260a081013560a085015201910137565b6040513d5f823e3d90fd5b5f5b828110612e2457505050565b612e2f818484612cf7565b90303b156104e257612e585f600193604051809381926365d956e760e11b835260048301612dae565b038183305af19081612ee3575b50612ede57612e78610466828686612cf7565b7fc1054f794d197971822697afa7ff4777cac6fb7a512e4bfec63aebaab98187b66020612ea6848888612cf7565b013591612eb1614e0c565b604080519485526001600160a01b0391909116602085015260a086901b8690039190911692a25b01612e18565b612ed8565b80610af55f612ef193612d8d565b5f612e65565b6013548061296357503090565b60405190612f13608083612d8d565b565b6001600160401b038111612d375760051b60200190565b63ffffffff8116036104e257565b60ff8116036104e257565b6001600160801b038116036104e257565b6020818303126104e2578051906001600160401b0382116104e2570181601f820112156104e257805190612f8982612f15565b92612f976040519485612d8d565b82845260208085019360071b830101918183116104e257602001925b828410612fc1575050505090565b6080848303126104e2576020608091604051612fdc81612d1c565b8651612fe781612f2c565b815282870151612ff681612f3a565b83820152604087015161300881612f45565b6040820152606087015161301b81612f45565b6060820152815201930192612fb3565b3561296381612f3a565b903590601e19813603018212156104e257018035906001600160401b0382116104e257602001918160051b360383136104e257565b601454811015612c725760145f5260205f2001905f90565b90815461308e81612f15565b9261309c6040519485612d8d565b81845260208401905f5260205f205f915b8383106130ba5750505050565b600360206001926040516130cd81612d1c565b855481526001600160801b038587015460ff81168584015260081c1660408201526001600160801b0360028701541660608201528152019201920191906130ad565b805115612c725760200190565b8051821015612c725760209160051b010190565b60016001600160401b03195f516020615e705f395f51905f525416175f516020615e705f395f51905f5255565b600160401b60ff60401b195f516020615e705f395f51905f525416175f516020615e705f395f51905f5255565b6001600160401b038116036104e257565b356129638161318a565b6004821015612c725701905f90565b916131cd9183549060031b91821b915f19901b19161790565b9055565b604051906131de82612d57565b5f6020838281520152565b9190811015612c725760051b0190565b604080825281018390529293929160608301905f5b818110613229575050602091509360018060a01b0316910152565b9091602080600192863561323c81610e12565b848060a01b0316815201940191019291909261320e565b9190601154613261816140a9565b613269614e0c565b916001600160a01b03808416908316141580613380575b613349575050505f5b8181106132d057507f8021bce60b20a9afb57085869a3552e0ee5b272b868df894fb30c5e90e74c07291926132cb6132bf614e0c565b604051938493846131f9565b0390a1565b806132de60019284876131e9565b356132e881610e12565b828060a01b03165f52600f60205261330760405f2060ff198154169055565b61334361333461331b61046684878a6131e9565b6001600160a01b03165f908152600f6020526040902090565b805461ff001916610100179055565b01613289565b604051631326f75560e11b81526001600160a01b039283166004820152929091166024830152604482015260236064820152608490fd5b50604051631a45b42760e11b8152602081806133a3602386888a6004860161412f565b03817f00000000000000000000000000000000000000000000000000000000000000006001600160a01b03165afa908115610b01575f916133e6575b5015613280565b613408915060203d60201161340e575b6134008183612d8d565b81019061411a565b5f6133df565b503d6133f6565b9060405161342281612d1c565b60606001829463ffffffff815460ff81161515865260ff8160081c161515602087015260101c1660408501520154910152565b604051906104006134668184612d8d565b368337565b903590601e19813603018212156104e257018035906001600160401b0382116104e2576020019181360383136104e257565b6001600160401b038111612d3757601f01601f191660200190565b91906040838203126104e25782356134cf81612f3a565b926020810135906001600160401b0382116104e2570181601f820112156104e2578035906134fc8261349d565b9261350a6040519485612d8d565b828452602083830101116104e257815f926020809301838601378301015290565b903590601e19813603018212156104e257018035906001600160401b0382116104e257602001918160061b360383136104e257565b81601f820112156104e25780519061357782612f15565b926135856040519485612d8d565b82845260208085019360051b830101918183116104e25760208101935b8385106135b157505050505090565b84516001600160401b0381116104e25782016080818503601f1901126104e257604051906135de82612d1c565b602081015182526040810151602083015260608101516001600160401b0381116104e25760209082010185601f820112156104e257805161361e81612f15565b9161362c6040519384612d8d565b81835260208084019260071b820101908882116104e257602001915b81831061366e5750505060408301526080015160608201528152602094850194016135a2565b6080838a03126104e257602060809160405161368981612d1c565b855181528286015161369a81612f3a565b8382015260408601516136ac81612f45565b604082015260608601516136bf81612f45565b6060820152815201920191613648565b6020818303126104e2578051906001600160401b0382116104e257016040818303126104e2576040519161370283612d57565b815161370d81612f3a565b835260208201516001600160401b0381116104e25761372c9201613560565b602082015290565b9080602083519182815201916020808360051b8301019401925f915b83831061375f57505050505090565b9091929394601f1982820301835285519060808101918051825260208101516020830152604081015192608060408401528351809152602060a084019401905f905b8082106137c7575050506060908101519101529460209081019493600101920190613750565b909194602060806001926001600160801b0360608a518051845260ff86820151168685015282604082015116604085015201511660608201520196019201906137a1565b606060206129639381845260ff815116828501520151916040808201520190613734565b6020818303126104e2578051906001600160401b0382116104e257018082039160c083126104e257604080519361386585612d72565b835161387081612f3a565b8552602084015160208601528184015182860152605f1901126104e25760405161389981612d57565b60608301516138a78161318a565b815260808301516020820152606084015260a08201516001600160401b0381116104e2576138d59201613560565b608082015290565b9015612c725790565b908160209103126104e2575161296381610e12565b6001600160a01b0390911681526040602082018190528101839052606001915f5b8181106139295750505090565b909192604080600192863561393d81610e12565b848060a01b0316815260208701356020820152019401910191909161391c565b60e06080612963936020845260ff815116602085015260208101516040850152604081015160608501526139ab606082015183860190602080916001600160401b0381511684520151910152565b01519160c0808201520190613734565b6139c53082614250565b9060018060a01b031690815f52600e602052600160405f20015481039081116108d05761eeee8192146139f6575090565b905060035480821115613a235781039081116108d05760045480821115613a235781039081116108d05790565b50505f90565b908160209103126104e2575190565b6008548015613a6b57621274ff1981018181116108d0574210613a65574210613a6057600390565b600290565b50600190565b505f90565b60405190613a7f602083612d8d565b5f808352366020840137565b60408051909190613a9c8382612d8d565b6001815291601f1901366020840137565b90613ab782612f15565b613ac46040519182612d8d565b8281528092613ad5601f1991612f15565b0190602036910137565b907f00000000000000000000000000000000000000000000000000000000000000008015159283613bbf575b15613b995782613b79575b6014548315613b7057613b30613b2b82612cc1565b613aad565b935f5b828110613b505750613b43575050565b613b4d908461311c565b52565b80613b5f61105f60019361306a565b613b69828961311c565b5201613b33565b613b3081613aad565b9150613b9361116c611f90845f52601060205260405f2090565b91613b16565b909115613bb657613ba8613a8b565b90613bb28261310f565b5290565b50612963613a70565b468214159350613b0b565b3561296381612f2c565b91905f92613be181612c77565b90604081013592613c056106bd8460018060a01b03165f52600f60205260405f2090565b93613c136020860151151590565b613f0457613c2083614cda565b601154613c2f6106ed826140a9565b803b156104e2576040516303827e8d60e01b81526001600160a01b03861660048201527f0000000000000000000000000000000000000000000000000000000000000000602482015260448101839052905f90829060649082905afa8015610b0157613ef0575b5060608501918251828115159182613ee5575b505080613edc575b80613eb9575b613e985781159081159687613e30575b8280613de2575b613d94575b505061080d602087969461085096946108329489612f139b90613d8a575b80613d7f575b80613d55575b613d3a575b15613d32575051935b84613d17575b01613bca565b613d2d866108eb875f52600d60205260405f2090565b613d11565b905093613d0b565b613d5061092c84515f52600d60205260405f2090565b613d02565b50613d6c61095884515f52600d60205260405f2090565b6001600160a01b03898116911614613cfd565b508183511415613cf7565b5082511515613cf1565b6108329299508694610850969461080d93613dd3602094613dcc6109b9612f139e9d60018060a01b03165f52600f60205260405f2090565b8983614780565b9b945094965094969750613cd3565b506001600160a01b0387165f908152600e60205260409020613e03906109f2565b6001600160a01b0388165f908152600e60205260409020602201546001600160c01b039091161415613cce565b613e45610958855f52600d60205260405f2090565b6001600160a01b0381168015159081613e84575b50613e645750613cc7565b63d6a305d960e01b5f5260048590526001600160a01b031660245260445ffd5b6001600160a01b038a16141590505f613e59565b825163aef430a360e01b5f526001600160a01b03861660045260245260445ffd5b506001600160a01b0385165f908152600e60205260409020602201541515613cb7565b50811515613cb1565b14159050825f613ca9565b80610af55f613efe93612d8d565b5f613c96565b6304bba81f60e41b5f526001600160a01b03841660045260245ffd5b60405190613f2f602083612d8d565b5f8252565b6001600160a01b03165f80808085855af13d15613f8b573d613f558161349d565b90613f636040519283612d8d565b81525f60203d92013e5b15613f76575050565b630590bd2d60e41b5f5260045260245260445ffd5b613f6d565b90915f5b8381101561400b578060051b830135607e19843603018112156104e2578301908135606083013592602081013590604081013590601e19813603018212156104e25701908135916001600160401b0383116104e257602001908260071b360382136104e25760019561400594614fe7565b01613f94565b50915050565b6011555f6013556001600160a01b03614028614e0c565b166bffffffffffffffffffffffff60a01b5f5416175f55565b6011556013556001600160a01b03614028614e0c565b61405f613a38565b60048110156123b35760038114801561408b575b61407a5750565b62a7958f60e81b5f5260045260245ffd5b50614095816123a9565b60028114614073565b5190612f1382610e12565b6040516331a9108f60e11b815260048101919091526020816024817f00000000000000000000000000000000000000000000000000000000000000006001600160a01b03165afa908115610b01575f91614101575090565b612963915060203d602011611d5757611d498183612d8d565b908160209103126104e25751612963816128db565b6001600160a01b039182168152911660208201526040810191909152606081019190915260016080820181905260a082015260c00190565b61416f614e0c565b916001600160a01b038084169083161415806141cb575b61418f57505050565b604051631326f75560e11b81526001600160a01b0392831660048201529290911660248084019190915260448301919091526064820152608490fd5b50604051631a45b42760e11b8152602081806141ee602486888a6004860161412f565b03817f00000000000000000000000000000000000000000000000000000000000000006001600160a01b03165afa908115610b01575f91614231575b5015614186565b61424a915060203d60201161340e576134008183612d8d565b5f61422a565b6001600160a01b03169061eeee82146142b7576040516370a0823160e01b81526001600160a01b03909116600482015290602090829060249082905afa908115610b01575f9161429e575090565b612963915060203d602011612281576122748183612d8d565b90503190565b6040516323b872dd60e01b5f9081526001600160a01b039384166004529290931660245260449390935260209060648180865af160015f511481161561432b575b6040919091525f606052156143105750565b635274afe760e01b5f526001600160a01b031660045260245ffd5b6001811516614341573d15833b151516166142fe565b503d5f823e3d90fd5b805180835260209291819084018484015e5f828201840152601f01601f1916010190565b6001600160a01b0391821681526020810192909252604082019290925291811660608301526080820192909252911660a082015260e060c082018190526129639291019061434a565b156143be57565b634e487b7160e01b5f52600160045260245ffd5b6011549193926143e76103fd80808887614678565b6001600160a01b038116156144895790602091865f6144063083614250565b95614432614412613f20565b6040516313da831760e01b8152998a97889687953093846004890161436e565b03925af1908115610b0157612f13925f92614464575b5061445e9061445983963090614250565b612cea565b146143b7565b61445e9192506144829060203d602011612281576122748183612d8d565b9190614448565b63b61c181f60e01b5f5260048490526001600160a01b03861660245260445ffd5b9193906001600160801b0385116145d0576001600160801b0383116145bd576144ee8285878691608093916040519384526020840152604083015260608201522090565b6001600160a01b0382165f908152600e602052604090209095909360028501936145188886615138565b60018601928354968188018098116108d0576145616022614567927fc92fa1150c24ee5470c272112539aab52450a5e05573e7ea7bdfb98829b893219a6145b898550154612cdc565b96615224565b92614570614e0c565b604080519b8c5260208c0198909852968a01939093526060890192909252608088019190915260a08701526001600160a01b0392831660c087015291169390819060e0820190565b0390a3565b826335bf001160e11b5f5260045260245ffd5b846335bf001160e11b5f5260045260245ffd5b604051630862026560e41b8152600481019190915261eeee60248201526020816044817f00000000000000000000000000000000000000000000000000000000000000006001600160a01b03165afa908115610b01575f91614643575090565b90506020813d602011614670575b8161465e60209383612d8d565b810103126104e2575161296381610e12565b3d9150614651565b604051630862026560e41b815260048101919091526001600160a01b039091166024820152602081806044810103817f00000000000000000000000000000000000000000000000000000000000000006001600160a01b03165afa908115610b01575f91614643575090565b60018060a01b031690815f52600560205260405f208054908282018092116108d05755600354908082018092116108d0577f2a3798c6648c17f70b43a33a8378cec543367ac1543e62aa7b3926605697177791600355614742614e0c565b604080519283526001600160a01b039091166020830152819081015b0390a2565b6001600160401b03166001600160401b0381146108d05760010190565b906060830151156148a157614793614057565b6001600160a01b0381165f908152600e6020526040902090602282015490811561489a57612f139460018401915f835493556148316147e16147dc87546001600160401b031690565b614763565b865467ffffffffffffffff19166001600160401b0382161787559461482c61480b60028901615224565b88546001600160401b0316604084901b67ffffffffffffffff191617909855565b612cdc565b9586867f47c5615513b0f669da2dd7e3362a34610ca2695d0a0e2da2160cee952eab203c614892614860614e0c565b604080519586526001600160401b038b1660208701526001600160a01b03918216908601528616939081906060820190565b0390a36152e8565b5050505050565b63027edf0360e11b5f9081526001600160a01b0391909116600452602490fd5b906040612963925f8152816020820152019061434a565b604051906148e7602083612d8d565b5f80835282815b8281106148fa57505050565b6020906149056131d1565b828285010152016148ee565b614969612f139261497761493e61494c61492e6020850151615429565b936040519283916020830161380b565b03601f198101835282612d8d565b60405193849160016020840152604080840152606083019061434a565b03601f198101845283612d8d565b61497f6148d8565b9261556d565b601154828193614a97575b5050604051632eec7b5560e11b8152600481018390529290506020836024816001600160a01b037f0000000000000000000000000000000000000000000000000000000000000000165afa908115610b0157614a41946020945f93614a76575b506040516363fdc96f60e11b8152600481019490945260248401919091526001600160a01b0316604483015260a060648301525f60a4830181905260848301819052919384928391829060c4820190565b03926001600160a01b03165af18015610b0157614a5b5750565b614a739060203d602011612281576122748183612d8d565b50565b5f919350614a9090863d8811611d5757611d498183612d8d565b92906149f0565b614aa0926158c3565b5f8181614990565b6001600160c01b039081165f1901919082116108d057565b92909695949391640100000000851015614cc657614adc613a38565b614ae5816123a9565b60038114159081614cb1575b5080614c82575b614c66576001600160a01b0388165f908152600e60205260409020614b1c906109f2565b6001600160c01b038116151590869082614c4e575b5050614c2d57604080516001600160a01b038a1660208201908152614b7d92614b779290614b62908290810161493e565b5190206bffffffffffffffffffffffff191690565b60601c90565b6001600160a01b0381165f90815260096020908152604080832060088a901c8452909152902054600160ff88161b16614c0c5790614be76002614be1612f139a9b61046b8a612678614c069a999860018060a01b03165f52600960205260405f2090565b01615224565b9491608093916040519384526020840152604083015260608201522090565b9061583b565b632939af3b60e21b5f526001600160a01b038916600452602486905260445ffd5b632939af3b60e21b5f526001600160a01b038816600452602485905260445ffd5b614c5d91925061233b90614aa8565b1015855f614b31565b6304bba81f60e41b5f526001600160a01b03881660045260245ffd5b506001600160a01b0388165f908152600f60205260409020614cac9061116c905460081c60ff1690565b614af8565b60029150614cbe816123a9565b14155f614af1565b6309f6605160e41b5f52600485905260245ffd5b60200135614ce781612f2c565b63ffffffff81169062030d408210614cfd575050565b614d0690612f2c565b630555d0f160e41b5f5260045262030d4060245260445ffd5b9091614e0857614d2d614e0c565b916001600160a01b03808416908316141580614d84575b614d4d57505050565b604051631326f75560e11b81526001600160a01b039283166004820152929091166024830152604482015260206064820152608490fd5b50604051631a45b42760e11b815260208180614da68386888a6004860161412f565b03817f00000000000000000000000000000000000000000000000000000000000000006001600160a01b03165afa908115610b01575f91614de9575b5015614d44565b614e02915060203d60201161340e576134008183612d8d565b5f614de2565b5050565b601436101580614e33575b15614e2f5760131936013681116104e2573560601c90565b3390565b50337f00000000000000000000000000000000000000000000000000000000000000006001600160a01b031614614e17565b601454600160401b811015612d375760018101601455601454811015612c725760145f527fce6d7b5282bd9a3661ae061feed1dbda4e52ab073b1f9285be6e155d9c38d4ec0155565b8054905f815581614ebd575050565b816003029160038304036108d0575f5260205f20908101905b818110614ee1575050565b6003905f81555f60018201555f600282015501614ed6565b9190811015612c725760071b0190565b8054821015612c72575f52600360205f20910201905f90565b3561296381612f45565b8054600160401b811015612d3757614f4991600182018155614f09565b614fd4576002614fb76060612f139480358555600185016020820135614f6e81612f3a565b815460ff70ffffffffffffffffffffffffffffffff006040860135614f9281612f45565b60081b1692169070ffffffffffffffffffffffffffffffffff19161717905501614f22565b9101906001600160801b03166001600160801b0319825416179055565b634e487b7160e01b5f525f60045260245ffd5b90919392934682148015615121575b61489a5761500c825f52600760205260405f2090565b5483111561489a576150839261502a835f52600760205260405f2090565b5561503d825f52600260205260405f2090565b5561505661116c611f90835f52601060205260405f2090565b6150f1575b615075615070825f52601560205260405f2090565b614eae565b5f52601560205260405f2090565b905f5b8181106150935750505050565b806150aa6150a46001938588614ef9565b85614f2c565b6150b5818487614ef9565b356150d1610958848060a01b03925f52600d60205260405f2090565b16806150df575b5001615086565b6150e98286614f09565b50555f6150d8565b615113615106825f52601060205260405f2090565b805460ff19166001179055565b61511c81614e65565b61505b565b508115614ff6565b6020821015612c725701905f90565b9160208301906151488254612c95565b92838355839463ffffffff948581116151c957505f95915b6020871061518157845463515447c160e01b5f52600452602486905260445ffd5b6001808416146151b65761519861105f8884615129565b5f5260205260016151ad60405f209360011c90565b96019591615160565b9350612f1394506115e492959150615129565b63515447c160e01b5f52600452602485905260445ffd5b906020811015612c725760051b0190565b61042081019392915f825b6020821061520e575050506104000152565b60208060019285518152019301910190916151fc565b60208101549081156152c257615238613455565b905f5b60208110615292575050604051634a490c2560e01b815291602091839182916152689190600484016151f1565b0381730b2b545a4e2fd65d29f2417f1b26698d71769a8f5af4908115610b01575f9161429e575090565b80600180921b85166152a5575b0161523b565b6152b261105f8285615129565b6152bc82866151e0565b5261529f565b50507f27ae5ba08d7291c96c8cbddcc148bf48a6d68c7974b94356f53754ef6171d75790565b949091939550615303600160125401806012554260801b1790565b6011546060860151604051634cba057b60e11b81526001600160a01b037f0000000000000000000000000000000000000000000000000000000000000000811660048301527f000000000000000000000000000000000000000000000000000000000000000016602482015260448101929092527f00000000000000000000000000000000000000000000000000000000000000006064830152608482015260a481018590526001600160401b039790971660c488015260e487019190915260016101048701526101248601525f8561014481730b2b545a4e2fd65d29f2417f1b26698d71769a8f5af4938415610b0157612f13955f95615405575b50615b6f565b6154229195503d805f833e61541a8183612d8d565b81019061382f565b935f6153ff565b5f9080515f915b81831061546357505050620124f8810290808204620124f814901517156108d057620493e00180620493e0116108d05790565b9091926040615472858461311c565b5101515181018091116108d057926001019190615430565b91908260409103126104e257602082516154a3816128db565b92015190565b6001600160a01b0391821681526001600160401b039092166020830152918216604082015260608101929092529182166080820152911660a082015260c081019190915261014060e0820181905290949392916155089186019061434a565b848103610100860152602080835192838152019201905f5b818110615542575050506001600160a01b039091166101209390930192909252565b825180516001600160a01b031685526020908101518186015260409094019390920191600101615520565b92909192615579614e0c565b9283826157205750604051632f8eeb3d60e01b8152466004820152602081602481738f1a249e79030d4fac2102aa33e36e6676e048e45af4908115610b01576040946156449287925f91615701575b50975b6155d66103fd612ef7565b946001600160a01b038a16156156fb57835b8851630d6aca6560e31b81529a8b9889987f00000000000000000000000000000000000000000000000000000000000000007f000000000000000000000000000000000000000000000000000000000000000060048c016154a9565b038173d331f229eeeeb32e54b85fe4a0997627913fb9a55af4918215610b01575f905f936156c7575b50615676575050565b61475e816156a5847f49a226512c7c6d0448c9d048f6243d67cab6c593596a82f21224aa748d1c5d5e94615cb8565b604080519485526001600160a01b039091166020850181905293918291820190565b90506156ec91925060403d6040116156f4575b6156e48183612d8d565b81019061548a565b91905f61566d565b503d6156da565b5f6155e8565b61571a915060203d602011611d5757611d498183612d8d565b5f6155c8565b615644906040945f976155cb565b61040061042092959493610440830196835260208301370152565b9092602090600161576a8460018060a01b03165f52600a60205260405f2090565b01549461578b60405195869384936307fbe4d560e41b85526004850161572e565b0381730b2b545a4e2fd65d29f2417f1b26698d71769a8f5af4918215610b01575f9261581a575b50828214615815576001600160a01b03165f908152600c60205260409020905f5b600481106157e15750505090565b6157ee61105f82856131a5565b8015158061580c575b61580457506001016157d3565b935050505090565b508083146157f7565b505090565b61583491925060203d602011612281576122748183612d8d565b905f6157b2565b9260209161585d60405194859384936307fbe4d560e41b85526004850161572e565b0381730b2b545a4e2fd65d29f2417f1b26698d71769a8f5af4908115610b01575f916158a4575b50818103615890575050565b6272c3e960e11b5f5260045260245260445ffd5b6158bd915060203d602011612281576122748183612d8d565b5f615884565b906158cd826139bb565b808211615aa657506158e26103fd8385614678565b906001600160a01b03821615615a85576001600160a01b038316935f9261eeee8614801592908590615a7d57506040516370a0823160e01b81523060048201526020816024818b5afa908115610b01575f91615a5e575b509461594685848a615d16565b823b156104e257604051639e6eec0560e01b815260048101929092526001600160a01b0387166024830152604482018590525f6064830181905260c0608484015260c4830181905260e060a484015260e4830181905291928391610104918391905af18015610b0157615a4a575b506159c0575b50505050565b6159c991612cea565b6040516370a0823160e01b815230600482015292909190602090849060249082905afa928315610b01575f93615a29575b50818303615a0857806159ba565b63884aa24960e01b5f526001600160a01b031660045260245260445260645ffd5b615a4391935060203d602011612281576122748183612d8d565b915f6159fa565b80610af55f615a5893612d8d565b5f6159b4565b615a77915060203d602011612281576122748183612d8d565b5f615939565b945083615946565b63b61c181f60e01b5f5260048490526001600160a01b03831660245260445ffd5b6360ec3e7160e01b5f5260049190915260245260445ffd5b91906040838203126104e25782516001600160401b0381116104e257830181601f820112156104e257805190615af382612f15565b92615b016040519485612d8d565b82845260208085019360061b830101918183116104e257602001925b828410615b355750505050602061296391930161409e565b6040848303126104e25760206040918251615b4f81612d57565b8651615b5a81610e12565b81528287015183820152815201930192615b1d565b91939293615b806080850151615429565b948115615c965790615bad615c0796610434615ba460405f96015163ffffffff1690565b63ffffffff1690565b60405163111504cd60e31b81526001600160a01b037f000000000000000000000000000000000000000000000000000000000000000081166004830152909416602485015260448401919091529194859081906064820190565b038173d331f229eeeeb32e54b85fe4a0997627913fb9a55af4918215610b0157615c6e61493e615c51615c6095612f13985f91615c73575b50965b6040519283916020830161395d565b604051948591602083016148c1565b03601f198101855284612d8d565b61556d565b615c8f91503d805f833e615c878183612d8d565b810190615abe565b505f615c3f565b505050612f1392615c6091615c6e61493e615c51615cb26148d8565b96615c42565b60018060a01b031690815f52600660205260405f208054908282018092116108d05755600454908082018092116108d0577feabe38586436d533b7eadb14fb6c3fd63dbb07d41e234f29313b28bf067a891f91600455614742614e0c565b60405163095ea7b360e01b5f9081526001600160a01b03841660045260248590529193929160209060448180885af19060015f5114821615615dc0575b60405215615d6057505050565b615d6a8184615dcf565b15615da25790615d7a9183615e34565b15615d825750565b635274afe760e01b5f9081526001600160a01b0391909116600452602490fd5b635274afe760e01b5f9081526001600160a01b038416600452602490fd5b90843b15153d15161690615d53565b60405163095ea7b360e01b5f9081526001600160a01b03909316600452602483905290929160209060448180875af19260015f5114841615615e12575b50604052565b60018492941516615e2b573b15153d151616915f615e0c565b833d5f823e3d90fd5b92916040519163095ea7b360e01b5f5260018060a01b031660045260245260205f60448180875af19260015f5114841615615e12575060405256fef0c57e16840df040f15088dc2f81fe391c3923bec73e23a9662efc9c229c6a00a164736f6c634300081c000af0c57e16840df040f15088dc2f81fe391c3923bec73e23a9662efc9c229c6a00",
	"gitCommit": "npm:@bananapus/suckers-v6@1.0.2",
	"gitDirty": false,
	"history": []
}