{
	"format": "sphinx-sol-ct-artifact-1",
	"address": "0x8f6f0a70939997310309d7ab66b1b199faafe7f0",
	"sourceName": "node_modules/@bananapus/suckers-v6/src/deployers/JBCCIPSuckerDeployer.sol",
	"contractName": "JBCCIPSuckerDeployer",
	"chainId": "0x14a34",
	"abi": [
		{
			"type": "constructor",
			"inputs": [
				{
					"name": "directory",
					"type": "address",
					"internalType": "contract IJBDirectory"
				},
				{
					"name": "permissions",
					"type": "address",
					"internalType": "contract IJBPermissions"
				},
				{
					"name": "tokens",
					"type": "address",
					"internalType": "contract IJBTokens"
				},
				{
					"name": "configurator",
					"type": "address",
					"internalType": "address"
				},
				{
					"name": "trustedForwarder",
					"type": "address",
					"internalType": "address"
				}
			],
			"stateMutability": "nonpayable"
		},
		{
			"type": "function",
			"name": "DIRECTORY",
			"inputs": [],
			"outputs": [
				{
					"name": "",
					"type": "address",
					"internalType": "contract IJBDirectory"
				}
			],
			"stateMutability": "view"
		},
		{
			"type": "function",
			"name": "LAYER_SPECIFIC_CONFIGURATOR",
			"inputs": [],
			"outputs": [
				{
					"name": "",
					"type": "address",
					"internalType": "address"
				}
			],
			"stateMutability": "view"
		},
		{
			"type": "function",
			"name": "PERMISSIONS",
			"inputs": [],
			"outputs": [
				{
					"name": "",
					"type": "address",
					"internalType": "contract IJBPermissions"
				}
			],
			"stateMutability": "view"
		},
		{
			"type": "function",
			"name": "TOKENS",
			"inputs": [],
			"outputs": [
				{
					"name": "",
					"type": "address",
					"internalType": "contract IJBTokens"
				}
			],
			"stateMutability": "view"
		},
		{
			"type": "function",
			"name": "ccipRemoteChainId",
			"inputs": [],
			"outputs": [
				{
					"name": "",
					"type": "uint256",
					"internalType": "uint256"
				}
			],
			"stateMutability": "view"
		},
		{
			"type": "function",
			"name": "ccipRemoteChainSelector",
			"inputs": [],
			"outputs": [
				{
					"name": "",
					"type": "uint64",
					"internalType": "uint64"
				}
			],
			"stateMutability": "view"
		},
		{
			"type": "function",
			"name": "ccipRouter",
			"inputs": [],
			"outputs": [
				{
					"name": "",
					"type": "address",
					"internalType": "contract ICCIPRouter"
				}
			],
			"stateMutability": "view"
		},
		{
			"type": "function",
			"name": "configureSingleton",
			"inputs": [
				{
					"name": "_singleton",
					"type": "address",
					"internalType": "contract JBSucker"
				}
			],
			"outputs": [],
			"stateMutability": "nonpayable"
		},
		{
			"type": "function",
			"name": "createForSender",
			"inputs": [
				{
					"name": "localProjectId",
					"type": "uint256",
					"internalType": "uint256"
				},
				{
					"name": "salt",
					"type": "bytes32",
					"internalType": "bytes32"
				},
				{
					"name": "peer",
					"type": "bytes32",
					"internalType": "bytes32"
				}
			],
			"outputs": [
				{
					"name": "sucker",
					"type": "address",
					"internalType": "contract IJBSucker"
				}
			],
			"stateMutability": "nonpayable"
		},
		{
			"type": "function",
			"name": "isSucker",
			"inputs": [
				{
					"name": "sucker",
					"type": "address",
					"internalType": "address"
				}
			],
			"outputs": [
				{
					"name": "",
					"type": "bool",
					"internalType": "bool"
				}
			],
			"stateMutability": "view"
		},
		{
			"type": "function",
			"name": "isTrustedForwarder",
			"inputs": [
				{
					"name": "forwarder",
					"type": "address",
					"internalType": "address"
				}
			],
			"outputs": [
				{
					"name": "",
					"type": "bool",
					"internalType": "bool"
				}
			],
			"stateMutability": "view"
		},
		{
			"type": "function",
			"name": "setChainSpecificConstants",
			"inputs": [
				{
					"name": "remoteChainId",
					"type": "uint256",
					"internalType": "uint256"
				},
				{
					"name": "remoteChainSelector",
					"type": "uint64",
					"internalType": "uint64"
				},
				{
					"name": "router",
					"type": "address",
					"internalType": "contract ICCIPRouter"
				}
			],
			"outputs": [],
			"stateMutability": "nonpayable"
		},
		{
			"type": "function",
			"name": "singleton",
			"inputs": [],
			"outputs": [
				{
					"name": "",
					"type": "address",
					"internalType": "contract JBSucker"
				}
			],
			"stateMutability": "view"
		},
		{
			"type": "function",
			"name": "trustedForwarder",
			"inputs": [],
			"outputs": [
				{
					"name": "",
					"type": "address",
					"internalType": "address"
				}
			],
			"stateMutability": "view"
		},
		{
			"type": "event",
			"name": "CCIPConstantsSet",
			"inputs": [
				{
					"name": "ccipRouter",
					"type": "address",
					"indexed": false,
					"internalType": "address"
				},
				{
					"name": "ccipRemoteChainId",
					"type": "uint256",
					"indexed": false,
					"internalType": "uint256"
				},
				{
					"name": "ccipRemoteChainSelector",
					"type": "uint64",
					"indexed": false,
					"internalType": "uint64"
				},
				{
					"name": "caller",
					"type": "address",
					"indexed": false,
					"internalType": "address"
				}
			],
			"anonymous": false
		},
		{
			"type": "error",
			"name": "JBPermissioned_Unauthorized",
			"inputs": [
				{
					"name": "account",
					"type": "address",
					"internalType": "address"
				},
				{
					"name": "sender",
					"type": "address",
					"internalType": "address"
				},
				{
					"name": "projectId",
					"type": "uint256",
					"internalType": "uint256"
				},
				{
					"name": "permissionId",
					"type": "uint256",
					"internalType": "uint256"
				}
			]
		},
		{
			"type": "error",
			"name": "JBSuckerDeployer_AlreadyConfigured",
			"inputs": [
				{
					"name": "singleton",
					"type": "address",
					"internalType": "address"
				},
				{
					"name": "layerSpecificConfigurationIsSet",
					"type": "bool",
					"internalType": "bool"
				}
			]
		},
		{
			"type": "error",
			"name": "JBSuckerDeployer_DeployerIsNotConfigured",
			"inputs": [
				{
					"name": "singleton",
					"type": "address",
					"internalType": "address"
				}
			]
		},
		{
			"type": "error",
			"name": "JBSuckerDeployer_InvalidLayerSpecificConfiguration",
			"inputs": [
				{
					"name": "configurator",
					"type": "address",
					"internalType": "address"
				}
			]
		},
		{
			"type": "error",
			"name": "JBSuckerDeployer_LayerSpecificNotConfigured",
			"inputs": [
				{
					"name": "configurator",
					"type": "address",
					"internalType": "address"
				}
			]
		},
		{
			"type": "error",
			"name": "JBSuckerDeployer_Unauthorized",
			"inputs": [
				{
					"name": "caller",
					"type": "address",
					"internalType": "address"
				},
				{
					"name": "expected",
					"type": "address",
					"internalType": "address"
				}
			]
		},
		{
			"type": "error",
			"name": "JBSuckerDeployer_ZeroConfiguratorAddress",
			"inputs": [
				{
					"name": "configurator",
					"type": "address",
					"internalType": "address"
				}
			]
		}
	],
	"args": [
		"0x5AfF29060E023e6FB87BE5596652B33c65Af535B",
		"0xf92AC1aB5A00033E35a3975739124F61928C36B0",
		"0x1f80d8f057eE36b4C2656D107E4e4558B71bA7D9",
		"0x4dc161eF837fF1C4485b08DDFcDB182F2157bE18",
		"0x3bA60b60933916a7C87D0860DcEE62a0CE34E3e2"
	],
	"solcInputHash": "fd91f8d5d5d32fa50cf0f0d428802bd0",
	"bytecode": "0x6101203461016957601f61093038819003918201601f19168301916001600160401b0383118484101761016d5780849260a0946040528339810103126101695780516001600160a01b0381168103610169576020820151906001600160a01b0382168203610169576040830151916001600160a01b038316830361016957610095608061008e60608701610181565b9501610181565b60805260a05260c0526101005260e08190526001600160a01b0316801580610126575b6101145760405161079a908161019682396080518181816103270152818161039e015261075f015260a0518160cd015260c051816102e3015260e051818181610408015281816104cf015261059e015261010051816105130152f35b63f9af1f7360e01b5f5260045260245ffd5b50600254151580610155575b8061013e575b156100b8565b5060035460401c6001600160a01b03161515610138565b506003546001600160401b03161515610132565b5f80fd5b634e487b7160e01b5f52604160045260245ffd5b51906001600160a01b03821682036101695756fe6080806040526004361015610012575f80fd5b5f905f3560e01c9081630de229841461069b57508063143b0739146105425780631d831d5c146104fe5780631e5d73df146104ba5780633eeb32ee146103d0578063572b6c051461037357806363a49dc3146103565780637da0a8771461031257806388bc2ef3146102ce578063b62654fb146102a6578063c39ec12414610266578063d86161871461023f578063e4ea608b146100ff5763f434c914146100b8575f80fd5b346100fc57806003193601126100fc576040517f00000000000000000000000000000000000000000000000000000000000000006001600160a01b03168152602090f35b80fd5b3461021c57606036600319011261021c576001546001600160a01b0316801561022d5761012a610734565b60405160208101916bffffffffffffffffffffffff199060601b16825260243560348201526034815261015e6054826106c1565b519020906c5af43d3d93803e602a57fd5bf360215260145273602c3d8160093d39f33d3d3d3d363d3d37363d735f526035600c5ff58015610220575f60215260018060a01b0316805f525f60205260405f20600160ff19825416179055803b1561021c5760405190635417694960e01b8252600435600483015260443560248301525f8260448183855af191821561021157602092610201575b50604051908152f35b5f61020b916106c1565b5f6101f8565b6040513d5f823e3d90fd5b5f80fd5b63301164255f526004601cfd5b630e604bad60e31b5f5260045260245ffd5b3461021c575f36600319011261021c57602067ffffffffffffffff60035416604051908152f35b3461021c57602036600319011261021c576004356001600160a01b0381169081900361021c575f525f602052602060ff60405f2054166040519015158152f35b3461021c575f36600319011261021c576001546040516001600160a01b039091168152602090f35b3461021c575f36600319011261021c576040517f00000000000000000000000000000000000000000000000000000000000000006001600160a01b03168152602090f35b3461021c575f36600319011261021c576040517f00000000000000000000000000000000000000000000000000000000000000006001600160a01b03168152602090f35b3461021c575f36600319011261021c576020600254604051908152f35b3461021c57602036600319011261021c576004356001600160a01b0381169081900361021c576040517f00000000000000000000000000000000000000000000000000000000000000006001600160a01b03169091148152602090f35b3461021c57602036600319011261021c576004356001600160a01b0381169081900361021c576103fe610734565b6001600160a01b037f0000000000000000000000000000000000000000000000000000000000000000811691168190036104955761043a6106f7565b1561048357506001546001600160a01b0381168061046357506001600160a01b03191617600155005b61046b6106f7565b906312467db160e01b5f52600452151560245260445ffd5b63fb15076b60e01b5f5260045260245ffd5b61049d610734565b63dcd3b82360e01b5f5260018060a01b031660045260245260445ffd5b3461021c575f36600319011261021c576040517f00000000000000000000000000000000000000000000000000000000000000006001600160a01b03168152602090f35b3461021c575f36600319011261021c576040517f00000000000000000000000000000000000000000000000000000000000000006001600160a01b03168152602090f35b3461021c57606036600319011261021c576004356024359067ffffffffffffffff821680920361021c57604435916001600160a01b038316830361021c576105886106f7565b61067957610594610734565b6001600160a01b037f000000000000000000000000000000000000000000000000000000000000000081169491168490036106705782600255816003549168010000000000000000600160e01b039060401b169163ffffffff60e01b16171792836003556106006106f7565b1561065e577f9577d077d4c8b2b8569837e5fea459039af59339c78cf4e4cce39fa8cdf322df6080858585610633610734565b6040805194811c6001600160a01b0390811686526020860194909452840191909152166060820152a1005b63a649dc0f60e01b5f5260045260245ffd5b8361049d610734565b60018060a01b03600154166312467db160e01b5f52600452600160245260445ffd5b3461021c575f36600319011261021c5760035460401c6001600160a01b03168152602090f35b90601f8019910116810190811067ffffffffffffffff8211176106e357604052565b634e487b7160e01b5f52604160045260245ffd5b60025415158061071f575b8061070a5790565b5060035460401c6001600160a01b0316151590565b5067ffffffffffffffff600354161515610702565b60143610158061075b575b1561075757601319360136811161021c573560601c90565b3390565b50337f00000000000000000000000000000000000000000000000000000000000000006001600160a01b03161461073f56fea164736f6c634300081c000a",
	"gitCommit": "npm:@bananapus/suckers-v6@1.0.2",
	"gitDirty": false,
	"history": []
}