{
	"format": "sphinx-sol-ct-artifact-1",
	"address": "0xf1e7306ba84c399c385e4ad9ca783d38a0c5b7c2",
	"sourceName": "node_modules/@bananapus/suckers-v6/src/libraries/CCIPHelper.sol",
	"contractName": "CCIPHelper",
	"chainId": "0xaa37dc",
	"abi": [
		{
			"type": "function",
			"name": "ARB_ID",
			"inputs": [],
			"outputs": [
				{
					"name": "",
					"type": "uint256",
					"internalType": "uint256"
				}
			],
			"stateMutability": "view"
		},
		{
			"type": "function",
			"name": "ARB_LINK",
			"inputs": [],
			"outputs": [
				{
					"name": "",
					"type": "address",
					"internalType": "address"
				}
			],
			"stateMutability": "view"
		},
		{
			"type": "function",
			"name": "ARB_ROUTER",
			"inputs": [],
			"outputs": [
				{
					"name": "",
					"type": "address",
					"internalType": "address"
				}
			],
			"stateMutability": "view"
		},
		{
			"type": "function",
			"name": "ARB_SEL",
			"inputs": [],
			"outputs": [
				{
					"name": "",
					"type": "uint64",
					"internalType": "uint64"
				}
			],
			"stateMutability": "view"
		},
		{
			"type": "function",
			"name": "ARB_SEP_ID",
			"inputs": [],
			"outputs": [
				{
					"name": "",
					"type": "uint256",
					"internalType": "uint256"
				}
			],
			"stateMutability": "view"
		},
		{
			"type": "function",
			"name": "ARB_SEP_LINK",
			"inputs": [],
			"outputs": [
				{
					"name": "",
					"type": "address",
					"internalType": "address"
				}
			],
			"stateMutability": "view"
		},
		{
			"type": "function",
			"name": "ARB_SEP_ROUTER",
			"inputs": [],
			"outputs": [
				{
					"name": "",
					"type": "address",
					"internalType": "address"
				}
			],
			"stateMutability": "view"
		},
		{
			"type": "function",
			"name": "ARB_SEP_SEL",
			"inputs": [],
			"outputs": [
				{
					"name": "",
					"type": "uint64",
					"internalType": "uint64"
				}
			],
			"stateMutability": "view"
		},
		{
			"type": "function",
			"name": "ARB_SEP_WETH",
			"inputs": [],
			"outputs": [
				{
					"name": "",
					"type": "address",
					"internalType": "address"
				}
			],
			"stateMutability": "view"
		},
		{
			"type": "function",
			"name": "ARB_WETH",
			"inputs": [],
			"outputs": [
				{
					"name": "",
					"type": "address",
					"internalType": "address"
				}
			],
			"stateMutability": "view"
		},
		{
			"type": "function",
			"name": "AVA_ID",
			"inputs": [],
			"outputs": [
				{
					"name": "",
					"type": "uint256",
					"internalType": "uint256"
				}
			],
			"stateMutability": "view"
		},
		{
			"type": "function",
			"name": "AVA_ROUTER",
			"inputs": [],
			"outputs": [
				{
					"name": "",
					"type": "address",
					"internalType": "address"
				}
			],
			"stateMutability": "view"
		},
		{
			"type": "function",
			"name": "AVA_SEL",
			"inputs": [],
			"outputs": [
				{
					"name": "",
					"type": "uint64",
					"internalType": "uint64"
				}
			],
			"stateMutability": "view"
		},
		{
			"type": "function",
			"name": "AVA_WETH",
			"inputs": [],
			"outputs": [
				{
					"name": "",
					"type": "address",
					"internalType": "address"
				}
			],
			"stateMutability": "view"
		},
		{
			"type": "function",
			"name": "BASE_ID",
			"inputs": [],
			"outputs": [
				{
					"name": "",
					"type": "uint256",
					"internalType": "uint256"
				}
			],
			"stateMutability": "view"
		},
		{
			"type": "function",
			"name": "BASE_LINK",
			"inputs": [],
			"outputs": [
				{
					"name": "",
					"type": "address",
					"internalType": "address"
				}
			],
			"stateMutability": "view"
		},
		{
			"type": "function",
			"name": "BASE_ROUTER",
			"inputs": [],
			"outputs": [
				{
					"name": "",
					"type": "address",
					"internalType": "address"
				}
			],
			"stateMutability": "view"
		},
		{
			"type": "function",
			"name": "BASE_SEL",
			"inputs": [],
			"outputs": [
				{
					"name": "",
					"type": "uint64",
					"internalType": "uint64"
				}
			],
			"stateMutability": "view"
		},
		{
			"type": "function",
			"name": "BASE_SEP_ID",
			"inputs": [],
			"outputs": [
				{
					"name": "",
					"type": "uint256",
					"internalType": "uint256"
				}
			],
			"stateMutability": "view"
		},
		{
			"type": "function",
			"name": "BASE_SEP_LINK",
			"inputs": [],
			"outputs": [
				{
					"name": "",
					"type": "address",
					"internalType": "address"
				}
			],
			"stateMutability": "view"
		},
		{
			"type": "function",
			"name": "BASE_SEP_ROUTER",
			"inputs": [],
			"outputs": [
				{
					"name": "",
					"type": "address",
					"internalType": "address"
				}
			],
			"stateMutability": "view"
		},
		{
			"type": "function",
			"name": "BASE_SEP_SEL",
			"inputs": [],
			"outputs": [
				{
					"name": "",
					"type": "uint64",
					"internalType": "uint64"
				}
			],
			"stateMutability": "view"
		},
		{
			"type": "function",
			"name": "BASE_SEP_WETH",
			"inputs": [],
			"outputs": [
				{
					"name": "",
					"type": "address",
					"internalType": "address"
				}
			],
			"stateMutability": "view"
		},
		{
			"type": "function",
			"name": "BASE_WETH",
			"inputs": [],
			"outputs": [
				{
					"name": "",
					"type": "address",
					"internalType": "address"
				}
			],
			"stateMutability": "view"
		},
		{
			"type": "function",
			"name": "BNB_ID",
			"inputs": [],
			"outputs": [
				{
					"name": "",
					"type": "uint256",
					"internalType": "uint256"
				}
			],
			"stateMutability": "view"
		},
		{
			"type": "function",
			"name": "BNB_ROUTER",
			"inputs": [],
			"outputs": [
				{
					"name": "",
					"type": "address",
					"internalType": "address"
				}
			],
			"stateMutability": "view"
		},
		{
			"type": "function",
			"name": "BNB_SEL",
			"inputs": [],
			"outputs": [
				{
					"name": "",
					"type": "uint64",
					"internalType": "uint64"
				}
			],
			"stateMutability": "view"
		},
		{
			"type": "function",
			"name": "BNB_WETH",
			"inputs": [],
			"outputs": [
				{
					"name": "",
					"type": "address",
					"internalType": "address"
				}
			],
			"stateMutability": "view"
		},
		{
			"type": "function",
			"name": "ETH_ID",
			"inputs": [],
			"outputs": [
				{
					"name": "",
					"type": "uint256",
					"internalType": "uint256"
				}
			],
			"stateMutability": "view"
		},
		{
			"type": "function",
			"name": "ETH_LINK",
			"inputs": [],
			"outputs": [
				{
					"name": "",
					"type": "address",
					"internalType": "address"
				}
			],
			"stateMutability": "view"
		},
		{
			"type": "function",
			"name": "ETH_ROUTER",
			"inputs": [],
			"outputs": [
				{
					"name": "",
					"type": "address",
					"internalType": "address"
				}
			],
			"stateMutability": "view"
		},
		{
			"type": "function",
			"name": "ETH_SEL",
			"inputs": [],
			"outputs": [
				{
					"name": "",
					"type": "uint64",
					"internalType": "uint64"
				}
			],
			"stateMutability": "view"
		},
		{
			"type": "function",
			"name": "ETH_SEP_ID",
			"inputs": [],
			"outputs": [
				{
					"name": "",
					"type": "uint256",
					"internalType": "uint256"
				}
			],
			"stateMutability": "view"
		},
		{
			"type": "function",
			"name": "ETH_SEP_LINK",
			"inputs": [],
			"outputs": [
				{
					"name": "",
					"type": "address",
					"internalType": "address"
				}
			],
			"stateMutability": "view"
		},
		{
			"type": "function",
			"name": "ETH_SEP_ROUTER",
			"inputs": [],
			"outputs": [
				{
					"name": "",
					"type": "address",
					"internalType": "address"
				}
			],
			"stateMutability": "view"
		},
		{
			"type": "function",
			"name": "ETH_SEP_SEL",
			"inputs": [],
			"outputs": [
				{
					"name": "",
					"type": "uint64",
					"internalType": "uint64"
				}
			],
			"stateMutability": "view"
		},
		{
			"type": "function",
			"name": "ETH_SEP_WETH",
			"inputs": [],
			"outputs": [
				{
					"name": "",
					"type": "address",
					"internalType": "address"
				}
			],
			"stateMutability": "view"
		},
		{
			"type": "function",
			"name": "ETH_WETH",
			"inputs": [],
			"outputs": [
				{
					"name": "",
					"type": "address",
					"internalType": "address"
				}
			],
			"stateMutability": "view"
		},
		{
			"type": "function",
			"name": "OP_ID",
			"inputs": [],
			"outputs": [
				{
					"name": "",
					"type": "uint256",
					"internalType": "uint256"
				}
			],
			"stateMutability": "view"
		},
		{
			"type": "function",
			"name": "OP_LINK",
			"inputs": [],
			"outputs": [
				{
					"name": "",
					"type": "address",
					"internalType": "address"
				}
			],
			"stateMutability": "view"
		},
		{
			"type": "function",
			"name": "OP_ROUTER",
			"inputs": [],
			"outputs": [
				{
					"name": "",
					"type": "address",
					"internalType": "address"
				}
			],
			"stateMutability": "view"
		},
		{
			"type": "function",
			"name": "OP_SEL",
			"inputs": [],
			"outputs": [
				{
					"name": "",
					"type": "uint64",
					"internalType": "uint64"
				}
			],
			"stateMutability": "view"
		},
		{
			"type": "function",
			"name": "OP_SEP_ID",
			"inputs": [],
			"outputs": [
				{
					"name": "",
					"type": "uint256",
					"internalType": "uint256"
				}
			],
			"stateMutability": "view"
		},
		{
			"type": "function",
			"name": "OP_SEP_LINK",
			"inputs": [],
			"outputs": [
				{
					"name": "",
					"type": "address",
					"internalType": "address"
				}
			],
			"stateMutability": "view"
		},
		{
			"type": "function",
			"name": "OP_SEP_ROUTER",
			"inputs": [],
			"outputs": [
				{
					"name": "",
					"type": "address",
					"internalType": "address"
				}
			],
			"stateMutability": "view"
		},
		{
			"type": "function",
			"name": "OP_SEP_SEL",
			"inputs": [],
			"outputs": [
				{
					"name": "",
					"type": "uint64",
					"internalType": "uint64"
				}
			],
			"stateMutability": "view"
		},
		{
			"type": "function",
			"name": "OP_SEP_WETH",
			"inputs": [],
			"outputs": [
				{
					"name": "",
					"type": "address",
					"internalType": "address"
				}
			],
			"stateMutability": "view"
		},
		{
			"type": "function",
			"name": "OP_WETH",
			"inputs": [],
			"outputs": [
				{
					"name": "",
					"type": "address",
					"internalType": "address"
				}
			],
			"stateMutability": "view"
		},
		{
			"type": "function",
			"name": "POLY_ID",
			"inputs": [],
			"outputs": [
				{
					"name": "",
					"type": "uint256",
					"internalType": "uint256"
				}
			],
			"stateMutability": "view"
		},
		{
			"type": "function",
			"name": "POLY_ROUTER",
			"inputs": [],
			"outputs": [
				{
					"name": "",
					"type": "address",
					"internalType": "address"
				}
			],
			"stateMutability": "view"
		},
		{
			"type": "function",
			"name": "POLY_SEL",
			"inputs": [],
			"outputs": [
				{
					"name": "",
					"type": "uint64",
					"internalType": "uint64"
				}
			],
			"stateMutability": "view"
		},
		{
			"type": "function",
			"name": "POLY_WETH",
			"inputs": [],
			"outputs": [
				{
					"name": "",
					"type": "address",
					"internalType": "address"
				}
			],
			"stateMutability": "view"
		},
		{
			"type": "function",
			"name": "TEMPO_ID",
			"inputs": [],
			"outputs": [
				{
					"name": "",
					"type": "uint256",
					"internalType": "uint256"
				}
			],
			"stateMutability": "view"
		},
		{
			"type": "function",
			"name": "TEMPO_LINK",
			"inputs": [],
			"outputs": [
				{
					"name": "",
					"type": "address",
					"internalType": "address"
				}
			],
			"stateMutability": "view"
		},
		{
			"type": "function",
			"name": "TEMPO_MOD_ID",
			"inputs": [],
			"outputs": [
				{
					"name": "",
					"type": "uint256",
					"internalType": "uint256"
				}
			],
			"stateMutability": "view"
		},
		{
			"type": "function",
			"name": "TEMPO_MOD_LINK",
			"inputs": [],
			"outputs": [
				{
					"name": "",
					"type": "address",
					"internalType": "address"
				}
			],
			"stateMutability": "view"
		},
		{
			"type": "function",
			"name": "TEMPO_MOD_ROUTER",
			"inputs": [],
			"outputs": [
				{
					"name": "",
					"type": "address",
					"internalType": "address"
				}
			],
			"stateMutability": "view"
		},
		{
			"type": "function",
			"name": "TEMPO_MOD_SEL",
			"inputs": [],
			"outputs": [
				{
					"name": "",
					"type": "uint64",
					"internalType": "uint64"
				}
			],
			"stateMutability": "view"
		},
		{
			"type": "function",
			"name": "TEMPO_MOD_WETH",
			"inputs": [],
			"outputs": [
				{
					"name": "",
					"type": "address",
					"internalType": "address"
				}
			],
			"stateMutability": "view"
		},
		{
			"type": "function",
			"name": "TEMPO_ROUTER",
			"inputs": [],
			"outputs": [
				{
					"name": "",
					"type": "address",
					"internalType": "address"
				}
			],
			"stateMutability": "view"
		},
		{
			"type": "function",
			"name": "TEMPO_SEL",
			"inputs": [],
			"outputs": [
				{
					"name": "",
					"type": "uint64",
					"internalType": "uint64"
				}
			],
			"stateMutability": "view"
		},
		{
			"type": "function",
			"name": "TEMPO_WETH",
			"inputs": [],
			"outputs": [
				{
					"name": "",
					"type": "address",
					"internalType": "address"
				}
			],
			"stateMutability": "view"
		},
		{
			"type": "function",
			"name": "linkOfChain",
			"inputs": [
				{
					"name": "chainId",
					"type": "uint256",
					"internalType": "uint256"
				}
			],
			"outputs": [
				{
					"name": "link",
					"type": "address",
					"internalType": "address"
				}
			],
			"stateMutability": "pure"
		},
		{
			"type": "function",
			"name": "wethOfChain",
			"inputs": [
				{
					"name": "chainId",
					"type": "uint256",
					"internalType": "uint256"
				}
			],
			"outputs": [
				{
					"name": "weth",
					"type": "address",
					"internalType": "address"
				}
			],
			"stateMutability": "pure"
		},
		{
			"type": "error",
			"name": "CCIPHelper_UnsupportedChain",
			"inputs": [
				{
					"name": "chainId",
					"type": "uint256",
					"internalType": "uint256"
				}
			]
		}
	],
	"args": [],
	"solcInputHash": "8606f7ab719ec79d75dbfda5a09a57f9",
	"bytecode": "0x610c12610034600b8282823980515f1a607314602857634e487b7160e01b5f525f60045260245ffd5b305f52607381538281f3fe73000000000000000000000000000000000000000030146080604052600436106103c9575f3560e01c80639304b37211610200578063bf2bb3cf1161011f578063d72664c4116100b4578063e540a64a11610084578063e540a64a14610869578063e625a8ea14610884578063ea3485aa1461088c578063fa59f02d146108a7575f5ffd5b8063d72664c41461083c578063dae764a614610857578063dd431bb214610860578063e337d2df14610605575f5ffd5b8063cb12326a116100ef578063cb12326a14610800578063cfaf02cb1461080f578063cfc7c02914610819578063d150aff814610821575f5ffd5b8063bf2bb3cf146107b8578063bf97c26d146107c7578063c7f6476a146107e2578063c8ce6723146107f1575f5ffd5b8063ac1a63a111610195578063b25a025611610165578063b25a02561461074c578063b40f6de314610767578063ba34a1b514610782578063be461f9e1461079d575f5ffd5b8063ac1a63a114610707578063ad5ce65714610722578063ae56bd411461073d578063b07e429714610605575f5ffd5b8063a4566da2116101d0578063a4566da2146106b3578063a7886203146106c2578063a8a2f6c5146106dd578063a9315627146106f8575f5ffd5b80639304b3721461067b57806399134ace146106965780639b694e18146106055780639bb308d0146106a9575f5ffd5b80634a878320116102ec578063649d7385116102815780638a42d26f116102515780638a42d26f1461063d5780638f491dba146106585780638f956fbd146104a257806390b4203a14610673575f5ffd5b8063649d7385146105ea57806364a4b549146106055780638064952a14610613578063859578bb1461062e575f5ffd5b8063557d61f8116102bc578063557d61f8146105ae57806357aebd04146105b757806360a5f422146105c65780636141455e146105cf575f5ffd5b80634a878320146105555780634d6b95c0146105705780634f9bfaa1146105785780635557df7914610593575f5ffd5b80632f56e82a116103625780633c67de7a116103325780633c67de7a146104f5578063426daabb1461050457806343bb8a201461051f5780634894a4781461053a575f5ffd5b80632f56e82a146104a25780632f8eeb3d146104bd578063385cb3c6146104d0578063399fc6dc146104eb575f5ffd5b80630595179a1161039d5780630595179a1461044e5780631d48cd861461045d5780632833ed6c146104785780632f2fd33914610487575f5ffd5b8062988988146103cd57806301a252de1461040557806304d267831461041d5780630571092414610445575b5f5ffd5b6103e873eab080c724587ffc9f2eff82e36ee4fb2777495981565b6040516001600160a01b0390911681526020015b60405180910390f35b61040f62aa36a781565b6040519081526020016103fc565b61042c67304611b6affba76a81565b60405167ffffffffffffffff90911681526020016103fc565b61040f61107981565b61042c679d70576d8e253bcf81565b6103e8730d500b1d8e8ef31e21c99d1db9a6444d3adf127081565b61042c678f90b8876dee653881565b6103e873779877a7b0d9e8603169ddbd7836e478b462478981565b6103e873e4ab69c077896252fafbd49efd26b5d171a3241081565b6103e86104cb366004610bee565b6108c2565b6103e873141fa059441e0ca23ce184b6a78bafd2a517dde881565b61040f62aa37dc81565b61042c67594862ae1802b3d581565b6103e873d3b06cebf099ce7da4accf578aaebfdbd6e88a9381565b6103e873c02aaa39b223fe8d0a0e5c4f27ead9083c756cc281565b6103e873e591bf0a0cf924a0674d7792db046b23cebf5f3481565b6103e873a132f089492cce5f1d79483a9e4552f37266ed0181565b61040f600a81565b6103e873514910771af9ca656af840dff83e8264ecf986ca81565b6103e87315c03488b29e27d62baf10e30b0c474bf60e026481565b61040f61a4b181565b61042c6745849994fc9c7b1581565b61040f61a5bf81565b6103e8730bf3de8c5d3e8a2b34d2beeb17abfcebaf363a5981565b6103e873114a20a10b43d4115e5aeef7345a1a71d2a60c5781565b6103e86006602160991b0181565b6103e873d3e53ccee3688aaee5c9118ef5fe24eb423aa56f81565b61042c67de41ba4fc9d91ad981565b6103e873f4c7e640eda248ef95972845a62bdc74237805db81565b6103e87334b03cb9086d7d758ac55af71584f81a598759fe81565b61040f603881565b6103e87380226fc0ee2b096224eeac085bb9a8cba1146f7d81565b6103e86106a4366004610bee565b610a4d565b61040f62066eee81565b61042c6733d343f77863cab881565b6103e873350a791bfc2c21f9ed5d10980dad2e2638ffa7f681565b6103e873bb4cdb9cbd36b01bd1cbaebf2de08d9173bc095c81565b61042c6748810ec3e431431f81565b6103e873f97f4df75117a78c1a5a0dbb814af92458539fb481565b6103e87382af49447d8a07e3bd95bd0d56f35241523fbab181565b61042c67650d9773a4c17e1681565b6103e8733206695cae29952f4b0c22a169725a865bc8ce0f81565b6103e873bb2d3310e4232085d432a2e04b2ac09c46f634e481565b6103e873849c5ed5a80f5b408dd4969b78c2c8fdf0565bfe81565b6103e873097d90c9d3e0b50ca60e1ae45f6a81010f9fb53481565b61042c67756034264d300d9381565b6103e873c5d538c96d6fee7e6dfe7248b32898087b22ba7981565b61042c6744ae84d8e9a3744481565b61042c67dda641cfe44aff8281565b61042c67383a1891ae1915b181565b61040f62014a3481565b61040f608981565b6103e8732a9c5afb0d0e4bab2bcdae109ec4b0c4be15a16581565b6103e873b31f66aa3c1e785363f0875a1b74e27b85fd66c781565b61040f61210581565b61040f61a86a81565b6103e87388fb150bdc53a65fe94dea0c9ba0a6daf8c6e19681565b61040f600181565b6103e873881e3a65b4d4a04dd529061dd0071cf975f58bcd81565b6103e873b1d4538b4571d411f07960ef2838ce337fe1e80e81565b5f600182036108e6575073514910771af9ca656af840dff83e8264ecf986ca919050565b600a8203610909575073350a791bfc2c21f9ed5d10980dad2e2638ffa7f6919050565b61a4b1820361092d575073f97f4df75117a78c1a5a0dbb814af92458539fb4919050565b612105820361095157507388fb150bdc53a65fe94dea0c9ba0a6daf8c6e196919050565b62aa36a78203610976575073779877a7b0d9e8603169ddbd7836e478b4624789919050565b62aa37dc820361099b575073e4ab69c077896252fafbd49efd26b5d171a32410919050565b62066eee82036109c0575073b1d4538b4571d411f07960ef2838ce337fe1e80e919050565b62014a3482036109e5575073e4ab69c077896252fafbd49efd26b5d171a32410919050565b6110798203610a0957507315c03488b29e27d62baf10e30b0c474bf60e0264919050565b61a5bf8203610a2d575073eab080c724587ffc9f2eff82e36ee4fb27774959919050565b60405163da7e115f60e01b81526004810183905260240160405180910390fd5b5f60018203610a71575073c02aaa39b223fe8d0a0e5c4f27ead9083c756cc2919050565b600a8203610a8757506006602160991b01919050565b61a4b18203610aab57507382af49447d8a07e3bd95bd0d56f35241523fbab1919050565b60898203610ace5750730d500b1d8e8ef31e21c99d1db9a6444d3adf1270919050565b61a86a8203610af2575073b31f66aa3c1e785363f0875a1b74e27b85fd66c7919050565b60388203610b15575073bb4cdb9cbd36b01bd1cbaebf2de08d9173bc095c919050565b6121058203610b2c57506006602160991b01919050565b62aa36a78203610b51575073097d90c9d3e0b50ca60e1ae45f6a81010f9fb534919050565b62066eee8203610b76575073e591bf0a0cf924a0674d7792db046b23cebf5f34919050565b62aa37dc8203610b8e57506006602160991b01919050565b62014a348203610ba657506006602160991b01919050565b6110798203610bca575073c5d538c96d6fee7e6dfe7248b32898087b22ba79919050565b61a5bf8203610a2d575073bb2d3310e4232085d432a2e04b2ac09c46f634e4919050565b5f60208284031215610bfe575f5ffd5b503591905056fea164736f6c634300081c000a",
	"gitCommit": "npm:@bananapus/suckers-v6@0.0.72",
	"gitDirty": false,
	"history": []
}