{
	"format": "sphinx-sol-ct-artifact-1",
	"address": "0x73f3a913eae70c4d3b3b8dc1354b2ea680225d88",
	"sourceName": "node_modules/@bananapus/suckers-v6/src/libraries/JBCCIPLib.sol",
	"contractName": "JBCCIPLib",
	"chainId": "0xaa37dc",
	"abi": [
		{
			"type": "function",
			"name": "decodeTypedMessage",
			"inputs": [
				{
					"name": "data",
					"type": "bytes",
					"internalType": "bytes"
				}
			],
			"outputs": [
				{
					"name": "messageType",
					"type": "uint8",
					"internalType": "uint8"
				},
				{
					"name": "payload",
					"type": "bytes",
					"internalType": "bytes"
				}
			],
			"stateMutability": "pure"
		},
		{
			"type": "error",
			"name": "SafeERC20FailedOperation",
			"inputs": [
				{
					"name": "token",
					"type": "address",
					"internalType": "address"
				}
			]
		}
	],
	"args": [],
	"solcInputHash": "2676fc869f37084ff7c4a27f2b4c5f52",
	"bytecode": "0x610fd3610034600b8282823980515f1a607314602857634e487b7160e01b5f525f60045260245ffd5b305f52607381538281f3fe7300000000000000000000000000000000000000003014608060405260043610610055575f3560e01c8063476deacb14610059578063511bd95c146100835780636b565328146100a457806388a82668146100da575b5f5ffd5b61006c610067366004610a16565b610107565b60405161007a929190610a7e565b60405180910390f35b81801561008e575f5ffd5b506100a261009d366004610ac0565b610128565b005b8180156100af575f5ffd5b506100c36100be366004610c08565b610266565b60408051921515835260208301919091520161007a565b8180156100e5575f5ffd5b506100f96100f4366004610ce2565b6105c4565b60405161007a929190610d20565b5f60608280602001905181019061011e9190610d97565b9094909350915050565b6001819003610261573682825f81811061014457610144610e25565b90506040020190505f846001600160a01b031663e861e9076040518163ffffffff1660e01b8152600401602060405180830381865afa158015610189573d5f5f3e3d5ffd5b505050506040513d601f19601f820116820180604052508101906101ad9190610e39565b90506001600160a01b0381166101c66020840184610e5b565b6001600160a01b03161480156101df57505f8260200135115b1561025e57604051632e1a7d4d60e01b81526020830135600482015247906001600160a01b03831690632e1a7d4d906024015f604051808303815f87803b158015610228575f5ffd5b505af115801561023a573d5f5f3e3d5ffd5b505050504783602001358261024f9190610e8a565b1461025c5761025c610ea3565b505b50505b505050565b6040805160a081019091526001600160a01b03891660c08201525f9081908c908c9083908060e0810160405160208183030381529060405281526020018981526020018881526020018c6001600160a01b0316815260200161030d60405180602001604052808d81525060408051915160248084019190915281518084039091018152604490920190526020810180516001600160e01b03166397a657c960e01b17905290565b90526040516320487ded60e01b81529091505f906001600160a01b038516906320487ded906103429086908690600401610eb7565b602060405180830381865afa15801561035d573d5f5f3e3d5ffd5b505050506040513d601f19601f820116820180604052508101906103819190610f9c565b90506001600160a01b038c16156104c5576001600160a01b038b16156103b6576103b66001600160a01b038d168c308461076b565b805f5b895181101561042f578d6001600160a01b03168a82815181106103de576103de610e25565b60200260200101515f01516001600160a01b0316036104275789818151811061040957610409610e25565b602002602001015160200151826104209190610e8a565b915061042f565b6001016103b9565b5061043b8d86836107ac565b6040516396f4e9f960e01b81526001600160a01b038616906396f4e9f9906104699087908790600401610eb7565b6020604051808303815f875af1158015610485573d5f5f3e3d5ffd5b505050506040513d601f19601f820116820180604052508101906104a99190610f9c565b506104b4858a610826565b6104bf8d865f6107ac565b506105b1565b6040516396f4e9f960e01b81526001600160a01b038516906396f4e9f99083906104f59087908790600401610eb7565b60206040518083038185885af1158015610511573d5f5f3e3d5ffd5b50505050506040513d601f19601f820116820180604052508101906105369190610f9c565b506105418489610826565b61054b818e610fb3565b945084156105b1575f876001600160a01b0316866040515f6040518083038185875af1925050503d805f811461059c576040519150601f19603f3d011682016040523d82523d5f602084013e6105a1565b606091505b50509050806105af57600196505b505b505050509a509a98505050505050505050565b60605f825f0361061457604080515f8082526020820190925290610609565b604080518082019091525f80825260208201528152602001906001900390816105e35790505b508491509150610763565b508261eeed196001600160a01b038216016106e0575f856001600160a01b031663e861e9076040518163ffffffff1660e01b8152600401602060405180830381865afa158015610666573d5f5f3e3d5ffd5b505050506040513d601f19601f8201168201806040525081019061068a9190610e39565b9050806001600160a01b031663d0e30db0856040518263ffffffff1660e01b81526004015f604051808303818588803b1580156106c5575f5ffd5b505af11580156106d7573d5f5f3e3d5ffd5b50939450505050505b60408051600180825281830190925290816020015b604080518082019091525f80825260208201528152602001906001900390816106f55790505091506040518060400160405280826001600160a01b0316815260200184815250825f8151811061074d5761074d610e25565b60200260200101819052506107638186856107ac565b935093915050565b610779848484846001610860565b6107a657604051635274afe760e01b81526001600160a01b03851660048201526024015b60405180910390fd5b50505050565b6107b88383835f6108cd565b610261576107c983835f60016108cd565b6107f157604051635274afe760e01b81526001600160a01b038416600482015260240161079d565b6107fe83838360016108cd565b61026157604051635274afe760e01b81526001600160a01b038416600482015260240161079d565b5f5b81518110156102615761085882828151811061084657610846610e25565b60200260200101515f0151845f6107ac565b600101610828565b6040516323b872dd60e01b5f8181526001600160a01b038781166004528616602452604485905291602083606481808c5af1925060015f511483166108bc5783831516156108b0573d5f823e3d81fd5b5f883b113d1516831692505b604052505f60605295945050505050565b60405163095ea7b360e01b5f8181526001600160a01b038616600452602485905291602083604481808b5af1925060015f51148316610923578383151615610917573d5f823e3d81fd5b5f873b113d1516831692505b60405250949350505050565b634e487b7160e01b5f52604160045260245ffd5b6040805190810167ffffffffffffffff811182821017156109665761096661092f565b60405290565b604051601f8201601f1916810167ffffffffffffffff811182821017156109955761099561092f565b604052919050565b5f67ffffffffffffffff8211156109b6576109b661092f565b50601f01601f191660200190565b5f82601f8301126109d3575f5ffd5b81356109e66109e18261099d565b61096c565b8181528460208386010111156109fa575f5ffd5b816020850160208301375f918101602001919091529392505050565b5f60208284031215610a26575f5ffd5b813567ffffffffffffffff811115610a3c575f5ffd5b610a48848285016109c4565b949350505050565b5f81518084528060208401602086015e5f602082860101526020601f19601f83011685010191505092915050565b60ff83168152604060208201525f610a486040830184610a50565b6001600160a01b0381168114610aad575f5ffd5b50565b8035610abb81610a99565b919050565b5f5f5f60408486031215610ad2575f5ffd5b8335610add81610a99565b9250602084013567ffffffffffffffff811115610af8575f5ffd5b8401601f81018613610b08575f5ffd5b803567ffffffffffffffff811115610b1e575f5ffd5b8660208260061b8401011115610b32575f5ffd5b939660209190910195509293505050565b803567ffffffffffffffff81168114610abb575f5ffd5b5f82601f830112610b69575f5ffd5b813567ffffffffffffffff811115610b8357610b8361092f565b610b9260208260051b0161096c565b8082825260208201915060208360061b860101925085831115610bb3575f5ffd5b602085015b83811015610bfe5760408188031215610bcf575f5ffd5b610bd7610943565b8135610be281610a99565b8152602082810135818301529084529290920191604001610bb8565b5095945050505050565b5f5f5f5f5f5f5f5f5f5f6101408b8d031215610c22575f5ffd5b610c2b8b610ab0565b9950610c3960208c01610b43565b9850610c4760408c01610ab0565b975060608b01359650610c5c60808c01610ab0565b9550610c6a60a08c01610ab0565b945060c08b0135935060e08b013567ffffffffffffffff811115610c8c575f5ffd5b610c988d828e016109c4565b9350506101008b013567ffffffffffffffff811115610cb5575f5ffd5b610cc18d828e01610b5a565b925050610cd16101208c01610ab0565b90509295989b9194979a5092959850565b5f5f5f60608486031215610cf4575f5ffd5b8335610cff81610a99565b92506020840135610d0f81610a99565b929592945050506040919091013590565b604080825283519082018190525f9060208501906060840190835b81811015610d7757610d6183855180516001600160a01b03168252602090810151910152565b6020939093019260409290920191600101610d3b565b50506001600160a01b039490941660209390930192909252509092915050565b5f5f60408385031215610da8575f5ffd5b825160ff81168114610db8575f5ffd5b602084015190925067ffffffffffffffff811115610dd4575f5ffd5b8301601f81018513610de4575f5ffd5b8051610df26109e18261099d565b818152866020838501011115610e06575f5ffd5b8160208401602083015e5f602083830101528093505050509250929050565b634e487b7160e01b5f52603260045260245ffd5b5f60208284031215610e49575f5ffd5b8151610e5481610a99565b9392505050565b5f60208284031215610e6b575f5ffd5b8135610e5481610a99565b634e487b7160e01b5f52601160045260245ffd5b80820180821115610e9d57610e9d610e76565b92915050565b634e487b7160e01b5f52600160045260245ffd5b67ffffffffffffffff83168152604060208201525f825160a06040840152610ee260e0840182610a50565b90506020840151603f19848303016060850152610eff8282610a50565b6040860151858203603f190160808701528051808352602091820194505f93509101905b80831015610f6057610f4982855180516001600160a01b03168252602090810151910152565b604082019150602084019350600183019250610f23565b5060608601516001600160a01b031660a08601526080860151858203603f190160c08701529250610f918184610a50565b979650505050505050565b5f60208284031215610fac575f5ffd5b5051919050565b81810381811115610e9d57610e9d610e7656fea164736f6c634300081c000a",
	"gitCommit": "npm:@bananapus/suckers-v6@0.0.72",
	"gitDirty": false,
	"history": []
}