{
	"format": "sphinx-sol-ct-artifact-1",
	"address": "0xb68ba7892817a892f35d713a2705854f20368040",
	"sourceName": "node_modules/@bananapus/suckers-v6/src/JBOptimismSucker.sol",
	"contractName": "JBOptimismSucker",
	"chainId": "0xaa37dc",
	"abi": [
		{
			"type": "constructor",
			"inputs": [
				{
					"name": "deployer",
					"type": "address",
					"internalType": "contract JBOptimismSuckerDeployer"
				},
				{
					"name": "directory",
					"type": "address",
					"internalType": "contract IJBDirectory"
				},
				{
					"name": "permissions",
					"type": "address",
					"internalType": "contract IJBPermissions"
				},
				{
					"name": "tokens",
					"type": "address",
					"internalType": "contract IJBTokens"
				},
				{
					"name": "feeProjectId",
					"type": "uint256",
					"internalType": "uint256"
				},
				{
					"name": "registry",
					"type": "address",
					"internalType": "contract IJBSuckerRegistry"
				},
				{
					"name": "trustedForwarder",
					"type": "address",
					"internalType": "address"
				}
			],
			"stateMutability": "nonpayable"
		},
		{
			"type": "receive",
			"stateMutability": "payable"
		},
		{
			"type": "function",
			"name": "DIRECTORY",
			"inputs": [],
			"outputs": [
				{
					"name": "",
					"type": "address",
					"internalType": "contract IJBDirectory"
				}
			],
			"stateMutability": "view"
		},
		{
			"type": "function",
			"name": "FEE_PROJECT_ID",
			"inputs": [],
			"outputs": [
				{
					"name": "",
					"type": "uint256",
					"internalType": "uint256"
				}
			],
			"stateMutability": "view"
		},
		{
			"type": "function",
			"name": "MESSAGE_VERSION",
			"inputs": [],
			"outputs": [
				{
					"name": "",
					"type": "uint8",
					"internalType": "uint8"
				}
			],
			"stateMutability": "view"
		},
		{
			"type": "function",
			"name": "MESSENGER_BASE_GAS_LIMIT",
			"inputs": [],
			"outputs": [
				{
					"name": "",
					"type": "uint32",
					"internalType": "uint32"
				}
			],
			"stateMutability": "view"
		},
		{
			"type": "function",
			"name": "MESSENGER_ERC20_MIN_GAS_LIMIT",
			"inputs": [],
			"outputs": [
				{
					"name": "",
					"type": "uint32",
					"internalType": "uint32"
				}
			],
			"stateMutability": "view"
		},
		{
			"type": "function",
			"name": "OPBRIDGE",
			"inputs": [],
			"outputs": [
				{
					"name": "",
					"type": "address",
					"internalType": "contract IOPStandardBridge"
				}
			],
			"stateMutability": "view"
		},
		{
			"type": "function",
			"name": "OPMESSENGER",
			"inputs": [],
			"outputs": [
				{
					"name": "",
					"type": "address",
					"internalType": "contract IOPMessenger"
				}
			],
			"stateMutability": "view"
		},
		{
			"type": "function",
			"name": "PERMISSIONS",
			"inputs": [],
			"outputs": [
				{
					"name": "",
					"type": "address",
					"internalType": "contract IJBPermissions"
				}
			],
			"stateMutability": "view"
		},
		{
			"type": "function",
			"name": "PROJECTS",
			"inputs": [],
			"outputs": [
				{
					"name": "",
					"type": "address",
					"internalType": "contract IJBProjects"
				}
			],
			"stateMutability": "view"
		},
		{
			"type": "function",
			"name": "REGISTRY",
			"inputs": [],
			"outputs": [
				{
					"name": "",
					"type": "address",
					"internalType": "contract IJBSuckerRegistry"
				}
			],
			"stateMutability": "view"
		},
		{
			"type": "function",
			"name": "TOKENS",
			"inputs": [],
			"outputs": [
				{
					"name": "",
					"type": "address",
					"internalType": "contract IJBTokens"
				}
			],
			"stateMutability": "view"
		},
		{
			"type": "function",
			"name": "amountToAddToBalanceOf",
			"inputs": [
				{
					"name": "token",
					"type": "address",
					"internalType": "address"
				}
			],
			"outputs": [
				{
					"name": "",
					"type": "uint256",
					"internalType": "uint256"
				}
			],
			"stateMutability": "view"
		},
		{
			"type": "function",
			"name": "claim",
			"inputs": [
				{
					"name": "claims",
					"type": "tuple[]",
					"internalType": "struct JBClaim[]",
					"components": [
						{
							"name": "token",
							"type": "address",
							"internalType": "address"
						},
						{
							"name": "leaf",
							"type": "tuple",
							"internalType": "struct JBLeaf",
							"components": [
								{
									"name": "index",
									"type": "uint256",
									"internalType": "uint256"
								},
								{
									"name": "beneficiary",
									"type": "bytes32",
									"internalType": "bytes32"
								},
								{
									"name": "projectTokenCount",
									"type": "uint256",
									"internalType": "uint256"
								},
								{
									"name": "terminalTokenAmount",
									"type": "uint256",
									"internalType": "uint256"
								},
								{
									"name": "metadata",
									"type": "bytes32",
									"internalType": "bytes32"
								}
							]
						},
						{
							"name": "proof",
							"type": "bytes32[32]",
							"internalType": "bytes32[32]"
						}
					]
				}
			],
			"outputs": [],
			"stateMutability": "nonpayable"
		},
		{
			"type": "function",
			"name": "claim",
			"inputs": [
				{
					"name": "claimData",
					"type": "tuple",
					"internalType": "struct JBClaim",
					"components": [
						{
							"name": "token",
							"type": "address",
							"internalType": "address"
						},
						{
							"name": "leaf",
							"type": "tuple",
							"internalType": "struct JBLeaf",
							"components": [
								{
									"name": "index",
									"type": "uint256",
									"internalType": "uint256"
								},
								{
									"name": "beneficiary",
									"type": "bytes32",
									"internalType": "bytes32"
								},
								{
									"name": "projectTokenCount",
									"type": "uint256",
									"internalType": "uint256"
								},
								{
									"name": "terminalTokenAmount",
									"type": "uint256",
									"internalType": "uint256"
								},
								{
									"name": "metadata",
									"type": "bytes32",
									"internalType": "bytes32"
								}
							]
						},
						{
							"name": "proof",
							"type": "bytes32[32]",
							"internalType": "bytes32[32]"
						}
					]
				}
			],
			"outputs": [],
			"stateMutability": "nonpayable"
		},
		{
			"type": "function",
			"name": "claimRetainedToRemoteFee",
			"inputs": [
				{
					"name": "beneficiary",
					"type": "address",
					"internalType": "address payable"
				}
			],
			"outputs": [],
			"stateMutability": "nonpayable"
		},
		{
			"type": "function",
			"name": "claimRetainedTransportPaymentRefund",
			"inputs": [
				{
					"name": "beneficiary",
					"type": "address",
					"internalType": "address payable"
				}
			],
			"outputs": [],
			"stateMutability": "nonpayable"
		},
		{
			"type": "function",
			"name": "deployer",
			"inputs": [],
			"outputs": [
				{
					"name": "",
					"type": "address",
					"internalType": "address"
				}
			],
			"stateMutability": "view"
		},
		{
			"type": "function",
			"name": "enableEmergencyHatchFor",
			"inputs": [
				{
					"name": "tokens",
					"type": "address[]",
					"internalType": "address[]"
				}
			],
			"outputs": [],
			"stateMutability": "nonpayable"
		},
		{
			"type": "function",
			"name": "executedLeafHashOf",
			"inputs": [
				{
					"name": "token",
					"type": "address",
					"internalType": "address"
				},
				{
					"name": "index",
					"type": "uint256",
					"internalType": "uint256"
				}
			],
			"outputs": [
				{
					"name": "",
					"type": "bytes32",
					"internalType": "bytes32"
				}
			],
			"stateMutability": "view"
		},
		{
			"type": "function",
			"name": "exitThroughEmergencyHatch",
			"inputs": [
				{
					"name": "claimData",
					"type": "tuple",
					"internalType": "struct JBClaim",
					"components": [
						{
							"name": "token",
							"type": "address",
							"internalType": "address"
						},
						{
							"name": "leaf",
							"type": "tuple",
							"internalType": "struct JBLeaf",
							"components": [
								{
									"name": "index",
									"type": "uint256",
									"internalType": "uint256"
								},
								{
									"name": "beneficiary",
									"type": "bytes32",
									"internalType": "bytes32"
								},
								{
									"name": "projectTokenCount",
									"type": "uint256",
									"internalType": "uint256"
								},
								{
									"name": "terminalTokenAmount",
									"type": "uint256",
									"internalType": "uint256"
								},
								{
									"name": "metadata",
									"type": "bytes32",
									"internalType": "bytes32"
								}
							]
						},
						{
							"name": "proof",
							"type": "bytes32[32]",
							"internalType": "bytes32[32]"
						}
					]
				}
			],
			"outputs": [],
			"stateMutability": "nonpayable"
		},
		{
			"type": "function",
			"name": "fromRemote",
			"inputs": [
				{
					"name": "root",
					"type": "tuple",
					"internalType": "struct JBMessageRoot",
					"components": [
						{
							"name": "version",
							"type": "uint8",
							"internalType": "uint8"
						},
						{
							"name": "token",
							"type": "bytes32",
							"internalType": "bytes32"
						},
						{
							"name": "amount",
							"type": "uint256",
							"internalType": "uint256"
						},
						{
							"name": "remoteRoot",
							"type": "tuple",
							"internalType": "struct JBInboxTreeRoot",
							"components": [
								{
									"name": "nonce",
									"type": "uint64",
									"internalType": "uint64"
								},
								{
									"name": "root",
									"type": "bytes32",
									"internalType": "bytes32"
								}
							]
						},
						{
							"name": "sourceTotalSupply",
							"type": "uint256",
							"internalType": "uint256"
						},
						{
							"name": "sourceContexts",
							"type": "tuple[]",
							"internalType": "struct JBSourceContext[]",
							"components": [
								{
									"name": "token",
									"type": "bytes32",
									"internalType": "bytes32"
								},
								{
									"name": "decimals",
									"type": "uint8",
									"internalType": "uint8"
								},
								{
									"name": "surplus",
									"type": "uint128",
									"internalType": "uint128"
								},
								{
									"name": "balance",
									"type": "uint128",
									"internalType": "uint128"
								}
							]
						},
						{
							"name": "sourceTimestamp",
							"type": "uint256",
							"internalType": "uint256"
						}
					]
				}
			],
			"outputs": [],
			"stateMutability": "payable"
		},
		{
			"type": "function",
			"name": "inboxOf",
			"inputs": [
				{
					"name": "token",
					"type": "address",
					"internalType": "address"
				}
			],
			"outputs": [
				{
					"name": "",
					"type": "tuple",
					"internalType": "struct JBInboxTreeRoot",
					"components": [
						{
							"name": "nonce",
							"type": "uint64",
							"internalType": "uint64"
						},
						{
							"name": "root",
							"type": "bytes32",
							"internalType": "bytes32"
						}
					]
				}
			],
			"stateMutability": "view"
		},
		{
			"type": "function",
			"name": "initialize",
			"inputs": [
				{
					"name": "localProjectId",
					"type": "uint256",
					"internalType": "uint256"
				},
				{
					"name": "remotePeer",
					"type": "bytes32",
					"internalType": "bytes32"
				}
			],
			"outputs": [],
			"stateMutability": "nonpayable"
		},
		{
			"type": "function",
			"name": "initialize",
			"inputs": [
				{
					"name": "initialProjectId",
					"type": "uint256",
					"internalType": "uint256"
				}
			],
			"outputs": [],
			"stateMutability": "nonpayable"
		},
		{
			"type": "function",
			"name": "isMapped",
			"inputs": [
				{
					"name": "token",
					"type": "address",
					"internalType": "address"
				}
			],
			"outputs": [
				{
					"name": "",
					"type": "bool",
					"internalType": "bool"
				}
			],
			"stateMutability": "view"
		},
		{
			"type": "function",
			"name": "isTrustedForwarder",
			"inputs": [
				{
					"name": "forwarder",
					"type": "address",
					"internalType": "address"
				}
			],
			"outputs": [
				{
					"name": "",
					"type": "bool",
					"internalType": "bool"
				}
			],
			"stateMutability": "view"
		},
		{
			"type": "function",
			"name": "mapToken",
			"inputs": [
				{
					"name": "map",
					"type": "tuple",
					"internalType": "struct JBTokenMapping",
					"components": [
						{
							"name": "localToken",
							"type": "address",
							"internalType": "address"
						},
						{
							"name": "minGas",
							"type": "uint32",
							"internalType": "uint32"
						},
						{
							"name": "remoteToken",
							"type": "bytes32",
							"internalType": "bytes32"
						}
					]
				}
			],
			"outputs": [],
			"stateMutability": "payable"
		},
		{
			"type": "function",
			"name": "mapTokens",
			"inputs": [
				{
					"name": "maps",
					"type": "tuple[]",
					"internalType": "struct JBTokenMapping[]",
					"components": [
						{
							"name": "localToken",
							"type": "address",
							"internalType": "address"
						},
						{
							"name": "minGas",
							"type": "uint32",
							"internalType": "uint32"
						},
						{
							"name": "remoteToken",
							"type": "bytes32",
							"internalType": "bytes32"
						}
					]
				}
			],
			"outputs": [],
			"stateMutability": "payable"
		},
		{
			"type": "function",
			"name": "outboxOf",
			"inputs": [
				{
					"name": "token",
					"type": "address",
					"internalType": "address"
				}
			],
			"outputs": [
				{
					"name": "",
					"type": "tuple",
					"internalType": "struct JBOutboxTree",
					"components": [
						{
							"name": "nonce",
							"type": "uint64",
							"internalType": "uint64"
						},
						{
							"name": "numberOfClaimsSent",
							"type": "uint192",
							"internalType": "uint192"
						},
						{
							"name": "balance",
							"type": "uint256",
							"internalType": "uint256"
						},
						{
							"name": "tree",
							"type": "tuple",
							"internalType": "struct MerkleLib.Tree",
							"components": [
								{
									"name": "branch",
									"type": "bytes32[32]",
									"internalType": "bytes32[32]"
								},
								{
									"name": "count",
									"type": "uint256",
									"internalType": "uint256"
								}
							]
						}
					]
				}
			],
			"stateMutability": "view"
		},
		{
			"type": "function",
			"name": "peer",
			"inputs": [],
			"outputs": [
				{
					"name": "",
					"type": "bytes32",
					"internalType": "bytes32"
				}
			],
			"stateMutability": "view"
		},
		{
			"type": "function",
			"name": "peerChainContextsOf",
			"inputs": [],
			"outputs": [
				{
					"name": "contexts",
					"type": "tuple[]",
					"internalType": "struct JBPeerChainContext[]",
					"components": [
						{
							"name": "currency",
							"type": "uint32",
							"internalType": "uint32"
						},
						{
							"name": "decimals",
							"type": "uint8",
							"internalType": "uint8"
						},
						{
							"name": "surplus",
							"type": "uint128",
							"internalType": "uint128"
						},
						{
							"name": "balance",
							"type": "uint128",
							"internalType": "uint128"
						}
					]
				},
				{
					"name": "chainId",
					"type": "uint256",
					"internalType": "uint256"
				},
				{
					"name": "snapshot",
					"type": "uint256",
					"internalType": "uint256"
				}
			],
			"stateMutability": "view"
		},
		{
			"type": "function",
			"name": "peerChainId",
			"inputs": [],
			"outputs": [
				{
					"name": "",
					"type": "uint256",
					"internalType": "uint256"
				}
			],
			"stateMutability": "view"
		},
		{
			"type": "function",
			"name": "peerChainTotalSupply",
			"inputs": [],
			"outputs": [
				{
					"name": "",
					"type": "uint256",
					"internalType": "uint256"
				}
			],
			"stateMutability": "view"
		},
		{
			"type": "function",
			"name": "peerChainTotalSupplyValue",
			"inputs": [],
			"outputs": [
				{
					"name": "",
					"type": "tuple",
					"internalType": "struct JBPeerChainValue",
					"components": [
						{
							"name": "value",
							"type": "uint256",
							"internalType": "uint256"
						},
						{
							"name": "peerChainId",
							"type": "uint256",
							"internalType": "uint256"
						},
						{
							"name": "snapshotTimestamp",
							"type": "uint256",
							"internalType": "uint256"
						}
					]
				}
			],
			"stateMutability": "view"
		},
		{
			"type": "function",
			"name": "prepare",
			"inputs": [
				{
					"name": "projectTokenCount",
					"type": "uint256",
					"internalType": "uint256"
				},
				{
					"name": "beneficiary",
					"type": "bytes32",
					"internalType": "bytes32"
				},
				{
					"name": "minTokensReclaimed",
					"type": "uint256",
					"internalType": "uint256"
				},
				{
					"name": "token",
					"type": "address",
					"internalType": "address"
				},
				{
					"name": "metadata",
					"type": "bytes32",
					"internalType": "bytes32"
				}
			],
			"outputs": [],
			"stateMutability": "nonpayable"
		},
		{
			"type": "function",
			"name": "projectId",
			"inputs": [],
			"outputs": [
				{
					"name": "",
					"type": "uint256",
					"internalType": "uint256"
				}
			],
			"stateMutability": "view"
		},
		{
			"type": "function",
			"name": "remoteTokenFor",
			"inputs": [
				{
					"name": "token",
					"type": "address",
					"internalType": "address"
				}
			],
			"outputs": [
				{
					"name": "",
					"type": "tuple",
					"internalType": "struct JBRemoteToken",
					"components": [
						{
							"name": "enabled",
							"type": "bool",
							"internalType": "bool"
						},
						{
							"name": "emergencyHatch",
							"type": "bool",
							"internalType": "bool"
						},
						{
							"name": "minGas",
							"type": "uint32",
							"internalType": "uint32"
						},
						{
							"name": "addr",
							"type": "bytes32",
							"internalType": "bytes32"
						}
					]
				}
			],
			"stateMutability": "view"
		},
		{
			"type": "function",
			"name": "retainedToRemoteFeeBalance",
			"inputs": [],
			"outputs": [
				{
					"name": "",
					"type": "uint256",
					"internalType": "uint256"
				}
			],
			"stateMutability": "view"
		},
		{
			"type": "function",
			"name": "retainedToRemoteFeeOf",
			"inputs": [
				{
					"name": "account",
					"type": "address",
					"internalType": "address"
				}
			],
			"outputs": [
				{
					"name": "amount",
					"type": "uint256",
					"internalType": "uint256"
				}
			],
			"stateMutability": "view"
		},
		{
			"type": "function",
			"name": "retainedTransportPaymentRefundBalance",
			"inputs": [],
			"outputs": [
				{
					"name": "",
					"type": "uint256",
					"internalType": "uint256"
				}
			],
			"stateMutability": "view"
		},
		{
			"type": "function",
			"name": "retainedTransportPaymentRefundOf",
			"inputs": [
				{
					"name": "account",
					"type": "address",
					"internalType": "address"
				}
			],
			"outputs": [
				{
					"name": "amount",
					"type": "uint256",
					"internalType": "uint256"
				}
			],
			"stateMutability": "view"
		},
		{
			"type": "function",
			"name": "setDeprecation",
			"inputs": [
				{
					"name": "timestamp",
					"type": "uint40",
					"internalType": "uint40"
				}
			],
			"outputs": [],
			"stateMutability": "nonpayable"
		},
		{
			"type": "function",
			"name": "snapshotTimestamp",
			"inputs": [],
			"outputs": [
				{
					"name": "",
					"type": "uint256",
					"internalType": "uint256"
				}
			],
			"stateMutability": "view"
		},
		{
			"type": "function",
			"name": "state",
			"inputs": [],
			"outputs": [
				{
					"name": "",
					"type": "uint8",
					"internalType": "enum JBSuckerState"
				}
			],
			"stateMutability": "view"
		},
		{
			"type": "function",
			"name": "supportsInterface",
			"inputs": [
				{
					"name": "interfaceId",
					"type": "bytes4",
					"internalType": "bytes4"
				}
			],
			"outputs": [
				{
					"name": "",
					"type": "bool",
					"internalType": "bool"
				}
			],
			"stateMutability": "view"
		},
		{
			"type": "function",
			"name": "toRemote",
			"inputs": [
				{
					"name": "token",
					"type": "address",
					"internalType": "address"
				}
			],
			"outputs": [],
			"stateMutability": "payable"
		},
		{
			"type": "function",
			"name": "trustedForwarder",
			"inputs": [],
			"outputs": [
				{
					"name": "",
					"type": "address",
					"internalType": "address"
				}
			],
			"stateMutability": "view"
		},
		{
			"type": "event",
			"name": "ClaimFailed",
			"inputs": [
				{
					"name": "token",
					"type": "address",
					"indexed": true,
					"internalType": "address"
				},
				{
					"name": "index",
					"type": "uint256",
					"indexed": false,
					"internalType": "uint256"
				},
				{
					"name": "caller",
					"type": "address",
					"indexed": false,
					"internalType": "address"
				}
			],
			"anonymous": false
		},
		{
			"type": "event",
			"name": "Claimed",
			"inputs": [
				{
					"name": "beneficiary",
					"type": "bytes32",
					"indexed": false,
					"internalType": "bytes32"
				},
				{
					"name": "token",
					"type": "address",
					"indexed": false,
					"internalType": "address"
				},
				{
					"name": "projectTokenCount",
					"type": "uint256",
					"indexed": false,
					"internalType": "uint256"
				},
				{
					"name": "terminalTokenAmount",
					"type": "uint256",
					"indexed": false,
					"internalType": "uint256"
				},
				{
					"name": "index",
					"type": "uint256",
					"indexed": false,
					"internalType": "uint256"
				},
				{
					"name": "metadata",
					"type": "bytes32",
					"indexed": false,
					"internalType": "bytes32"
				},
				{
					"name": "caller",
					"type": "address",
					"indexed": false,
					"internalType": "address"
				}
			],
			"anonymous": false
		},
		{
			"type": "event",
			"name": "DeprecationTimeUpdated",
			"inputs": [
				{
					"name": "timestamp",
					"type": "uint40",
					"indexed": false,
					"internalType": "uint40"
				},
				{
					"name": "caller",
					"type": "address",
					"indexed": false,
					"internalType": "address"
				}
			],
			"anonymous": false
		},
		{
			"type": "event",
			"name": "EmergencyExit",
			"inputs": [
				{
					"name": "beneficiary",
					"type": "address",
					"indexed": true,
					"internalType": "address"
				},
				{
					"name": "token",
					"type": "address",
					"indexed": true,
					"internalType": "address"
				},
				{
					"name": "terminalTokenAmount",
					"type": "uint256",
					"indexed": false,
					"internalType": "uint256"
				},
				{
					"name": "projectTokenCount",
					"type": "uint256",
					"indexed": false,
					"internalType": "uint256"
				},
				{
					"name": "caller",
					"type": "address",
					"indexed": false,
					"internalType": "address"
				}
			],
			"anonymous": false
		},
		{
			"type": "event",
			"name": "EmergencyHatchOpened",
			"inputs": [
				{
					"name": "tokens",
					"type": "address[]",
					"indexed": false,
					"internalType": "address[]"
				},
				{
					"name": "caller",
					"type": "address",
					"indexed": false,
					"internalType": "address"
				}
			],
			"anonymous": false
		},
		{
			"type": "event",
			"name": "Initialized",
			"inputs": [
				{
					"name": "version",
					"type": "uint64",
					"indexed": false,
					"internalType": "uint64"
				}
			],
			"anonymous": false
		},
		{
			"type": "event",
			"name": "InsertToOutboxTree",
			"inputs": [
				{
					"name": "beneficiary",
					"type": "bytes32",
					"indexed": true,
					"internalType": "bytes32"
				},
				{
					"name": "token",
					"type": "address",
					"indexed": true,
					"internalType": "address"
				},
				{
					"name": "hashed",
					"type": "bytes32",
					"indexed": false,
					"internalType": "bytes32"
				},
				{
					"name": "index",
					"type": "uint256",
					"indexed": false,
					"internalType": "uint256"
				},
				{
					"name": "root",
					"type": "bytes32",
					"indexed": false,
					"internalType": "bytes32"
				},
				{
					"name": "projectTokenCount",
					"type": "uint256",
					"indexed": false,
					"internalType": "uint256"
				},
				{
					"name": "terminalTokenAmount",
					"type": "uint256",
					"indexed": false,
					"internalType": "uint256"
				},
				{
					"name": "metadata",
					"type": "bytes32",
					"indexed": false,
					"internalType": "bytes32"
				},
				{
					"name": "caller",
					"type": "address",
					"indexed": false,
					"internalType": "address"
				}
			],
			"anonymous": false
		},
		{
			"type": "event",
			"name": "NewInboxTreeRoot",
			"inputs": [
				{
					"name": "token",
					"type": "address",
					"indexed": true,
					"internalType": "address"
				},
				{
					"name": "nonce",
					"type": "uint64",
					"indexed": false,
					"internalType": "uint64"
				},
				{
					"name": "root",
					"type": "bytes32",
					"indexed": false,
					"internalType": "bytes32"
				},
				{
					"name": "caller",
					"type": "address",
					"indexed": false,
					"internalType": "address"
				}
			],
			"anonymous": false
		},
		{
			"type": "event",
			"name": "RetainedToRemoteFee",
			"inputs": [
				{
					"name": "account",
					"type": "address",
					"indexed": true,
					"internalType": "address"
				},
				{
					"name": "amount",
					"type": "uint256",
					"indexed": false,
					"internalType": "uint256"
				},
				{
					"name": "caller",
					"type": "address",
					"indexed": false,
					"internalType": "address"
				}
			],
			"anonymous": false
		},
		{
			"type": "event",
			"name": "RetainedToRemoteFeeClaimed",
			"inputs": [
				{
					"name": "account",
					"type": "address",
					"indexed": true,
					"internalType": "address"
				},
				{
					"name": "beneficiary",
					"type": "address",
					"indexed": true,
					"internalType": "address"
				},
				{
					"name": "amount",
					"type": "uint256",
					"indexed": false,
					"internalType": "uint256"
				},
				{
					"name": "caller",
					"type": "address",
					"indexed": false,
					"internalType": "address"
				}
			],
			"anonymous": false
		},
		{
			"type": "event",
			"name": "RetainedTransportPaymentRefund",
			"inputs": [
				{
					"name": "account",
					"type": "address",
					"indexed": true,
					"internalType": "address"
				},
				{
					"name": "amount",
					"type": "uint256",
					"indexed": false,
					"internalType": "uint256"
				},
				{
					"name": "caller",
					"type": "address",
					"indexed": false,
					"internalType": "address"
				}
			],
			"anonymous": false
		},
		{
			"type": "event",
			"name": "RetainedTransportPaymentRefundClaimed",
			"inputs": [
				{
					"name": "account",
					"type": "address",
					"indexed": true,
					"internalType": "address"
				},
				{
					"name": "beneficiary",
					"type": "address",
					"indexed": true,
					"internalType": "address"
				},
				{
					"name": "amount",
					"type": "uint256",
					"indexed": false,
					"internalType": "uint256"
				},
				{
					"name": "caller",
					"type": "address",
					"indexed": false,
					"internalType": "address"
				}
			],
			"anonymous": false
		},
		{
			"type": "event",
			"name": "RootToRemote",
			"inputs": [
				{
					"name": "root",
					"type": "bytes32",
					"indexed": true,
					"internalType": "bytes32"
				},
				{
					"name": "token",
					"type": "address",
					"indexed": true,
					"internalType": "address"
				},
				{
					"name": "index",
					"type": "uint256",
					"indexed": false,
					"internalType": "uint256"
				},
				{
					"name": "nonce",
					"type": "uint64",
					"indexed": false,
					"internalType": "uint64"
				},
				{
					"name": "caller",
					"type": "address",
					"indexed": false,
					"internalType": "address"
				}
			],
			"anonymous": false
		},
		{
			"type": "event",
			"name": "StaleRootRejected",
			"inputs": [
				{
					"name": "token",
					"type": "address",
					"indexed": true,
					"internalType": "address"
				},
				{
					"name": "receivedNonce",
					"type": "uint64",
					"indexed": false,
					"internalType": "uint64"
				},
				{
					"name": "currentNonce",
					"type": "uint64",
					"indexed": false,
					"internalType": "uint64"
				},
				{
					"name": "caller",
					"type": "address",
					"indexed": false,
					"internalType": "address"
				}
			],
			"anonymous": false
		},
		{
			"type": "error",
			"name": "InvalidInitialization",
			"inputs": []
		},
		{
			"type": "error",
			"name": "JBPermissioned_Unauthorized",
			"inputs": [
				{
					"name": "account",
					"type": "address",
					"internalType": "address"
				},
				{
					"name": "sender",
					"type": "address",
					"internalType": "address"
				},
				{
					"name": "projectId",
					"type": "uint256",
					"internalType": "uint256"
				},
				{
					"name": "permissionId",
					"type": "uint256",
					"internalType": "uint256"
				}
			]
		},
		{
			"type": "error",
			"name": "JBSucker_AmountExceedsUint128",
			"inputs": [
				{
					"name": "amount",
					"type": "uint256",
					"internalType": "uint256"
				}
			]
		},
		{
			"type": "error",
			"name": "JBSucker_BelowMinGas",
			"inputs": [
				{
					"name": "minGas",
					"type": "uint256",
					"internalType": "uint256"
				},
				{
					"name": "minGasLimit",
					"type": "uint256",
					"internalType": "uint256"
				}
			]
		},
		{
			"type": "error",
			"name": "JBSucker_Deprecated",
			"inputs": [
				{
					"name": "state",
					"type": "uint8",
					"internalType": "enum JBSuckerState"
				}
			]
		},
		{
			"type": "error",
			"name": "JBSucker_DeprecationTimestampTooSoon",
			"inputs": [
				{
					"name": "givenTime",
					"type": "uint256",
					"internalType": "uint256"
				},
				{
					"name": "minimumTime",
					"type": "uint256",
					"internalType": "uint256"
				}
			]
		},
		{
			"type": "error",
			"name": "JBSucker_ExpectedMsgValue",
			"inputs": [
				{
					"name": "msgValue",
					"type": "uint256",
					"internalType": "uint256"
				}
			]
		},
		{
			"type": "error",
			"name": "JBSucker_IndexOutOfRange",
			"inputs": [
				{
					"name": "index",
					"type": "uint256",
					"internalType": "uint256"
				}
			]
		},
		{
			"type": "error",
			"name": "JBSucker_InsufficientBalance",
			"inputs": [
				{
					"name": "amount",
					"type": "uint256",
					"internalType": "uint256"
				},
				{
					"name": "balance",
					"type": "uint256",
					"internalType": "uint256"
				}
			]
		},
		{
			"type": "error",
			"name": "JBSucker_InsufficientMsgValue",
			"inputs": [
				{
					"name": "received",
					"type": "uint256",
					"internalType": "uint256"
				},
				{
					"name": "expected",
					"type": "uint256",
					"internalType": "uint256"
				}
			]
		},
		{
			"type": "error",
			"name": "JBSucker_InvalidMessageVersion",
			"inputs": [
				{
					"name": "received",
					"type": "uint8",
					"internalType": "uint8"
				},
				{
					"name": "expected",
					"type": "uint8",
					"internalType": "uint8"
				}
			]
		},
		{
			"type": "error",
			"name": "JBSucker_InvalidNativeRemoteAddress",
			"inputs": [
				{
					"name": "remoteToken",
					"type": "bytes32",
					"internalType": "bytes32"
				}
			]
		},
		{
			"type": "error",
			"name": "JBSucker_InvalidProof",
			"inputs": [
				{
					"name": "root",
					"type": "bytes32",
					"internalType": "bytes32"
				},
				{
					"name": "inboxRoot",
					"type": "bytes32",
					"internalType": "bytes32"
				}
			]
		},
		{
			"type": "error",
			"name": "JBSucker_LeafAlreadyExecuted",
			"inputs": [
				{
					"name": "token",
					"type": "address",
					"internalType": "address"
				},
				{
					"name": "index",
					"type": "uint256",
					"internalType": "uint256"
				}
			]
		},
		{
			"type": "error",
			"name": "JBSucker_NoRetainedToRemoteFee",
			"inputs": [
				{
					"name": "account",
					"type": "address",
					"internalType": "address"
				}
			]
		},
		{
			"type": "error",
			"name": "JBSucker_NoRetainedTransportPaymentRefund",
			"inputs": [
				{
					"name": "account",
					"type": "address",
					"internalType": "address"
				}
			]
		},
		{
			"type": "error",
			"name": "JBSucker_NoTerminalForToken",
			"inputs": [
				{
					"name": "projectId",
					"type": "uint256",
					"internalType": "uint256"
				},
				{
					"name": "token",
					"type": "address",
					"internalType": "address"
				}
			]
		},
		{
			"type": "error",
			"name": "JBSucker_NotPeer",
			"inputs": [
				{
					"name": "caller",
					"type": "bytes32",
					"internalType": "bytes32"
				}
			]
		},
		{
			"type": "error",
			"name": "JBSucker_NothingToSend",
			"inputs": [
				{
					"name": "token",
					"type": "address",
					"internalType": "address"
				},
				{
					"name": "outboxBalance",
					"type": "uint256",
					"internalType": "uint256"
				},
				{
					"name": "treeCount",
					"type": "uint256",
					"internalType": "uint256"
				},
				{
					"name": "numberOfClaimsSent",
					"type": "uint256",
					"internalType": "uint256"
				}
			]
		},
		{
			"type": "error",
			"name": "JBSucker_RefundFailed",
			"inputs": [
				{
					"name": "beneficiary",
					"type": "address",
					"internalType": "address"
				},
				{
					"name": "amount",
					"type": "uint256",
					"internalType": "uint256"
				}
			]
		},
		{
			"type": "error",
			"name": "JBSucker_RemoteTokenAlreadyMapped",
			"inputs": [
				{
					"name": "remoteToken",
					"type": "bytes32",
					"internalType": "bytes32"
				},
				{
					"name": "localToken",
					"type": "address",
					"internalType": "address"
				}
			]
		},
		{
			"type": "error",
			"name": "JBSucker_TokenAlreadyMapped",
			"inputs": [
				{
					"name": "localToken",
					"type": "address",
					"internalType": "address"
				},
				{
					"name": "mappedTo",
					"type": "bytes32",
					"internalType": "bytes32"
				}
			]
		},
		{
			"type": "error",
			"name": "JBSucker_TokenHasInvalidEmergencyHatchState",
			"inputs": [
				{
					"name": "token",
					"type": "address",
					"internalType": "address"
				}
			]
		},
		{
			"type": "error",
			"name": "JBSucker_TokenNotMapped",
			"inputs": [
				{
					"name": "token",
					"type": "address",
					"internalType": "address"
				}
			]
		},
		{
			"type": "error",
			"name": "JBSucker_UnexpectedMsgValue",
			"inputs": [
				{
					"name": "value",
					"type": "uint256",
					"internalType": "uint256"
				}
			]
		},
		{
			"type": "error",
			"name": "JBSucker_ZeroBeneficiary",
			"inputs": [
				{
					"name": "beneficiary",
					"type": "bytes32",
					"internalType": "bytes32"
				}
			]
		},
		{
			"type": "error",
			"name": "JBSucker_ZeroERC20Token",
			"inputs": [
				{
					"name": "projectId",
					"type": "uint256",
					"internalType": "uint256"
				}
			]
		},
		{
			"type": "error",
			"name": "JBSucker_ZeroProjectTokenCount",
			"inputs": []
		},
		{
			"type": "error",
			"name": "MerkleLib_InsertTreeIsFull",
			"inputs": [
				{
					"name": "size",
					"type": "uint256",
					"internalType": "uint256"
				},
				{
					"name": "maxLeaves",
					"type": "uint256",
					"internalType": "uint256"
				}
			]
		},
		{
			"type": "error",
			"name": "NotInitializing",
			"inputs": []
		},
		{
			"type": "error",
			"name": "SafeERC20FailedOperation",
			"inputs": [
				{
					"name": "token",
					"type": "address",
					"internalType": "address"
				}
			]
		}
	],
	"args": [
		"0x55045613d2EDe64Dc260F912Ed394b740952B5Bf",
		"0xE7d0F5ADC3847d4AfD70B7bcd58e34B1AAFDffbc",
		"0xCF5870A8F942110C2ea89fd03B7a3D578816a265",
		"0x8eA8B4B71e8C68b92A14E16b8c6Ab18B5C42f113",
		"1",
		"0x952648f3A4BbE85C07398e7D3235D330dBFACA32",
		"0x53d5A7E174A87721c527ED14c7Ce7cb515465607"
	],
	"solcInputHash": "c04e801631b4d2e6aa4792ccebd9fae4",
	"bytecode": "0x6101a0604052348015610010575f5ffd5b5060405161563d38038061563d83398101604081905261002f9161029c565b6001600160a01b0380821660805280861660a052861660c081905260e08490526040805163293c499960e01b8152905188928892889288928892889263293c4999916004808201926020929091908290030181865afa158015610094573d5f5f3e3d5ffd5b505050506040513d601f19601f820116820180604052508101906100b89190610329565b6001600160a01b0390811661010052828116610120528416610140526100dc6101d6565b505050505050866001600160a01b03166328db992a6040518163ffffffff1660e01b8152600401602060405180830381865afa15801561011e573d5f5f3e3d5ffd5b505050506040513d601f19601f820116820180604052508101906101429190610329565b6001600160a01b0316610160816001600160a01b031681525050866001600160a01b031663516bf2f36040518163ffffffff1660e01b8152600401602060405180830381865afa158015610198573d5f5f3e3d5ffd5b505050506040513d601f19601f820116820180604052508101906101bc9190610329565b6001600160a01b0316610180525061034b95505050505050565b7ff0c57e16840df040f15088dc2f81fe391c3923bec73e23a9662efc9c229c6a00805468010000000000000000900460ff16156102265760405163f92ee8a960e01b815260040160405180910390fd5b80546001600160401b03908116146102855780546001600160401b0319166001600160401b0390811782556040519081527fc7f505b2f371ae2175ee4913f4499e1f2633a7b5936321eed1cdaeb6115181d29060200160405180910390a15b50565b6001600160a01b0381168114610285575f5ffd5b5f5f5f5f5f5f5f60e0888a0312156102b2575f5ffd5b87516102bd81610288565b60208901519097506102ce81610288565b60408901519096506102df81610288565b60608901519095506102f081610288565b608089015160a08a0151919550935061030881610288565b60c089015190925061031981610288565b8091505092959891949750929550565b5f60208284031215610339575f5ffd5b815161034481610288565b9392505050565b60805160a05160c05160e05161010051610120516101405161016051610180516152086104355f395f8181610a0b01528181613260015281816132a701526141b901525f81816103ba015281816140bf015281816140e6015261418901525f8181610387015261126801525f8181610307015281816114cb015261244901525f81816103ed01526128c201525f818161061a0152818161158801526115e001525f81816107a301528181612da301528181613152015281816133790152613bae01525f818161098e015261299e01525f818161050f0152818161066901526138cf01526152085ff3fe608060405260043610610283575f3560e01c80637de6fba211610155578063cf26bafb116100be578063f434c91411610078578063f434c9141461097d578063f925558c146109b0578063fc072f23146109db578063fc8fa43d146109fa578063fc9f18b014610a2d578063fe4b84df14610a50575f5ffd5b8063cf26bafb146108ce578063cf2a1c74146108e3578063d5f39488146108f6578063d935222f14610914578063eac1f29e14610933578063f3aefd7b1461095e575f5ffd5b8063af629bbb1161010f578063af629bbb1461080f578063b71c11791461082e578063bf557aee14610841578063c19d93fb1461087a578063cbb2adce1461089b578063cdfceeba146108ba575f5ffd5b80637de6fba21461068d578063802c8fa01461076657806388bc2ef31461079257806392ee1ea7146107c55780639c43eb54146107db5780639e6d7d43146107f0575f5ffd5b80633f827a5a116101f75780635cc4f369116101b15780635cc4f3691461053f5780636284386a146105755780636d9e384b146105945780636f4115a914610609578063754515591461063c5780637da0a8771461065b575f5ffd5b80633f827a5a1461044f5780633fafa127146104755780634035d3b1146104895780634f0677e1146104bf57806354176949146104d4578063572b6c05146104f3575f5ffd5b806311cda4151161024857806311cda415146103545780631d831d5c146103765780632847f1f3146103a9578063293c4999146103dc578063352a34e31461040f5780633a5de07d14610424575f5ffd5b8063014dc2a61461028e57806301ffc9a7146102a357806303da64a8146102d757806306433b1b146102f65780630ce92d4b14610341575f5ffd5b3661028a57005b5f5ffd5b6102a161029c366004614429565b610a6f565b005b3480156102ae575f5ffd5b506102c26102bd366004614498565b610bfd565b60405190151581526020015b60405180910390f35b3480156102e2575f5ffd5b506102a16102f13660046144bf565b610c69565b348015610301575f5ffd5b506103297f000000000000000000000000000000000000000000000000000000000000000081565b6040516001600160a01b0390911681526020016102ce565b6102a161034f36600461451f565b610d7d565b34801561035f575f5ffd5b50610368610d8a565b6040519081526020016102ce565b348015610381575f5ffd5b506103297f000000000000000000000000000000000000000000000000000000000000000081565b3480156103b4575f5ffd5b506103297f000000000000000000000000000000000000000000000000000000000000000081565b3480156103e7575f5ffd5b506103297f000000000000000000000000000000000000000000000000000000000000000081565b34801561041a575f5ffd5b5061036860025481565b34801561042f575f5ffd5b5061043a62030d4081565b60405163ffffffff90911681526020016102ce565b34801561045a575f5ffd5b50610463600181565b60405160ff90911681526020016102ce565b348015610480575f5ffd5b50601154610368565b348015610494575f5ffd5b506103686104a336600461454c565b600160209081525f928352604080842090915290825290205481565b3480156104ca575f5ffd5b5061036860045481565b3480156104df575f5ffd5b506102a16104ee366004614576565b610da1565b3480156104fe575f5ffd5b506102c261050d366004614596565b7f00000000000000000000000000000000000000000000000000000000000000006001600160a01b0390811691161490565b34801561054a575f5ffd5b50610553610e9a565b60408051825181526020808401519082015291810151908201526060016102ce565b348015610580575f5ffd5b506102a161058f3660046145b1565b610ee6565b34801561059f575f5ffd5b506105fc6105ae366004614596565b604080518082019091525f8082526020820152506001600160a01b03165f908152600a6020908152604091829020825180840190935280546001600160401b03168352600101549082015290565b6040516102ce91906145d5565b348015610614575f5ffd5b506103687f000000000000000000000000000000000000000000000000000000000000000081565b348015610647575f5ffd5b506102a16106563660046145f5565b610fd1565b348015610666575f5ffd5b507f0000000000000000000000000000000000000000000000000000000000000000610329565b348015610698575f5ffd5b506107296106a7366004614596565b604080516080810182525f808252602082018190529181018290526060810191909152506001600160a01b03165f908152600f60209081526040918290208251608081018452815460ff808216151583526101008204161515938201939093526201000090920463ffffffff1692820192909252600190910154606082015290565b6040516102ce919081511515815260208083015115159082015260408083015163ffffffff16908201526060918201519181019190915260800190565b348015610771575f5ffd5b50610785610780366004614596565b6110ee565b6040516102ce9190614654565b34801561079d575f5ffd5b506103297f000000000000000000000000000000000000000000000000000000000000000081565b3480156107d0575f5ffd5b5061043a620493e081565b3480156107e6575f5ffd5b5061036860075481565b3480156107fb575f5ffd5b5061036861080a366004614596565b611197565b34801561081a575f5ffd5b506102a16108293660046146c6565b611224565b6102a161083c366004614596565b6113ae565b34801561084c575f5ffd5b506102c261085b366004614596565b6001600160a01b03165f908152600f6020526040902060010154151590565b348015610885575f5ffd5b5061088e6116e7565b6040516102ce919061471f565b3480156108a6575f5ffd5b506102a16108b5366004614745565b61172e565b3480156108c5575f5ffd5b50610368611813565b3480156108d9575f5ffd5b5061036860035481565b6102a16108f1366004614757565b611865565b348015610901575f5ffd5b505f54610329906001600160a01b031681565b34801561091f575f5ffd5b506102a161092e366004614745565b611ec6565b34801561093e575f5ffd5b5061036861094d366004614596565b60066020525f908152604090205481565b348015610969575f5ffd5b506102a1610978366004614596565b611fd1565b348015610988575f5ffd5b506103297f000000000000000000000000000000000000000000000000000000000000000081565b3480156109bb575f5ffd5b506103686109ca366004614596565b60056020525f908152604090205481565b3480156109e6575f5ffd5b506102a16109f5366004614596565b6120e8565b348015610a05575f5ffd5b506103297f000000000000000000000000000000000000000000000000000000000000000081565b348015610a38575f5ffd5b50610a416121da565b6040516102ce9392919061478e565b348015610a5b575f5ffd5b506102a1610a6a36600461481d565b61228f565b5f5f5b82811015610b1c575f600e5f868685818110610a9057610a90614834565b610aa69260206060909202019081019150614596565b6001600160a01b0316815260208101919091526040015f9081209150858584818110610ad457610ad4614834565b90506060020160400135148015610b00575060228101548154600160401b90046001600160c01b031614155b15610b135782610b0f8161485c565b9350505b50600101610a72565b505f5b82811015610b6657610b5e848483818110610b3c57610b3c614834565b9050606002015f8411610b4f575f612387565b610b598434614888565b612387565b600101610b1f565b50805f03610b8a573415610b8557610b85610b7f612762565b34612770565b505050565b5f610b95823461489b565b90508015610bf7575f610ba6612762565b6001600160a01b0316826040515f6040518083038185875af1925050503d805f8114610bed576040519150601f19603f3d011682016040523d82523d5f602084013e610bf2565b606091505b505050505b50505050565b5f6001600160e01b031982166314a66dd360e21b1480610c2d57506001600160e01b0319821663c699686560e01b145b80610c4857506001600160e01b03198216633d0d324560e21b145b80610c6357506301ffc9a760e01b6001600160e01b03198316145b92915050565b5f5b81811015610b85573063cbb2adce848484818110610c8b57610c8b614834565b90506104c002016040518263ffffffff1660e01b8152600401610cae91906148ae565b5f604051808303815f87803b158015610cc5575f5ffd5b505af1925050508015610cd6575060015b610d7557828282818110610cec57610cec614834565b610d039260206104c0909202019081019150614596565b6001600160a01b03167fc1054f794d197971822697afa7ff4777cac6fb7a512e4bfec63aebaab98187b6848484818110610d3f57610d3f614834565b90506104c002016020015f0135610d54612762565b604080519283526001600160a01b0390911660208301520160405180910390a25b600101610c6b565b610d878134612387565b50565b6013545f908015610d9a57919050565b3091505090565b5f610daa6127f2565b805490915060ff600160401b82041615906001600160401b03165f81158015610dd05750825b90505f826001600160401b03166001148015610deb5750303b155b905081158015610df9575080155b15610e175760405163f92ee8a960e01b815260040160405180910390fd5b845467ffffffffffffffff191660011785558315610e4157845460ff60401b1916600160401b1785555b610e4b878761281a565b8315610e9157845460ff60401b19168555604051600181527fc7f505b2f371ae2175ee4913f4499e1f2633a7b5936321eed1cdaeb6115181d29060200160405180910390a15b50505050505050565b610ebb60405180606001604052805f81526020015f81526020015f81525090565b60405180606001604052806002548152602001610ed6611813565b8152602001600754815250905090565b610eee61284f565b5f610ef860115490565b9050610f0e610f06826128aa565b826024612933565b5f610f1c621275004261490d565b905064ffffffffff831615801590610f3b5750808364ffffffffff1611155b15610f6e57604051630111a46b60e21b815264ffffffffff84166004820152602481018290526044015b60405180910390fd5b64ffffffffff83166008557f455efa76af2a8686dc0dd3041bda89ece5ba4691277d525e2161003bbca8b24583610fa3612762565b6040805164ffffffffff90931683526001600160a01b039091166020830152015b60405180910390a1505050565b5f610fdb60115490565b9050610ff1610fe9826128aa565b826023612933565b5f5b828110156110b3575f600f5f86868581811061101157611011614834565b90506020020160208101906110269190614596565b6001600160a01b0316815260208101919091526040015f908120805460ff191692151592909217909155600190600f9086868581811061106857611068614834565b905060200201602081019061107d9190614596565b6001600160a01b0316815260208101919091526040015f2080549115156101000261ff0019909216919091179055600101610ff3565b507f8021bce60b20a9afb57085869a3552e0ee5b272b868df894fb30c5e90e74c07283836110df612762565b604051610fc493929190614920565b6110f661435c565b6001600160a01b0382165f908152600e6020908152604091829020825160808101845281546001600160401b0381168252600160401b90046001600160c01b031681840152600182015481850152835161044081018086529194929360608601939192600286019284929083019184919082845b81548152602001906001019080831161116a57505050918352505060209182015491015290525092915050565b6001600160a01b0381165f908152600e602052604081206001015481906111be8430612a48565b6111c89190614982565b905061eeed196001600160a01b03841601610c63576003548082116111f057505f9392505050565b6111fa8183614982565b60045490925080831161121157505f949350505050565b61121b8184614982565b95945050505050565b845f0361124457604051632bcf4c5760e21b815260040160405180910390fd5b836112655760405163b2fe07f160e01b815260048101859052602401610f65565b5f7f00000000000000000000000000000000000000000000000000000000000000006001600160a01b031663ea78803f61129e60115490565b6040518263ffffffff1660e01b81526004016112bc91815260200190565b602060405180830381865afa1580156112d7573d5f5f3e3d5ffd5b505050506040513d601f19601f820116820180604052508101906112fb9190614995565b90506001600160a01b03811661132a576011546040516309794d0160e11b8152600401610f6591815260200190565b6001600160a01b0383165f908152600f602052604090205460ff1661136d5760405163027edf0360e11b81526001600160a01b0384166004820152602401610f65565b61137561284f565b611392611380612762565b6001600160a01b038316903089612adc565b5f61139f82888688612b12565b9050610e918785838987612c25565b6001600160a01b0381165f908152600f60209081526040918290208251608081018452815460ff808216151583526101008204161580159483019490945262010000900463ffffffff1693810193909352600101546060830152611430576040516304bba81f60e41b81526001600160a01b0383166004820152602401610f65565b6001600160a01b0382165f908152600e60205260409020600181015415801561146e575080546022820154600160401b9091046001600160c01b0316145b156114c85760018101546022820154825460405163096c1e2160e21b81526001600160a01b038716600482015260248101939093526044830191909152600160401b90046001600160c01b03166064820152608401610f65565b5f7f00000000000000000000000000000000000000000000000000000000000000006001600160a01b031663421159156040518163ffffffff1660e01b8152600401602060405180830381865afa158015611525573d5f5f3e3d5ffd5b505050506040513d601f19601f8201168201806040525081019061154991906149b0565b90508034101561157557604051630ee99a4760e01b815234600482015260248101829052604401610f65565b5f6115808234614982565b90505f6115af7f000000000000000000000000000000000000000000000000000000000000000061eeee612d7b565b90505f6001600160a01b038216158015906115c957508315155b156116b957816001600160a01b031663fef43257857f000000000000000000000000000000000000000000000000000000000000000061eeee8861160b612762565b5f6040518763ffffffff1660e01b81526004016116739594939291909485526001600160a01b03938416602086015260408501929092529091166060830152608082015260e060a082018190525f90820181905261010060c083018190528201526101200190565b60206040518083038185885af1935050505080156116ae575060408051601f3d908101601f191682019092526116ab918101906149b0565b60015b156116b95760019150505b801580156116c657508315155b156116dc576116dc6116d6612762565b85612e0e565b610e91838888612eaa565b6008545f908082036116fa575f91505090565b6117076212750082614982565b42101561171657600191505090565b8042101561172657600291505090565b600391505090565b61176060608201356117436020840184614596565b6080840135604085013560a0860135602087013560c0880161300d565b7fa8d6760b4e1a89f513fc87990f66d051c419d735fb8191104014e0529d9ae2d360408201356117936020840184614596565b60608401356080850135602086013560a08701356117af612762565b604080519788526001600160a01b0396871660208901528701949094526060860192909252608085015260a08401521660c082015260e00160405180910390a1610d876117ff6020830183614596565b60808301356060840135604085013561311f565b5f46600181900361182657600a91505090565b80600a0361183657600191505090565b8062aa36a70361184a5762aa37dc91505090565b8062aa37dc0361185e5762aa36a791505090565b5f91505090565b61186e3361325d565b61188d5760405163f957028d60e01b8152336004820152602401610f65565b600161189c60208301836149d5565b60ff16146118d7576118b160208201826149d5565b60405163e667c12560e01b815260ff909116600482015260016024820152604401610f65565b6001600160a01b036020828101359182165f908152600a9091526040902080546001600160401b03166119106080850160608601614a04565b6001600160401b03161115611a6d5761192f6080840160608501614a04565b815467ffffffffffffffff19166001600160401b03919091161781556080830135600182018190557f27ae5ba08d7291c96c8cbddcc148bf48a6d68c7974b94356f53754ef6171d757146119ef576001600160a01b0382165f908152600b60205260408120546004906119a390600161490d565b6119ad919061489b565b6001600160a01b0384165f908152600b60209081526040808320849055600c909152902090915060808501359082600481106119eb576119eb614834565b0155505b6001600160a01b0382167fc69d3412489554fb7820c4c2784cb644b6c79bfc117444b93977d3d33a9b8eac611a2a6080860160608701614a04565b6080860135611a37612762565b604080516001600160401b03909416845260208401929092526001600160a01b03169082015260600160405180910390a2611aee565b6001600160a01b0382167f2eb8abf720d2b9cf9e357f7a24a2bee502a7bdba38de0de230e10c33dafbd3eb611aa86080860160608701614a04565b83546001600160401b0316611abb612762565b604080516001600160401b0394851681529390921660208401526001600160a01b03169082015260600160405180910390a25b6007548360e001351115610b855760e083013560075560a0830135600255611b1760145f614398565b5f611b2560c0850185614a1f565b905090505f5b81811015611ebf5736611b4160c0870187614a1f565b83818110611b5157611b51614834565b6080029190910180355f908152600d60205260409020549092506001600160a01b0316905080611b7f575080355b5f5f611b8a83613339565b91509150808015611bb657506001600160a01b0383165f9081526010602052604090205463ffffffff16155b15611be6576001600160a01b0383165f908152601060205260409020805463ffffffff191663ffffffff84161790555b6014545f805b82811015611d9e578463ffffffff1660148281548110611c0e57611c0e614834565b5f91825260209091206002909102015463ffffffff16148015611c6f5750611c3c60408801602089016149d5565b60ff1660148281548110611c5257611c52614834565b5f918252602090912060029091020154640100000000900460ff16145b15611d9657611cc160148281548110611c8a57611c8a614834565b5f9182526020909120600290910201546501000000000090046001600160801b0316611cbc60608a0160408b01614a7f565b613577565b60148281548110611cd457611cd4614834565b905f5260205f2090600202015f0160056101000a8154816001600160801b0302191690836001600160801b03160217905550611d4860148281548110611d1c57611d1c614834565b5f9182526020909120600160029092020101546001600160801b0316611cbc60808a0160608b01614a7f565b60148281548110611d5b57611d5b614834565b905f5260205f2090600202016001015f6101000a8154816001600160801b0302191690836001600160801b0316021790555060019150611d9e565b600101611bec565b5080611eae57601460405180608001604052808663ffffffff168152602001886020016020810190611dd091906149d5565b60ff168152602001611de860608a0160408b01614a7f565b6001600160801b03168152602001611e0660808a0160608b01614a7f565b6001600160801b039081169091528254600181810185555f948552602094859020845160029093020180549585015160408601518516650100000000000274ffffffffffffffffffffffffffffffff00000000001960ff9092166401000000000264ffffffffff1990981663ffffffff909516949094179690961795909516919091178455606090920151929091018054929091166001600160801b03199092169190911790555b866001019650505050505050611b2b565b5050505050565b611ef86060820135611edb6020840184614596565b6080840135604085013560a0860135602087013560c088016135a5565b6080810135600e5f611f0d6020850185614596565b6001600160a01b03166001600160a01b031681526020019081526020015f206001015f828254611f3d9190614982565b90915550611f5090506020820182614596565b6001600160a01b031660408201356001600160a01b03167fe33107c4043e574d8a4da32dac235e219f8f34a0e45e473ea6643a6145f2528560808401356060850135611f9a612762565b6040805193845260208401929092526001600160a01b03169082015260600160405180910390a3610d876117ff6020830183614596565b6001600160a01b038116611ffa5760405163b2fe07f160e01b81525f6004820152602401610f65565b5f612003612762565b6001600160a01b0381165f9081526006602052604081205491925081900361204957604051631733ad2160e21b81526001600160a01b0383166004820152602401610f65565b6001600160a01b0382165f90815260066020526040812081905560048054839290612075908490614982565b9091555061208590508382612770565b826001600160a01b0316826001600160a01b03167ffbcfe54e4aa35e7772f25a5f52fedccde889e4fc5031ad9826b9bf6b890baa59836120c3612762565b604080519283526001600160a01b0390911660208301520160405180910390a3505050565b6001600160a01b0381166121115760405163b2fe07f160e01b81525f6004820152602401610f65565b5f61211a612762565b6001600160a01b0381165f908152600560205260408120549192508190036121605760405163578a51dd60e11b81526001600160a01b0383166004820152602401610f65565b6001600160a01b0382165f9081526005602052604081208190556003805483929061218c908490614982565b9091555061219c90508382612770565b826001600160a01b0316826001600160a01b03167f1e70ff8443e61b2a2555b5ad56645461a75dd29591b5c4a6281f70a6d395db45836120c3612762565b60605f5f60146121e8611813565b60075482805480602002602001604051908101604052809291908181526020015f905b8282101561227e575f8481526020908190206040805160808101825260028602909201805463ffffffff8116845260ff640100000000820416848601526001600160801b03650100000000009091048116928401929092526001908101549091166060830152908352909201910161220b565b505050509250925092509250909192565b5f6122986127f2565b805490915060ff600160401b82041615906001600160401b03165f811580156122be5750825b90505f826001600160401b031660011480156122d95750303b155b9050811580156122e7575080155b156123055760405163f92ee8a960e01b815260040160405180910390fd5b845467ffffffffffffffff19166001178555831561232f57845460ff60401b1916600160401b1785555b612339865f61281a565b831561237f57845460ff60401b19168555604051600181527fc7f505b2f371ae2175ee4913f4499e1f2633a7b5936321eed1cdaeb6115181d29060200160405180910390a15b505050505050565b5f6123956020840184614596565b6001600160a01b0381165f908152600f60209081526040918290208251608081018452815460ff808216151583526101008204161580159483019490945262010000900463ffffffff16938101939093526001015460608301529192509061241b576040516304bba81f60e41b81526001600160a01b0383166004820152602401610f65565b612424846137e3565b5f61242e60115490565b905061248061243c826128aa565b8260206001600160a01b037f000000000000000000000000000000000000000000000000000000000000000016612471612762565b6001600160a01b0316146138ae565b60608201511580159061249b57508460400135826060015114155b80156124aa5750604085013515155b80156124cf57506001600160a01b0383165f908152600e602052604090206022015415155b1561250557606082015160405163aef430a360e01b81526001600160a01b03851660048201526024810191909152604401610f65565b60408501351561257f576040808601355f908152600d60205220546001600160a01b0316801580159061254a5750836001600160a01b0316816001600160a01b031614155b1561257d576040805163d6a305d960e01b81529087013560048201526001600160a01b0382166024820152604401610f65565b505b60408501351580156125bd57506001600160a01b0383165f908152600e6020526040902060228101549054600160401b90046001600160c01b031614155b156125ec576001600160a01b0383165f908152600f60205260409020805460ff191690556125ec848484612eaa565b6040850135158015906126025750606082015115155b801561261657508460400135826060015114155b801561263f575060608201515f908152600d60205260409020546001600160a01b038481169116145b156126655760608201515f908152600d6020526040902080546001600160a01b03191690555b5f60408601351561267a578560400135612680565b82606001515b905080156126af575f818152600d6020526040902080546001600160a01b0319166001600160a01b0386161790555b604080516080810182528782018035151582525f60208084019190915291928301916126dd91908a01614aab565b63ffffffff90811682526020918201939093526001600160a01b039095165f908152600f8652604090819020825181549784015192840151909416620100000265ffffffff0000199215156101000261ff00199515159590951661ffff1990981697909717939093171694909417815560609093015160019093019290925550505050565b5f61276b6138be565b905090565b5f826001600160a01b0316826040515f6040518083038185875af1925050503d805f81146127b9576040519150601f19603f3d011682016040523d82523d5f602084013e6127be565b606091505b5050905080610b8557604051630590bd2d60e41b81526001600160a01b038416600482015260248101839052604401610f65565b5f807ff0c57e16840df040f15088dc2f81fe391c3923bec73e23a9662efc9c229c6a00610c63565b6011829055601381905561282c612762565b5f80546001600160a01b0319166001600160a01b03929092169190911790555050565b5f6128586116e7565b9050600381600381111561286e5761286e61470b565b148061288b575060028160038111156128895761288961470b565b145b15610d87578060405162a7958f60e81b8152600401610f65919061471f565b6040516331a9108f60e11b8152600481018290525f907f00000000000000000000000000000000000000000000000000000000000000006001600160a01b031690636352211e90602401602060405180830381865afa15801561290f573d5f5f3e3d5ffd5b505050506040513d601f19601f82011682018060405250810190610c639190614995565b5f61293c612762565b9050836001600160a01b0316816001600160a01b031614158015612a095750604051631a45b42760e11b81526001600160a01b0382811660048301528581166024830152604482018590526064820184905260016084830181905260a48301527f0000000000000000000000000000000000000000000000000000000000000000169063348b684e9060c401602060405180830381865afa1580156129e3573d5f5f3e3d5ffd5b505050506040513d601f19601f82011682018060405250810190612a079190614ac6565b155b15610bf757604051631326f75560e11b81526001600160a01b038086166004830152821660248201526044810184905260648101839052608401610f65565b5f61eeed196001600160a01b03841601612a6d57506001600160a01b03811631610c63565b6040516370a0823160e01b81526001600160a01b0383811660048301528416906370a0823190602401602060405180830381865afa158015612ab1573d5f5f3e3d5ffd5b505050506040513d601f19601f82011682018060405250810190612ad591906149b0565b9392505050565b612aea848484846001613928565b610bf757604051635274afe760e01b81526001600160a01b0385166004820152602401610f65565b5f5f612b1d60115490565b90505f612b2a8286612d7b565b90506001600160a01b038116612b655760405163b61c181f60e01b8152600481018390526001600160a01b0386166024820152604401610f65565b5f612b708630612a48565b604080516020810182525f815290516313da831760e01b81529192506001600160a01b038416916313da831791612bb591309188918d918d918d918691600401614b13565b6020604051808303815f875af1158015612bd1573d5f5f3e3d5ffd5b505050506040513d601f19601f82011682018060405250810190612bf591906149b0565b935080612c028730612a48565b612c0c9190614982565b8414612c1a57612c1a614b68565b505050949350505050565b6001600160801b03831115612c50576040516335bf001160e11b815260048101849052602401610f65565b6001600160801b03851115612c7b576040516335bf001160e11b815260048101869052602401610f65565b6040805186815260208082018690528183018590526060820184905260809091206001600160a01b0387165f908152600e909252919020612cbf6002820183613995565b84816001015f828254612cd2919061490d565b92505081905550856001600160a01b0316847fc92fa1150c24ee5470c272112539aab52450a5e05573e7ea7bdfb98829b893218460018560020160200154612d1a9190614982565b612d2686600201613a80565b8c8b8a612d31612762565b604080519788526020880196909652948601939093526060850191909152608084015260a08301526001600160a01b031660c082015260e00160405180910390a350505050505050565b604051630862026560e41b8152600481018390526001600160a01b0382811660248301525f917f000000000000000000000000000000000000000000000000000000000000000090911690638620265090604401602060405180830381865afa158015612dea573d5f5f3e3d5ffd5b505050506040513d601f19601f82011682018060405250810190612ad59190614995565b6001600160a01b0382165f9081526005602052604081208054839290612e3590849061490d565b925050819055508060035f828254612e4d919061490d565b90915550506001600160a01b0382167f2a3798c6648c17f70b43a33a8378cec543367ac1543e62aa7b3926605697177782612e86612762565b604080519283526001600160a01b0390911660208301520160405180910390a25050565b6060810151612ed75760405163027edf0360e11b81526001600160a01b0383166004820152602401610f65565b612edf61284f565b6001600160a01b0382165f908152600e60205260408120602281015482918291829190808303612f1457505050505050505050565b6001820180545f918290558354909750839190612f39906001600160401b0316614b7c565b91906101000a8154816001600160401b0302191690836001600160401b0316021790559450612f6a82600201613a80565b82546001600160401b0316600160401b6001600160c01b038416021783559350612f95600182614982565b92505050856001600160a01b0316827f47c5615513b0f669da2dd7e3362a34610ca2695d0a0e2da2160cee952eab203c8386612fcf612762565b604080519384526001600160401b0390921660208401526001600160a01b03169082015260600160405180910390a3610e9187878787878787613b81565b6401000000008210613035576040516309f6605160e41b815260048101839052602401610f65565b6001600160a01b0386165f908152600960209081526040808320600886901c8452909152902054600160ff84161b161561309457604051632939af3b60e21b81526001600160a01b038716600482015260248101839052604401610f65565b6001600160a01b0386165f818152600960209081526040808320600887901c845282528083208054600160ff891681901b90911790915581518c81528084018b90528083018a905260608101899052608090209484528252808320868452909152812082905561310688838686613c8c565b905061311481838686613da2565b505050505050505050565b5f61312960115490565b9050831561313c5761313c858583613e49565b604051632eec7b5560e11b8152600481018290527f00000000000000000000000000000000000000000000000000000000000000006001600160a01b031690635dd8f6aa90602401602060405180830381865afa15801561319f573d5f5f3e3d5ffd5b505050506040513d601f19601f820116820180604052508101906131c39190614995565b6001600160a01b031663c7fb92de8285856040516001600160e01b031960e086901b168152600481019390935260248301919091526001600160a01b0316604482015260a060648201525f60a48201819052608482015260c4016020604051808303815f875af1158015613239573d5f5f3e3d5ffd5b505050506040513d601f19601f8201168201806040525081019061237f91906149b0565b5f7f00000000000000000000000000000000000000000000000000000000000000006001600160a01b0316826001600160a01b0316148015610c6357506132a2610d8a565b6133327f00000000000000000000000000000000000000000000000000000000000000006001600160a01b0316636e296e456040518163ffffffff1660e01b81526004016020604051808303815f875af1158015613302573d5f5f3e3d5ffd5b505050506040513d601f19601f820116820180604052508101906133269190614995565b6001600160a01b031690565b1492915050565b6001600160a01b0381165f90815260106020526040812054819063ffffffff168015613369579360019350915050565b5f61337360115490565b90505f5f7f00000000000000000000000000000000000000000000000000000000000000006001600160a01b031683886040516024016133c69291909182526001600160a01b0316602082015260400190565b60408051601f198184030181529181526020820180516001600160e01b0316630862026560e41b179052516133fb9190614ba6565b5f60405180830381855afa9150503d805f8114613433576040519150601f19603f3d011682016040523d82523d5f602084013e613438565b606091505b509150915081801561344c57506020815110155b1561356a575f818060200190518101906134669190614995565b90506001600160a01b0381161561356857604051602481018590526001600160a01b0389811660448301525f91829184169060640160408051601f198184030181529181526020820180516001600160e01b0316633a01714f60e01b179052516134d09190614ba6565b5f60405180830381855afa9150503d805f8114613508576040519150601f19603f3d011682016040523d82523d5f602084013e61350d565b606091505b509150915081801561352157506060815110155b15613565575f8180602001905181019061353b9190614c5a565b9050806040015163ffffffff165f1461356357604001519a60019a5098505050505050505050565b505b50505b505b5094955f95509350505050565b5f6001600160801b0383811681841601908111613594578061359d565b6001600160801b035b949350505050565b64010000000082106135cd576040516309f6605160e41b815260048101839052602401610f65565b5f6135d66116e7565b905060038160038111156135ec576135ec61470b565b1415801561360c575060028160038111156136095761360961470b565b14155b801561363557506001600160a01b0387165f908152600f6020526040902054610100900460ff16155b1561365e576040516304bba81f60e41b81526001600160a01b0388166004820152602401610f65565b6001600160a01b0387165f908152600e602052604090208054600160401b90046001600160c01b0316158015906136bc5750805484906136b090600190600160401b90046001600160c01b0316614ccb565b6001600160c01b031610155b156136ec57604051632939af3b60e21b81526001600160a01b038916600482015260248101859052604401610f65565b604080516001600160a01b038a1660208201525f910160408051808303601f19018152918152815160209283012060601c5f8181526009845282812060088a901c8252909352912054909150600160ff87161b161561377057604051632939af3b60e21b81526001600160a01b038a16600482015260248101869052604401610f65565b6001600160a01b039081165f908152600960209081526040808320600889901c845282528083208054600160ff8b161b179055928b168252600e905220613114906137bd90600201613a80565b604080518c8152602081018b905290810189905260608101889052608090208686613da2565b5f61eeee6137f46020840184614596565b6001600160a01b0316149050808015613813575061eeee826040013514155b80156138225750604082013515155b15613845576040805162e80c7760e31b8152908301356004820152602401610f65565b62030d406138596040840160208501614aab565b63ffffffff1610801561386a575080155b156138aa5761387f6040830160208401614aab565b604051630555d0f160e41b815263ffffffff909116600482015262030d406024820152604401610f65565b5050565b80610bf757610bf7848484612933565b5f3660148082108015906138fa57507f00000000000000000000000000000000000000000000000000000000000000006001600160a01b031633145b156139205761390d36828403815f614cea565b61391691614d11565b60601c9250505090565b339250505090565b6040516323b872dd60e01b5f8181526001600160a01b038781166004528616602452604485905291602083606481808c5af1925060015f51148316613984578383151615613978573d5f823e3d81fd5b5f883b113d1516831692505b604052505f60605295945050505050565b5f826020015f81546139a69061485c565b9182905550905060016139bb60206002614e41565b6139c59190614982565b811115613a07578060016139db60206002614e41565b6139e59190614982565b60405163515447c160e01b815260048101929092526024820152604401610f65565b5f5b6020811015613a6a5781600116600103613a385782848260208110613a3057613a30614834565b015550505050565b5f848260208110613a4b57613a4b614834565b01545f90815260209490945250604090922091600191821c9101613a09565b5082602001546001602060026139db9190614e41565b60208101545f90808203613ab657507f27ae5ba08d7291c96c8cbddcc148bf48a6d68c7974b94356f53754ef6171d75792915050565b613abe6143b6565b5f5b6020811015613b08576001811b831615613b0057848160208110613ae657613ae6614834565b0154828260208110613afa57613afa614834565b60200201525b600101613ac0565b50604051634a490c2560e01b81527309abdb576f7c7df609b0e4dd87066230f8b354d090634a490c2590613b429084908690600401614e4c565b602060405180830381865af4158015613b5d573d5f5f3e3d5ffd5b505050506040513d601f19601f8201168201806040525081019061359d91906149b0565b60128054600101908190554260801b175f7309abdb576f7c7df609b0e4dd87066230f8b354d063c60a0b827f0000000000000000000000000000000000000000000000000000000000000000613bd660115490565b60608b01516040516001600160e01b031960e086901b1681526001600160a01b03909316600484015260248301919091526044820152606481018990526001600160401b038816608482015260a48101879052600160c482015260e48101859052610104015f60405180830381865af4158015613c55573d5f5f3e3d5ffd5b505050506040513d5f823e601f3d908101601f19168201604052613c7c9190810190614fb0565b905061311489848a898b86614066565b6001600160a01b0384165f908152600a60205260408082206001015490516307fbe4d560e41b815282907309abdb576f7c7df609b0e4dd87066230f8b354d090637fbe4d5090613ce490899088908a90600401615067565b602060405180830381865af4158015613cff573d5f5f3e3d5ffd5b505050506040513d601f19601f82011682018060405250810190613d2391906149b0565b9050818103613d345750905061359d565b6001600160a01b0387165f908152600c60205260408120905b6004811015613d95575f828260048110613d6957613d69614834565b015490508015801590613d7b57508084145b15613d8c57945061359d9350505050565b50600101613d4d565b5091979650505050505050565b6040516307fbe4d560e41b81525f907309abdb576f7c7df609b0e4dd87066230f8b354d090637fbe4d5090613ddf90879086908890600401615067565b602060405180830381865af4158015613dfa573d5f5f3e3d5ffd5b505050506040513d601f19601f82011682018060405250810190613e1e91906149b0565b9050848114611ebf576040516272c3e960e11b81526004810182905260248101869052604401610f65565b5f613e5384611197565b905080831115613e80576040516360ec3e7160e01b81526004810184905260248101829052604401610f65565b5f613e8b8386612d7b565b90506001600160a01b038116613ec65760405163b61c181f60e01b8152600481018490526001600160a01b0386166024820152604401610f65565b5f806001600160a01b03871661eeee14801590613f55576040516370a0823160e01b81523060048201526001600160a01b038916906370a0823190602401602060405180830381865afa158015613f1f573d5f5f3e3d5ffd5b505050506040513d601f19601f82011682018060405250810190613f4391906149b0565b9150613f50888589614280565b613f59565b8692505b604051639e6eec0560e01b8152600481018790526001600160a01b038981166024830152604482018990525f6064830181905260c0608484015260c4830181905260e060a484015260e4830152851690639e6eec05908590610104015f604051808303818588803b158015613fcc575f5ffd5b505af1158015613fde573d5f5f3e3d5ffd5b50505050508015610bf257613ff38783614982565b6040516370a0823160e01b81523060048201526001600160a01b038a16906370a0823190602401602060405180830381865afa158015614035573d5f5f3e3d5ffd5b505050506040513d601f19601f8201168201806040525081019061405991906149b0565b14610bf257610bf2614b68565b5f861561408957604051636ba3461960e11b815260048101889052602401610f65565b5f614098614095610d8a565b90565b90506001600160a01b03861661eeee148015906140b457508415155b156141b3576140e4867f000000000000000000000000000000000000000000000000000000000000000087614280565b7f00000000000000000000000000000000000000000000000000000000000000006001600160a01b031663540abf738761411f876060015190565b8489896040015160405180602001604052805f8152506040518763ffffffff1660e01b815260040161415696959493929190615087565b5f604051808303815f87803b15801561416d575f5ffd5b505af115801561417f573d5f5f3e3d5ffd5b505050506141ae867f00000000000000000000000000000000000000000000000000000000000000005f614280565b6141b7565b8491505b7f00000000000000000000000000000000000000000000000000000000000000006001600160a01b0316633dbb202b8383866040516024016141f991906150d9565b60408051601f198184030181529181526020820180516001600160e01b03166333ca871d60e21b179052516001600160e01b031960e086901b168152614248929190620493e0906004016151c2565b5f604051808303818588803b15801561425f575f5ffd5b505af1158015614271573d5f5f3e3d5ffd5b50505050505050505050505050565b61428c8383835f6142fa565b610b855761429d83835f60016142fa565b6142c557604051635274afe760e01b81526001600160a01b0384166004820152602401610f65565b6142d283838360016142fa565b610b8557604051635274afe760e01b81526001600160a01b0384166004820152602401610f65565b60405163095ea7b360e01b5f8181526001600160a01b038616600452602485905291602083604481808b5af1925060015f51148316614350578383151615614344573d5f823e3d81fd5b5f873b113d1516831692505b60405250949350505050565b60405180608001604052805f6001600160401b031681526020015f6001600160c01b031681526020015f81526020016143936143d5565b905290565b5080545f8255600202905f5260205f2090810190610d8791906143f4565b6040518061040001604052806020906020820280368337509192915050565b60405180604001604052806143e86143b6565b81526020015f81525090565b5b808211156144255780546001600160a81b03191681556001810180546001600160801b03191690556002016143f5565b5090565b5f5f6020838503121561443a575f5ffd5b82356001600160401b0381111561444f575f5ffd5b8301601f8101851361445f575f5ffd5b80356001600160401b03811115614474575f5ffd5b856020606083028401011115614488575f5ffd5b6020919091019590945092505050565b5f602082840312156144a8575f5ffd5b81356001600160e01b031981168114612ad5575f5ffd5b5f5f602083850312156144d0575f5ffd5b82356001600160401b038111156144e5575f5ffd5b8301601f810185136144f5575f5ffd5b80356001600160401b0381111561450a575f5ffd5b8560206104c083028401011115614488575f5ffd5b5f6060828403128015614530575f5ffd5b509092915050565b6001600160a01b0381168114610d87575f5ffd5b5f5f6040838503121561455d575f5ffd5b823561456881614538565b946020939093013593505050565b5f5f60408385031215614587575f5ffd5b50508035926020909101359150565b5f602082840312156145a6575f5ffd5b8135612ad581614538565b5f602082840312156145c1575f5ffd5b813564ffffffffff81168114612ad5575f5ffd5b81516001600160401b031681526020808301519082015260408101610c63565b5f5f60208385031215614606575f5ffd5b82356001600160401b0381111561461b575f5ffd5b8301601f8101851361462b575f5ffd5b80356001600160401b03811115614640575f5ffd5b8560208260051b8401011115614488575f5ffd5b81516001600160401b031681526020808301516001600160c01b0316908201526040808301519082015260608083015180516104808401925f9085015b60208210156146b157825181526020928301926001929092019101614691565b50505060208101516104608401525092915050565b5f5f5f5f5f60a086880312156146da575f5ffd5b85359450602086013593506040860135925060608601356146fa81614538565b949793965091946080013592915050565b634e487b7160e01b5f52602160045260245ffd5b602081016004831061473f57634e487b7160e01b5f52602160045260245ffd5b91905290565b5f6104c0828403128015614530575f5ffd5b5f60208284031215614767575f5ffd5b81356001600160401b0381111561477c575f5ffd5b82016101008185031215612ad5575f5ffd5b606080825284519082018190525f9060208601906080840190835b8181101561480857835163ffffffff815116845260ff60208201511660208501526001600160801b0360408201511660408501526001600160801b036060820151166060850152506080830192506020840193506001810190506147a9565b50506020840195909552505060400152919050565b5f6020828403121561482d575f5ffd5b5035919050565b634e487b7160e01b5f52603260045260245ffd5b634e487b7160e01b5f52601160045260245ffd5b5f6001820161486d5761486d614848565b5060010190565b634e487b7160e01b5f52601260045260245ffd5b5f8261489657614896614874565b500490565b5f826148a9576148a9614874565b500690565b6104c0810182356148be81614538565b6001600160a01b031682526020838101359083015260408084013590830152606080840135908301526080808401359083015260a0838101359083015261040060c08085019084013792915050565b80820180821115610c6357610c63614848565b604080825281018390525f8460608301825b8681101561496257823561494581614538565b6001600160a01b0316825260209283019290910190600101614932565b506001600160a01b03949094166020939093019290925250909392505050565b81810381811115610c6357610c63614848565b5f602082840312156149a5575f5ffd5b8151612ad581614538565b5f602082840312156149c0575f5ffd5b5051919050565b60ff81168114610d87575f5ffd5b5f602082840312156149e5575f5ffd5b8135612ad5816149c7565b6001600160401b0381168114610d87575f5ffd5b5f60208284031215614a14575f5ffd5b8135612ad5816149f0565b5f5f8335601e19843603018112614a34575f5ffd5b8301803591506001600160401b03821115614a4d575f5ffd5b6020019150600781901b3603821315614a64575f5ffd5b9250929050565b6001600160801b0381168114610d87575f5ffd5b5f60208284031215614a8f575f5ffd5b8135612ad581614a6b565b63ffffffff81168114610d87575f5ffd5b5f60208284031215614abb575f5ffd5b8135612ad581614a9a565b5f60208284031215614ad6575f5ffd5b81518015158114612ad5575f5ffd5b5f81518084528060208401602086015e5f602082860101526020601f19601f83011685010191505092915050565b6001600160a01b0388811682526020820188905260408201879052858116606083015260808201859052831660a082015260e060c082018190525f90614b5b90830184614ae5565b9998505050505050505050565b634e487b7160e01b5f52600160045260245ffd5b5f6001600160401b0382166001600160401b038103614b9d57614b9d614848565b60010192915050565b5f82518060208501845e5f920191825250919050565b634e487b7160e01b5f52604160045260245ffd5b604051608081016001600160401b0381118282101715614bf257614bf2614bbc565b60405290565b60405160e081016001600160401b0381118282101715614bf257614bf2614bbc565b604051601f8201601f191681016001600160401b0381118282101715614c4257614c42614bbc565b604052919050565b8051614c55816149c7565b919050565b5f6060828403128015614c6b575f5ffd5b50604051606081016001600160401b0381118282101715614c8e57614c8e614bbc565b6040528251614c9c81614538565b81526020830151614cac816149c7565b60208201526040830151614cbf81614a9a565b60408201529392505050565b6001600160c01b038281168282160390811115610c6357610c63614848565b5f5f85851115614cf8575f5ffd5b83861115614d04575f5ffd5b5050820193919092039150565b80356bffffffffffffffffffffffff198116906014841015614d57576bffffffffffffffffffffffff196bffffffffffffffffffffffff198560140360031b1b82161691505b5092915050565b6001815b6001841115614d9957808504811115614d7d57614d7d614848565b6001841615614d8b57908102905b60019390931c928002614d62565b935093915050565b5f82614daf57506001610c63565b81614dbb57505f610c63565b8160018114614dd15760028114614ddb57614df7565b6001915050610c63565b60ff841115614dec57614dec614848565b50506001821b610c63565b5060208310610133831016604e8410600b8410161715614e1a575081810a610c63565b614e265f198484614d5e565b805f1904821115614e3957614e39614848565b029392505050565b5f612ad58383614da1565b610420810181845f5b6020811015614e74578151835260209283019290910190600101614e55565b505050826104008301529392505050565b5f60408284031215614e95575f5ffd5b604080519081016001600160401b0381118282101715614eb757614eb7614bbc565b80604052508091508251614eca816149f0565b8152602092830151920191909152919050565b5f82601f830112614eec575f5ffd5b81516001600160401b03811115614f0557614f05614bbc565b614f1460208260051b01614c1a565b8082825260208201915060208360071b860101925085831115614f35575f5ffd5b602085015b83811015614fa65760808188031215614f51575f5ffd5b614f59614bd0565b815181526020820151614f6b816149c7565b60208201526040820151614f7e81614a6b565b60408201526060820151614f9181614a6b565b60608201528352602090920191608001614f3a565b5095945050505050565b5f60208284031215614fc0575f5ffd5b81516001600160401b03811115614fd5575f5ffd5b82016101008185031215614fe7575f5ffd5b614fef614bf8565b614ff882614c4a565b8152602082810151908201526040808301519082015261501b8560608401614e85565b606082015260a0820151608082015260c08201516001600160401b03811115615042575f5ffd5b61504e86828501614edd565b60a08301525060e0919091015160c08201529392505050565b838152610440810161040084602084013782610420830152949350505050565b6001600160a01b0387811682528681166020830152851660408201526060810184905263ffffffff8316608082015260c060a082018190525f906150cd90830184614ae5565b98975050505050505050565b602081525f610120820160ff845116602084015260208401516040840152604084015160608401526060840151615126608085018280516001600160401b03168252602090810151910152565b50608084015160c084015260a084015161010060e0850152805191829052602001905f906101408501905b808310156151aa5783518051835260ff60208201511660208401526001600160801b0360408201511660408401526001600160801b03606082015116606084015250608082019150602084019350600183019250615151565b5060c086015161010086015280935050505092915050565b6001600160a01b03841681526060602082018190525f906151e590830185614ae5565b905063ffffffff8316604083015294935050505056fea164736f6c634300081c000a",
	"gitCommit": "npm:@bananapus/suckers-v6@0.0.72",
	"gitDirty": false,
	"history": []
}