{
	"format": "sphinx-sol-ct-artifact-1",
	"address": "0x952648f3a4bbe85c07398e7d3235d330dbfaca32",
	"sourceName": "node_modules/@bananapus/suckers-v6/src/JBSuckerRegistry.sol",
	"contractName": "JBSuckerRegistry",
	"chainId": "0xaa37dc",
	"abi": [
		{
			"type": "constructor",
			"inputs": [
				{
					"name": "directory",
					"type": "address",
					"internalType": "contract IJBDirectory"
				},
				{
					"name": "permissions",
					"type": "address",
					"internalType": "contract IJBPermissions"
				},
				{
					"name": "prices",
					"type": "address",
					"internalType": "contract IJBPrices"
				},
				{
					"name": "initialOwner",
					"type": "address",
					"internalType": "address"
				},
				{
					"name": "trustedForwarder",
					"type": "address",
					"internalType": "address"
				}
			],
			"stateMutability": "nonpayable"
		},
		{
			"type": "function",
			"name": "DIRECTORY",
			"inputs": [],
			"outputs": [
				{
					"name": "",
					"type": "address",
					"internalType": "contract IJBDirectory"
				}
			],
			"stateMutability": "view"
		},
		{
			"type": "function",
			"name": "MAX_TO_REMOTE_FEE",
			"inputs": [],
			"outputs": [
				{
					"name": "",
					"type": "uint256",
					"internalType": "uint256"
				}
			],
			"stateMutability": "view"
		},
		{
			"type": "function",
			"name": "PERMISSIONS",
			"inputs": [],
			"outputs": [
				{
					"name": "",
					"type": "address",
					"internalType": "contract IJBPermissions"
				}
			],
			"stateMutability": "view"
		},
		{
			"type": "function",
			"name": "PRICES",
			"inputs": [],
			"outputs": [
				{
					"name": "",
					"type": "address",
					"internalType": "contract IJBPrices"
				}
			],
			"stateMutability": "view"
		},
		{
			"type": "function",
			"name": "PROJECTS",
			"inputs": [],
			"outputs": [
				{
					"name": "",
					"type": "address",
					"internalType": "contract IJBProjects"
				}
			],
			"stateMutability": "view"
		},
		{
			"type": "function",
			"name": "allSuckersOf",
			"inputs": [
				{
					"name": "projectId",
					"type": "uint256",
					"internalType": "uint256"
				}
			],
			"outputs": [
				{
					"name": "suckers",
					"type": "address[]",
					"internalType": "address[]"
				}
			],
			"stateMutability": "view"
		},
		{
			"type": "function",
			"name": "allowSuckerDeployer",
			"inputs": [
				{
					"name": "deployer",
					"type": "address",
					"internalType": "address"
				}
			],
			"outputs": [],
			"stateMutability": "nonpayable"
		},
		{
			"type": "function",
			"name": "allowSuckerDeployers",
			"inputs": [
				{
					"name": "deployers",
					"type": "address[]",
					"internalType": "address[]"
				}
			],
			"outputs": [],
			"stateMutability": "nonpayable"
		},
		{
			"type": "function",
			"name": "deploySuckersFor",
			"inputs": [
				{
					"name": "projectId",
					"type": "uint256",
					"internalType": "uint256"
				},
				{
					"name": "salt",
					"type": "bytes32",
					"internalType": "bytes32"
				},
				{
					"name": "configurations",
					"type": "tuple[]",
					"internalType": "struct JBSuckerDeployerConfig[]",
					"components": [
						{
							"name": "deployer",
							"type": "address",
							"internalType": "contract IJBSuckerDeployer"
						},
						{
							"name": "peer",
							"type": "bytes32",
							"internalType": "bytes32"
						},
						{
							"name": "mappings",
							"type": "tuple[]",
							"internalType": "struct JBTokenMapping[]",
							"components": [
								{
									"name": "localToken",
									"type": "address",
									"internalType": "address"
								},
								{
									"name": "minGas",
									"type": "uint32",
									"internalType": "uint32"
								},
								{
									"name": "remoteToken",
									"type": "bytes32",
									"internalType": "bytes32"
								}
							]
						}
					]
				}
			],
			"outputs": [
				{
					"name": "suckers",
					"type": "address[]",
					"internalType": "address[]"
				}
			],
			"stateMutability": "nonpayable"
		},
		{
			"type": "function",
			"name": "isSuckerOf",
			"inputs": [
				{
					"name": "projectId",
					"type": "uint256",
					"internalType": "uint256"
				},
				{
					"name": "addr",
					"type": "address",
					"internalType": "address"
				}
			],
			"outputs": [
				{
					"name": "",
					"type": "bool",
					"internalType": "bool"
				}
			],
			"stateMutability": "view"
		},
		{
			"type": "function",
			"name": "isTrustedForwarder",
			"inputs": [
				{
					"name": "forwarder",
					"type": "address",
					"internalType": "address"
				}
			],
			"outputs": [
				{
					"name": "",
					"type": "bool",
					"internalType": "bool"
				}
			],
			"stateMutability": "view"
		},
		{
			"type": "function",
			"name": "owner",
			"inputs": [],
			"outputs": [
				{
					"name": "",
					"type": "address",
					"internalType": "address"
				}
			],
			"stateMutability": "view"
		},
		{
			"type": "function",
			"name": "remoteBalanceOf",
			"inputs": [
				{
					"name": "sucker",
					"type": "address",
					"internalType": "address"
				},
				{
					"name": "projectId",
					"type": "uint256",
					"internalType": "uint256"
				},
				{
					"name": "currency",
					"type": "uint256",
					"internalType": "uint256"
				},
				{
					"name": "decimals",
					"type": "uint256",
					"internalType": "uint256"
				}
			],
			"outputs": [
				{
					"name": "",
					"type": "tuple",
					"internalType": "struct JBPeerChainValue",
					"components": [
						{
							"name": "value",
							"type": "uint256",
							"internalType": "uint256"
						},
						{
							"name": "peerChainId",
							"type": "uint256",
							"internalType": "uint256"
						},
						{
							"name": "snapshotTimestamp",
							"type": "uint256",
							"internalType": "uint256"
						}
					]
				}
			],
			"stateMutability": "view"
		},
		{
			"type": "function",
			"name": "remoteSurplusOf",
			"inputs": [
				{
					"name": "sucker",
					"type": "address",
					"internalType": "address"
				},
				{
					"name": "projectId",
					"type": "uint256",
					"internalType": "uint256"
				},
				{
					"name": "currency",
					"type": "uint256",
					"internalType": "uint256"
				},
				{
					"name": "decimals",
					"type": "uint256",
					"internalType": "uint256"
				}
			],
			"outputs": [
				{
					"name": "",
					"type": "tuple",
					"internalType": "struct JBPeerChainValue",
					"components": [
						{
							"name": "value",
							"type": "uint256",
							"internalType": "uint256"
						},
						{
							"name": "peerChainId",
							"type": "uint256",
							"internalType": "uint256"
						},
						{
							"name": "snapshotTimestamp",
							"type": "uint256",
							"internalType": "uint256"
						}
					]
				}
			],
			"stateMutability": "view"
		},
		{
			"type": "function",
			"name": "remoteTotalSupplyOf",
			"inputs": [
				{
					"name": "projectId",
					"type": "uint256",
					"internalType": "uint256"
				}
			],
			"outputs": [
				{
					"name": "totalSupply",
					"type": "uint256",
					"internalType": "uint256"
				}
			],
			"stateMutability": "view"
		},
		{
			"type": "function",
			"name": "removeDeprecatedSucker",
			"inputs": [
				{
					"name": "projectId",
					"type": "uint256",
					"internalType": "uint256"
				},
				{
					"name": "sucker",
					"type": "address",
					"internalType": "address"
				}
			],
			"outputs": [],
			"stateMutability": "nonpayable"
		},
		{
			"type": "function",
			"name": "removeSuckerDeployer",
			"inputs": [
				{
					"name": "deployer",
					"type": "address",
					"internalType": "address"
				}
			],
			"outputs": [],
			"stateMutability": "nonpayable"
		},
		{
			"type": "function",
			"name": "renounceOwnership",
			"inputs": [],
			"outputs": [],
			"stateMutability": "nonpayable"
		},
		{
			"type": "function",
			"name": "setToRemoteFee",
			"inputs": [
				{
					"name": "fee",
					"type": "uint256",
					"internalType": "uint256"
				}
			],
			"outputs": [],
			"stateMutability": "nonpayable"
		},
		{
			"type": "function",
			"name": "suckerDeployerIsAllowed",
			"inputs": [
				{
					"name": "deployer",
					"type": "address",
					"internalType": "address"
				}
			],
			"outputs": [
				{
					"name": "",
					"type": "bool",
					"internalType": "bool"
				}
			],
			"stateMutability": "view"
		},
		{
			"type": "function",
			"name": "suckerPairsOf",
			"inputs": [
				{
					"name": "projectId",
					"type": "uint256",
					"internalType": "uint256"
				}
			],
			"outputs": [
				{
					"name": "pairs",
					"type": "tuple[]",
					"internalType": "struct JBSuckersPair[]",
					"components": [
						{
							"name": "local",
							"type": "address",
							"internalType": "address"
						},
						{
							"name": "remote",
							"type": "bytes32",
							"internalType": "bytes32"
						},
						{
							"name": "remoteChainId",
							"type": "uint256",
							"internalType": "uint256"
						}
					]
				}
			],
			"stateMutability": "view"
		},
		{
			"type": "function",
			"name": "suckersOf",
			"inputs": [
				{
					"name": "projectId",
					"type": "uint256",
					"internalType": "uint256"
				}
			],
			"outputs": [
				{
					"name": "suckers",
					"type": "address[]",
					"internalType": "address[]"
				}
			],
			"stateMutability": "view"
		},
		{
			"type": "function",
			"name": "toRemoteFee",
			"inputs": [],
			"outputs": [
				{
					"name": "",
					"type": "uint256",
					"internalType": "uint256"
				}
			],
			"stateMutability": "view"
		},
		{
			"type": "function",
			"name": "totalRemoteBalanceOf",
			"inputs": [
				{
					"name": "projectId",
					"type": "uint256",
					"internalType": "uint256"
				},
				{
					"name": "currency",
					"type": "uint256",
					"internalType": "uint256"
				},
				{
					"name": "decimals",
					"type": "uint256",
					"internalType": "uint256"
				}
			],
			"outputs": [
				{
					"name": "balance",
					"type": "uint256",
					"internalType": "uint256"
				}
			],
			"stateMutability": "view"
		},
		{
			"type": "function",
			"name": "totalRemoteSurplusOf",
			"inputs": [
				{
					"name": "projectId",
					"type": "uint256",
					"internalType": "uint256"
				},
				{
					"name": "currency",
					"type": "uint256",
					"internalType": "uint256"
				},
				{
					"name": "decimals",
					"type": "uint256",
					"internalType": "uint256"
				}
			],
			"outputs": [
				{
					"name": "surplus",
					"type": "uint256",
					"internalType": "uint256"
				}
			],
			"stateMutability": "view"
		},
		{
			"type": "function",
			"name": "transferOwnership",
			"inputs": [
				{
					"name": "newOwner",
					"type": "address",
					"internalType": "address"
				}
			],
			"outputs": [],
			"stateMutability": "nonpayable"
		},
		{
			"type": "function",
			"name": "trustedForwarder",
			"inputs": [],
			"outputs": [
				{
					"name": "",
					"type": "address",
					"internalType": "address"
				}
			],
			"stateMutability": "view"
		},
		{
			"type": "event",
			"name": "OwnershipTransferred",
			"inputs": [
				{
					"name": "previousOwner",
					"type": "address",
					"indexed": true,
					"internalType": "address"
				},
				{
					"name": "newOwner",
					"type": "address",
					"indexed": true,
					"internalType": "address"
				}
			],
			"anonymous": false
		},
		{
			"type": "event",
			"name": "SuckerDeployedFor",
			"inputs": [
				{
					"name": "projectId",
					"type": "uint256",
					"indexed": false,
					"internalType": "uint256"
				},
				{
					"name": "sucker",
					"type": "address",
					"indexed": false,
					"internalType": "address"
				},
				{
					"name": "configuration",
					"type": "tuple",
					"indexed": false,
					"internalType": "struct JBSuckerDeployerConfig",
					"components": [
						{
							"name": "deployer",
							"type": "address",
							"internalType": "contract IJBSuckerDeployer"
						},
						{
							"name": "peer",
							"type": "bytes32",
							"internalType": "bytes32"
						},
						{
							"name": "mappings",
							"type": "tuple[]",
							"internalType": "struct JBTokenMapping[]",
							"components": [
								{
									"name": "localToken",
									"type": "address",
									"internalType": "address"
								},
								{
									"name": "minGas",
									"type": "uint32",
									"internalType": "uint32"
								},
								{
									"name": "remoteToken",
									"type": "bytes32",
									"internalType": "bytes32"
								}
							]
						}
					]
				},
				{
					"name": "caller",
					"type": "address",
					"indexed": false,
					"internalType": "address"
				}
			],
			"anonymous": false
		},
		{
			"type": "event",
			"name": "SuckerDeployerAllowed",
			"inputs": [
				{
					"name": "deployer",
					"type": "address",
					"indexed": false,
					"internalType": "address"
				},
				{
					"name": "caller",
					"type": "address",
					"indexed": false,
					"internalType": "address"
				}
			],
			"anonymous": false
		},
		{
			"type": "event",
			"name": "SuckerDeployerRemoved",
			"inputs": [
				{
					"name": "deployer",
					"type": "address",
					"indexed": false,
					"internalType": "address"
				},
				{
					"name": "caller",
					"type": "address",
					"indexed": false,
					"internalType": "address"
				}
			],
			"anonymous": false
		},
		{
			"type": "event",
			"name": "SuckerDeprecated",
			"inputs": [
				{
					"name": "projectId",
					"type": "uint256",
					"indexed": false,
					"internalType": "uint256"
				},
				{
					"name": "sucker",
					"type": "address",
					"indexed": false,
					"internalType": "address"
				},
				{
					"name": "caller",
					"type": "address",
					"indexed": false,
					"internalType": "address"
				}
			],
			"anonymous": false
		},
		{
			"type": "event",
			"name": "ToRemoteFeeChanged",
			"inputs": [
				{
					"name": "oldFee",
					"type": "uint256",
					"indexed": false,
					"internalType": "uint256"
				},
				{
					"name": "newFee",
					"type": "uint256",
					"indexed": false,
					"internalType": "uint256"
				},
				{
					"name": "caller",
					"type": "address",
					"indexed": false,
					"internalType": "address"
				}
			],
			"anonymous": false
		},
		{
			"type": "error",
			"name": "JBPermissioned_Unauthorized",
			"inputs": [
				{
					"name": "account",
					"type": "address",
					"internalType": "address"
				},
				{
					"name": "sender",
					"type": "address",
					"internalType": "address"
				},
				{
					"name": "projectId",
					"type": "uint256",
					"internalType": "uint256"
				},
				{
					"name": "permissionId",
					"type": "uint256",
					"internalType": "uint256"
				}
			]
		},
		{
			"type": "error",
			"name": "JBSuckerRegistry_FeeExceedsMax",
			"inputs": [
				{
					"name": "fee",
					"type": "uint256",
					"internalType": "uint256"
				},
				{
					"name": "max",
					"type": "uint256",
					"internalType": "uint256"
				}
			]
		},
		{
			"type": "error",
			"name": "JBSuckerRegistry_InvalidDeployer",
			"inputs": [
				{
					"name": "deployer",
					"type": "address",
					"internalType": "contract IJBSuckerDeployer"
				}
			]
		},
		{
			"type": "error",
			"name": "JBSuckerRegistry_SuckerDoesNotBelongToProject",
			"inputs": [
				{
					"name": "projectId",
					"type": "uint256",
					"internalType": "uint256"
				},
				{
					"name": "sucker",
					"type": "address",
					"internalType": "address"
				}
			]
		},
		{
			"type": "error",
			"name": "JBSuckerRegistry_SuckerIsNotDeprecated",
			"inputs": [
				{
					"name": "sucker",
					"type": "address",
					"internalType": "address"
				},
				{
					"name": "suckerState",
					"type": "uint8",
					"internalType": "enum JBSuckerState"
				}
			]
		},
		{
			"type": "error",
			"name": "JBSuckerRegistry_ZeroPeerChainId",
			"inputs": [
				{
					"name": "sucker",
					"type": "address",
					"internalType": "address"
				}
			]
		},
		{
			"type": "error",
			"name": "OwnableInvalidOwner",
			"inputs": [
				{
					"name": "owner",
					"type": "address",
					"internalType": "address"
				}
			]
		},
		{
			"type": "error",
			"name": "OwnableUnauthorizedAccount",
			"inputs": [
				{
					"name": "account",
					"type": "address",
					"internalType": "address"
				}
			]
		},
		{
			"type": "error",
			"name": "PRBMath_MulDiv_Overflow",
			"inputs": [
				{
					"name": "x",
					"type": "uint256",
					"internalType": "uint256"
				},
				{
					"name": "y",
					"type": "uint256",
					"internalType": "uint256"
				},
				{
					"name": "denominator",
					"type": "uint256",
					"internalType": "uint256"
				}
			]
		}
	],
	"args": [
		"0xE7d0F5ADC3847d4AfD70B7bcd58e34B1AAFDffbc",
		"0xCF5870A8F942110C2ea89fd03B7a3D578816a265",
		"0x0122D6E6CF353e9a4416D125519c0dF9c386F0a9",
		"0xd5136c794ee43BEf1eD4cF1eB6DEe45b7F803437",
		"0x53d5A7E174A87721c527ED14c7Ce7cb515465607"
	],
	"solcInputHash": "53a8fdb573a84008f352b8b9bc4f49d7",
	"bytecode": "0x610120604052348015610010575f5ffd5b50604051612c97380380612c9783398101604081905261002f91610172565b6001600160a01b0380821660805284908390811661006657604051631e4fbdf760e01b81525f600482015260240160405180910390fd5b61006f8161010c565b506001600160a01b0390811660a05285811660c081905290841660e0526040805163293c499960e01b8152905163293c4999916004808201926020929091908290030181865afa1580156100c5573d5f5f3e3d5ffd5b505050506040513d601f19601f820116820180604052508101906100e991906101e3565b6001600160a01b031661010052505066038d7ea4c6800060025550610205915050565b5f80546001600160a01b038381166001600160a01b0319831681178455604051919092169283917f8be0079c531659141344cd1fd0a4f28419497f9722a3daafe3b4186f6b6457e09190a35050565b6001600160a01b038116811461016f575f5ffd5b50565b5f5f5f5f5f60a08688031215610186575f5ffd5b85516101918161015b565b60208701519095506101a28161015b565b60408701519094506101b38161015b565b60608701519093506101c48161015b565b60808701519092506101d58161015b565b809150509295509295909350565b5f602082840312156101f3575f5ffd5b81516101fe8161015b565b9392505050565b60805160a05160c05160e05161010051612a326102655f395f81816102160152610ec201525f81816101bf0152611ac601525f61037f01525f818161046c01526119ac01525f81816102b8015281816103350152611b5b0152612a325ff3fe608060405234801561000f575f5ffd5b50600436106101a1575f3560e01c80637da0a877116100f3578063a1031a4f11610093578063c458ae821161006e578063c458ae8214610441578063f2fde38b14610454578063f434c91414610467578063f73ac20f1461048e575f5ffd5b8063a1031a4f146103d7578063a50665cd146103f9578063c22bab6c1461042e575f5ffd5b806388bc2ef3116100ce57806388bc2ef31461037a5780638da5cb5b146103a15780639cedad48146103b15780639d7f9001146103c4575f5ffd5b80637da0a8771461033357806382a70d111461035957806383db9d0114610367575f5ffd5b80633d12cb871161015e578063572b6c0511610139578063572b6c05146102a85780635d6f1fc5146102f8578063669745a514610318578063715018a61461032b575f5ffd5b80633d12cb871461026c578063421159151461028c57806349ad63cd14610295575f5ffd5b8063153bb1bb146101a55780631eabcd34146101ba5780632619901f146101fe578063293c499914610211578063314fcc381461023857806338d8d4681461024b575b5f5ffd5b6101b86101b336600461211b565b6104a1565b005b6101e17f000000000000000000000000000000000000000000000000000000000000000081565b6040516001600160a01b0390911681526020015b60405180910390f35b6101b861020c366004612136565b610518565b6101e17f000000000000000000000000000000000000000000000000000000000000000081565b6101b861024636600461214d565b6105bb565b61025e61025936600461217b565b610723565b6040519081526020016101f5565b61027f61027a366004612136565b6108d5565b6040516101f591906121a4565b61025e60025481565b61027f6102a3366004612136565b610a5a565b6102e86102b636600461211b565b7f00000000000000000000000000000000000000000000000000000000000000006001600160a01b0390811691161490565b60405190151581526020016101f5565b61030b610306366004612136565b610a79565b6040516101f591906121ef565b6101b8610326366004612288565b610c53565b6101b8610d0c565b7f00000000000000000000000000000000000000000000000000000000000000006101e1565b61025e66038d7ea4c6800081565b6102e861037536600461214d565b610d1f565b6101e17f000000000000000000000000000000000000000000000000000000000000000081565b5f546001600160a01b03166101e1565b61025e6103bf366004612136565b610d5e565b61027f6103d23660046122c6565b610e9f565b6102e86103e536600461211b565b60016020525f908152604090205460ff1681565b61040c610407366004612314565b6111d2565b60408051825181526020808401519082015291810151908201526060016101f5565b61040c61043c366004612314565b61131d565b61025e61044f36600461217b565b611409565b6101b861046236600461211b565b611578565b6101e17f000000000000000000000000000000000000000000000000000000000000000081565b6101b861049c36600461211b565b6115b5565b6104a961160c565b6001600160a01b0381165f908152600160205260409020805460ff191690557f1b9942be0c71843c19753c9070512cdce46255a7bf38934a6175b1a684950b94816104f2611669565b604080516001600160a01b0393841681529290911660208301520160405180910390a150565b61052061160c565b66038d7ea4c6800081111561055d576040516305c0156d60e31b81526004810182905266038d7ea4c6800060248201526044015b60405180910390fd5b60028054908290557fed0c8698cb5519551727d3ccdbc62c9fa71d374e3b1b31306619be2caedc50fc8183610590611669565b6040805193845260208401929092526001600160a01b03169082015260600160405180910390a15050565b5f82815260036020526040812081906105d49084611677565b915091508115806105e6575060018114155b1561061657604051632597d62b60e11b8152600481018590526001600160a01b0384166024820152604401610554565b5f836001600160a01b031663c19d93fb6040518163ffffffff1660e01b8152600401602060405180830381865afa158015610653573d5f5f3e3d5ffd5b505050506040513d601f19601f82011682018060405250810190610677919061234c565b9050600381600381111561068d5761068d61236a565b146106af578381604051631cc4a14360e21b815260040161055492919061237e565b5f8581526003602052604090206106c89085600261169d565b507fa0598050070757d3cfb55dc6d3bd9f6ac70f5c9e58e5aa29392a9b9c9cf28ef085856106f4611669565b604080519384526001600160a01b03928316602085015291169082015260600160405180910390a15050505050565b5f838152600360205260408120819061073b906116bc565b80519091505f61074a826116c8565b90505f5b82811015610888575f61079385838151811061076c5761076c6123b7565b602002602001015160035f8c81526020019081526020015f2061167790919063ffffffff16565b91505060018114806107a55750600281145b1561087f57306001600160a01b031663a50665cd8684815181106107cb576107cb6123b7565b60209081029190910101516040516001600160e01b031960e084901b1681526001600160a01b039091166004820152602481018c9052604481018b9052606481018a9052608401606060405180830381865afa92505050801561084b575060408051601f3d908101601f1916820190925261084891810190612459565b60015b1561087f576108788482888681518110610867576108676123b7565b602002602001015160018614611817565b6080850152505b5060010161074e565b505f5b81608001518110156108ca57816020015181815181106108ad576108ad6123b7565b6020026020010151856108c091906124a8565b945060010161088b565b505050509392505050565b5f818152600360205260408120606091906108ef906116bc565b90505f5f5b825181101561095c575f61093a848381518110610913576109136123b7565b602002602001015160035f8981526020019081526020015f2061167790919063ffffffff16565b91505060018103610953578261094f816124bb565b9350505b506001016108f4565b50806001600160401b03811115610975576109756123cb565b60405190808252806020026020018201604052801561099e578160200160208202803683370190505b5092505f5f5b8351811015610a51575f6109ea8583815181106109c3576109c36123b7565b602002602001015160035f8a81526020019081526020015f2061167790919063ffffffff16565b91505060018103610a4857848281518110610a0757610a076123b7565b6020026020010151868481518110610a2157610a216123b7565b60200260200101906001600160a01b031690816001600160a01b0316815250508260010192505b506001016109a4565b50505050919050565b5f818152600360205260409020606090610a73906116bc565b92915050565b5f81815260036020526040812060609190610a93906116bc565b90505f5f5b8251811015610ad9575f610ab7848381518110610913576109136123b7565b91505060018103610ad05782610acc816124bb565b9350505b50600101610a98565b50806001600160401b03811115610af257610af26123cb565b604051908082528060200260200182016040528015610b4d57816020015b610b3a60405180606001604052805f6001600160a01b031681526020015f81526020015f81525090565b815260200190600190039081610b105790505b5092505f5f5b8351811015610a51575f610b728583815181106109c3576109c36123b7565b91505060018103610c4a575f858381518110610b9057610b906123b7565b602002602001015190506040518060600160405280826001600160a01b03168152602001826001600160a01b03166311cda4156040518163ffffffff1660e01b8152600401602060405180830381865afa158015610bf0573d5f5f3e3d5ffd5b505050506040513d601f19601f82011682018060405250810190610c1491906124d3565b8152602001610c228361185f565b815250878581518110610c3757610c376123b7565b6020026020010181905250836001019350505b50600101610b53565b610c5b61160c565b5f610c64611669565b90505f5b82811015610d06575f848483818110610c8357610c836123b7565b9050602002016020810190610c98919061211b565b6001600160a01b038181165f81815260016020818152604092839020805460ff19169092179091558151928352928716928201929092529192507f47459529aa21b5f8615a27cd523fad12250733748e422c3eada707a36d3c49bc910160405180910390a150600101610c68565b50505050565b610d1461160c565b610d1d5f6118f2565b565b5f82815260036020526040812081908190610d3a9085611677565b91509150818015610d5557506001811480610d555750600281145b95945050505050565b5f8181526003602052604081208190610d76906116bc565b80519091505f610d85826116c8565b90505f5b82811015610e5d575f610da78583815181106109c3576109c36123b7565b9150506001811480610db95750600281145b15610e5457848281518110610dd057610dd06123b7565b60200260200101516001600160a01b0316635cc4f3696040518163ffffffff1660e01b8152600401606060405180830381865afa925050508015610e31575060408051601f3d908101601f19168201909252610e2e91810190612459565b60015b15610e5457610e4d8482888681518110610867576108676123b7565b6080850152505b50600101610d89565b505f5b8160800151811015610a515781602001518181518110610e8257610e826123b7565b602002602001015185610e9591906124a8565b9450600101610e60565b6040516331a9108f60e11b8152600481018590526060905f906001600160a01b037f00000000000000000000000000000000000000000000000000000000000000001690636352211e90602401602060405180830381865afa158015610f07573d5f5f3e3d5ffd5b505050506040513d601f19601f82011682018060405250810190610f2b91906124ea565b9050610f3981876021611941565b826001600160401b03811115610f5157610f516123cb565b604051908082528060200260200182016040528015610f7a578160200160208202803683370190505b5091505f610f86611669565b604080516001600160a01b03831660208201529081018890529091506060016040516020818303038152906040528051906020012095505f5b848110156111c7575f868683818110610fda57610fda6123b7565b9050602002810190610fec9190612505565b610ff590612556565b80516001600160a01b03165f9081526001602052604090205490915060ff1661103f578051604051632223f10160e01b81526001600160a01b039091166004820152602401610554565b60208101511561105557611055848a6022611941565b8051602082015160405163e4ea608b60e01b8152600481018c9052602481018b905260448101919091525f916001600160a01b03169063e4ea608b906064016020604051808303815f875af11580156110b0573d5f5f3e3d5ffd5b505050506040513d601f19601f820116820180604052508101906110d491906124ea565b90506110df8161185f565b50808684815181106110f3576110f36123b7565b6001600160a01b039092166020928302919091018201525f8b81526003909152604090206111239082600161169d565b50604080830151905162a6e15360e11b81526001600160a01b0383169163014dc2a69161115391906004016126b9565b5f604051808303815f87803b15801561116a575f5ffd5b505af115801561117c573d5f5f3e3d5ffd5b505050507f4d33ed88848a039f44d3828ced48c3992796e9af4f90e48c5ff6f3d0ca1f4e218a8284876040516111b594939291906126cb565b60405180910390a15050600101610fbf565b505050949350505050565b6111f360405180606001604052805f81526020015f81526020015f81525090565b5f5f5f876001600160a01b031663fc9f18b06040518163ffffffff1660e01b81526004015f60405180830381865afa158015611231573d5f5f3e3d5ffd5b505050506040513d5f823e601f3d908101601f191682016040526112589190810190612746565b9250925092505f5f845190505f5b818110156112f8576112e4868281518110611283576112836123b7565b6020026020010151606001516001600160801b03168783815181106112aa576112aa6123b7565b60200260200101515f015163ffffffff168884815181106112cd576112cd6123b7565b60200260200101516020015160ff168c8c8f611a56565b6112ee90846124a8565b9250600101611266565b5050604080516060810182529182526020820193909352918201529695505050505050565b61133e60405180606001604052805f81526020015f81526020015f81525090565b5f5f5f876001600160a01b031663fc9f18b06040518163ffffffff1660e01b81526004015f60405180830381865afa15801561137c573d5f5f3e3d5ffd5b505050506040513d5f823e601f3d908101601f191682016040526113a39190810190612746565b9250925092505f5f845190505f5b818110156112f8576113f58682815181106113ce576113ce6123b7565b6020026020010151604001516001600160801b03168783815181106112aa576112aa6123b7565b6113ff90846124a8565b92506001016113b1565b5f8381526003602052604081208190611421906116bc565b80519091505f611430826116c8565b90505f5b82811015611536575f61145285838151811061076c5761076c6123b7565b91505060018114806114645750600281145b1561152d57306001600160a01b031663c22bab6c86848151811061148a5761148a6123b7565b60209081029190910101516040516001600160e01b031960e084901b1681526001600160a01b039091166004820152602481018c9052604481018b9052606481018a9052608401606060405180830381865afa92505050801561150a575060408051601f3d908101601f1916820190925261150791810190612459565b60015b1561152d576115268482888681518110610867576108676123b7565b6080850152505b50600101611434565b505f5b81608001518110156108ca578160200151818151811061155b5761155b6123b7565b60200260200101518561156e91906124a8565b9450600101611539565b61158061160c565b6001600160a01b0381166115a957604051631e4fbdf760e01b81525f6004820152602401610554565b6115b2816118f2565b50565b6115bd61160c565b6001600160a01b0381165f908152600160208190526040909120805460ff191690911790557f47459529aa21b5f8615a27cd523fad12250733748e422c3eada707a36d3c49bc816104f2611669565b611614611669565b6001600160a01b031661162e5f546001600160a01b031690565b6001600160a01b031614610d1d57611644611669565b60405163118cdaa760e01b81526001600160a01b039091166004820152602401610554565b5f611672611b4a565b905090565b5f80808061168e866001600160a01b038716611bb4565b909450925050505b9250929050565b5f6116b2846001600160a01b03851684611bec565b90505b9392505050565b60605f6116b583611c08565b6116f96040518060a00160405280606081526020016060815260200160608152602001606081526020015f81525090565b816001600160401b03811115611711576117116123cb565b60405190808252806020026020018201604052801561173a578160200160208202803683370190505b508152816001600160401b03811115611755576117556123cb565b60405190808252806020026020018201604052801561177e578160200160208202803683370190505b506020820152816001600160401b0381111561179c5761179c6123cb565b6040519080825280602002602001820160405280156117c5578160200160208202803683370190505b506040820152816001600160401b038111156117e3576117e36123cb565b60405190808252806020026020018201604052801561180c578160200160208202803683370190505b506060820152919050565b5f83602001515f036118475760405163d061d06f60e01b81526001600160a01b0384166004820152602401610554565b610d55858560200151865f0151876040015186611c13565b5f816001600160a01b031663cdfceeba6040518163ffffffff1660e01b8152600401602060405180830381865afa15801561189c573d5f5f3e3d5ffd5b505050506040513d601f19601f820116820180604052508101906118c091906124d3565b9050805f036118ed5760405163d061d06f60e01b81526001600160a01b0383166004820152602401610554565b919050565b5f80546001600160a01b038381166001600160a01b0319831681178455604051919092169283917f8be0079c531659141344cd1fd0a4f28419497f9722a3daafe3b4186f6b6457e09190a35050565b5f61194a611669565b9050836001600160a01b0316816001600160a01b031614158015611a175750604051631a45b42760e11b81526001600160a01b0382811660048301528581166024830152604482018590526064820184905260016084830181905260a48301527f0000000000000000000000000000000000000000000000000000000000000000169063348b684e9060c401602060405180830381865afa1580156119f1573d5f5f3e3d5ffd5b505050506040513d601f19601f82011682018060405250810190611a159190612847565b155b15610d0657604051631326f75560e11b81526001600160a01b038086166004830152821660248201526044810184905260648101839052608401610554565b5f5f838614611a6f57611a6a888786611efe565b611a71565b875b9050801580611a7f57508487145b15611a8b579050611b40565b611b3c81611a9b6012600a612949565b604051631df139fd60e11b815260048101879052602481018b905260448101899052601260648201527f00000000000000000000000000000000000000000000000000000000000000006001600160a01b031690633be273fa90608401602060405180830381865afa158015611b13573d5f5f3e3d5ffd5b505050506040513d601f19601f82011682018060405250810190611b3791906124d3565b611f5a565b9150505b9695505050505050565b5f366014808210801590611b8657507f00000000000000000000000000000000000000000000000000000000000000006001600160a01b031633145b15611bac57611b9936828403815f612954565b611ba29161297b565b60601c9250505090565b339250505090565b5f818152600283016020526040812054819080611be157611bd58585612029565b92505f91506116969050565b600192509050611696565b5f82815260028401602052604081208290556116b28484612034565b6060610a738261203f565b5f5f5b8660800151811015611e4c5785875f01518281518110611c3857611c386123b7565b602002602001015103611e44578215611d585786606001518181518110611c6157611c616123b7565b60200260200101511580611c91575086604001518181518110611c8657611c866123b7565b602002602001015184115b80611cdf575086604001518181518110611cad57611cad6123b7565b602002602001015184148015611cdf575086602001518181518110611cd457611cd46123b7565b602002602001015185115b15611d2b578487602001518281518110611cfb57611cfb6123b7565b6020026020010181815250508387604001518281518110611d1e57611d1e6123b7565b6020026020010181815250505b600187606001518281518110611d4357611d436123b7565b91151560209283029190910190910152611e38565b86606001518181518110611d6e57611d6e6123b7565b6020026020010151158015611dec575086604001518181518110611d9457611d946123b7565b6020026020010151841180611dec575086604001518181518110611dba57611dba6123b7565b602002602001015184148015611dec575086602001518181518110611de157611de16123b7565b602002602001015185115b15611e38578487602001518281518110611e0857611e086123b7565b6020026020010181815250508387604001518281518110611e2b57611e2b6123b7565b6020026020010181815250505b50506080850151610d55565b600101611c16565b5084865f0151876080015181518110611e6757611e676123b7565b602002602001018181525050838660200151876080015181518110611e8e57611e8e6123b7565b602002602001018181525050828660400151876080015181518110611eb557611eb56123b7565b602002602001018181525050818660600151876080015181518110611edc57611edc6123b7565b9115156020928302919091019091015250608085015160010195945050505050565b5f828203611f0d5750826116b5565b82821115611f3b57611f1f83836129c8565b611f2a90600a612949565b611f3490856129db565b90506116b5565b611f4582846129c8565b611f5090600a612949565b611f349085612a06565b5f80805f19858709858702925082811083820303915050805f03611f9157838281611f8757611f876129f2565b04925050506116b5565b838110611fc257604051630c740aef60e31b8152600481018790526024810186905260448101859052606401610554565b5f8486880960026001871981018816978890046003810283188082028403028082028403028082028403028082028403028082028403029081029092039091025f889003889004909101858311909403939093029303949094049190911702949350505050565b5f6116b5838361204b565b5f6116b58383612062565b60605f6116b5836120ae565b5f81815260018301602052604081205415156116b5565b5f8181526001830160205260408120546120a757508154600181810184555f848152602080822090930184905584548482528286019093526040902091909155610a73565b505f610a73565b6060815f018054806020026020016040519081016040528092919081815260200182805480156120fb57602002820191905f5260205f20905b8154815260200190600101908083116120e7575b50505050509050919050565b6001600160a01b03811681146115b2575f5ffd5b5f6020828403121561212b575f5ffd5b81356116b581612107565b5f60208284031215612146575f5ffd5b5035919050565b5f5f6040838503121561215e575f5ffd5b82359150602083013561217081612107565b809150509250929050565b5f5f5f6060848603121561218d575f5ffd5b505081359360208301359350604090920135919050565b602080825282518282018190525f918401906040840190835b818110156121e45783516001600160a01b03168352602093840193909201916001016121bd565b509095945050505050565b602080825282518282018190525f918401906040840190835b818110156121e457835180516001600160a01b03168452602080820151818601526040918201519185019190915290930192606090920191600101612208565b5f5f83601f840112612258575f5ffd5b5081356001600160401b0381111561226e575f5ffd5b6020830191508360208260051b8501011115611696575f5ffd5b5f5f60208385031215612299575f5ffd5b82356001600160401b038111156122ae575f5ffd5b6122ba85828601612248565b90969095509350505050565b5f5f5f5f606085870312156122d9575f5ffd5b843593506020850135925060408501356001600160401b038111156122fc575f5ffd5b61230887828801612248565b95989497509550505050565b5f5f5f5f60808587031215612327575f5ffd5b843561233281612107565b966020860135965060408601359560600135945092505050565b5f6020828403121561235c575f5ffd5b8151600481106116b5575f5ffd5b634e487b7160e01b5f52602160045260245ffd5b6001600160a01b038316815260408101600483106123aa57634e487b7160e01b5f52602160045260245ffd5b8260208301529392505050565b634e487b7160e01b5f52603260045260245ffd5b634e487b7160e01b5f52604160045260245ffd5b604051606081016001600160401b0381118282101715612401576124016123cb565b60405290565b604051608081016001600160401b0381118282101715612401576124016123cb565b604051601f8201601f191681016001600160401b0381118282101715612451576124516123cb565b604052919050565b5f606082840312801561246a575f5ffd5b506124736123df565b82518152602080840151908201526040928301519281019290925250919050565b634e487b7160e01b5f52601160045260245ffd5b80820180821115610a7357610a73612494565b5f600182016124cc576124cc612494565b5060010190565b5f602082840312156124e3575f5ffd5b5051919050565b5f602082840312156124fa575f5ffd5b81516116b581612107565b5f8235605e19833603018112612519575f5ffd5b9190910192915050565b5f6001600160401b0382111561253b5761253b6123cb565b5060051b60200190565b63ffffffff811681146115b2575f5ffd5b5f60608236031215612566575f5ffd5b61256e6123df565b823561257981612107565b81526020838101359082015260408301356001600160401b0381111561259d575f5ffd5b830136601f8201126125ad575f5ffd5b80356125c06125bb82612523565b612429565b808282526020820191506020606084028501019250368311156125e1575f5ffd5b6020840193505b8284101561264857606084360312156125ff575f5ffd5b6126076123df565b843561261281612107565b8152602085013561262281612545565b6020828101919091526040868101359083015290835260609094019391909101906125e8565b60408501525091949350505050565b5f8151808452602084019350602083015f5b828110156126af57815180516001600160a01b0316875260208082015163ffffffff16818901526040918201519188019190915260609096019590910190600101612669565b5093949350505050565b602081525f6116b56020830184612657565b84815260018060a01b03841660208201526080604082015260018060a01b038351166080820152602083015160a08201525f6040840151606060c084015261271660e0840182612657565b91505060018060a01b038316606083015295945050505050565b80516001600160801b03811681146118ed575f5ffd5b5f5f5f60608486031215612758575f5ffd5b83516001600160401b0381111561276d575f5ffd5b8401601f8101861361277d575f5ffd5b805161278b6125bb82612523565b8082825260208201915060208360071b8501019250888311156127ac575f5ffd5b6020840193505b8284101561282d576080848a0312156127ca575f5ffd5b6127d2612407565b84516127dd81612545565b8152602085015160ff811681146127f2575f5ffd5b602082015261280360408601612730565b604082015261281460608601612730565b60608201528252608093909301926020909101906127b3565b602088015160409098015190999798509695505050505050565b5f60208284031215612857575f5ffd5b815180151581146116b5575f5ffd5b6001815b60018411156128a15780850481111561288557612885612494565b600184161561289357908102905b60019390931c92800261286a565b935093915050565b5f826128b757506001610a73565b816128c357505f610a73565b81600181146128d957600281146128e3576128ff565b6001915050610a73565b60ff8411156128f4576128f4612494565b50506001821b610a73565b5060208310610133831016604e8410600b8410161715612922575081810a610a73565b61292e5f198484612866565b805f190482111561294157612941612494565b029392505050565b5f6116b583836128a9565b5f5f85851115612962575f5ffd5b8386111561296e575f5ffd5b5050820193919092039150565b80356bffffffffffffffffffffffff1981169060148410156129c1576bffffffffffffffffffffffff196bffffffffffffffffffffffff198560140360031b1b82161691505b5092915050565b81810381811115610a7357610a73612494565b8082028115828204841417610a7357610a73612494565b634e487b7160e01b5f52601260045260245ffd5b5f82612a2057634e487b7160e01b5f52601260045260245ffd5b50049056fea164736f6c634300081c000a",
	"gitCommit": "npm:@bananapus/suckers-v6@0.0.72",
	"gitDirty": false,
	"history": []
}