{
	"format": "sphinx-sol-ct-artifact-1",
	"address": "0xe1a646527a671f70aae2e9a3bc99989a382e08f3",
	"sourceName": "node_modules/@bananapus/suckers-v6/src/deployers/JBCCIPSuckerDeployer.sol",
	"contractName": "JBCCIPSuckerDeployer",
	"chainId": "0x14a34",
	"abi": [
		{
			"type": "constructor",
			"inputs": [
				{
					"name": "directory",
					"type": "address",
					"internalType": "contract IJBDirectory"
				},
				{
					"name": "permissions",
					"type": "address",
					"internalType": "contract IJBPermissions"
				},
				{
					"name": "tokens",
					"type": "address",
					"internalType": "contract IJBTokens"
				},
				{
					"name": "configurator",
					"type": "address",
					"internalType": "address"
				},
				{
					"name": "trustedForwarder",
					"type": "address",
					"internalType": "address"
				}
			],
			"stateMutability": "nonpayable"
		},
		{
			"type": "function",
			"name": "DIRECTORY",
			"inputs": [],
			"outputs": [
				{
					"name": "",
					"type": "address",
					"internalType": "contract IJBDirectory"
				}
			],
			"stateMutability": "view"
		},
		{
			"type": "function",
			"name": "LAYER_SPECIFIC_CONFIGURATOR",
			"inputs": [],
			"outputs": [
				{
					"name": "",
					"type": "address",
					"internalType": "address"
				}
			],
			"stateMutability": "view"
		},
		{
			"type": "function",
			"name": "PERMISSIONS",
			"inputs": [],
			"outputs": [
				{
					"name": "",
					"type": "address",
					"internalType": "contract IJBPermissions"
				}
			],
			"stateMutability": "view"
		},
		{
			"type": "function",
			"name": "TOKENS",
			"inputs": [],
			"outputs": [
				{
					"name": "",
					"type": "address",
					"internalType": "contract IJBTokens"
				}
			],
			"stateMutability": "view"
		},
		{
			"type": "function",
			"name": "ccipRemoteChainId",
			"inputs": [],
			"outputs": [
				{
					"name": "",
					"type": "uint256",
					"internalType": "uint256"
				}
			],
			"stateMutability": "view"
		},
		{
			"type": "function",
			"name": "ccipRemoteChainSelector",
			"inputs": [],
			"outputs": [
				{
					"name": "",
					"type": "uint64",
					"internalType": "uint64"
				}
			],
			"stateMutability": "view"
		},
		{
			"type": "function",
			"name": "ccipRouter",
			"inputs": [],
			"outputs": [
				{
					"name": "",
					"type": "address",
					"internalType": "contract ICCIPRouter"
				}
			],
			"stateMutability": "view"
		},
		{
			"type": "function",
			"name": "configureSingleton",
			"inputs": [
				{
					"name": "_singleton",
					"type": "address",
					"internalType": "contract JBSucker"
				}
			],
			"outputs": [],
			"stateMutability": "nonpayable"
		},
		{
			"type": "function",
			"name": "createForSender",
			"inputs": [
				{
					"name": "localProjectId",
					"type": "uint256",
					"internalType": "uint256"
				},
				{
					"name": "salt",
					"type": "bytes32",
					"internalType": "bytes32"
				},
				{
					"name": "peer",
					"type": "bytes32",
					"internalType": "bytes32"
				}
			],
			"outputs": [
				{
					"name": "sucker",
					"type": "address",
					"internalType": "contract IJBSucker"
				}
			],
			"stateMutability": "nonpayable"
		},
		{
			"type": "function",
			"name": "isSucker",
			"inputs": [
				{
					"name": "sucker",
					"type": "address",
					"internalType": "address"
				}
			],
			"outputs": [
				{
					"name": "",
					"type": "bool",
					"internalType": "bool"
				}
			],
			"stateMutability": "view"
		},
		{
			"type": "function",
			"name": "isTrustedForwarder",
			"inputs": [
				{
					"name": "forwarder",
					"type": "address",
					"internalType": "address"
				}
			],
			"outputs": [
				{
					"name": "",
					"type": "bool",
					"internalType": "bool"
				}
			],
			"stateMutability": "view"
		},
		{
			"type": "function",
			"name": "setChainSpecificConstants",
			"inputs": [
				{
					"name": "remoteChainId",
					"type": "uint256",
					"internalType": "uint256"
				},
				{
					"name": "remoteChainSelector",
					"type": "uint64",
					"internalType": "uint64"
				},
				{
					"name": "router",
					"type": "address",
					"internalType": "contract ICCIPRouter"
				}
			],
			"outputs": [],
			"stateMutability": "nonpayable"
		},
		{
			"type": "function",
			"name": "singleton",
			"inputs": [],
			"outputs": [
				{
					"name": "",
					"type": "address",
					"internalType": "contract JBSucker"
				}
			],
			"stateMutability": "view"
		},
		{
			"type": "function",
			"name": "trustedForwarder",
			"inputs": [],
			"outputs": [
				{
					"name": "",
					"type": "address",
					"internalType": "address"
				}
			],
			"stateMutability": "view"
		},
		{
			"type": "event",
			"name": "CCIPConstantsSet",
			"inputs": [
				{
					"name": "ccipRouter",
					"type": "address",
					"indexed": false,
					"internalType": "address"
				},
				{
					"name": "ccipRemoteChainId",
					"type": "uint256",
					"indexed": false,
					"internalType": "uint256"
				},
				{
					"name": "ccipRemoteChainSelector",
					"type": "uint64",
					"indexed": false,
					"internalType": "uint64"
				},
				{
					"name": "caller",
					"type": "address",
					"indexed": false,
					"internalType": "address"
				}
			],
			"anonymous": false
		},
		{
			"type": "error",
			"name": "JBPermissioned_Unauthorized",
			"inputs": [
				{
					"name": "account",
					"type": "address",
					"internalType": "address"
				},
				{
					"name": "sender",
					"type": "address",
					"internalType": "address"
				},
				{
					"name": "projectId",
					"type": "uint256",
					"internalType": "uint256"
				},
				{
					"name": "permissionId",
					"type": "uint256",
					"internalType": "uint256"
				}
			]
		},
		{
			"type": "error",
			"name": "JBSuckerDeployer_AlreadyConfigured",
			"inputs": [
				{
					"name": "singleton",
					"type": "address",
					"internalType": "address"
				},
				{
					"name": "layerSpecificConfigurationIsSet",
					"type": "bool",
					"internalType": "bool"
				}
			]
		},
		{
			"type": "error",
			"name": "JBSuckerDeployer_DeployerIsNotConfigured",
			"inputs": [
				{
					"name": "singleton",
					"type": "address",
					"internalType": "address"
				}
			]
		},
		{
			"type": "error",
			"name": "JBSuckerDeployer_InvalidLayerSpecificConfiguration",
			"inputs": [
				{
					"name": "configurator",
					"type": "address",
					"internalType": "address"
				}
			]
		},
		{
			"type": "error",
			"name": "JBSuckerDeployer_LayerSpecificNotConfigured",
			"inputs": [
				{
					"name": "configurator",
					"type": "address",
					"internalType": "address"
				}
			]
		},
		{
			"type": "error",
			"name": "JBSuckerDeployer_Unauthorized",
			"inputs": [
				{
					"name": "caller",
					"type": "address",
					"internalType": "address"
				},
				{
					"name": "expected",
					"type": "address",
					"internalType": "address"
				}
			]
		},
		{
			"type": "error",
			"name": "JBSuckerDeployer_ZeroConfiguratorAddress",
			"inputs": [
				{
					"name": "configurator",
					"type": "address",
					"internalType": "address"
				}
			]
		}
	],
	"args": [
		"0xE7d0F5ADC3847d4AfD70B7bcd58e34B1AAFDffbc",
		"0xCF5870A8F942110C2ea89fd03B7a3D578816a265",
		"0x8eA8B4B71e8C68b92A14E16b8c6Ab18B5C42f113",
		"0xd5136c794ee43BEf1eD4cF1eB6DEe45b7F803437",
		"0x53d5A7E174A87721c527ED14c7Ce7cb515465607"
	],
	"solcInputHash": "4cada95a9a186cd084467eaa905270f6",
	"bytecode": "0x610120604052348015610010575f5ffd5b50604051610b25380380610b2583398101604081905261002f9161010a565b6001600160a01b0380821660805280851660a05280861660c05280841661010052821660e08190528590859085908590859015801561007357506100716100af565b155b156100a05760405163f9af1f7360e01b81526001600160a01b038316600482015260240160405180910390fd5b5050505050505050505061017b565b5f6002545f141580156100cc57506003546001600160401b031615155b80156100ee57506003546801000000000000000090046001600160a01b031615155b905090565b6001600160a01b0381168114610107575f5ffd5b50565b5f5f5f5f5f60a0868803121561011e575f5ffd5b8551610129816100f3565b602087015190955061013a816100f3565b604087015190945061014b816100f3565b606087015190935061015c816100f3565b608087015190925061016d816100f3565b809150509295509295909350565b60805160a05160c05160e0516101005161093c6101e95f395f61013a01525f81816101610152818161032b0152818161039001528181610416015281816104d3015261053c01525f61022801525f6102c401525f81816101a6015281816101ff0152610769015261093c5ff3fe608060405234801561000f575f5ffd5b50600436106100e5575f3560e01c80637da0a87711610088578063c39ec12411610063578063c39ec1241461025d578063d86161871461027f578063e4ea608b146102ac578063f434c914146102bf575f5ffd5b80637da0a877146101fd57806388bc2ef314610223578063b62654fb1461024a575f5ffd5b80631e5d73df116100c35780631e5d73df1461015c5780633eeb32ee14610183578063572b6c051461019657806363a49dc3146101e6575f5ffd5b80630de22984146100e9578063143b0739146101205780631d831d5c14610135575b5f5ffd5b60035461010390600160401b90046001600160a01b031681565b6040516001600160a01b0390911681526020015b60405180910390f35b61013361012e36600461082c565b6102e6565b005b6101037f000000000000000000000000000000000000000000000000000000000000000081565b6101037f000000000000000000000000000000000000000000000000000000000000000081565b610133610191366004610877565b6104d1565b6101d66101a4366004610877565b7f00000000000000000000000000000000000000000000000000000000000000006001600160a01b0390811691161490565b6040519015158152602001610117565b6101ef60025481565b604051908152602001610117565b7f0000000000000000000000000000000000000000000000000000000000000000610103565b6101037f000000000000000000000000000000000000000000000000000000000000000081565b600154610103906001600160a01b031681565b6101d661026b366004610877565b5f6020819052908152604090205460ff1681565b6003546102939067ffffffffffffffff1681565b60405167ffffffffffffffff9091168152602001610117565b6101036102ba366004610892565b6105dc565b6101037f000000000000000000000000000000000000000000000000000000000000000081565b6102ee6106fc565b1561032957600180546040516312467db160e01b81526001600160a01b03909116600482015260248101919091526044015b60405180910390fd5b7f00000000000000000000000000000000000000000000000000000000000000006001600160a01b031661035b61073c565b6001600160a01b0316146103bf5761037161073c565b60405163dcd3b82360e01b81526001600160a01b0391821660048201527f00000000000000000000000000000000000000000000000000000000000000009091166024820152604401610320565b6002839055600380546001600160a01b038316600160401b026001600160e01b031990911667ffffffffffffffff8516171790556103fb6106fc565b6104435760405163a649dc0f60e01b81526001600160a01b037f0000000000000000000000000000000000000000000000000000000000000000166004820152602401610320565b6003546002547f9577d077d4c8b2b8569837e5fea459039af59339c78cf4e4cce39fa8cdf322df916001600160a01b03600160401b820416919067ffffffffffffffff1661048f61073c565b604080516001600160a01b039586168152602081019490945267ffffffffffffffff9290921683830152909216606082015290519081900360800190a1505050565b7f00000000000000000000000000000000000000000000000000000000000000006001600160a01b031661050361073c565b6001600160a01b0316146105195761037161073c565b6105216106fc565b6105695760405163fb15076b60e01b81526001600160a01b037f0000000000000000000000000000000000000000000000000000000000000000166004820152602401610320565b6001546001600160a01b0316156105ba576001546001600160a01b031661058e6106fc565b6040516312467db160e01b81526001600160a01b03909216600483015215156024820152604401610320565b600180546001600160a01b0319166001600160a01b0392909216919091179055565b6001545f906001600160a01b031661061657600154604051630e604bad60e31b81526001600160a01b039091166004820152602401610320565b61061e61073c565b8360405160200161064d92919060609290921b6bffffffffffffffffffffffff19168252601482015260340190565b60408051601f19818403018152919052805160209091012060015490935061067e906001600160a01b031684610745565b6001600160a01b0381165f8181526020819052604090819020805460ff1916600117905551635417694960e01b81526004810187905260248101859052919250906354176949906044015f604051808303815f87803b1580156106df575f5ffd5b505af11580156106f1573d5f5f3e3d5ffd5b505050509392505050565b5f6002545f1415801561071a575060035467ffffffffffffffff1615155b80156107375750600354600160401b90046001600160a01b031615155b905090565b5f610737610758565b5f6107515f84846107c2565b9392505050565b5f36601480821080159061079457507f00000000000000000000000000000000000000000000000000000000000000006001600160a01b031633145b156107ba576107a736828403815f6108bb565b6107b0916108e2565b60601c9250505090565b339250505090565b5f6c5af43d3d93803e602a57fd5bf36021528260145273602c3d8160093d39f33d3d3d3d363d3d37363d735f52816035600c86f590508061080a5763301164255f526004601cfd5b5f6021529392505050565b6001600160a01b0381168114610829575f5ffd5b50565b5f5f5f6060848603121561083e575f5ffd5b83359250602084013567ffffffffffffffff8116811461085c575f5ffd5b9150604084013561086c81610815565b809150509250925092565b5f60208284031215610887575f5ffd5b813561075181610815565b5f5f5f606084860312156108a4575f5ffd5b505081359360208301359350604090920135919050565b5f5f858511156108c9575f5ffd5b838611156108d5575f5ffd5b5050820193919092039150565b80356bffffffffffffffffffffffff198116906014841015610928576bffffffffffffffffffffffff196bffffffffffffffffffffffff198560140360031b1b82161691505b509291505056fea164736f6c634300081c000a",
	"gitCommit": "npm:@bananapus/suckers-v6@0.0.72",
	"gitDirty": false,
	"history": []
}