{
	"format": "sphinx-sol-ct-artifact-1",
	"address": "0x7903a854ae91eaf635430d120a1a434085cef297",
	"sourceName": "node_modules/@bananapus/suckers-v6/src/JBSuckerRegistry.sol",
	"contractName": "JBSuckerRegistry",
	"chainId": "0xa4b1",
	"abi": [
		{
			"type": "constructor",
			"inputs": [
				{
					"name": "directory",
					"type": "address",
					"internalType": "contract IJBDirectory"
				},
				{
					"name": "permissions",
					"type": "address",
					"internalType": "contract IJBPermissions"
				},
				{
					"name": "prices",
					"type": "address",
					"internalType": "contract IJBPrices"
				},
				{
					"name": "initialOwner",
					"type": "address",
					"internalType": "address"
				},
				{
					"name": "trustedForwarder",
					"type": "address",
					"internalType": "address"
				}
			],
			"stateMutability": "nonpayable"
		},
		{
			"type": "function",
			"name": "DIRECTORY",
			"inputs": [],
			"outputs": [
				{
					"name": "",
					"type": "address",
					"internalType": "contract IJBDirectory"
				}
			],
			"stateMutability": "view"
		},
		{
			"type": "function",
			"name": "MAX_TO_REMOTE_FEE",
			"inputs": [],
			"outputs": [
				{
					"name": "",
					"type": "uint256",
					"internalType": "uint256"
				}
			],
			"stateMutability": "view"
		},
		{
			"type": "function",
			"name": "PERMISSIONS",
			"inputs": [],
			"outputs": [
				{
					"name": "",
					"type": "address",
					"internalType": "contract IJBPermissions"
				}
			],
			"stateMutability": "view"
		},
		{
			"type": "function",
			"name": "PRICES",
			"inputs": [],
			"outputs": [
				{
					"name": "",
					"type": "address",
					"internalType": "contract IJBPrices"
				}
			],
			"stateMutability": "view"
		},
		{
			"type": "function",
			"name": "PROJECTS",
			"inputs": [],
			"outputs": [
				{
					"name": "",
					"type": "address",
					"internalType": "contract IJBProjects"
				}
			],
			"stateMutability": "view"
		},
		{
			"type": "function",
			"name": "allSuckersOf",
			"inputs": [
				{
					"name": "projectId",
					"type": "uint256",
					"internalType": "uint256"
				}
			],
			"outputs": [
				{
					"name": "suckers",
					"type": "address[]",
					"internalType": "address[]"
				}
			],
			"stateMutability": "view"
		},
		{
			"type": "function",
			"name": "allowSuckerDeployer",
			"inputs": [
				{
					"name": "deployer",
					"type": "address",
					"internalType": "address"
				}
			],
			"outputs": [],
			"stateMutability": "nonpayable"
		},
		{
			"type": "function",
			"name": "allowSuckerDeployers",
			"inputs": [
				{
					"name": "deployers",
					"type": "address[]",
					"internalType": "address[]"
				}
			],
			"outputs": [],
			"stateMutability": "nonpayable"
		},
		{
			"type": "function",
			"name": "allowTokenMapping",
			"inputs": [
				{
					"name": "localToken",
					"type": "address",
					"internalType": "address"
				},
				{
					"name": "remoteChainId",
					"type": "uint256",
					"internalType": "uint256"
				},
				{
					"name": "remoteToken",
					"type": "bytes32",
					"internalType": "bytes32"
				}
			],
			"outputs": [],
			"stateMutability": "nonpayable"
		},
		{
			"type": "function",
			"name": "allowTokenMappings",
			"inputs": [
				{
					"name": "localTokens",
					"type": "address[]",
					"internalType": "address[]"
				},
				{
					"name": "remoteChainIds",
					"type": "uint256[]",
					"internalType": "uint256[]"
				},
				{
					"name": "remoteTokens",
					"type": "bytes32[]",
					"internalType": "bytes32[]"
				}
			],
			"outputs": [],
			"stateMutability": "nonpayable"
		},
		{
			"type": "function",
			"name": "deploySuckersFor",
			"inputs": [
				{
					"name": "projectId",
					"type": "uint256",
					"internalType": "uint256"
				},
				{
					"name": "salt",
					"type": "bytes32",
					"internalType": "bytes32"
				},
				{
					"name": "configurations",
					"type": "tuple[]",
					"internalType": "struct JBSuckerDeployerConfig[]",
					"components": [
						{
							"name": "deployer",
							"type": "address",
							"internalType": "contract IJBSuckerDeployer"
						},
						{
							"name": "peer",
							"type": "bytes32",
							"internalType": "bytes32"
						},
						{
							"name": "mappings",
							"type": "tuple[]",
							"internalType": "struct JBTokenMapping[]",
							"components": [
								{
									"name": "localToken",
									"type": "address",
									"internalType": "address"
								},
								{
									"name": "minGas",
									"type": "uint32",
									"internalType": "uint32"
								},
								{
									"name": "remoteToken",
									"type": "bytes32",
									"internalType": "bytes32"
								}
							]
						}
					]
				}
			],
			"outputs": [
				{
					"name": "suckers",
					"type": "address[]",
					"internalType": "address[]"
				}
			],
			"stateMutability": "nonpayable"
		},
		{
			"type": "function",
			"name": "isSuckerOf",
			"inputs": [
				{
					"name": "projectId",
					"type": "uint256",
					"internalType": "uint256"
				},
				{
					"name": "addr",
					"type": "address",
					"internalType": "address"
				}
			],
			"outputs": [
				{
					"name": "",
					"type": "bool",
					"internalType": "bool"
				}
			],
			"stateMutability": "view"
		},
		{
			"type": "function",
			"name": "isTrustedForwarder",
			"inputs": [
				{
					"name": "forwarder",
					"type": "address",
					"internalType": "address"
				}
			],
			"outputs": [
				{
					"name": "",
					"type": "bool",
					"internalType": "bool"
				}
			],
			"stateMutability": "view"
		},
		{
			"type": "function",
			"name": "owner",
			"inputs": [],
			"outputs": [
				{
					"name": "",
					"type": "address",
					"internalType": "address"
				}
			],
			"stateMutability": "view"
		},
		{
			"type": "function",
			"name": "peerChainAccountsOf",
			"inputs": [
				{
					"name": "projectId",
					"type": "uint256",
					"internalType": "uint256"
				},
				{
					"name": "exceptChainId",
					"type": "uint256",
					"internalType": "uint256"
				}
			],
			"outputs": [
				{
					"name": "accounts",
					"type": "tuple[]",
					"internalType": "struct JBChainAccounting[]",
					"components": [
						{
							"name": "chainId",
							"type": "uint256",
							"internalType": "uint256"
						},
						{
							"name": "totalSupply",
							"type": "uint256",
							"internalType": "uint256"
						},
						{
							"name": "contexts",
							"type": "tuple[]",
							"internalType": "struct JBSourceContext[]",
							"components": [
								{
									"name": "token",
									"type": "bytes32",
									"internalType": "bytes32"
								},
								{
									"name": "decimals",
									"type": "uint8",
									"internalType": "uint8"
								},
								{
									"name": "surplus",
									"type": "uint128",
									"internalType": "uint128"
								},
								{
									"name": "balance",
									"type": "uint128",
									"internalType": "uint128"
								}
							]
						},
						{
							"name": "timestamp",
							"type": "uint256",
							"internalType": "uint256"
						}
					]
				}
			],
			"stateMutability": "view"
		},
		{
			"type": "function",
			"name": "remoteTotalSupplyOf",
			"inputs": [
				{
					"name": "projectId",
					"type": "uint256",
					"internalType": "uint256"
				}
			],
			"outputs": [
				{
					"name": "totalSupply",
					"type": "uint256",
					"internalType": "uint256"
				}
			],
			"stateMutability": "view"
		},
		{
			"type": "function",
			"name": "removeDeprecatedSucker",
			"inputs": [
				{
					"name": "projectId",
					"type": "uint256",
					"internalType": "uint256"
				},
				{
					"name": "sucker",
					"type": "address",
					"internalType": "address"
				}
			],
			"outputs": [],
			"stateMutability": "nonpayable"
		},
		{
			"type": "function",
			"name": "removeSuckerDeployer",
			"inputs": [
				{
					"name": "deployer",
					"type": "address",
					"internalType": "address"
				}
			],
			"outputs": [],
			"stateMutability": "nonpayable"
		},
		{
			"type": "function",
			"name": "removeTokenMapping",
			"inputs": [
				{
					"name": "localToken",
					"type": "address",
					"internalType": "address"
				},
				{
					"name": "remoteChainId",
					"type": "uint256",
					"internalType": "uint256"
				},
				{
					"name": "remoteToken",
					"type": "bytes32",
					"internalType": "bytes32"
				}
			],
			"outputs": [],
			"stateMutability": "nonpayable"
		},
		{
			"type": "function",
			"name": "removeTokenMappings",
			"inputs": [
				{
					"name": "localTokens",
					"type": "address[]",
					"internalType": "address[]"
				},
				{
					"name": "remoteChainIds",
					"type": "uint256[]",
					"internalType": "uint256[]"
				},
				{
					"name": "remoteTokens",
					"type": "bytes32[]",
					"internalType": "bytes32[]"
				}
			],
			"outputs": [],
			"stateMutability": "nonpayable"
		},
		{
			"type": "function",
			"name": "renounceOwnership",
			"inputs": [],
			"outputs": [],
			"stateMutability": "nonpayable"
		},
		{
			"type": "function",
			"name": "requireTokenMappingAllowed",
			"inputs": [
				{
					"name": "localToken",
					"type": "address",
					"internalType": "address"
				},
				{
					"name": "remoteChainId",
					"type": "uint256",
					"internalType": "uint256"
				},
				{
					"name": "remoteToken",
					"type": "bytes32",
					"internalType": "bytes32"
				}
			],
			"outputs": [],
			"stateMutability": "view"
		},
		{
			"type": "function",
			"name": "setToRemoteFee",
			"inputs": [
				{
					"name": "fee",
					"type": "uint256",
					"internalType": "uint256"
				}
			],
			"outputs": [],
			"stateMutability": "nonpayable"
		},
		{
			"type": "function",
			"name": "suckerDeployerIsAllowed",
			"inputs": [
				{
					"name": "deployer",
					"type": "address",
					"internalType": "address"
				}
			],
			"outputs": [
				{
					"name": "",
					"type": "bool",
					"internalType": "bool"
				}
			],
			"stateMutability": "view"
		},
		{
			"type": "function",
			"name": "suckerPairsOf",
			"inputs": [
				{
					"name": "projectId",
					"type": "uint256",
					"internalType": "uint256"
				}
			],
			"outputs": [
				{
					"name": "pairs",
					"type": "tuple[]",
					"internalType": "struct JBSuckersPair[]",
					"components": [
						{
							"name": "local",
							"type": "address",
							"internalType": "address"
						},
						{
							"name": "remote",
							"type": "bytes32",
							"internalType": "bytes32"
						},
						{
							"name": "remoteChainId",
							"type": "uint256",
							"internalType": "uint256"
						}
					]
				}
			],
			"stateMutability": "view"
		},
		{
			"type": "function",
			"name": "suckersOf",
			"inputs": [
				{
					"name": "projectId",
					"type": "uint256",
					"internalType": "uint256"
				}
			],
			"outputs": [
				{
					"name": "suckers",
					"type": "address[]",
					"internalType": "address[]"
				}
			],
			"stateMutability": "view"
		},
		{
			"type": "function",
			"name": "toRemoteFee",
			"inputs": [],
			"outputs": [
				{
					"name": "",
					"type": "uint256",
					"internalType": "uint256"
				}
			],
			"stateMutability": "view"
		},
		{
			"type": "function",
			"name": "tokenMappingIsAllowed",
			"inputs": [
				{
					"name": "localToken",
					"type": "address",
					"internalType": "address"
				},
				{
					"name": "remoteChainId",
					"type": "uint256",
					"internalType": "uint256"
				},
				{
					"name": "remoteToken",
					"type": "bytes32",
					"internalType": "bytes32"
				}
			],
			"outputs": [
				{
					"name": "",
					"type": "bool",
					"internalType": "bool"
				}
			],
			"stateMutability": "view"
		},
		{
			"type": "function",
			"name": "totalRemoteBalanceOf",
			"inputs": [
				{
					"name": "projectId",
					"type": "uint256",
					"internalType": "uint256"
				},
				{
					"name": "currency",
					"type": "uint256",
					"internalType": "uint256"
				},
				{
					"name": "decimals",
					"type": "uint256",
					"internalType": "uint256"
				}
			],
			"outputs": [
				{
					"name": "balance",
					"type": "uint256",
					"internalType": "uint256"
				}
			],
			"stateMutability": "view"
		},
		{
			"type": "function",
			"name": "totalRemoteSurplusOf",
			"inputs": [
				{
					"name": "projectId",
					"type": "uint256",
					"internalType": "uint256"
				},
				{
					"name": "currency",
					"type": "uint256",
					"internalType": "uint256"
				},
				{
					"name": "decimals",
					"type": "uint256",
					"internalType": "uint256"
				}
			],
			"outputs": [
				{
					"name": "surplus",
					"type": "uint256",
					"internalType": "uint256"
				}
			],
			"stateMutability": "view"
		},
		{
			"type": "function",
			"name": "transferOwnership",
			"inputs": [
				{
					"name": "newOwner",
					"type": "address",
					"internalType": "address"
				}
			],
			"outputs": [],
			"stateMutability": "nonpayable"
		},
		{
			"type": "function",
			"name": "trustedForwarder",
			"inputs": [],
			"outputs": [
				{
					"name": "",
					"type": "address",
					"internalType": "address"
				}
			],
			"stateMutability": "view"
		},
		{
			"type": "event",
			"name": "OwnershipTransferred",
			"inputs": [
				{
					"name": "previousOwner",
					"type": "address",
					"indexed": true,
					"internalType": "address"
				},
				{
					"name": "newOwner",
					"type": "address",
					"indexed": true,
					"internalType": "address"
				}
			],
			"anonymous": false
		},
		{
			"type": "event",
			"name": "SuckerDeployedFor",
			"inputs": [
				{
					"name": "projectId",
					"type": "uint256",
					"indexed": false,
					"internalType": "uint256"
				},
				{
					"name": "sucker",
					"type": "address",
					"indexed": false,
					"internalType": "address"
				},
				{
					"name": "configuration",
					"type": "tuple",
					"indexed": false,
					"internalType": "struct JBSuckerDeployerConfig",
					"components": [
						{
							"name": "deployer",
							"type": "address",
							"internalType": "contract IJBSuckerDeployer"
						},
						{
							"name": "peer",
							"type": "bytes32",
							"internalType": "bytes32"
						},
						{
							"name": "mappings",
							"type": "tuple[]",
							"internalType": "struct JBTokenMapping[]",
							"components": [
								{
									"name": "localToken",
									"type": "address",
									"internalType": "address"
								},
								{
									"name": "minGas",
									"type": "uint32",
									"internalType": "uint32"
								},
								{
									"name": "remoteToken",
									"type": "bytes32",
									"internalType": "bytes32"
								}
							]
						}
					]
				},
				{
					"name": "caller",
					"type": "address",
					"indexed": false,
					"internalType": "address"
				}
			],
			"anonymous": false
		},
		{
			"type": "event",
			"name": "SuckerDeployerAllowed",
			"inputs": [
				{
					"name": "deployer",
					"type": "address",
					"indexed": false,
					"internalType": "address"
				},
				{
					"name": "caller",
					"type": "address",
					"indexed": false,
					"internalType": "address"
				}
			],
			"anonymous": false
		},
		{
			"type": "event",
			"name": "SuckerDeployerRemoved",
			"inputs": [
				{
					"name": "deployer",
					"type": "address",
					"indexed": false,
					"internalType": "address"
				},
				{
					"name": "caller",
					"type": "address",
					"indexed": false,
					"internalType": "address"
				}
			],
			"anonymous": false
		},
		{
			"type": "event",
			"name": "SuckerDeprecated",
			"inputs": [
				{
					"name": "projectId",
					"type": "uint256",
					"indexed": false,
					"internalType": "uint256"
				},
				{
					"name": "sucker",
					"type": "address",
					"indexed": false,
					"internalType": "address"
				},
				{
					"name": "caller",
					"type": "address",
					"indexed": false,
					"internalType": "address"
				}
			],
			"anonymous": false
		},
		{
			"type": "event",
			"name": "ToRemoteFeeChanged",
			"inputs": [
				{
					"name": "oldFee",
					"type": "uint256",
					"indexed": false,
					"internalType": "uint256"
				},
				{
					"name": "newFee",
					"type": "uint256",
					"indexed": false,
					"internalType": "uint256"
				},
				{
					"name": "caller",
					"type": "address",
					"indexed": false,
					"internalType": "address"
				}
			],
			"anonymous": false
		},
		{
			"type": "event",
			"name": "TokenMappingAllowed",
			"inputs": [
				{
					"name": "localToken",
					"type": "address",
					"indexed": false,
					"internalType": "address"
				},
				{
					"name": "remoteChainId",
					"type": "uint256",
					"indexed": false,
					"internalType": "uint256"
				},
				{
					"name": "remoteToken",
					"type": "bytes32",
					"indexed": false,
					"internalType": "bytes32"
				},
				{
					"name": "caller",
					"type": "address",
					"indexed": false,
					"internalType": "address"
				}
			],
			"anonymous": false
		},
		{
			"type": "event",
			"name": "TokenMappingRemoved",
			"inputs": [
				{
					"name": "localToken",
					"type": "address",
					"indexed": false,
					"internalType": "address"
				},
				{
					"name": "remoteChainId",
					"type": "uint256",
					"indexed": false,
					"internalType": "uint256"
				},
				{
					"name": "remoteToken",
					"type": "bytes32",
					"indexed": false,
					"internalType": "bytes32"
				},
				{
					"name": "caller",
					"type": "address",
					"indexed": false,
					"internalType": "address"
				}
			],
			"anonymous": false
		},
		{
			"type": "error",
			"name": "JBPermissioned_Unauthorized",
			"inputs": [
				{
					"name": "account",
					"type": "address",
					"internalType": "address"
				},
				{
					"name": "sender",
					"type": "address",
					"internalType": "address"
				},
				{
					"name": "projectId",
					"type": "uint256",
					"internalType": "uint256"
				},
				{
					"name": "permissionId",
					"type": "uint256",
					"internalType": "uint256"
				}
			]
		},
		{
			"type": "error",
			"name": "JBSuckerRegistry_FeeExceedsMax",
			"inputs": [
				{
					"name": "fee",
					"type": "uint256",
					"internalType": "uint256"
				},
				{
					"name": "max",
					"type": "uint256",
					"internalType": "uint256"
				}
			]
		},
		{
			"type": "error",
			"name": "JBSuckerRegistry_InvalidDeployer",
			"inputs": [
				{
					"name": "deployer",
					"type": "address",
					"internalType": "contract IJBSuckerDeployer"
				}
			]
		},
		{
			"type": "error",
			"name": "JBSuckerRegistry_SuckerDoesNotBelongToProject",
			"inputs": [
				{
					"name": "projectId",
					"type": "uint256",
					"internalType": "uint256"
				},
				{
					"name": "sucker",
					"type": "address",
					"internalType": "address"
				}
			]
		},
		{
			"type": "error",
			"name": "JBSuckerRegistry_SuckerIsNotDeprecated",
			"inputs": [
				{
					"name": "sucker",
					"type": "address",
					"internalType": "address"
				},
				{
					"name": "suckerState",
					"type": "uint8",
					"internalType": "enum JBSuckerState"
				}
			]
		},
		{
			"type": "error",
			"name": "JBSuckerRegistry_TokenMappingLengthMismatch",
			"inputs": [
				{
					"name": "localTokenCount",
					"type": "uint256",
					"internalType": "uint256"
				},
				{
					"name": "remoteChainIdCount",
					"type": "uint256",
					"internalType": "uint256"
				},
				{
					"name": "remoteTokenCount",
					"type": "uint256",
					"internalType": "uint256"
				}
			]
		},
		{
			"type": "error",
			"name": "JBSuckerRegistry_TokenMappingNotAllowed",
			"inputs": [
				{
					"name": "localToken",
					"type": "address",
					"internalType": "address"
				},
				{
					"name": "remoteChainId",
					"type": "uint256",
					"internalType": "uint256"
				},
				{
					"name": "remoteToken",
					"type": "bytes32",
					"internalType": "bytes32"
				}
			]
		},
		{
			"type": "error",
			"name": "JBSuckerRegistry_ZeroPeerChainId",
			"inputs": [
				{
					"name": "sucker",
					"type": "address",
					"internalType": "address"
				}
			]
		},
		{
			"type": "error",
			"name": "OwnableInvalidOwner",
			"inputs": [
				{
					"name": "owner",
					"type": "address",
					"internalType": "address"
				}
			]
		},
		{
			"type": "error",
			"name": "OwnableUnauthorizedAccount",
			"inputs": [
				{
					"name": "account",
					"type": "address",
					"internalType": "address"
				}
			]
		},
		{
			"type": "error",
			"name": "PRBMath_MulDiv_Overflow",
			"inputs": [
				{
					"name": "x",
					"type": "uint256",
					"internalType": "uint256"
				},
				{
					"name": "y",
					"type": "uint256",
					"internalType": "uint256"
				},
				{
					"name": "denominator",
					"type": "uint256",
					"internalType": "uint256"
				}
			]
		}
	],
	"args": [
		"0x5AfF29060E023e6FB87BE5596652B33c65Af535B",
		"0xf92AC1aB5A00033E35a3975739124F61928C36B0",
		"0xad45E4627f068d1e6b21E5301870d807543a8401",
		"0x4dc161eF837fF1C4485b08DDFcDB182F2157bE18",
		"0x3bA60b60933916a7C87D0860DcEE62a0CE34E3e2"
	],
	"solcInputHash": "4a86066074beb6264300ffa3d6027c11",
	"bytecode": "0x61012080604052346101be5760a081613284803803809161002082856101e8565b8339810103126101be5780516001600160a01b038116908181036101be576020830151926001600160a01b03841684036101be576040810151906001600160a01b03821682036101be57610082608061007b6060840161021f565b920161021f565b6080526001600160a01b03169182156101d5575f80546001600160a01b03198116851782556040519660209688966004968896929590949293926001600160a01b0316907f8be0079c531659141344cd1fd0a4f28419497f9722a3daafe3b4186f6b6457e09080a360a05260c05260e05263293c499960e01b82525afa9081156101ca575f91610184575b506101005266038d7ea4c6800060035560405161305090816102348239608051818181610e020152818161142b01526126ef015260a05181818161021f0152818161088301526109f6015260c05181610d33015260e0518181816119b70152612e550152610100518181816104c001526118f80152f35b90506020813d6020116101c2575b8161019f602093836101e8565b810103126101be57516001600160a01b03811681036101be575f61010d565b5f80fd5b3d9150610192565b6040513d5f823e3d90fd5b631e4fbdf760e01b5f525f60045260245ffd5b601f909101601f19168101906001600160401b0382119082101761020b57604052565b634e487b7160e01b5f52604160045260245ffd5b51906001600160a01b03821682036101be5756fe60806040526004361015610011575f80fd5b5f3560e01c806303827e8d14611f5c57806315087c9f14611ee4578063153bb1bb14611e7b57806318ed7c36146119e65780631eabcd34146119a25780632619901f14611927578063293c4999146118e3578063314fcc381461176957806338d8d468146116335780633d12cb87146114ec57806342115915146114cf57806349ad63cd1461145f578063572b6c051461140b5780635d6f1fc5146111a257806365837211146110c7578063669745a5146110035780636849070614610f0a578063715018a614610eb35780637c8c29b214610e315780637da0a87714610ded57806382a70d1114610dcc57806383db9d0114610d6257806388bc2ef314610d1e5780638bab909c14610cd85780638da5cb5b14610cb15780639cedad4814610ab45780639d7f900114610470578063a1031a4f14610433578063c458ae82146102d3578063f2fde38b1461024e578063f434c9141461020a5763f73ac20f14610179575f80fd5b34610206576020366003190112610206577f47459529aa21b5f8615a27cd523fad12250733748e422c3eada707a36d3c49bc6101b3611f75565b6101bb612364565b60018060a01b0381165f52600160205260405f20600160ff198254161790556101e26126c4565b604080516001600160a01b039384168152929091166020830152819081015b0390a1005b5f80fd5b34610206575f366003190112610206576040517f00000000000000000000000000000000000000000000000000000000000000006001600160a01b03168152602090f35b3461020657602036600319011261020657610267611f75565b61026f612364565b6001600160a01b031680156102c0575f80546001600160a01b03198116831782556001600160a01b0316907f8be0079c531659141344cd1fd0a4f28419497f9722a3daafe3b4186f6b6457e09080a3005b631e4fbdf760e01b5f525f60045260245ffd5b34610206576102e136611fcb565b90915f92815f52600460205260405f2090604051808360208295549384815201905f5260205f20925f5b81811061041a5750506103209250038361213d565b61033361032c83612423565b90506125e3565b9360405191610341836120f3565b84835260208301526040820152600160608201528151925f5b8481106103a0575f6080870160208801895b82518410156103955761038d60019161038686855161220f565b519061229b565b93019261036c565b602090604051908152f35b5f828152600460205260409020600191906103cf906001600160a01b036103c7848961220f565b51169061271d565b9050848382148092811561040f575b506103ec575b50500161035a565b61040891848060a01b03610400858a61220f565b51168a6128a4565b88846103e4565b60029150148b6103de565b845483526001948501948794506020909301920161030b565b34610206576020366003190112610206576001600160a01b03610454611f75565b165f526001602052602060ff60405f2054166040519015158152f35b34610206576060366003190112610206576004356044356001600160401b038111610206576104a3903690600401612027565b6040516331a9108f60e11b815260048101849052906020826024817f00000000000000000000000000000000000000000000000000000000000000006001600160a01b03165afa91821561079f575f92610a70575b506105016126c4565b6001600160a01b03928316921680831415806109b6575b61098b57509161052783612175565b936105306126c4565b604080516001600160a01b0390921660208301818152602435848401529183529161055c60608261213d565b5190209236819003605e1901905f5b87811015610979578060051b82013583811215610206578201906060823603126102065760405161059b81612122565b82356001600160a01b03811681036102065781526020810192602081013584526040810135906001600160401b03821161020657019036601f830112156102065781356105e78161215e565b926105f5604051948561213d565b8184526020606081860193028201019036821161020657602001915b81831061091c57505050604081810192835281516001600160a01b03165f9081526001602052205460ff16156108fc5783516107f3575b60018060a01b0381511660208a60648b5f895195604051968795869463e4ea608b60e01b86526004860152602485015260448401525af190811561079f5784918e915f916107aa575b508061069f6106b192612564565b506001600160a01b031692839261220f565b52885f5260046020526106d88160405f20815f5260028101602052600160405f2055612d9e565b50825192813b15610206575f610709946040518096819262a6e15360e11b83526020600484015260248301906122a8565b038183865af190811561079f576001967f4d33ed88848a039f44d3828ced48c3992796e9af4f90e48c5ff6f3d0ca1f4e21956107809361078f575b506040519485948d8652602086015260806040860152888060a01b0390511660808501525160a084015251606060c084015260e08301906122a8565b8860608301520390a10161056b565b5f6107999161213d565b5f610744565b6040513d5f823e3d90fd5b925050506020813d82116107eb575b816107c66020938361213d565b8101031261020657516001600160a01b0381168103610206578c6106b1859290610691565b3d91506107b9565b6001600160a01b036108036126c4565b168a81141580610843575b6108185750610648565b8a8960849260405192631326f75560e11b845260048401526024830152604482015260226064820152fd5b50604051631a45b42760e11b815260048101829052602481018c9052604481018a90526022606482015260016084820181905260a482015260208160c4817f00000000000000000000000000000000000000000000000000000000000000006001600160a01b03165afa90811561079f575f916108c2575b501561080e565b90506020813d82116108f4575b816108dc6020938361213d565b8101031261020657518015158103610206578e6108bb565b3d91506108cf565b51632223f10160e01b5f9081526001600160a01b03909116600452602490fd5b606083360312610206576040519061093382612122565b83356001600160a01b038116810361020657825260208401359063ffffffff82168203610206578260209283606095015260408601356040820152815201920191610611565b604051806109878b82611fe5565b0390f35b828560849260405192631326f75560e11b845260048401526024830152604482015260216064820152fd5b50604051631a45b42760e11b81526004810182905260248101849052604481018690526021606482015260016084820181905260a482015260208160c4817f00000000000000000000000000000000000000000000000000000000000000006001600160a01b03165afa90811561079f575f91610a35575b5015610518565b90506020813d602011610a68575b81610a506020938361213d565b81010312610206575180151581036102065786610a2e565b3d9150610a43565b9091506020813d602011610aac575b81610a8c6020938361213d565b8101031261020657516001600160a01b03811681036102065790846104f8565b3d9150610a7f565b34610206576020366003190112610206576004355f815f52600460205260405f20916040519081602085549182815201945f5260205f20905f5b818110610c9b57505050610b0882610b199495038361213d565b610b1182612423565b9390936125e3565b928251915f5b838110610b53575f6080870160208801895b825184101561039557610b4b60019161038686855161220f565b930192610b31565b5f828152600460205260409020610b76906001600160a01b036103c7848961220f565b90506001811480918115610c90575b50610b94575b50600101610b1f565b610b9e828561220f565b51908151905f5b828110610bb457505050610b8b565b6001600160a01b03610bc6868b61220f565b5116906060610bd5828761220f565b51602460405180958193632ef2741d60e11b835260048301525afa838c825f93610c36575b60019550610c0c575b50505001610ba5565b610c29928d610c218b888060a01b039261220f565b511691612653565b60808c01528c838c610c03565b925050506060833d8211610c88575b81610c526060938361213d565b8101031261020657838c6001946040805191610c6d83612122565b80518352602081015160208401520151604082015292610bfa565b3d9150610c45565b600291501489610b85565b8254875260209096019560019283019201610aee565b34610206575f366003190112610206575f546040516001600160a01b039091168152602090f35b3461020657610ce636611fa1565b9160018060a01b03165f52600260205260405f20905f5260205260405f20905f52602052602060ff60405f2054166040519015158152f35b34610206575f366003190112610206576040517f00000000000000000000000000000000000000000000000000000000000000006001600160a01b03168152602090f35b34610206576040366003190112610206576020610d9c610d80611f8b565b6004355f526004835260405f209060018060a01b03169061271d565b81610dad575b506040519015158152f35b6001811491508115610dc1575b5082610da2565b600291501482610dba565b34610206575f36600319011261020657602060405166038d7ea4c680008152f35b34610206575f366003190112610206576040517f00000000000000000000000000000000000000000000000000000000000000006001600160a01b03168152602090f35b34610206577fefbe07504a1d8c30722ede729d872a0bfc11ab7801a00c8209aaecda3873cd35610201610e6336611fa1565b610e6e939193612364565b60018060a01b0383165f52600260205260405f20845f5260205260405f20815f5260205260405f2060ff198154169055610ea66126c4565b90604051948594856120c9565b34610206575f36600319011261020657610ecb612364565b5f80546001600160a01b0319811682556001600160a01b03167f8be0079c531659141344cd1fd0a4f28419497f9722a3daafe3b4186f6b6457e08280a3005b3461020657610f1836612057565b92909194610f24612364565b858514801590610ff9575b610fde57610f3b6126c4565b5f5b868110610f4657005b807fefbe07504a1d8c30722ede729d872a0bfc11ab7801a00c8209aaecda3873cd35610f7d610f786001948b88612277565b612287565b610f88838c89612277565b3590610fd586610f99868d8d612277565b35878060a01b0384165f52600260205260405f20855f5260205260405f20815f5260205260405f2060ff198154169055604051948594856120c9565b0390a101610f3d565b8386866396881e0b60e01b5f5260045260245260445260645ffd5b5083851415610f2f565b34610206576020366003190112610206576004356001600160401b03811161020657611033903690600401612027565b61103b612364565b6110436126c4565b905f5b81811061104f57005b807f47459529aa21b5f8615a27cd523fad12250733748e422c3eada707a36d3c49bc84611082610f78600195878a612277565b60a085901b85900381165f9081526020868152604091829020805460ff19168817905581516001600160a01b039384168152939092169183019190915290a101611046565b34610206576110d536612057565b929091946110e1612364565b858514801590611198575b610fde576110f86126c4565b5f5b86811061110357005b807f1ffedd7ad78a12eb26db9059c1c84d811a87fd5ddf5121fa3c18a6db9fe10f0a611135610f786001948b88612277565b611140838c89612277565b359061118f86611151868d8d612277565b35878060a01b0384165f52600260205260405f20855f5260205260405f20815f5260205260405f208860ff19825416179055604051948594856120c9565b0390a1016110fa565b50838514156110ec565b3461020657602036600319011261020657600435805f52600460205260405f2090604051808360208295549384815201905f5260205f20925f5b8181106113f25750506111f19250038361213d565b5f5f5b8351811015611247575f838152600460205260409020600190611223906001600160a01b036103c7858961220f565b905014611233575b6001016111f4565b9061123f600191612237565b91905061122b565b506112518161215e565b9061125f604051928361213d565b80825261126e601f199161215e565b015f5b8181106113db5750505f925f5b8151811015611374575f8481526004602052604090206001906112ad906001600160a01b036103c7858761220f565b9050146112bd575b60010161127e565b936001600160a01b036112d0868461220f565b5116906040516311cda41560e01b8152602081600481865afa90811561079f575f91611340575b5060019283929161130782612564565b906040519261131584612122565b83526020830152604082015261132b828761220f565b52611336818661220f565b50019490506112b5565b9190506020823d821161136c575b8161135b6020938361213d565b8101031261020657905160016112f7565b3d915061134e565b826040518091602082016020835281518091526020604084019201905f5b8181106113a0575050500390f35b825180516001600160a01b03168552602081810151818701526040918201519186019190915286955060609094019390920191600101611392565b6020906113e6612259565b82828601015201611271565b84548352600194850194879450602090930192016111dc565b34610206576020366003190112610206576020611426611f75565b6040517f00000000000000000000000000000000000000000000000000000000000000006001600160a01b039081169216919091148152f35b34610206576020366003190112610206576004355f52600460205260405f206040519081602082549182815201915f5260205f20905f5b8181106114b957610987856114ad8187038261213d565b60405191829182611fe5565b8254845260209093019260019283019201611496565b34610206575f366003190112610206576020600354604051908152f35b3461020657602036600319011261020657600435805f52600460205260405f2090604051808360208295549384815201905f5260205f20925f5b81811061161a57505061153b9250038361213d565b5f5f5b8351811015611591575f83815260046020526040902060019061156d906001600160a01b036103c7858961220f565b90501461157d575b60010161153e565b90611589600191612237565b919050611575565b5061159b90612175565b915f5f5b825181101561160c575f8481526004602052604090206001906115ce906001600160a01b036103c7858861220f565b9050146115de575b60010161159f565b9060019081906001600160a01b036115f6858761220f565b5116611602828961220f565b52019190506115d6565b604051806109878782611fe5565b8454835260019485019487945060209093019201611526565b346102065761164136611fcb565b90915f92815f52600460205260405f2090604051808360208295549384815201905f5260205f20925f5b8181106117505750506116809250038361213d565b61168c61032c83612423565b936040519161169a836120f3565b848352602083015260408201525f60608201528151925f5b8481106116e6575f6080870160208801895b8251841015610395576116de60019161038686855161220f565b9301926116c4565b5f8281526004602052604090206001919061170d906001600160a01b036103c7848961220f565b90508483821480928115611745575b5061172a575b5050016116b2565b61173e91848060a01b03610400858a61220f565b8884611722565b60029150148b61171c565b845483526001948501948794506020909301920161166b565b3461020657604036600319011261020657600435611785611f8b565b815f5260046020526117a460405f209160018060a01b0316809261271d565b90159081156118d7575b506118c15760405163c19d93fb60e01b8152602081600481855afa90811561079f575f91611886575b506004811015611872576003810361185c577fa0598050070757d3cfb55dc6d3bd9f6ac70f5c9e58e5aa29392a9b9c9cf28ef060608484815f5260046020526118348160405f20815f5260028101602052600260405f2055612d9e565b5061183d6126c4565b6040805193845260208401929092526001600160a01b031690820152a1005b90631cc4a14360e21b5f5260045260245260445ffd5b634e487b7160e01b5f52602160045260245ffd5b90506020813d6020116118b9575b816118a16020938361213d565b810103126102065751600481101561020657836117d7565b3d9150611894565b90632597d62b60e11b5f5260045260245260445ffd5b600191501415836117ae565b34610206575f366003190112610206576040517f00000000000000000000000000000000000000000000000000000000000000006001600160a01b03168152602090f35b3461020657602036600319011261020657600435611943612364565b66038d7ea4c6800081116119855760607fed0c8698cb5519551727d3ccdbc62c9fa71d374e3b1b31306619be2caedc50fc91600354908060035561183d6126c4565b6305c0156d60e31b5f5260045266038d7ea4c6800060245260445ffd5b34610206575f366003190112610206576040517f00000000000000000000000000000000000000000000000000000000000000006001600160a01b03168152602090f35b3461020657604036600319011261020657600435602435815f52600460205260405f20604051808260208294549384815201905f5260205f20925f5b818110611e62575050611a379250038261213d565b611a4081612423565b939050611a4c84612175565b92611a5f611a59866121a7565b95612175565b60405194611a6c866120f3565b855260208501958652604085015260608401935f85528351925f5b848110611bba578787611a9a81516121a7565b915f5b8251811015611ad15780611ab4600192845161220f565b51611abf828761220f565b52611aca818661220f565b5001611a9d565b836040518091602082016020835281518091526040830190602060408260051b8601019301915f905b828210611b0957505050500390f35b919390929450603f1986820301825284519060808101918051825260208101516020830152604081015192608060408401528351809152602060a084019401905f905b808210611b7657505050600192602092606080859401519101529601920192018594939192611afa565b909194602060806001926001600160801b0360608a518051845260ff8682015116868501528260408201511660408501520151166060820152019601920190611b4c565b5f828152600460205260409020611bdd906001600160a01b036103c7848a61220f565b90506001811480918115611e57575b50611bfb575b50600101611a87565b6004905f6001600160a01b03611c11858b61220f565b511660405193848092632720ad6b60e11b82525afa5f9281611cb9575b50611c3a575b50611bf2565b8151915f5b838110611c4d575050611c34565b8088611c5b6001938561220f565b5151141580611ca4575b80611c90575b611c76575b01611c3f565b611c8b84611c84838661220f565b518a61275d565b611c70565b50611c9b818461220f565b51511515611c6b565b50611caf818461220f565b5151461415611c65565b9092503d805f833e611ccb818361213d565b810190602081830312610206578051906001600160401b038211610206570181601f8201121561020657805190611d018261215e565b92611d0f604051948561213d565b82845260208085019360051b830101918183116102065760208101935b838510611d3f575050505050918b611c2e565b84516001600160401b0381116102065782016080818503601f1901126102065760405190611d6c826120f3565b602081015182526040810151602083015260608101516001600160401b0381116102065760209082010185601f82011215610206578051611dac8161215e565b91611dba604051938461213d565b81835260208084019260071b8201019088821161020657602001915b818310611dfc575050506040830152608001516060820152815260209485019401611d2c565b6080838a0312610206576020608091604051611e17816120f3565b85518152611e26838701612542565b83820152611e3660408701612550565b6040820152611e4760608701612550565b6060820152815201920191611dd6565b60029150148a611bec565b8454835260019485019486945060209093019201611a22565b34610206576020366003190112610206577f1b9942be0c71843c19753c9070512cdce46255a7bf38934a6175b1a684950b94611eb5611f75565b611ebd612364565b6001600160a01b0381165f908152600160205260409020805460ff191690556101e26126c4565b34610206577f1ffedd7ad78a12eb26db9059c1c84d811a87fd5ddf5121fa3c18a6db9fe10f0a610201611f1636611fa1565b611f21939193612364565b60018060a01b0383165f52600260205260405f20845f5260205260405f20815f5260205260405f20600160ff19825416179055610ea66126c4565b3461020657611f73611f6d36611fa1565b91612303565b005b600435906001600160a01b038216820361020657565b602435906001600160a01b038216820361020657565b6060906003190112610206576004356001600160a01b038116810361020657906024359060443590565b606090600319011261020657600435906024359060443590565b60206040818301928281528451809452019201905f5b8181106120085750505090565b82516001600160a01b0316845260209384019390920191600101611ffb565b9181601f84011215610206578235916001600160401b038311610206576020808501948460051b01011161020657565b6060600319820112610206576004356001600160401b038111610206578161208191600401612027565b929092916024356001600160401b03811161020657816120a391600401612027565b92909291604435906001600160401b038211610206576120c591600401612027565b9091565b6001600160a01b039182168152602081019290925260408201929092529116606082015260800190565b608081019081106001600160401b0382111761210e57604052565b634e487b7160e01b5f52604160045260245ffd5b606081019081106001600160401b0382111761210e57604052565b90601f801991011681019081106001600160401b0382111761210e57604052565b6001600160401b03811161210e5760051b60200190565b9061217f8261215e565b61218c604051918261213d565b828152809261219d601f199161215e565b0190602036910137565b906121b18261215e565b6121be604051918261213d565b82815280926121cf601f199161215e565b01905f5b8281106121df57505050565b6020906040516121ee816120f3565b5f81525f83820152606060408201525f6060820152828285010152016121d3565b80518210156122235760209160051b010190565b634e487b7160e01b5f52603260045260245ffd5b5f1981146122455760010190565b634e487b7160e01b5f52601160045260245ffd5b6040519061226682612122565b5f6040838281528260208201520152565b91908110156122235760051b0190565b356001600160a01b03811681036102065790565b9190820180921161224557565b90602080835192838152019201905f5b8181106122c55750505090565b825180516001600160a01b0316855260208181015163ffffffff168187015260409182015191860191909152606090940193909201916001016122b8565b61230d8382612698565b61235f5760018060a01b0316805f52600260205260405f20825f5260205260405f20835f5260205260ff60405f2054161561234757505050565b63c3fcbba160e01b5f5260045260245260445260645ffd5b505050565b5f546001600160a01b039081169061237a6126c4565b160361238257565b61238a6126c4565b63118cdaa760e01b5f9081526001600160a01b0391909116600452602490fd5b602081830312610206578051906001600160401b03821161020657019080601f830112156102065781516123dd8161215e565b926123eb604051948561213d565b81845260208085019260051b82010192831161020657602001905b8282106124135750505090565b8151815260209182019101612406565b905f9082516124318161215e565b61243e604051918261213d565b818152601f1961244d8361215e565b015f5b81811061253157505080945f5b83811061246a5750505050565b60245f6001600160a01b0361247f848661220f565b51166040519283809263f134654360e01b8252600160048301525afa5f918161250d575b506124e157506001906020604051906124bc818361213d565b5f8252505f3681376124ce828661220f565b526124d9818561220f565b505b0161245d565b819681612507926124f46001958861220f565b526124ff898761220f565b50519061229b565b956124db565b61252a9192503d805f833e612522818361213d565b8101906123aa565b905f6124a3565b806060602080938601015201612450565b519060ff8216820361020657565b51906001600160801b038216820361020657565b6040516366fe775d60e11b815291906001600160a01b0316602083600481845afa92831561079f575f936125af575b50821561259d5750565b63d061d06f60e01b5f5260045260245ffd5b9092506020813d6020116125db575b816125cb6020938361213d565b810103126102065751915f612593565b3d91506125be565b906040519160a083018381106001600160401b0382111761210e576040526060835261264f60208401916060835260408501606081526060860193606085525f60808801528661263284612175565b905261263d83612175565b905261264882612175565b9052612175565b9052565b90939291936020810180511561267a57612677949550516040825192015192612967565b90565b63d061d06f60e01b5f9081526001600160a01b038716600452602490fd5b81156126bd5760018060a01b031661eeee81141591826126b757505090565b14919050565b5050600190565b6014361015806126eb575b156126e7576013193601368111610206573560601c90565b3390565b50337f00000000000000000000000000000000000000000000000000000000000000006001600160a01b0316146126cf565b9190805f526002830160205260405f20549283155f14612755576127509293506001915f520160205260405f2054151590565b905f90565b505060019190565b905f5b60608301518110156128565761277781845161220f565b5182511461278757600101612760565b91921561280257906127be918382604060019601926127a782855161220f565b511580156127e3575b6127c1575b5050505161220f565b52565b60206127da930151906127d4838361220f565b5261220f565b505f82816127b5565b50606081015160606127f984602087015161220f565b510151106127b0565b61281082604085015161220f565b511580612837575b61282157505050565b6020612834930151906127d4838361220f565b50565b506060810151606061284d84602087015161220f565b51015110612818565b50919060406128969161288b855195825196612878606085019889519061220f565b5260208301518751916127d4838361220f565b50015183519061220f565b901515905260018151019052565b60405163f134654360e01b8152600160048201529092905f816024816001600160a01b0387165afa5f918161294b575b506128e0575050505050565b938451945f5b8681106128f65750505050505050565b8085856129246129086001958761220f565b518751602089015160408a01519160608b015115159387612b67565b9290612934575b505050016128e6565b61293e928a612653565b60808801525f858761292b565b6129609192503d805f833e612522818361213d565b905f6128d4565b929190928480612b5f575b80612b57575b612b4b575f5b608082018051821015612af4578561299783855161220f565b51146129a6575060010161297e565b959394509215612a5b5790600193828460606129e9969501936129ca82865161220f565b51158015612a44575b8015612a15575b6129ee575b505050505161220f565b525190565b82604091612a03846020612a0b97015161220f565b52015161220f565b525f8083816129df565b50612a2482604085015161220f565b51841480156129da5750612a3c82602085015161220f565b5181116129da565b50612a5382604085015161220f565b5184116129d3565b9190612a6b82606085015161220f565b511580612a9f575b612a80575b505050505190565b82604091612a03846020612a9597015161220f565b525f808080612a78565b506040830182612ab081835161220f565b518611918215612ac2575b5050612a73565b612acd92505161220f565b51841480612add575b825f612abb565b50612aec82602085015161220f565b518111612ad6565b505060609060019593612b4193825196612b14608085019889519061220f565b52612b25602084015188519061220f565b52612b36604083015187519061220f565b52015183519061220f565b9015159052510190565b60800151949350505050565b508115612978565b508215612972565b9395949091612b74612259565b9660245f606097604051928380926322c9cc0f60e01b825289600483015260018060a01b03165afa5f97889282612caa575b5050612bb857505050505050505f9190565b805197985f9895968996959194939290915b868810612bf757505050505050505060405192612be684612122565b835260208301526040820152600191565b9091929394959699612c52868686868f875f14612c85576001600160801b0360ff6020612c4763ffffffff612c3d86866040612c33838c61220f565b510151169861220f565b515116948d61220f565b510151169216612e08565b919015612c7357600191612c659161229b565b9a0196959493929190612bca565b505050505050509493505050505f9190565b6001600160801b0360ff6020612c4763ffffffff612c3d86866060612c33838c61220f565b91985091503d805f833e612cbe818361213d565b8101916040828403126102065781516001600160401b03811161020657820183601f82011215610206578051612cf38161215e565b94612d01604051968761213d565b81865260208087019260071b8401019281841161020657602001915b838310612d3557505050505060200151965f80612ba6565b6080838303126102065760405190612d4c826120f3565b83519063ffffffff82168203610206578260209260809452612d6f838701612542565b83820152612d7f60408701612550565b6040820152612d8f888701612550565b88820152815201920191612d1d565b5f828152600182016020526040902054612df4578054906801000000000000000082101561210e57600182018082558210156122235782600192825f5260205f2001558054925f520160205260405f2055600190565b50505f90565b604d811161224557600a0a90565b9094939091818103612ef9575050925b8380158015612ef0575b612ee45750604051631df139fd60e11b8152600481019390935260248301526044820152601260648201526020816084817f00000000000000000000000000000000000000000000000000000000000000006001600160a01b03165afa5f9181612eb0575b50612e945750505f905f90565b8015612ea857612ea391612f85565b600191565b50505f905f90565b9091506020813d602011612edc575b81612ecc6020938361213d565b810103126102065751905f612e87565b3d9150612ebf565b94935050505060019190565b50828214612e22565b612f0292612f33565b92612e18565b9190820391821161224557565b8115612f1f570490565b634e487b7160e01b5f52601260045260245ffd5b91818103612f4057505090565b81811115612f6e57612f5a91612f5591612f08565b612dfa565b908181029181830414901517156122455790565b612f55612f7f916126779493612f08565b90612f15565b5f19670de0b6b3a7640000820991670de0b6b3a7640000820291828085109403938085039414613037578184101561301657670de0b6b3a7640000829109600182190182168092046002816003021880820260020302808202600203028082026002030280820260020302808202600203028091026002030293600183805f03040190848311900302920304170290565b630c740aef60e31b5f52600452670de0b6b3a764000060245260445260645ffd5b50906126779250612f1556fea164736f6c634300081c000a",
	"gitCommit": "npm:@bananapus/suckers-v6@1.0.2",
	"gitDirty": false,
	"history": []
}